:400000000080002011000000A9020000A9020000044A08B51268044B1A6000F0ADF900F04BF900BFFA460040BC76004010B5054C237833B9044B13B10448AFF300800123AE
:40004000237010BD4881FF1F000000001C170000084B10B51BB108490848AFF300800848036803B910BD074B002BFBD0BDE81040184700BF000000004C81FF1F1C170000A2
:40008000C880FF1F0000000008B500F077FDFEE7F8B572B66D4E0024354604EB4403AA8856F813000134002101F02CFB0A2C05F10605F2D1664E674B96E803008022186073
:4000C0009980654806F1080101F0F6FA06F1840706F1E00E0025E43657F8043F13F0FF0C23F0FF0414D00CF1FF3C5FFA8CFC05EB0C0006EB400006EB45030330013313F828
:40010000012C13F8021B98421155F8D1013565447745E1D1514C41F251262278504F42F0020222703A784F4D42F002023A702A78A4F5863442F040022A70413C2278A7F5E8
:400140007E4742F01002484B2270513F04F66E5403CB3860796003CBC5F8720DC5F8761D93E8070003C4414922800B7805F58C6543F008030B703E4C3E4861232B70A7F604
:40018000C2673D4A332118250223218005704FF040243B7008210320384B217010701A783748384BD2B287F8A123A4F8221206801C784FF4F07004F001041E4600F0D0FF91
:4001C00001E0032C0DD033784FF4F07003F0010343EA440400F0C4FF013D04F00304F0D1FEE7294B294D2A4F2A484FF4807407221C8000211A704826274A022439702E70FE
:4002000019700470137800F5F820033043F00103812601242149137085F8F86704700B78A0F5F420DBB21E49A0F2967005F5C35503F007071B4C1B090770023A0B700E35EF
:4002400044260FCA2E7007C42380F8BD201700005C17000060520040001A01400350014013500140A04300407C1B0000224300408040004082400040004200400801004916
:40028000204200402542004004400040084000400640004001400040A2430040CF0100496F580040B043004008B501F0D9F903680C2B00D0FEE7FEE780B5134FF7B1134E0E
:4002C000002556F80C0C56F8084C56F8102C03463CB1043A52F8041F43F8041B191AA142F8D156F8040C1A4620B142F8045BD11A8842FAD1013F06F11006E2D101F0B6F9E5
:40030000FFF7C2FEFEE700BF01000000D81B00000E4B0F4A0F491A600B680F4A43F400730E480B600023032B94BF50F823100C490133302B42F8041FF5D10A4B0A49187856
:400340000A4A0B4B08701A60FFF7A2BE0CED00E00004FA0514ED00E0FC7FFF1F00000000A9020000BC760040C080FF1F0080FF1F08ED00E0004700BF134A137803F0C003A3
:40038000802B00D0704770B400231048104E114D1370017833782A780F4C120442EA032322780B4353EA026301D170BC7047017833782A782078120442EA03230B4343EA24
:4003C000006070BCFFF7D6BFFA460040C1FF0300C2FF0300C3FF0300C4FF0300F0B50002C0F57F3090F8C5E390F8C67390F8C92390F8CAC390F8CB1390F8CC3390F8D15336
:40040000C1B0012D69D0DBB21D06C9B290F8C53390F8C663FFB245EA01415FFA8EFED2B25FFA8CFC0A434EEA072E43EA062642EA0C220EF10107013602EB072736020022FC
:40044000B74200F2D13415460AD916F8013B591EC9B2FD29134498BF0125B742DAB2F4D190F8C53390F8C6131D4E43EA0121B7424FEA411101F1200114BFFF084FF4004738
:400480008F4209D901F1904107F1904711F8013B1344B942DAB2F9D1534290F8C023DBB2934202D0062041B0F0BD002DFAD068464FF4807224F0FF0101F009F99DF8D1309B
:4004C000012B0AD00123C4F307216A4603208DF8D13000F0E1FB00F005FD002041B0F0BDC0FF0300013810B40B2863D8DFE800F017202632383E444A50565C060902C1F5DE
:400500007F3101F578710A784C788B78C8781B0443EA0423134343EA006010BC70470902C1F57F3101F57071087810BCC0B270470902C1F57F3101F2C131E4E70902C1F52B
:400540007F3101F2C5314A1C0B78107810BC43EA002070470902C1F57F3101F2C931D2E70902C1F57F3101F57471DDE70902C1F57F3101F2D131D7E70902C1F57F3101F2F2
:40058000D231E0E70902C1F57F3101F2D631DAE70902C1F57F3101F57571D4E70902C1F57F3101F57671AEE70902C1F57F3101F57771B9E701220021C6E700BF2DE98048DD
:4005C000ADF5677D00F0DCFD62B600239B461E4601930DF23F1451AF0DF245190DF5A3780293FF2305AA4FF4967150A800F0E8FD0028F6D1BDF81420062A03D99DF8405145
:40060000012D2CD04FF0040A0025284604210123ADF816008DF841A18DF842518DF843618DF840310023625C0139134489B29BB20029F8D15B429BB25FFA83FE1A0AC11D5C
:40064000172507F800E089B209F80020962308F800500DF1160250A800F09EFDC1E7BDF84231D91D914200F2E680B1F5967F00F2E28050AA1A449279172AC3D1191D89B2B8
:40068000002900F04A82625C0139104489B280B20029F8D1404280B250AAD11891F805E00A7942EA0E22824202D04FF0080AABE79DF841119DF844A1A1F131020A2A00F201
:4006C000AD80DFE802F04788AB5A41AB311F5A1606000020FFF782FE10B9BD4A8023137000F058FD002500F0C9FB04218A4628468DE7BBF1000F40F0BB80042100258A46CD
:40070000284684E7002BF8D1B24A082592E8030008AA82E8030087E8030001939A4628460C214FF0010B72E7BBF1000FE5D0019A03EB020EBEF5967F40F3108100252846DA
:4007400004214FF0030A62E7BBF1000FD5D00023019346E7BBF1000FCFD0002BCDD118460393FFF73BFEB0FA80F0039B40098DF844019A460521584649E734295ED0BBF15F
:40078000000FBAD0022BB8D9AAF1400B019D5FFA8BFB033B9BAA50190DF247111A46039300F08AFF019BBBF13F0F1A46039B1A4495B240F207814FF480734FF49072954288
:4007C00000F0F38000250195284604214FF0010B4FF0030A1BE7BBF1000F8ED0012B8CD1BAF1030F89D87C4B1B681B68C3F30742924500F09E8194BF012200220023FF2162
:4008000004258DF846118DF844318DF845218DF84761284608214FF0000AF8E66F4A1568002D6CD0BBF1000F6ED10025284604214FF0050AEBE64FF0030AE5E6BBF1000FA1
:400840003FF45BAF032B7FF458AFAAF1400B5FFA8BFBBBF13F0F94BF10254FF490752A4600219BA80393019500F04CFF039B90E7032B7FF442AFAAF140033F2BBDF84511CF
:4008800040F2E780FF2979D84FEA0A2E0EEB0100000200F1FF020023013812F801C963448242DBB2F9D1BAF13F0F20D80EF110720A4452011046203210F801EB73448242AB
:4008C000DBB2F9D1BAF1030F11D1FF290FD1002105200393FFF706FE039B00211B1A06205FFA83FAFFF7FEFDC0EB0A00C3B25B428DF8443105214FF0000A012087E6042160
:4009000028464FF0050A82E68DF81810ADF81A3006A80797089609960A9708A9A847BDF824000A9BB0F5937F01D3BB422ED05BB39DF82030021D91B28DF841310122030AAD
:40094000ADF816008DF842018DF840218DF8433100297FF467AE0A468E4670E61A46019B9BA90B441846394600251FFA8EF30193AA4600F0A1FE2846042148E60025284658
:4009800004214FF00A0A42E60028D1D001220E23ADF816608DF842618DF843618DF840218DF84131042100203CE6BDF845219A42019215D30025284604214FF0010B4FF016
:4009C0000A0A24E600F030FA80231022F7E600BFFA460040981B0000CC80FF1F6481FF1FBAF13F0F20D8554B02EB0A221B6892B21968C1F30F2311F0FF0F1CBF01339BB26B
:400A00009A42C0F08C80029B73B919464FF4907208A800F077FE4FF4907308AAFF21032000F0A0F9012302932B46019950469BAA00F098F9002398420CBF9A464FF00A0ABD
:400A400001931D464FF0010B00F04CFA01980421DDE5039100F0E8F903997F294FEA01138CD837483749384A18441944DFF8DCC000781A440978DFF8D8E012789C449E4445
:400A800008449CF80010DFF8CCC010449EF80020DFF8C4E09C449E4408449CF80010DFF8BCC010449EF80020DFF8B4E09C449E4408449CF80010DFF8ACC010449EF80020E5
:400AC000DFF8A4E09C449E4408449CF80010DFF89CC010449EF80020DFF894E09C449E4408449CF80010DFF88CC010449EF80020DFF884E09C4408449E449CF8001003F1A1
:400B00008043104403F500439EF8002001441B780A44134403F0FF03E9E60846BCE5002301931D46184604214FF0010B4FF00A0A6DE5C3F30723002261E600BFCC80FF1F7E
:400B40000F8000400E8000400D8000400C8000400B8000400A80004009800040088000400780004006800040058000400480004003800040028000400180004038B500F0E0
:400B800039F870BB0020FFF729FC184C0028236818BF06251A6808BF00256AB1002312F8011D0B44DBB2002AF9D162681278D31A03F0FF039A4202D0002000F05DF90C4A41
:400BC000137803F0C003402B00D025B1084B00221A70FFF7F3FC80231370BDE8384000F04DB9002000F048F9CCE700BFCC80FF1FFA46004038B500F0AFF900F05FFA10B14A
:400C00000424204638BD00F095FA072804462BD000F076FA002CF4D100F09EF900F04EFA0028EDD1012000F02DFA072805D04FF0FF3400F065FA204638BD154C02E0237812
:400C40009B07F4D40221134800F09CF90228F6D10F4C2378990705D4012000F03BF923789A07F9D50024E4E7094D2B789B0705D4012000F02FF92B789807F9D5044B1A78CB
:400C80009507D6D51B789B08D3D100F039FAC3E7224700407C81FF1FF0B53F2883B00AD8441F3A2C8CBF00240124B1F5807F17D9012003B0F0BD412894BF0024012481293F
:400CC00028BF01241027002AF2D0002CF0D116460D46044600F0F2F928B1042003B0F0BD4FF48077EFE73B4632462946204600F069F9072804D0019000F002FA0198EDE78A
:400D0000164E33789B0705D4012000F0E3F833789807F9D5114E33789F071BD533789B0818D10F4A294653782046127800F086F90728E0D102E0012000F0CCF8337899077A
:400D4000F9D5064B1A78920704D51B789B0801D11846D0E74FF0FF30CDE700BF224700407C81FF1FF0B5412883B015D8441F3A2C8CBF002401243F280FD8B1F5807F11D827
:400D800082B17CB91E4617460D46044600F096F958B1042003B0F0BD0124812928BF0124102BEDD0012003B0F0BD33463A462946204600F007F9072804D0019000F0A0F932
:400DC0000198F0E7164E33789B0705D4012000F081F833789807F9D5114E33789F071BD533789B0818D10F4A294653782046127800F024F90728E0D102E0012000F06AF8BB
:400E000033789907F9D5064B1A78920704D51B789B0801D11846D0E74FF0FF30CDE700BF224700407C81FF1F38B500F0A1F90F4A0F4913780F4C43F0080313700B78C82543
:400E400043F008030B702570137B43F0100313730B7B02F5587243F010030B7313789B06FCD5BDE8384000F087B900BFA0430040B04300400147004001BE7047024A13788B
:400E800043F0010313707047F6460040B0F5004F70B506461AD904460D4DA4F50044686800F05EF9B4F5004FF7D8A6F50043013B23F4FF4323F07F03A6F50046F61AA86885
:400EC00000FB06F0BDE8704000F04AB9004DF6E7D480FF1F024B1B7800FB03F000F040B9D480FF1F08B500F043F900BF00BF00BF00BF00BF00BF00BF00BF00BF00BF00BFD6
:400F000000BF00BF00BF00BF00BF064A13889BB243F0040313801388BFF36F8FBDE8084000F02AB900480040054B00F01F001A6800F1100352F8230042F82310704700BF29
:400F400008ED00E000F01F0000F16040490100F56440C9B20170704708B500F009F90749074A0B7843F008030B70137843F008031370BDE8084000F0FFB800BFA043004028
:400F8000B04300402DE9F0410F4699B14E1EF6B20644451E094CDFF8288002E00120FFF799FF2378DB07F9D598F8003005F8013FB542F6D13846BDE8F08100BF22470040F0
:400FC00020470040F0B41B4C2578AD071DD51A4DB6262E70D52702262F702E702478A40710D428705BB15E1EB6B21644013A12F8014FB2422C70FAD1B3F5807F08D0F0BC92
:40100000072070470920F0BC70470420F0BC70473F28F4D800F5103001EB0021490106480A46203112F8013BDBB291420370F9D1E5E700BF2247004020470040F0B40F4D53
:401040002C78A60716D50E4CB6262670D8270526277026702D78AD0709D40D0AC9B2207025702170227023700720F0BC70470920F0BC70470420F0BC704700BF2247004069
:40108000204700400B4A1378990711D530B40A4BB625E1240E211D701C7019701278920703D4187030BC07207047092030BC704704207047224700402047004038B500F019
:4010C00057F80D4A137823B1042400F055F8204638BD0125094915700C682C40F5D00C6824F001040C6000BF00BF00BF1C46556000F042F8204638BD6881FF1F0400084064
:4011000010B500F035F8094B002259681A70012908D1074C216841F00101216000BF00BF00BF5A60BDE8104000F026B86881FF1F04000840074B1B789B0708D5064BB620E1
:40114000E0210D221870197007201A7070470420704700BF2247004020470040000000000230800803D000BF01380046FCD17047EFF3108072B6704780F31088704700BFBB
:4011800008B500F071F800F04BF9BDE8084000F0A7B900BF00F0C6B8F8B50E460446174600F03EF94EB1751EADB22544013C14F8010F00F057F9AC42F9D13E800020F8BD6E
:4011C0002DE9F84303EB83035D0006468846174618BF002407D117E001340120A4B2FFF755FEAC4210DA00F0F3F80028F4D000F0EFF804461920FFF749FE00F0E9F88442CA
:40120000F5D34FF0000901E04FF0050900243C8000F0DEF8F8B100F0DBF83A8880B283189BB243453B801BD2C0B1204485B200F0A1F8631C30559CB2AC42F8D1731913F81D
:40124000013C172B02D00520FFF720FE2C4600F0BFF80028DFD14846BDE8F8832546EDE73A804846BDE8F883F8B5224D2C780CBB21492046FFF758FE20460721FFF762FE17
:401280001E4B1F492022692008701A701D4901206C70FFF749FE07210120FFF753FE1A4E1A481B4A06274724022101233770047011702B70FFF75CFF0546164C1649237823
:4012C000164A43F0200323700B78012043F010030B701060A378124843F010030221A3700160116000F09CF92846BDE8F840FFF743BF00BF7081FF1F211500008964004014
:4013000089650040B915000028640040386400408B650040996500409964004000E100E080E200E038B5FFF723FF05460D4A0E4C137803F0DF03137000F082F923780B4A1C
:40134000012003F0EF030A49237010600B78022403F0EF030B7028461460BDE83840FFF70BBF00BF996500409964004080E100E09B65004010B4114B114A0121196091786F
:40138000D3781079C9B210B9DBB2994212D04B1CDBB2402B0B4828BF0023405C93701379074CC0B20BB100232371074B01221A6010BC7047054B1878C0B2F6E780E100E0CA
:4013C0007081FF1F8081FF1F00E100E04A650040104A0121104B11609978DA7891420FD09978DA789142DA78987824BF02F14003181A0A4B38BF101A0122C0B21A60704793
:401400001B790122002B054B14BF402000201A60704700BF80E100E07081FF1F00E100E010B5FFF7A5FE0B4B0B4C1A7842F001021A701A7802F0FE021A70FFF79DFE074BD9
:4014400000220121064821609A70DA701A715A71016010BD9A65004080E100E07081FF1F00E100E070B4194DEC79AB792646DBB2591EE21A091BA2F13F02B1FA81F1B2FAF1
:4014800082F249095209A34288BF0A46002AECD1A34212D03F2C0E4A88BF00260D4B90551B789ABF0134E4B201249B07EC7102D5094B02221A6070BC7047064B1B785A07A8
:4014C000E8D4064B187070BC704700BF7081FF1FC081FF1F6B65004000E200E04865004010B5FFF745FE0A4B0A4C1A7842F001021A701A7802F0FE021A70FFF73DFE064AFF
:401500000223002105482360D1719171036010BD9865004080E100E07081FF1F00E100E02DE9F0431C481D491D4F1E4A1E4E1F4CDFF880C01E4D4FF0010E0378DBB213F03A
:401540001E0905D091F8008049EA080881F800809B0601D4BDE8F08397F8008013785FFA88F8DBB206F8038023784FF000080BB18CF800E013780133DBB2137013783F2B55
:4015800088BF82F8008092F800802B789845D4D184F800E0D1E700BF696400407181FF1F4A6500407381FF1F8081FF1F7481FF1F7281FF1F7581FF1F144A154813780178B4
:4015C000994221D0F0B513490B7803F0040303F0FF06C3B91746104D104C02E00B785B0711D413783F2B88BF3E701378DBB2EB5CDBB22370137890F800E00133DBB21370CB
:4016000013789E45EAD1F0BD704700BF7681FF1F7781FF1F6B650040C081FF1F486500400549064A0B7843F001030B70137843F001031370704700BFA2430040B2430040EF
:401640000549064A0B7803F0FE030B70137803F0FE031370704700BFA2430040B2430040014B1868704700BF4481FF1F0E4B70B51E460E4C0025E41AA410A54204D056F8C7
:40168000253098470135F8E700F08CFA084B094C1E46E41AA4100025A54204D056F8253098470135F8E770BDB01B0000B01B0000B01B0000B81B000010B5431E0A4491428E
:4016C00004D011F8014B03F8014FF8E710BD884210B501EB020301D8421E0BE09842FBD28118D21AD34204D013F8014D01F8014DF8E710BD994204D011F8014B02F8014F77
:40170000F8E710BD03460244934202D003F8011BFAE77047001D0000ED00000000000000005100401000205100401000405100403000F051004010000000014000100014B5
:4017400001400006801A0140800100400140000A004C014000020050014020001090000040000000CF083042C3003C0800100000082000000020F3000C30F3003D0FC0F055
:4017800008000084023F20C004F800010C3900C6430010C740318C003F0000FF00002800000000402105040003EC000003FFFFFF62A0F0410C00000000000000040404044F
:4017C0000000000100000000000040020010301000101012000000000000000000000000000000000152004001640040026500400107014054080140370901400414014085
:4018000003150140011701404D180140411901400D1A0140411B0140034001400241014002420140044301400147014002480140084C01400E4D014004500140015101402E
:401840000914893A89698B0FE60203010461060E071809480A400B860E0811801365142C15E61643171119601B8B1E43206121A02206260C28102D802F023020320F330774
:40188000341035F8364038023A083B083E504003474049FF4A074BFF4C404D204EF04F055008580459045A045F01604061A8624063208320850387048A028B088D038E022A
:4018C0008F0C9001950A9704980199039B04A310A710A801AF05B001B10FB320B510B602BB02BE40BF10D41AD604D804D904DB04DF0100A005800605071008800A450E2010
:401900000F0211101502161819401B021D241E211F0120402105220223042404271029012B212D802E023104331035043602371038523A143C143E083F0245084F025601C3
:4019400059025A206140634485208740C0E3C2AAC472CA9BCCE6CEEFD040D605D80DE008B980BF40D904DF012680A680B280EA0801020B011001140419011E022006280662
:401980002D01320633033401380839083E1440454102460E47BC483449FF4AFF4BFF4EF04F44500C580459045A045F0166C06A406B0284038508860C89088D088E0E900232
:4019C00091089208953D960F9702980299239A049B1C9D1E9F01A127A318A501A716A80CA926AA03AB19AC03AE0CAF1FB320B401B508B60EB71FB820BA80BB80BF04D602C6
:401A0000D712D804D904DB04DF01000403020520060408280A800E300F821209150216C0171019801BA01D081E082254241028282A012B8A2E8031143249371038A83E10F9
:401A40003F02464047104E02560657405A0869106A46705C79017A027B41910A941295109664978098809B109D039E06A210A303A450A508A720AF40B701C005C2BEC4533B
:401A8000CA1FCC2FCEAED0A0D210D602840188018C019601A201AE02B203BA08D401D604D804DB04DF0100440380059408120A120E101048114012101580164018041916A1
:401AC0001E101F0820802142281229042A402B8A30483110324138E239083A1040264102481049815C805D215E0867806A4082408C218D4090A09109928294069780988038
:401B000099A09C209D17A008A204A382A450A708C0EDC22FC49FCA0FCC0FCE0FD00FD208D6F0D880E004E88030103580CC309C109D809C109D8084109C109D80E640862085
:401B4000AD80EA105840620199089A20B508D401D802E80212807220750882018E8099089A209E01B040C408DC01DE04E202E80100010C0110011C01000F00004090900073
:401B80009000000010140400140000000000000101000000000000006910162E003C010143000000F8B500BFF8BC08BC9E4670475100000011030000F8B500BFF8BC08BC51
:401BC0009E4670472D000000D81B0000C880FF1F80000000B8000000000000001417000018170000180000000000E02EC05D000000366E010000000000000000000000004A
:401C00000000000000000000000000000000000000000000A01B000000000000000000000000000000000000000000000000000000000000000000000000000000000000E9
:401C40000000000000000000000000000000000000000000E480FF1F00000000000000000000000000000000000000000000000000000000000000000000000000000000E2
:401C80000000000000000000000000000000000000000000000000000000000000000000000000000000000000000000000000000000000000000000000000000000000024
:401CC00000000000000000000000000000000000000000000000000000000000000000000000000000000000000000000000000000000000000000000000000000000000E4
:401D000000800020111D0000854801008548010080B500AF12F0EAFD10B5054C237833B9044B13B10448AFF300800123237010BDB081FF1F0000000080F30100084B10B5EF
:401D40001BB108490848AFF300800848036803B910BD074B002BFBD0BDE81040184700BF00000000B481FF1F80F30100C880FF1F0000000080B588B000AFE24B1B78FB77BA
:401D8000E04BB3F98030DBB2013BDBB21946DD4809F092FB03461946DA4BB3F98030013BD84AD35C994204D0D64B002283F8842042E2FB7FA62B00F23E8201A252F823F054
:401DC000DB200000BD20000037220000E1200000E72000000D210000A52000003722000037220000412100002721000037220000C3200000632100003722000037220000E9
:401E00003722000037220000372200003722000037220000372200003722000037220000372200003722000037220000372200003722000037220000372200003722000012
:401E400037220000372200003722000037220000372200003722000037220000372200003722000037220000372200003722000037220000372200003722000037220000D2
:401E80003722000037220000372200003722000037220000372200003722000037220000372200003722000037220000372200003722000037220000372200003722000092
:401EC0003722000037220000372200003722000037220000372200003722000037220000372200003722000037220000372200003722000037220000372200003722000052
:401F00003722000037220000372200003722000037220000372200003722000037220000372200003722000037220000372200003722000037220000372200003722000011
:401F400037220000372200003722000037220000372200003722000037220000372200003722000037220000372200003722000037220000372200003722000037220000D1
:401F80003722000037220000372200003722000037220000372200003722000037220000372200003722000037220000372200003722000037220000372200003722000091
:401FC0005D20000093200000632000009F20000069200000752000006F200000372200008D2000008120000037220000872000007B20000037220000372200003722000075
:4020000099200000372200003722000037220000372200003722000037220000372200003722000037220000372200003722000037220000372200003722000037220000B0
:402040003722000001220000072200001F220000252200002B220000312200000AF052F9EAE00AF02DF8E7E009F018FFE4E00AF0D5F9E1E00AF06EFADEE00AF0C3FADBE0AF
:4020800009F066FFD8E009F0BFFFD5E00AF026FCD2E00AF095F9CFE00AF0E2FACCE00AF009FBC9E0184B1B883B613B695BBAFB60FB689BB2184600F0CBF8BDE005F0FCFD6E
:4020C000BAE0114B1B88BB61BB695BBABB60BB689BB2184602F066F9AEE00AF0DBFAABE00AF01EFBA8E0322009F01EFA0346002B03D0012009F000FA9EE0002009F0FCF9EB
:402100009AE000BFCC94FF1FCD94FF1F09F098FA0346002B03D0012009F0EEF98CE0002009F0EAF988E009F0B9FA0346002B03D0012009F0E1F97FE0002009F0DDF97BE036
:40214000012009F0D9F94FF47A7014F0DDFF002013F074FA4FF47A7014F0D6FF15F002FB6AE0374B5B781B021AB2354B9B781BB213431AB2334B5A80314BDB781B021AB2B3
:402180002F4B1B791BB213431AB22E4B9A802D4BB3F90230B3F1FF3F0FD12A4BB3F90430B3F1FF3F09D1274B00221A70254B00225A80244B00229A803EE0224BB3F90230C8
:4021C000002B03DA1F4B00225A8007E01D4BB3F90230C82B02DD1B4BC8225A80194BB3F90430002B02DA174B00229A80164B00221A60144B01221A70012009F07DF91BE0CB
:402200000AF09CFB18E0114B1B887B617B695BBA7B607B689BB2184604F054FE0CE00AF059FE09E00AF09CFE06E00AF00FFF03E00AF03AFF00E000BF2037BD4680BD00BFDF
:40224000CC94FF1F5495FF1FC099FF1FCD94FF1F80B5ADF5BB4D92B000AF024607F14803423B1A8007F59C4303F1280300221A60043340F69C72002118461AF05CFB07F188
:402280004803403B00221A60043344F61C62002118461AF050FB07F14803423B1B88032B50D801A252F823F0B9220000DB220000FD2200002323000007F59C4303F1280309
:4022C000184605F03BFD13F07DFD07F59C4303F12803184613F054FD35E007F59C4303F12803184607F076FA13F06CFD07F59C4303F12803184613F043FD24E007F59C4370
:4023000003F128034FF47A61184610F0D7FB13F059FD07F59C4303F12803184613F030FD11E007F14803403B44F62061184610F0EBFB13F047FD07F14803403B184613F03B
:402340001FFD00E000BF00BF07F5BB474837BD4680BD00BFF0B5ADF65C4D00AF07F10C04206007F108000160391D0A603A46136007F1580300221A60043340F6E632002196
:4023800018461AF0D8FA40F6EA33A7F8503C002387F8553C002387F8543C002387F8533C07F1240300221A6004332E22002118461AF0C1FA002387F84F3C012387F84E3CEF
:4023C00007F10C031B681B68C7F8483CD7F8483CC7F8443C07F158030C221A7007F1580324225A70002387F8553C01F05ABF97F8553C9B0007F10C02126813441B68C7F87C
:40240000483C97F8553C322202FB03F3023397F8552C07F1080109680A44117807F15802D15497F8553C322202FB03F3033397F8552C391D09680A44117807F15802D154EA
:4024400097F8553C07F10802126813441B78092B22D801A252F823F081240000812400008124000089240000892400009124000091240000912400009924000081240000DE
:40248000012387F8533C07E0022387F8533C03E0042387F8533C00BF97F8553CD7F8782C13441B78002B40F02A8297F8553C07F10802126813441B78092B01F20E8301A294
:4024C00052F823F0ED24000055250000ED240000BD250000652600000B270000B127000057280000DB3A0000ED240000002387F8573C23E097F8573C97F8532C02FB03F36C
:402500001A46D7F8483C1344C7F8443C97F8553C322202FB03F31A1D97F8573C97F8531C01FB03F31344D7F8442C117807F15802D15497F8573C013387F8573C97F8553C84
:402540003A1D126813441B7897F8572C9A42D1D301F0C3BA002387F8573C23E097F8573C97F8532C02FB03F31A46D7F8483C1344C7F8443C97F8553C322202FB03F31A1D5E
:4025800097F8573C97F8531C01FB03F31344D7F8442C117807F15802D15497F8573C013387F8573C97F8553C3A1D126813441B7897F8572C9A42D1D301F08FBA002387F8C2
:4025C000573C43E097F8573C97F8532C02FB03F31A46D7F8483C1344C7F8443CD7F8443CB3F9002007F11E031A80002387F8563C21E097F8553C322202FB03F31A1D97F889
:40260000573C97F8531C01FB03F31A4497F8533C1A4497F8563CD31A013B97F8562C07F11E010A44117807F15802D15497F8563C013387F8563C97F8562C97F8533C9A420C
:40264000D7D397F8573C013387F8573C97F8553C3A1D126813441B7897F8572C9A42B1D301F03BBA002387F8573C42E097F8573C97F8532C02FB03F31A46D7F8483C134491
:40268000C7F8443CD7F8443C1A8807F11C031A80002387F8563C21E097F8553C322202FB03F31A1D97F8573C97F8531C01FB03F31A4497F8533C1A4497F8563CD31A013B30
:4026C00097F8562C07F11C010A44117807F15802D15497F8563C013387F8563C97F8562C97F8533C9A42D7D397F8573C013387F8573C97F8553C3A1D126813441B7897F879
:40270000572C9A42B2D301F0E8B9002387F8573C42E097F8573C97F8532C02FB03F31A46D7F8483C1344C7F8443CD7F8443C1A6807F118031A60002387F8563C21E097F83E
:40274000553C322202FB03F31A1D97F8573C97F8531C01FB03F31A4497F8533C1A4497F8563CD31A013B97F8562C07F118010A44117807F15802D15497F8563C013387F8D0
:40278000563C97F8562C97F8533C9A42D7D397F8573C013387F8573C97F8553C3A1D126813441B7897F8572C9A42B2D301F095B9002387F8573C42E097F8573C97F8532C56
:4027C00002FB03F31A46D7F8483C1344C7F8443CD7F8443C1A6807F114031A60002387F8563C21E097F8553C322202FB03F31A1D97F8573C97F8531C01FB03F31A4497F871
:40280000533C1A4497F8563CD31A013B97F8562C07F114010A44117807F15802D15497F8563C013387F8563C97F8562C97F8533C9A42D7D397F8573C013387F8573C97F8E3
:40284000553C3A1D126813441B7897F8572C9A42B2D301F042B9002387F8573C42E097F8573C97F8532C02FB03F31A46D7F8483C1344C7F8443CD7F8443C1A6807F12003FE
:402880001A60002387F8563C21E097F8553C322202FB03F31A1D97F8573C97F8531C01FB03F31A4497F8533C1A4497F8563CD31A013B97F8562C07F120010A44117807F19C
:4028C0005802D15497F8563C013387F8563C97F8562C97F8533C9A42D7D397F8573C013387F8573C97F8553C3A1D126813441B7897F8572C9A42B2D300BF01F0EEB897F8A3
:40290000553C0133023B332B01F2E68001A252F823F000BFE5290000052D0000D93A0000D93A0000D93A0000D93A000025300000D93A0000D93A0000EB300000D93A0000EA
:40294000D93A0000D93A0000D93A0000D93A0000D93A0000D93A0000D93A0000D93A0000D93A0000D93A000019320000D93A0000D93A0000D93A0000D93A0000D93A0000EF
:40298000D93A0000D93A0000D93A0000D93A0000D93A0000D93A0000D93A0000D93A0000D93A0000D93A0000D93A0000D93A0000D93A0000D93A0000D93A0000A132000027
:4029C000C3350000D93A0000D93A0000D93A0000D93A0000DF380000D93A0000D93A0000A339000097F84F2CC5491346DB009B1A1B010B4403F20F131B78032B00F0C08006
:402A000097F84F2CBE491346DB009B1A1B010B44B0331B68184619F017FD03464FF08F41184619F019FE03461A4607F120031A60002387F8573C1AE097F8553C322202FB9C
:402A400003F31A1D97F8533C1A4497F8573CD31A013B97F8572C07F120010A44117807F15802D15497F8573C013387F8573C97F8572C97F8533C9A42DED397F84F2CA049D1
:402A80001346DB009B1A1B010B44B4331B68184619F0DAFC03464FF08F41184619F0DCFD03461A4607F120031A60002387F8573C1DE097F8553C322202FB03F31A1D97F8E6
:402AC000533C1A4497F8533C1A4497F8573CD31A013B97F8572C07F120010A44117807F15802D15497F8573C013387F8573C97F8572C97F8533C9A42DBD397F84F2C8049B4
:402B00001346DB009B1A1B010B44B8331B68184619F09AFC03464FF08F41184619F09CFD03461A4607F120031A60002387F8573C1EE097F8553C322202FB03F31A1D97F8E0
:402B4000533C5B001A4497F8533C1A4497F8573CD31A013B97F8572C07F120010A44117807F15802D15497F8573C013387F8573C97F8572C97F8533C9A42DAD300F0ADBF50
:402B800097F84F2C5E491346DB009B1A1B010B44C8331B68184619F057FC03464FF08F41184619F059FD03461A4607F120031A60002387F8573C1AE097F8553C322202FBE5
:402BC00003F31A1D97F8533C1A4497F8573CD31A013B97F8572C07F120010A44117807F15802D15497F8573C013387F8573C97F8572C97F8533C9A42DED397F84F2C4049B0
:402C00001346DB009B1A1B010B44CC331B68184619F01AFC03464FF08F41184619F01CFD03461A4607F120031A60002387F8573C1DE097F8553C322202FB03F31A1D97F8CC
:402C4000533C1A4497F8533C1A4497F8573CD31A013B97F8572C07F120010A44117807F15802D15497F8573C013387F8573C97F8572C97F8533C9A42DBD397F84F2C204992
:402C80001346DB009B1A1B010B44D0331B68184619F0DAFB03464FF08F41184619F0DCFC03461A4607F120031A60002387F8573C1EE097F8553C322202FB03F31A1D97F8C9
:402CC000533C5B001A4497F8533C1A4497F8573CD31A013B97F8572C07F120010A44117807F15802D15497F8573C013387F8573C97F8572C97F8533C9A42DAD300F0EDBE90
:402D0000D096FF1F97F84F2CC5491346DB009B1A1B010B4403F20F131B78032B00F0C08097F84F2CBE491346DB009B1A1B010B44BC331B68184619F087FB03464FF08F4183
:402D4000184619F089FC03461A4607F120031A60002387F8573C1AE097F8553C322202FB03F31A1D97F8533C1A4497F8573CD31A013B97F8572C07F120010A44117807F19B
:402D80005802D15497F8573C013387F8573C97F8572C97F8533C9A42DED397F84F2CA0491346DB009B1A1B010B44C0331B68184619F04AFB03464FF08F41184619F04CFCFF
:402DC00003461A4607F120031A60002387F8573C1DE097F8553C322202FB03F31A1D97F8533C1A4497F8533C1A4497F8573CD31A013B97F8572C07F120010A44117807F188
:402E00005802D15497F8573C013387F8573C97F8572C97F8533C9A42DBD397F84F2C80491346DB009B1A1B010B44C4331B68184619F00AFB03464FF08F41184619F00CFC1D
:402E400003461A4607F120031A60002387F8573C1EE097F8553C322202FB03F31A1D97F8533C5B001A4497F8533C1A4497F8573CD31A013B97F8572C07F120010A441178A3
:402E800007F15802D15497F8573C013387F8573C97F8572C97F8533C9A42DAD300F01DBE97F84F2C5E491346DB009B1A1B010B44D4331B68184619F0C7FA03464FF08F41A0
:402EC000184619F0C9FB03461A4607F120031A60002387F8573C1AE097F8553C322202FB03F31A1D97F8533C1A4497F8573CD31A013B97F8572C07F120010A44117807F1DB
:402F00005802D15497F8573C013387F8573C97F8572C97F8533C9A42DED397F84F2C40491346DB009B1A1B010B44D8331B68184619F08AFA03464FF08F41184619F08CFB47
:402F400003461A4607F120031A60002387F8573C1DE097F8553C322202FB03F31A1D97F8533C1A4497F8533C1A4497F8573CD31A013B97F8572C07F120010A44117807F106
:402F80005802D15497F8573C013387F8573C97F8572C97F8533C9A42DBD397F84F2C20491346DB009B1A1B010B44DC331B68184619F04AFA03464FF08F41184619F04CFB66
:402FC00003461A4607F120031A60002387F8573C1EE097F8553C322202FB03F31A1D97F8533C5B001A4497F8533C1A4497F8573CD31A013B97F8572C07F120010A44117822
:4030000007F15802D15497F8573C013387F8573C97F8572C97F8533C9A42DAD300F05DBDD096FF1F97F84F2CD1491346DB009B1A1B010B4403F588731B78184697F8572CFC
:40304000CC4903465B0003449B001344663351F8231097F84F2CC6481346DB009B1A1B01034403F588731B781C4697F8572CC14823465B0023441B010344134403F2951360
:403080001B7841FA03F31AB207F11E031A80002387F8563C21E097F8553C322202FB03F31A1D97F8573C97F8531C01FB03F31A4497F8533C1A4497F8563CD31A013B97F835
:4030C000562C07F11E010A44117807F15802D15497F8563C013387F8563C97F8562C97F8533C9A42D7D300F0F8BC97F84F2CA1491346DB009B1A1B010B44E433196897F8BB
:403100004F2C9B481346DB009B1A1B01034403F588731B781846974A03465B0003441B01134403F295131B7841FA03F207F118031A60002387F8563C1AE097F8553C322233
:4031400002FB03F31A1D97F8533C1A4497F8563CD31A013B97F8562C07F118010A44117807F15802D15497F8563C013387F8563C97F8562C97F8533C9A42DED397F84F2CC3
:403180007C491346DB009B1A1B010B44E833196897F84F2C76481346DB009B1A1B01034403F588731B781846724A03465B0003441B01134403F295131B7841FA03F207F1F0
:4031C00018031A60002387F8563C1DE097F8553C322202FB03F31A1D97F8533C1A4497F8533C1A4497F8563CD31A013B97F8562C07F118010A44117807F15802D15497F82A
:40320000563C013387F8563C97F8562C97F8533C9A42DBD300F061BC564BD3F8A01297F84F2C53481346DB009B1A1B01034403F588731B7818464F4A03465B0003441B015E
:40324000134403F295131B7841FA03F207F118031A60002387F8563C1AE097F8553C322202FB03F31A1D97F8533C1A4497F8563CD31A013B97F8562C07F118010A4411787F
:4032800007F15802D15497F8563C013387F8563C97F8562C97F8533C9A42DED300F01DBC97F84E2C33491346DB009B1A1B010B4403F20F131B78032B00F0C48097F84E2CBE
:4032C0002C491346DB009B1A1B010B44B0331B68184619F0B9F803464FF08F41184619F0BBF903461A4607F120031A60002387F8573C1AE097F8553C322202FB03F31A1D09
:4033000097F8533C1A4497F8573CD31A013B97F8572C07F120010A44117807F15802D15497F8573C013387F8573C97F8572C97F8533C9A42DED397F84E2C0E491346DB0094
:403340009B1A1B010B44B4331B68184619F07CF803464FF08F41184619F07EF903461A4607F120031A60002387F8573C22E000BF789BFF1FD096FF1F97F8553C322202FB58
:4033800003F31A1D97F8533C1A4497F8533C1A4497F8573CD31A013B97F8572C07F120010A44117807F15802D15497F8573C013387F8573C97F8572C97F8533C9A42DBD302
:4033C00097F84E2CD2491346DB009B1A1B010B44B8331B68184619F037F803464FF08F41184619F039F903461A4607F120031A60002387F8573C1EE097F8553C322202FB7E
:4034000003F31A1D97F8533C5B001A4497F8533C1A4497F8573CD31A013B97F8572C07F120010A44117807F15802D15497F8573C013387F8573C97F8572C97F8533C9A42D4
:40344000DAD34AE397F84E2CB1491346DB009B1A1B010B44C8331B68184618F0F5FF03464FF08F41184619F0F7F803461A4607F120031A60002387F8573C1AE097F8553C08
:40348000322202FB03F31A1D97F8533C1A4497F8573CD31A013B97F8572C07F120010A44117807F15802D15497F8573C013387F8573C97F8572C97F8533C9A42DED397F89A
:4034C0004E2C93491346DB009B1A1B010B44CC331B68184618F0B8FF03464FF08F41184619F0BAF803461A4607F120031A60002387F8573C1DE097F8553C322202FB03F33B
:403500001A1D97F8533C1A4497F8533C1A4497F8573CD31A013B97F8572C07F120010A44117807F15802D15497F8573C013387F8573C97F8572C97F8533C9A42DBD397F8E7
:403540004E2C73491346DB009B1A1B010B44D0331B68184618F078FF03464FF08F41184619F07AF803461A4607F120031A60002387F8573C1EE097F8553C322202FB03F355
:403580001A1D97F8533C5B001A4497F8533C1A4497F8573CD31A013B97F8572C07F120010A44117807F15802D15497F8573C013387F8573C97F8572C97F8533C9A42DAD39C
:4035C0008BE297F84E2C52491346DB009B1A1B010B4403F20F131B78032B00F0C18097F84E2C4B491346DB009B1A1B010B44BC331B68184618F028FF03464FF08F411846B7
:4036000019F02AF803461A4607F120031A60002387F8573C1AE097F8553C322202FB03F31A1D97F8533C1A4497F8573CD31A013B97F8572C07F120010A44117807F1580239
:40364000D15497F8573C013387F8573C97F8572C97F8533C9A42DED397F84E2C2C491346DB009B1A1B010B44C0331B68184618F0EBFE03464FF08F41184618F0EDFF034676
:403680001A4607F120031A60002387F8573C1DE097F8553C322202FB03F31A1D97F8533C1A4497F8533C1A4497F8573CD31A013B97F8572C07F120010A44117807F15802AE
:4036C000D15497F8573C013387F8573C97F8572C97F8533C9A42DBD397F84E2C0C491346DB009B1A1B010B44C4331B68184618F0ABFE03464FF08F41184618F0ADFF034695
:403700001A4607F120031A60002387F8573C20E0D096FF1F97F8553C322202FB03F31A1D97F8533C5B001A4497F8533C1A4497F8573CD31A013B97F8572C07F120010A4426
:40374000117807F15802D15497F8573C013387F8573C97F8572C97F8533C9A42DAD3BCE197F84E2CDA491346DB009B1A1B010B44D4331B68184618F067FE03464FF08F415E
:40378000184618F069FF03461A4607F120031A60002387F8573C1AE097F8553C322202FB03F31A1D97F8533C1A4497F8573CD31A013B97F8572C07F120010A44117807F16F
:4037C0005802D15497F8573C013387F8573C97F8572C97F8533C9A42DED397F84E2CBC491346DB009B1A1B010B44D8331B68184618F02AFE03464FF08F41184618F02CFFBE
:4038000003461A4607F120031A60002387F8573C1DE097F8553C322202FB03F31A1D97F8533C1A4497F8533C1A4497F8573CD31A013B97F8572C07F120010A44117807F13D
:403840005802D15497F8573C013387F8573C97F8572C97F8533C9A42DBD397F84E2C9C491346DB009B1A1B010B44DC331B68184618F0EAFD03464FF08F41184618F0ECFEDE
:4038800003461A4607F120031A60002387F8573C1EE097F8553C322202FB03F31A1D97F8533C5B001A4497F8533C1A4497F8573CD31A013B97F8572C07F120010A44117859
:4038C00007F15802D15497F8573C013387F8573C97F8572C97F8533C9A42DAD3FDE097F84E2C7C491346DB009B1A1B010B4403F588731B78184697F8572C754903465B00D9
:4039000003449B001344663351F8231097F84E2C70481346DB009B1A1B01034403F588731B781C4697F8572C694823465B0023441B010344134403F295131B7841FA03F33B
:403940001AB207F11E031A80002387F8563C21E097F8553C322202FB03F31A1D97F8573C97F8531C01FB03F31A4497F8533C1A4497F8563CD31A013B97F8562C07F11E0197
:403980000A44117807F15802D15497F8563C013387F8563C97F8562C97F8533C9A42D7D39BE097F84E2C4A491346DB009B1A1B010B44E433196897F84E2C46481346DB00D0
:4039C0009B1A1B01034403F588731B781846404A03465B0003441B01134403F295131B7841FA03F207F118031A60002387F8563C1AE097F8553C322202FB03F31A1D97F89B
:403A0000533C1A4497F8563CD31A013B97F8562C07F118010A44117807F15802D15497F8563C013387F8563C97F8562C97F8533C9A42DED397F84E2C25491346DB009B1A5D
:403A40001B010B44E833196897F84E2C21481346DB009B1A1B01034403F588731B7818461B4A03465B0003441B01134403F295131B7841FA03F207F118031A60002387F84B
:403A8000563C1DE097F8553C322202FB03F31A1D97F8533C1A4497F8533C1A4497F8563CD31A013B97F8562C07F118010A44117807F15802D15497F8563C013387F8563CC1
:403AC00097F8562C97F8533C9A42DBD305E000BFD096FF1F789BFF1F00BF97F8553C9B00D7F8742C13441A6807F124031146184619F0EAFC07F12403184619F022FD034641
:403B000087F8523C97F8553C07F10802126813441B78002B40F01F8397F8543CD7F8702C13441B78013B092B00F20B8301A252F823F000BF5D3B0000B93C0000793D00008F
:403B4000BF3D0000153E0000633E0000733F0000E93F00006B400000D5400000D7F8483C1B78062B00F2E88201A252F823F000BF8D3B0000AD3B0000CF3B0000F93B00009B
:403B8000213C0000473C0000773C000007F12403184619F0D6FC03461A4607F124031344D54A1068186012791A7184E007F12403184619F0C6FC03461A4607F1240313440B
:403BC000CE491A460B4603CB1060516073E007F12403184619F0B5FC03461A4607F124031344C74A1D4614460FCC28606960AA60EB6023882B825EE007F12403184619F0FA
:403C0000A0FC03461A4607F124031344BD4A1C46134607CB20606160A2601B88A3814AE007F12403184619F08CFC03461A4607F124031344B4491A460B4603CB1060516037
:403C40001B88138137E007F12403184619F079FC03461A4607F124031344AC4A1D4614460FCC28606960AA60EB602388A2782B821346AB741FE007F12403184619F061FCDC
:403C800003461A4607F124031344A14A14469E4604F1200C754626460FCE28606960AA60EB6010340EF1100E6445F3D1724623461B88138000BF3FE2D7F8483C1B78032BD8
:403CC00000F23C8201A252F823F000BFDD3C0000033D0000233D0000493D000007F12403184619F02EFC03461A4607F12403134488491A460B4603CB106051601B8813819F
:403D000039E007F12403184619F01BFC03461A4607F124031344804A1068186012791A7129E007F12403184619F00BFC03461A4607F12403134479491A460B4603CB106078
:403D400051601B78137216E007F12403184619F0F8FB03461A4607F124031344704A1D4614460FCC28606960AA60EB6020682861A388AB8200BFE1E1D7F8483C1B78002BF9
:403D80000FD007F12403184619F0DBFB03461A4607F124031344634A1068186012791A71CFE107F12403184619F0CBFB03461A4607F1240313445C4A10681860C1E1D7F8D4
:403DC000483C1B78002B02D0012B12D0B9E107F12403184619F0B5FB03461A4607F124031344524A106818609188927999809A710FE007F12403184619F0A3FB03461A4622
:403E000007F1240313444A4A1068186092889A8000BF96E1D7F8483C1B78002B02D0012B10D08EE107F12403184619F08AFB03461A4607F1240313443E4A10681860127993
:403E40001A710DE007F12403184619F07AFB03461A4607F124031344374A1068186000BF6FE1D7F8483C1B78032B00F2698101A252F823F0853E0000A53E0000CD3E00008F
:403E8000493F000007F12403184619F05AFB03461A4607F124031344284A1068186092889A8065E007F12403184619F04AFB03461A4607F124031344214A1C46134607CBC3
:403EC00020606160A2601B88A38151E007F12403184619F036FB03461A4607F124031344184A1D4614460FCC28606960AA60EB6023882B823CE000BF88F3010090F30100DE
:403F000098F30100ACF30100BCF30100C8F30100DCF3010000F401000CF4010014F4010020F4010038F4010040F4010048F4010050F4010058F4010060F4010068F4010022
:403F400070F4010080F4010007F12403184619F0F8FA03461A4607F124031344D54A1C46134607CB20606160A2601B78237300BFE6E0D7F8483C1B78012B14D0022B22D01E
:403F8000002B00D02FE007F12403184619F0D9FA03461A4607F124031344C74A1068186092889A801FE007F12403184619F0C9FA03461A4607F124031344C04A10681860E9
:403FC00012791A710FE007F12403184619F0B9FA03461A4607F124031344B94A1068186092889A8000BFACE0D7F8483C1B78012B18D0022B28D0002B00D0A2E007F1240337
:40400000184619F09EFA03461A4607F124031344AC4A1C46134607CB20606160A2601B88A38121E007F12403184619F08AFA03461A4607F124031344A34A106818609188B5
:40404000927999809A710FE007F12403184619F078FA03461A4607F1240313449B4A1068186092889A8000BF6BE0D7F8483C1B78002B02D0012B15D063E007F12403184644
:4040800019F05FFA03461A4607F124031344904A1D4614460FCC28606960AA60EB602068286116E007F12403184619F04AFA03461A4607F124031344864A1D4614460FCC0F
:4040C00028606960AA60EB6020682861A388AB8200BF36E0D7F8483C1B78002B02D0012B14D02EE007F12403184619F02AFA03461A4607F124031344774A1C46134607CBC4
:4041000020606160A2601B88A38114E007F12403184619F016FA03461A4607F1240313446E4A1D4614460FCC28606960AA60EB6023882B8200BF04E000BF02E000BF00E09B
:4041400000BF07F12403184619F0FBF90346DBB2013387F8523C97F8523C87F8573C26E097F8553C322202FB03F31A1D97F8533C97F8551C381D00680144097801FB03F389
:404180001A4497F8523C1A4497F8573CD31A97F8521C97F8572C8A1A07F12401895C07F15802D15497F8573C013B87F8573C97F8573C002BD4D197F8553C07F108021268ED
:4041C00013441B78002B21D197F8553C322202FB03F31A1D97F8533C97F8551C381D00680144097801FB03F31A4497F8523C134497F8542CD7F8701C0A44117807F1580222
:40420000D15497F8543C013387F8543C97F8553C07F10802126813441B78002B1ED197F8553C322202FB03F31A1D97F8533C97F8551C381D00680144097801FB03F31A44C8
:4042400097F8523C1344023397F8552C394609680A44117807F15802D1541DE097F8553C322202FB03F31A1D97F8533C97F8551C381D00680144097801FB03F31A4497F82C
:40428000523C1344013397F8552C394609680A44117807F15802D15497F8553C013387F8553C97F8553C232B7EF6A1A8002387F8563C53E094F4010068F40100A4F4010022
:4042C000ACF40100B4F40100C4F40100CCF40100D4F40100ECF4010004F5010014F5010097F8563C9B00D7F87C2C13441B68184619F027F9034687F8523C97F8523C87F8C6
:40430000573C22E097F8563C962202FB03F303F20A7297F8523C1A4497F8573CD31A97F8562C9200D7F87C1C0A44126897F8520C97F8571C411A0A44117807F15802D154B7
:4043400097F8573C013B87F8573C97F8573C002BD8D197F8563C013387F8563C97F8563C072BBDD9B7F8503C5C1EB7F8503CDBB2013BDAB207F158031146184607F09CF8B0
:4043800003461A4607F158031A55B7F8502C07F158031146184607F00BF800BF07F65C47BD46F0BDB0B5ADF5976D04AF0246BB1D1A80002387F89D34012387F89C34054BA8
:4043C000C7F8A034BB1D1B88002B07D0024BC7F8A03403E0D096FF1F789BFF1FD7F8A03403F1A00207F55B731A6097F89D241346DB009B1A1B01B033D7F8A0241A4407F593
:404400005B735A6097F89D241346DB009B1A1B01B833D7F8A02413441A1D07F55B739A6097F89D241346DB009B1A1B01E033D7F8A0241A4407F55B73DA6097F89D241346C9
:40444000DB009B1A1B0103F58473D7F8A02413449A1D07F55B731A6197F89D241346DB009B1A1B0103F58473D7F8A0241344DA1D07F55B735A6197F89D24D7F8A0141346E5
:40448000DB009B1A1B010B4403F588731B781A4613465B0013441B0103F5C873D7F8A02413445A1D07F55B739A6197F89D24D7F8A0141346DB009B1A1B010B4403F5887381
:4044C0001B781A4613465B0013441B0103F5CC73D7F8A0241A4407F55B73DA6197F89D24D7F8A0141346DB009B1A1B010B4403F588731B781A4613465B0013441B0103F549
:40450000D073D7F8A02413441A1D07F55B731A6297F89D241346DB009B1A1B01E033D7F8A0241344DA1C07F55B735A6297F89D241346DB009B1A1B01E033D7F8A0241344B1
:404540001A1D07F55B739A6297F89D241346DB009B1A1B01E833D7F8A02413441A1D07F55B73DA6297F89D241346DB009B1A1B0103F58473D7F8A02413441A1D07F55B7378
:404580001A63D7F8A03403F5F87207F55B735A63D7F8A03403F2FD1207F55B739A63D7F8A03403F5FA7207F55B73DA63D7F8A03403F5FE7207F55B731A6497F89D24D7F804
:4045C000A0141346DB009B1A1B010B4403F588731B781A4613465B0013441B0103F5D873D7F8A0241A4407F55B735A6497F89D24D7F8A0141346DB009B1A1B010B4403F5CB
:4046000088731B781A4613465B0013441B0103F5D873D7F8A02413441A1D07F55B739A6497F89D241346DB009B1A1B01E033D7F8A02413445A1C07F55B73DA6497F89D2419
:404640001346DB009B1A1B01F033D7F8A02413441A1D07F55B731A65D7F8A03403F1A10207F55B735A65D7F8A03403F5287207F55B739A65D7F8A03403F5297207F55B73E7
:40468000DA65D7F8A03403F52A7207F55B731A66D7F8A03403F52B7207F55B735A66D7F8A03403F5FF7207F55B739A66D7F8A03403F1A70207F55B73DA66D7F8A03403F5BD
:4046C000007207F55B731A67D7F8A03403F2262207F55B735A67D7F8A03403F1A80207F55B739A67D7F8A03403F5087207F55B73DA67D7F8A03403F2012207F55B73C3F826
:404700008020D7F8A03403F2022207F55B73C3F88420D7F8A03403F1AB0207F55B73C3F88820D7F8A03493F8AB3012335B01D7F8A0241A4407F55B73C3F88C2097F89D2467
:404740001346DB009B1A1B0103F58873D7F8A0241A4407F55B73C3F8902097F89D241346DB009B1A1B01E033D7F8A02413449A1C07F55B73C3F8942097F89D241346DB0056
:404780009B1A1B0103F58873D7F8A02413445A1C07F55B73C3F8982097F89D241346DB009B1A1B0103F58873D7F8A02413449A1C07F55B73C3F89C2097F89D24D7F8A0149C
:4047C0001346DB009B1A1B010B4403F588731B781A4613465B0013441B0103F5D873D7F8A02413445A1C07F55B73C3F8A02097F89D24D7F8A0141346DB009B1A1B010B4449
:4048000003F588731B781A4613465B0013441B0103F5D873D7F8A02413445A1D07F55B73C3F8A420D7F8A03403F1A90207F55B73C3F8A82097F89C241346DB009B1A1B019B
:40484000B033D7F8A0241A4407F55B73C3F8AC2097F89C241346DB009B1A1B01B833D7F8A02413441A1D07F55B73C3F8B02097F89C241346DB009B1A1B01E033D7F8A02464
:404880001A4407F55B73C3F8B42097F89C241346DB009B1A1B0103F58473D7F8A02413449A1D07F55B73C3F8B82097F89C241346DB009B1A1B0103F58473D7F8A0241344D3
:4048C000DA1D07F55B73C3F8BC2097F89C24D7F8A0141346DB009B1A1B010B4403F588731B781A4613465B0013441B0103F5C873D7F8A02413445A1D07F55B73C3F8C02034
:4049000097F89C24D7F8A0141346DB009B1A1B010B4403F588731B781A4613465B0013441B0103F5CC73D7F8A0241A4407F55B73C3F8C42097F89C24D7F8A0141346DB00AD
:404940009B1A1B010B4403F588731B781A4613465B0013441B0103F5D073D7F8A02413441A1D07F55B73C3F8C82097F89C241346DB009B1A1B01E033D7F8A0241344DA1CFA
:4049800007F55B73C3F8CC2097F89C241346DB009B1A1B01E033D7F8A02413441A1D07F55B73C3F8D02097F89C241346DB009B1A1B01E833D7F8A02413441A1D07F55B732F
:4049C000C3F8D42097F89C241346DB009B1A1B0103F58473D7F8A02413441A1D07F55B73C3F8D82097F89C24D7F8A0141346DB009B1A1B010B4403F588731B781A461346C2
:404A00005B0013441B0103F5D873D7F8A0241A4407F55B73C3F8DC2097F89C24D7F8A0141346DB009B1A1B010B4403F588731B781A4613465B0013441B0103F5D873D7F8AE
:404A4000A02413441A1D07F55B73C3F8E02097F89C241346DB009B1A1B01E033D7F8A02413445A1C07F55B73C3F8E42097F89C241346DB009B1A1B01F033D7F8A0241344AE
:404A80001A1D07F55B73C3F8E82097F89C241346DB009B1A1B0103F58873D7F8A0241A4407F55B73C3F8EC2097F89C241346DB009B1A1B01E033D7F8A02413449A1C07F566
:404AC0005B73C3F8F02097F89C241346DB009B1A1B0103F58873D7F8A02413445A1C07F55B73C3F8F42097F89C241346DB009B1A1B0103F58873D7F8A02413449A1C07F5FA
:404B00005B73C3F8F82097F89C24D7F8A0141346DB009B1A1B010B4403F588731B781A4613465B0013441B0103F5D873D7F8A02413445A1C07F55B73C3F8FC2097F89C240E
:404B4000D7F8A0141346DB009B1A1B010B4403F588731B781A4613465B0013441B0103F5D873D7F8A02413445A1D07F55B73C3F80021D7F8A03403F5C87207F55B73C3F8AD
:404B80000421D7F8A03403F5E07207F55B73C3F80821D7F8A03403F2272207F55B73C3F80C21D7F8A03403F50A7207F55B73C3F81021D7F8A03403F22E2207F55B73C3F868
:404BC0001421D7F8A03403F1AC0207F55B73C3F8182107F54973F34A1846114647231A4617F09EFE07F5377301221A7007F5377303225A7007F5377303229A7007F5377303
:404C00000122DA7007F5377301221A7107F5377301225A7107F5377303229A7107F537730322DA7107F5377303221A7207F5377301225A7207F5377302229A7207F53773CB
:404C40000222DA7207F5377301221A7307F5377302225A7307F5377301229A7307F537730222DA7307F5377301221A7407F5377301225A7407F5377301229A7407F537737F
:404C80000122DA7407F5377306221A7507F5377303225A7507F5377301229A7507F537730122DA7507F5377301221A7607F5377301225A7607F5377301229A7607F537732B
:404CC0000122DA7607F5377301221A7707F5377301225A7707F5377301229A7707F537730622DA7707F53773012283F8202007F53773052283F8212007F53773012283F803
:404D0000222007F53773062283F8232007F53773012283F8242007F53773012283F8252007F53773012283F8262007F53773012283F8272007F53773032283F8282007F5F5
:404D40003773032283F8292007F53773012283F82A2007F53773032283F82B2007F53773032283F82C2007F53773012283F82D2007F53773012283F82E2007F53773012203
:404D800083F82F2007F53773032283F8302007F53773032283F8312007F53773032283F8322007F53773012283F8332007F53773022283F8342007F53773022283F835209A
:404DC00007F53773012283F8362007F53773012283F8372007F53773012283F8382007F53773012283F8392007F53773062283F83A2007F53773012283F83B2007F537735D
:404E0000012283F83C2007F53773012283F83D2007F53773012283F83E2007F53773032283F83F2007F53773032283F840205E4B1A7807F5377383F841205B4B5A7807F5B9
:404E4000377383F8422007F53773012283F8432007F53773062283F8442007F53773062283F8452007F53773012283F8462007F5257300221A7097F89D340A33DAB207F59A
:404E800025735A7097F89D340A33DAB207F525739A7097F89D340A33DAB207F52573DA7097F89D340A33DAB207F525731A7197F89D340A33DAB207F525735A7197F89D24A2
:404EC000D7F8A0141346DB009B1A1B010B4403F588731B781433DAB207F525739A7197F89D24D7F8A0141346DB009B1A1B010B4403F588731B781433DAB207F52573DA7184
:404F000097F89D24D7F8A0141346DB009B1A1B010B4403F588731B781433DAB207F525731A7297F89D340A33DAB207F525735A7297F89D340A33DAB207F525739A7297F8F0
:404F40009D340A33DAB207F52573DA7297F89D340A33DAB207F525731A7307F525731E225A7307F525731E229A7307F525731E22DA7307F525731E221A7497F89D24D7F849
:404F8000A0141346DB009B1A1B010B4403F588731B781433DAB207F525735A7497F89D2404E000BFE8F70100E495FF1FD7F8A0141346DB009B1A1B010B4403F588731B7867
:404FC0001433DAB207F525739A7497F89D340A33DAB207F52573DA7497F89D340A33DAB207F525731A7507F5257300225A7507F5257346229A7507F525734622DA7507F50E
:40500000257346221A7607F5257346225A7607F525731E229A7607F525730022DA7607F5257328221A7707F5257332225A7707F5257300229A7707F525733222DA7707F506
:405040002573282283F8202007F52573282283F8212007F52573002283F82220D7F8A03493F8AB303C33DAB207F5257383F8232097F89D340A33DAB207F5257383F82420B4
:4050800097F89D340A33DAB207F5257383F8252097F89D340A33DAB207F5257383F8262097F89D340A33DAB207F5257383F8272097F89D24D7F8A0141346DB009B1A1B019E
:4050C0000B4403F588731B781433DAB207F5257383F8282097F89D24D7F8A0141346DB009B1A1B010B4403F588731B781433DAB207F5257383F8292007F52573002283F8A8
:405100002A2097F89C340A33DAB207F5257383F82B2097F89C340A33DAB207F5257383F82C2097F89C340A33DAB207F5257383F82D2097F89C340A33DAB207F5257383F865
:405140002E2097F89C340A33DAB207F5257383F82F2097F89C24D7F8A0141346DB009B1A1B010B4403F588731B781433DAB207F5257383F8302097F89C24D7F8A014134652
:40518000DB009B1A1B010B4403F588731B781433DAB207F5257383F8312097F89C24D7F8A0141346DB009B1A1B010B4403F588731B781433DAB207F5257383F8322097F8CC
:4051C0009C340A33DAB207F5257383F8332097F89C340A33DAB207F5257383F8342097F89C340A33DAB207F5257383F8352097F89C340A33DAB207F5257383F8362097F881
:405200009C24D7F8A0141346DB009B1A1B010B4403F588731B781433DAB207F5257383F8372097F89C24D7F8A0141346DB009B1A1B010B4403F588731B781433DAB207F59D
:40524000257383F8382097F89C340A33DAB207F5257383F8392097F89C340A33DAB207F5257383F83A2097F89C340A33DAB207F5257383F83B2097F89C340A33DAB207F5EC
:40528000257383F83C2097F89C340A33DAB207F5257383F83D2097F89C340A33DAB207F5257383F83E2097F89C24D7F8A0141346DB009B1A1B010B4403F588731B78143363
:4052C000DAB207F5257383F83F2097F89C24D7F8A0141346DB009B1A1B010B4403F588731B781433DAB207F5257383F8402007F52573142283F8412007F52573152283F8DA
:40530000422007F52573322283F8432007F52573322283F8442007F52573322283F8452007F52573002283F8462007F5BC73CA4A184611464FF48E731A4617F0F1FA07F599
:40534000807300221A60043372220021184617F0F2FA07F5807064230A22C04918F0B4F807F1D803BE4A1A6007F1D803BD4A5A6007F1D803BC4A9A6007F1D803BB4ADA6037
:4053800007F1D803BA4A1A6107F1D803B94A5A6107F1D80307F580729A6107F1D803B64ADA6107F1D803B54A1A6207F1D803B44A5A6207F1BC03B34A1C4615462868696893
:4053C000AA68EB680FC428696969AA6907C407F1B003AD4A1068516803C3127A1A7007F19C03AA4A1C46154628686968AA68EB680FC42B8A2380232387F89B34002387F816
:40540000A634002387F8A73421E097F8A63407F1B002D35C1A4697F8A73401339A420BD197F8A73407F154020121D15497F8A634013387F8A63405E097F8A73407F154028A
:405440000021D15497F8A734013387F8A73497F8A734462BD9D9002387F8A634002387F8A73421E097F8A63407F19C02D35C1A4697F8A73401339A420BD197F8A73407F121
:405480000C020121D15497F8A634013387F8A63405E097F8A73407F10C020021D15497F8A734013387F8A73497F8A734462BD9D9BB1D1B88002B17D107F5257407F53772B9
:4054C00007F5497107F55B7007F1D803039307F15403029307F5BC73019307F1BC0300932346FCF737FFD9E2BB1D1B88DBB2013B87F89A3497F89A3407F54972D35C092B84
:4055000022D801A252F823F031550000315500003155000039550000395500004155000041550000415500004955000031550000012387F8A53407E0022387F8A53403E01A
:40554000042387F8A53400BF97F89A3407F10C02D35C002B40F0368297F89A3407F54972D35C092B00F2368201A252F823F000BF995500004F56000099550000DF560000B2
:4055800075570000095800009D58000031590000D5590000E5550000002387F8A73417E097F89A2407F55B7353F8223097F8A72497F8A51401FB02F2134497F8A724033237
:4055C00033498A5C1A7097F8A734013387F8A73497F89A3407F53772D35C97F8A7249A42DED3F8E1002387F8A73417E097F89A2407F55B7353F8223097F8A72497F8A5140C
:4056000001FB02F2134497F8A724033220498A5C1A7097F8A734013387F8A73497F89A3407F53772D35C97F8A7249A42DED397F89A2407F55B7353F8223097F8A72497F80E
:40564000A51401FB02F2134400221A70C3E1002387F8A73439E000BF58FF010028F501009CF5010018F6010058F6010084F601009CF60100C4F6010020F7010060F70100E6
:40568000A8F7010074000200900002009C000200CC94FF1F97F89A2407F55B7353F8223097F8A72497F8A51401FB02F2134497F8A7240332C6490A4492F90020D2B21A70E4
:4056C00097F8A734013387F8A73497F89A3407F53772D35C97F8A7249A42DBD37BE1002387F8A7343CE097F8A73497F8A52402FB03F30333B64A1344B3F90030A7F898341F
:40570000002387F8A63420E097F89A2407F55B7353F8222097F8A73497F8A51401FB03F3184697F8A51497F8A634CB1A0344013B134497F8A62407F593610A4412781A702C
:4057400097F8A634013387F8A63497F8A62497F8A5349A42D8D397F8A734013387F8A73497F89A3407F53772D35C97F8A7249A42B9D330E1002387F8A7343BE097F8A734ED
:4057800097F8A52402FB03F30333914A13441B88A7F89634002387F8A63420E097F89A2407F55B7353F8222097F8A73497F8A51401FB03F3184697F8A51497F8A634CB1A72
:4057C0000344013B134497F8A62407F296410A4412781A7097F8A634013387F8A63497F8A62497F8A5349A42D8D397F8A734013387F8A73497F89A3407F53772D35C97F84E
:40580000A7249A42BAD3E6E0002387F8A7343BE097F8A73497F8A52402FB03F303336C4A13441B68C7F89034002387F8A63420E097F89A2407F55B7353F8222097F8A7344E
:4058400097F8A51401FB03F3184697F8A51497F8A634CB1A0344013B134497F8A62407F592610A4412781A7097F8A634013387F8A63497F8A62497F8A5349A42D8D397F8A9
:40588000A734013387F8A73497F89A3407F53772D35C97F8A7249A42BAD39CE0002387F8A7343BE097F8A73497F8A52402FB03F30333474A13441B68C7F88C34002387F800
:4058C000A63420E097F89A2407F55B7353F8222097F8A73497F8A51401FB03F3184697F8A51497F8A634CB1A0344013B134497F8A62407F28C410A4412781A7097F8A634CE
:40590000013387F8A63497F8A62497F8A5349A42D8D397F8A734013387F8A73497F89A3407F53772D35C97F8A7249A42BAD352E0002387F8A7343BE097F8A73497F8A5241A
:4059400002FB03F30333224A13441B68C7F88834002387F8A63420E097F89A2407F55B7353F8222097F8A73497F8A51401FB03F3184697F8A51497F8A634CB1A0344013B02
:40598000134497F8A62407F591610A4412781A7097F8A634013387F8A63497F8A62497F8A5349A42D8D397F8A734013387F8A73497F89A3407F53772D35C97F8A7249A424A
:4059C000BAD308E0BB1D1B88184600F06FF802E0CC94FF1F00BF97F89B349BB2BA1D12889A4211D0D7F8A03493F8AB305B0103F51273D7F8A024D018D7F8A03403F5F873A7
:405A00001022194616F08CFF97F89A3407F54972D35C002B42D1002387F89F34FF2387F89E3497F89F3407F54972D35C002B04D197F89E34013387F89E3497F89F34013317
:405A400087F89F3497F89F2497F89A349A42E8D997F89E3407F1BC02D35C052B1BD097F89E3407F1BC02D35C062B14D097F89E3407F1BC02D35C082B0DD097F89E3407F11D
:405A8000BC02D35C092B06D097F89E3407F1BC02D35C0A2B02D1044B01221A7000BF07F59567BD46B0BD00BFD581FF1FF0B587B000AF0346FB8000233B750123FB74FB8813
:405AC000023B452B01F2EB8101A252F823F000BFE95B00001B5E00009F6E0000616000009F6E00009F6E0000AB6000009F6E00009F6E0000E16100009F6E00009F6E0000B5
:405B00009F6E00009F6E00009F6E00009F6E00009F6E00009F6E00009F6E00009F6E00009F6E0000E16200003F6300009F6E00009F6E00009F6E0000796300009F6E0000FB
:405B40009F6E0000F5640000A16500009F6E00009F6E00009F6E00009F6E00009F6E0000DB6500009F6E00009F6E00009F6E00009F6E00009F6E0000156600005B680000B9
:405B80009F6E0000896A00009F6E00009F6E0000F16A00009F6E00009F6E0000056C00009F6E00009F6E00009F6E00009F6E00009F6E00009F6E00009F6E0000036D00001A
:405BC0009F6E00009F6E00009F6E00009F6E00009F6E00009F6E00009F6E00009F6E00009F6E00004D6D00003A7DAB491346DB009B1A1B010B4403F20F131B78032B00F0AF
:405C00008680A64B1B68FB600023BB750EE0BB7DC3F1030307F108021344BA7D07F10C010A4412781A70BB7D0133BB75BB7D032BEDD93C7DBB684FF08F41184616F058FCFA
:405C40000346184616F01AFE0146954A2346DB001B1B1B011344B0331960924B1B68FB600023BB750EE0BB7DC3F1030307F108021344BA7D07F10C010A4412781A70BB7DD3
:405C80000133BB75BB7D032BEDD93C7DBB684FF08F41184616F02CFC0346184616F0EEFD01467F4A2346DB001B1B1B011344B43319607D4B1B68FB600023BB750EE0BB7DC9
:405CC000C3F1030307F108021344BA7D07F10C010A4412781A70BB7D0133BB75BB7D032BEDD93C7DBB684FF08F41184616F000FC0346184616F0C2FD0146694A2346DB0036
:405D00001B1B1B011344B833196001F0D3B8634B1B68FB600023BB750EE0BB7DC3F1030307F108021344BA7D07F10C010A4412781A70BB7D0133BB75BB7D032BEDD93C7DA3
:405D4000BB684FF08F41184616F0D2FB0346184616F094FD0146524A2346DB001B1B1B011344C83319604F4B1B68FB600023BB750EE0BB7DC3F1030307F108021344BA7D03
:405D800007F10C010A4412781A70BB7D0133BB75BB7D032BEDD93C7DBB684FF08F41184616F0A6FB0346184616F068FD01463C4A2346DB001B1B1B011344CC3319603A4BFB
:405DC0001B68FB600023BB750EE0BB7DC3F1030307F108021344BA7D07F10C010A4412781A70BB7D0133BB75BB7D032BEDD93C7DBB684FF08F41184616F07AFB0346184668
:405E000016F03CFD0146264A2346DB001B1B1B011344D033196001F04DB83A7D1E491346DB009B1A1B010B4403F20F131B78032B00F09080194B1B68FB600023BB750EE040
:405E4000BB7DC3F1030307F108021344BA7D07F10C010A4412781A70BB7D0133BB75BB7D032BEDD93C7DBB684FF08F41184616F03FFB0346184616F001FD0146084A23463B
:405E8000DB001B1B1B011344BC331960054B1B68FB600023BB7518E0D096FF1FCF94FF1F789BFF1FD394FF1FD794FF1FBB7DC3F1030307F108021344BA7D07F10C010A4464
:405EC00012781A70BB7D0133BB75BB7D032BEDD93C7DBB684FF08F41184616F009FB0346184616F0CBFC0146B54A2346DB001B1B1B011344C0331960B24B1B68FB60002362
:405F0000BB750EE0BB7DC3F1030307F108021344BA7D07F10C010A4412781A70BB7D0133BB75BB7D032BEDD93C7DBB684FF08F41184616F0DDFA0346184616F09FFC0146DD
:405F40009F4A2346DB001B1B1B011344C433196000F0B0BF9C4B1B68FB600023BB750EE0BB7DC3F1030307F108021344BA7D07F10C010A4412781A70BB7D0133BB75BB7DB9
:405F8000032BEDD93C7DBB684FF08F41184616F0AFFA0346184616F071FC0146884A2346DB001B1B1B011344D4331960874B1B68FB600023BB750EE0BB7DC3F1030307F17A
:405FC00008021344BA7D07F10C010A4412781A70BB7D0133BB75BB7D032BEDD93C7DBB684FF08F41184616F083FA0346184616F045FC0146724A2346DB001B1B1B01134430
:40600000D83319606F4B1B68FB600023BB750EE0BB7DC3F1030307F108021344BA7D07F10C010A4412781A70BB7D0133BB75BB7D032BEDD93C7DBB684FF08F41184616F003
:4060400057FA0346184616F019FC01465C4A2346DB001B1B1B011344DC33196000F02ABF3A7D5B4BD87856491346DB009B1A1B010B4403F5877302461A70397D3A7D504869
:406080001346DB009B1A1B01034403F588731B781846504A342303FB00F313441A684E480B0103441A6000F005BF0023FB757EE03A7D43491346DB009B1A1B010B4403F55E
:4060C00088731B781C46FA7DFB7D5B0003334049CB5C1B0219B2FB7D02335B003C48C35C1BB20B431BB21846354923465B0023449B001344663341F823003A7D304913468E
:40610000DB009B1A1B010B4403F588731B781D46F97D3A7D2A481346DB009B1A1B01034403F588731B781C46FA7D254823465B0023449B001344663350F823003A7D204C80
:406140001346DB009B1A1B01234403F588731B781E46FA7D1A4C33465B0033441B012344134403F295131B7800FA03F214482B465B002B449B000B44663340F823203A7D5C
:406180000F491346DB009B1A1B010B4403F588731B781846FB7D0F49342202FB00F20A441344183300221A70FB7D0133FB75FB7D022B7FF67DAF094B01221A7000F07ABE13
:4061C000789BFF1FD794FF1FCF94FF1FD394FF1FCC94FF1F0C96FF1FC099FF1FCC96FF1F3A7DC14BDB781906BF4B1B791B041943BD4B5B791B020B43BB4989791943BB48B0
:406200001346DB009B1A1B010344E43319603A7DB54BDB791906B44B1B7A1B041943B24B5B7A1B020B43B049897A1943AF481346DB009B1A1B010344E83319603A7D397D70
:40624000AA480B46DB005B1A1B010344E4331868397DA64C0B46DB005B1A1B01234403F588731B781C46A14923465B0023441B010B4403F295131B7800FA03F19B48134603
:40628000DB009B1A1B010344E43319603A7D397D96480B46DB005B1A1B010344E8331868397D924C0B46DB005B1A1B01234403F588731B781C468D4923465B0023441B01B4
:4062C0000B4403F295131B7800FA03F187481346DB009B1A1B010344E833196000F0EABD814BDB781A06804B1B791B041A437E4B5B791B0213437C4A927913437B4AC2F81B
:40630000A0327A4BD3F8A0123A7D78481346DB009B1A1B01034403F588731B781846734A03465B0003441B01134403F295131B7801FA03F36D4AC2F8A03200F0BBBD6A4B06
:40634000DB781A06684B1B791B041A43664B5B791B021343644A92791343644AC2F8A432624BD3F8A432092B00F39B855F4B0A22C3F8A42200F095BD5B4BDB78BB74BB7C15
:40638000002B04D0594B012283F8A72003E0574B002283F8A720564B01221A70534B93F8AC30002B40F07F853A7D504B93F8A7004E491346DB009B1A1B010B4403F58873D8
:4063C00002461A703A7D49491346DB009B1A1B010B4403F588731B781946444A0B465B000B441B01134403F5D87301221A703A7D3E491346DB009B1A1B010B4403F58873D8
:406400001B781946394A0B465B000B441B01134403F2B51323221A703A7D34491346DB009B1A1B010B4403F588731B7819462F4A0B465B000B441B01134403F5DB7303222E
:406440001A703A7D29491346DB009B1A1B010B4403F588731B781946244A0B465B000B441B01134403F2B713FF221A703A7D1F491346DB009B1A1B010B4403F2111301223B
:406480001A703A7D19491346DB009B1A1B010B4403F5897301221A703A7D14491346DB009B1A1B010B44E43300221A603A7D0F4B93F8103118460D4903465B0003441B0191
:4064C0000B4403F295131B7819464FF47A5303FA01F106481346DB009B1A1B010344E833196000F0E0BC00BFCC94FF1F789BFF1FCC96FF1FA94BDB78BB74BB7C002B05D06A
:406500000BF078F9A64B002283F8A820A54B93F82632012B40F0C98487200BF00DFF0346BB74BB7C1B09DBB21A46920013445B00DAB2BB7C03F00F03DBB21344DAB2984B50
:4065400083F8A42089200BF0F7FE0346BB74BB7C1B09DBB21A46920013445B00DAB2BB7C03F00F03DBB21344DAB28D4B83F8A5208D200BF0E1FE0346BB74BB7C1B09DBB208
:406580001A46920013445B00DAB2BB7C03F00F03DBB21344DAB2824B83F8A62000F085BC00237B750CE07B7D7A7D03327B49895C7B4A13440A4683F820227B7D01337B75AF
:4065C0007B7D052BEFD9764B93F82632012B40F06E840BF0B5FF00F06ABC3A7D6F4BD8786F491346DB009B1A1B010B44E23302461A706B4B93F852315B005AB2684B93F8D7
:40660000E2305BB213435BB2DBB2184611F0ACF900F050BCFA7C63491346DB009B1A1B010B4403F20F131B78032B00F085805E4B1B68FB600023BB750EE0BB7DC3F103034E
:4066400007F108021344BA7D07F10C010A4412781A70BB7D0133BB75BB7D032BEDD9FC7CBB684FF08F41184615F042FF0346184616F004F901464A4A2346DB001B1B1B01F2
:406680001344B0331960494B1B68FB600023BB750EE0BB7DC3F1030307F108021344BA7D07F10C010A4412781A70BB7D0133BB75BB7D032BEDD9FC7CBB684FF08F411846BB
:4066C00015F016FF0346184616F0D8F80146344A2346DB001B1B1B011344B4331960344B1B68FB600023BB750EE0BB7DC3F1030307F108021344BA7D07F10C010A441278F4
:406700001A70BB7D0133BB75BB7D032BEDD9FC7CBB684FF08F41184615F0EAFE0346184616F0ACF801461E4A2346DB001B1B1B011344B8331960BDE31B4B1B68FB600023BA
:40674000BB750EE0BB7DC3F1030307F108021344BA7D07F10C010A4412781A70BB7D0133BB75BB7D032BEDD9FC7CBB684FF08F41184615F0BDFE0346184616F07FF8014617
:40678000074A2346DB001B1B1B011344C8331960064B1B68FB600023BB751AE0CC94FF1F789BFF1FD096FF1FCF94FF1FD394FF1FD794FF1FBB7DC3F1030307F1080213449E
:4067C000BA7D07F10C010A4412781A70BB7D0133BB75BB7D032BEDD9FC7CBB684FF08F41184615F085FE0346184616F047F80146B74A2346DB001B1B1B011344CC3319600A
:40680000B44B1B68FB600023BB750EE0BB7DC3F1030307F108021344BA7D07F10C010A4412781A70BB7D0133BB75BB7D032BEDD9FC7CBB684FF08F41184615F059FE0346DC
:40684000184616F01BF80146A14A2346DB001B1B1B011344D03319602CE3FA7C9E491346DB009B1A1B010B4403F20F131B78032B00F08580994B1B68FB600023BB750EE076
:40688000BB7DC3F1030307F108021344BA7D07F10C010A4412781A70BB7D0133BB75BB7D032BEDD9FC7CBB684FF08F41184615F01FFE0346184615F0E1FF0146844A2346F3
:4068C000DB001B1B1B011344BC331960844B1B68FB600023BB750EE0BB7DC3F1030307F108021344BA7D07F10C010A4412781A70BB7D0133BB75BB7D032BEDD9FC7CBB6872
:406900004FF08F41184615F0F3FD0346184615F0B5FF01466E4A2346DB001B1B1B011344C03319606B4B1B68FB600023BB750EE0BB7DC3F1030307F108021344BA7D07F1EE
:406940000C010A4412781A70BB7D0133BB75BB7D032BEDD9FC7CBB684FF08F41184615F0C7FD0346184615F089FF0146584A2346DB001B1B1B011344C43319609AE2574B77
:406980001B68FB600023BB750EE0BB7DC3F1030307F108021344BA7D07F10C010A4412781A70BB7D0133BB75BB7D032BEDD9FC7CBB684FF08F41184615F09AFD03461846BC
:4069C00015F05CFF0146424A2346DB001B1B1B011344D4331960424B1B68FB600023BB750EE0BB7DC3F1030307F108021344BA7D07F10C010A4412781A70BB7D0133BB75C6
:406A0000BB7D032BEDD9FC7CBB684FF08F41184615F06EFD0346184615F030FF01462C4A2346DB001B1B1B011344D8331960294B1B68FB600023BB750EE0BB7DC3F1030324
:406A400007F108021344BA7D07F10C010A4412781A70BB7D0133BB75BB7D032BEDD9FC7CBB684FF08F41184615F042FD0346184615F004FF0146164A2346DB001B1B1B011F
:406A80001344DC33196015E2FA7C164BD87810491346DB009B1A1B010B4403F5877302461A70F97CFA7C0A481346DB009B1A1B01034403F588731B7818460B4A342303FB51
:406AC00000F313441A6809480B0103441A60F1E1789BFF1FD794FF1FD096FF1FCF94FF1FD394FF1FCC94FF1F0C96FF1FC099FF1F0023FB757EE0FA7C90491346DB009B1AB8
:406B00001B010B4403F588731B781C46FA7DFB7D5B0003338A49CB5C1B0219B2FB7D02335B008748C35C1BB20B431BB21846834923465B0023449B001344663341F8230086
:406B4000FA7C7E491346DB009B1A1B010B4403F588731B781D46F97DFA7C78481346DB009B1A1B01034403F588731B781C46FA7D724823465B0023449B001344663350F88C
:406B80002300FA7C6D4C1346DB009B1A1B01234403F588731B781E46FA7D684C33465B0033441B012344134403F295131B7800FA03F262482B465B002B449B000B44663356
:406BC00040F82320FA7C5D491346DB009B1A1B010B4403F588731B781846FB7D5949342202FB00F20A441344183300221A70FB7D0133FB75FB7D022B7FF67DAF524B0122A9
:406C00001A7057E1FA7C4E4BDB7819064C4B1B791B0419434A4B5B791B020B4348498979194346481346DB009B1A1B010344E4331960FA7C424BDB791906414B1B7A1B0488
:406C400019433F4B5B7A1B020B433D49897A19433A481346DB009B1A1B010344E8331960FA7CF97C35480B46DB005B1A1B010344E4331868F97C314C0B46DB005B1A1B01F5
:406C8000234403F588731B781C462C4923465B0023441B010B4403F295131B7800FA03F126481346DB009B1A1B010344E4331960FA7CF97C21480B46DB005B1A1B010344BA
:406CC000E8331868F97C1D4C0B46DB005B1A1B01234403F588731B781C46184923465B0023441B010B4403F295131B7800FA03F112481346DB009B1A1B010344E8331960C0
:406D0000D8E0FA7C0E4BD8780C491346DB009B1A1B010B44E23302461A70084B93F852315B005AB2054B93F8E2305BB213435BB2DBB2184610F018FEBCE000BF789BFF1F3A
:406D4000CC94FF1F0C96FF1FCC96FF1F5B4BDA785B4B83F8AC205A4B93F8AC30002B40F0A8803A7D56491346DB009B1A1B010B4403F588731B781946514A0B465B000B44BC
:406D80001B01134403F5D87301221A703A7D4C491346DB009B1A1B010B4403F588731B781946474A0B465B000B441B01134403F2B51323221A703A7D41491346DB009B1A36
:406DC0001B010B4403F588731B7819463C4A0B465B000B441B01134403F5DB7303221A703A7D37491346DB009B1A1B010B4403F588731B781946324A0B465B000B441B0157
:406E0000134403F2B713FF221A703A7D2C4B93F8A7002B491346DB009B1A1B010B4403F5887302461A703A7D25491346DB009B1A1B010B4403F2111301221A703A7D204945
:406E40001346DB009B1A1B010B4403F5897301221A703A7D1A491346DB009B1A1B010B44E43300221A603A7D154B93F810311846134903465B0003441B010B4403F295136C
:406E80001B7819464FF47A5303FA01F10C481346DB009B1A1B010344E833196009E000BF08E000BF06E000BF04E000BF02E000BF00E000BF00BF1C37BD46F0BDCC94FF1F96
:406EC000789BFF1FB0B5ADF5D56D00AF0246BB1D1A8007F58A7300221A60043340F275520021184615F027FD0723A7F89A360023A7F8A6360223A7F89836B7F89A365A1C84
:406F0000B7F8A636134401339AB2D24B1B789BB213449BB21A46920013441A4691001A460B4613445B009BB2FB33A7F896360023A7F8943607F1F803C74A1C4615460FCDA2
:406F40000FC495E8070003C4228007F1EC0300221A60043300221A60C3F8032007F1D803BE4A1C4615460FCD0FC42B68236007F1C80300221A60043300221A605A609A60DA
:406F800007F19C0300221A60043326220021184615F0D1FC07F1800300221A60043300221A605A609A60DA601A619A8207F1C803184616F0C6FA034687F8933607F1F803F4
:406FC000184616F0BEFA034687F8923607F1EC03184616F0B6FA034687F8913607F1D803184616F0AEFA034687F8903607F19C03184616F0A6FA034687F88F3607F180034B
:40700000184616F09EFA034687F89D3607F1080300221A60043372220021184615F08BFC07F1080064230A228D4916F04DFA07F10803184616F085FA034687F88E36854B2C
:407040001B785B08DBB2A7F8A636824B1B781A46B7F8A6365B00D31A002B04DDB7F8A6360133A7F8A636B7F89A365A1CB7F8A636134401339AB2774B1B789BB213449BB29C
:407080001A46920013441A4691001A460B4613445B009BB2C933A7F89636B7F89A26B7F8A63613449BB20333A7F8983607F58A73A2221A70B7F89A36DAB2B7F8A636DBB2D4
:4070C0001344DAB2634B1B781344DBB20333DAB207F58A735A70BB1D1B88002B40F0D0840023A7F8943607F58A7302229A7007F58A730122DA70574B1A7807F58A731A7108
:4071000097F89236A7F8A43615E097F892365A1DB7F8A436D31A97F89216B7F8A4268A1A07F1F801895C07F58A72D154B7F8A436013BA7F8A436B7F8A436002BE5D1B7F8A8
:4071400094363233A7F894360023A7F8A4360023A7F8A036B2E0B7F8A02607F1EC034149184616F0B1F90423A7F89E3607F1EC03184616F0E6F9034687F89136B7F89436F1
:407180009A1CB7F8A036322101FB03F3134407F58A720221D154B7F89436DA1CB7F8A036322101FB03F3134407F58A720321D154B7F8A0361A4652001344A7F8A23639E0C9
:4071C000B7F8A436284AD35C9BB2B7F8A2269A4217D1B7F89E26B7F894361A44B7F8A036322101FB03F31344B7F8A4261E49895C07F58A72D154B7F8A4360133A7F8A4365A
:407200000EE0B7F89E26B7F894361A44B7F8A036322101FB03F3134407F58A72FF21D154B7F89E360133A7F89E36B7F8A2360133A7F8A236B7F8A216B7F8A02613465B00CC
