:400000000080002011000000A9020000A9020000044A08B51268044B1A6000F0ADF900F04BF900BFFA460040BC76004010B5054C237833B9044B13B10448AFF300800123AE
:40004000237010BD4881FF1F000000001C170000084B10B51BB108490848AFF300800848036803B910BD074B002BFBD0BDE81040184700BF000000004C81FF1F1C170000A2
:40008000C880FF1F0000000008B500F077FDFEE7F8B572B66D4E0024354604EB4403AA8856F813000134002101F02CFB0A2C05F10605F2D1664E674B96E803008022186073
:4000C0009980654806F1080101F0F6FA06F1840706F1E00E0025E43657F8043F13F0FF0C23F0FF0414D00CF1FF3C5FFA8CFC05EB0C0006EB400006EB45030330013313F828
:40010000012C13F8021B98421155F8D1013565447745E1D1514C41F251262278504F42F0020222703A784F4D42F002023A702A78A4F5863442F040022A70413C2278A7F5E8
:400140007E4742F01002484B2270513F04F66E5403CB3860796003CBC5F8720DC5F8761D93E8070003C4414922800B7805F58C6543F008030B703E4C3E4861232B70A7F604
:40018000C2673D4A332118250223218005704FF040243B7008210320384B217010701A783748384BD2B287F8A123A4F8221206801C784FF4F07004F001041E4600F0D0FF91
:4001C00001E0032C0DD033784FF4F07003F0010343EA440400F0C4FF013D04F00304F0D1FEE7294B294D2A4F2A484FF4807407221C8000211A704826274A022439702E70FE
:4002000019700470137800F5F820033043F00103812601242149137085F8F86704700B78A0F5F420DBB21E49A0F2967005F5C35503F007071B4C1B090770023A0B700E35EF
:4002400044260FCA2E7007C42380F8BD201700005C17000060520040001A01400350014013500140A04300407C1B0000224300408040004082400040004200400801004916
:40028000204200402542004004400040084000400640004001400040A2430040CF0100496F580040B043004008B501F0D9F903680C2B00D0FEE7FEE780B5134FF7B1134E0E
:4002C000002556F80C0C56F8084C56F8102C03463CB1043A52F8041F43F8041B191AA142F8D156F8040C1A4620B142F8045BD11A8842FAD1013F06F11006E2D101F0B6F9E5
:40030000FFF7C2FEFEE700BF01000000D81B00000E4B0F4A0F491A600B680F4A43F400730E480B600023032B94BF50F823100C490133302B42F8041FF5D10A4B0A49187856
:400340000A4A0B4B08701A60FFF7A2BE0CED00E00004FA0514ED00E0FC7FFF1F00000000A9020000BC760040C080FF1F0080FF1F08ED00E0004700BF134A137803F0C003A3
:40038000802B00D0704770B400231048104E114D1370017833782A780F4C120442EA032322780B4353EA026301D170BC7047017833782A782078120442EA03230B4343EA24
:4003C000006070BCFFF7D6BFFA460040C1FF0300C2FF0300C3FF0300C4FF0300F0B50002C0F57F3090F8C5E390F8C67390F8C92390F8CAC390F8CB1390F8CC3390F8D15336
:40040000C1B0012D69D0DBB21D06C9B290F8C53390F8C663FFB245EA01415FFA8EFED2B25FFA8CFC0A434EEA072E43EA062642EA0C220EF10107013602EB072736020022FC
:40044000B74200F2D13415460AD916F8013B591EC9B2FD29134498BF0125B742DAB2F4D190F8C53390F8C6131D4E43EA0121B7424FEA411101F1200114BFFF084FF4004738
:400480008F4209D901F1904107F1904711F8013B1344B942DAB2F9D1534290F8C023DBB2934202D0062041B0F0BD002DFAD068464FF4807224F0FF0101F009F99DF8D1309B
:4004C000012B0AD00123C4F307216A4603208DF8D13000F0E1FB00F005FD002041B0F0BDC0FF0300013810B40B2863D8DFE800F017202632383E444A50565C060902C1F5DE
:400500007F3101F578710A784C788B78C8781B0443EA0423134343EA006010BC70470902C1F57F3101F57071087810BCC0B270470902C1F57F3101F2C131E4E70902C1F52B
:400540007F3101F2C5314A1C0B78107810BC43EA002070470902C1F57F3101F2C931D2E70902C1F57F3101F57471DDE70902C1F57F3101F2D131D7E70902C1F57F3101F2F2
:40058000D231E0E70902C1F57F3101F2D631DAE70902C1F57F3101F57571D4E70902C1F57F3101F57671AEE70902C1F57F3101F57771B9E701220021C6E700BF2DE98048DD
:4005C000ADF5677D00F0DCFD62B600239B461E4601930DF23F1451AF0DF245190DF5A3780293FF2305AA4FF4967150A800F0E8FD0028F6D1BDF81420062A03D99DF8405145
:40060000012D2CD04FF0040A0025284604210123ADF816008DF841A18DF842518DF843618DF840310023625C0139134489B29BB20029F8D15B429BB25FFA83FE1A0AC11D5C
:40064000172507F800E089B209F80020962308F800500DF1160250A800F09EFDC1E7BDF84231D91D914200F2E680B1F5967F00F2E28050AA1A449279172AC3D1191D89B2B8
:40068000002900F04A82625C0139104489B280B20029F8D1404280B250AAD11891F805E00A7942EA0E22824202D04FF0080AABE79DF841119DF844A1A1F131020A2A00F201
:4006C000AD80DFE802F04788AB5A41AB311F5A1606000020FFF782FE10B9BD4A8023137000F058FD002500F0C9FB04218A4628468DE7BBF1000F40F0BB80042100258A46CD
:40070000284684E7002BF8D1B24A082592E8030008AA82E8030087E8030001939A4628460C214FF0010B72E7BBF1000FE5D0019A03EB020EBEF5967F40F3108100252846DA
:4007400004214FF0030A62E7BBF1000FD5D00023019346E7BBF1000FCFD0002BCDD118460393FFF73BFEB0FA80F0039B40098DF844019A460521584649E734295ED0BBF15F
:40078000000FBAD0022BB8D9AAF1400B019D5FFA8BFB033B9BAA50190DF247111A46039300F08AFF019BBBF13F0F1A46039B1A4495B240F207814FF480734FF49072954288
:4007C00000F0F38000250195284604214FF0010B4FF0030A1BE7BBF1000F8ED0012B8CD1BAF1030F89D87C4B1B681B68C3F30742924500F09E8194BF012200220023FF2162
:4008000004258DF846118DF844318DF845218DF84761284608214FF0000AF8E66F4A1568002D6CD0BBF1000F6ED10025284604214FF0050AEBE64FF0030AE5E6BBF1000FA1
:400840003FF45BAF032B7FF458AFAAF1400B5FFA8BFBBBF13F0F94BF10254FF490752A4600219BA80393019500F04CFF039B90E7032B7FF442AFAAF140033F2BBDF84511CF
:4008800040F2E780FF2979D84FEA0A2E0EEB0100000200F1FF020023013812F801C963448242DBB2F9D1BAF13F0F20D80EF110720A4452011046203210F801EB73448242AB
:4008C000DBB2F9D1BAF1030F11D1FF290FD1002105200393FFF706FE039B00211B1A06205FFA83FAFFF7FEFDC0EB0A00C3B25B428DF8443105214FF0000A012087E6042160
:4009000028464FF0050A82E68DF81810ADF81A3006A80797089609960A9708A9A847BDF824000A9BB0F5937F01D3BB422ED05BB39DF82030021D91B28DF841310122030AAD
:40094000ADF816008DF842018DF840218DF8433100297FF467AE0A468E4670E61A46019B9BA90B441846394600251FFA8EF30193AA4600F0A1FE2846042148E60025284658
:4009800004214FF00A0A42E60028D1D001220E23ADF816608DF842618DF843618DF840218DF84131042100203CE6BDF845219A42019215D30025284604214FF0010B4FF016
:4009C0000A0A24E600F030FA80231022F7E600BFFA460040981B0000CC80FF1F6481FF1FBAF13F0F20D8554B02EB0A221B6892B21968C1F30F2311F0FF0F1CBF01339BB26B
:400A00009A42C0F08C80029B73B919464FF4907208A800F077FE4FF4907308AAFF21032000F0A0F9012302932B46019950469BAA00F098F9002398420CBF9A464FF00A0ABD
:400A400001931D464FF0010B00F04CFA01980421DDE5039100F0E8F903997F294FEA01138CD837483749384A18441944DFF8DCC000781A440978DFF8D8E012789C449E4445
:400A800008449CF80010DFF8CCC010449EF80020DFF8C4E09C449E4408449CF80010DFF8BCC010449EF80020DFF8B4E09C449E4408449CF80010DFF8ACC010449EF80020E5
:400AC000DFF8A4E09C449E4408449CF80010DFF89CC010449EF80020DFF894E09C449E4408449CF80010DFF88CC010449EF80020DFF884E09C4408449E449CF8001003F1A1
:400B00008043104403F500439EF8002001441B780A44134403F0FF03E9E60846BCE5002301931D46184604214FF0010B4FF00A0A6DE5C3F30723002261E600BFCC80FF1F7E
:400B40000F8000400E8000400D8000400C8000400B8000400A80004009800040088000400780004006800040058000400480004003800040028000400180004038B500F0E0
:400B800039F870BB0020FFF729FC184C0028236818BF06251A6808BF00256AB1002312F8011D0B44DBB2002AF9D162681278D31A03F0FF039A4202D0002000F05DF90C4A41
:400BC000137803F0C003402B00D025B1084B00221A70FFF7F3FC80231370BDE8384000F04DB9002000F048F9CCE700BFCC80FF1FFA46004038B500F0AFF900F05FFA10B14A
:400C00000424204638BD00F095FA072804462BD000F076FA002CF4D100F09EF900F04EFA0028EDD1012000F02DFA072805D04FF0FF3400F065FA204638BD154C02E0237812
:400C40009B07F4D40221134800F09CF90228F6D10F4C2378990705D4012000F03BF923789A07F9D50024E4E7094D2B789B0705D4012000F02FF92B789807F9D5044B1A78CB
:400C80009507D6D51B789B08D3D100F039FAC3E7224700407C81FF1FF0B53F2883B00AD8441F3A2C8CBF00240124B1F5807F17D9012003B0F0BD412894BF0024012481293F
:400CC00028BF01241027002AF2D0002CF0D116460D46044600F0F2F928B1042003B0F0BD4FF48077EFE73B4632462946204600F069F9072804D0019000F002FA0198EDE78A
:400D0000164E33789B0705D4012000F0E3F833789807F9D5114E33789F071BD533789B0818D10F4A294653782046127800F086F90728E0D102E0012000F0CCF8337899077A
:400D4000F9D5064B1A78920704D51B789B0801D11846D0E74FF0FF30CDE700BF224700407C81FF1FF0B5412883B015D8441F3A2C8CBF002401243F280FD8B1F5807F11D827
:400D800082B17CB91E4617460D46044600F096F958B1042003B0F0BD0124812928BF0124102BEDD0012003B0F0BD33463A462946204600F007F9072804D0019000F0A0F932
:400DC0000198F0E7164E33789B0705D4012000F081F833789807F9D5114E33789F071BD533789B0818D10F4A294653782046127800F024F90728E0D102E0012000F06AF8BB
:400E000033789907F9D5064B1A78920704D51B789B0801D11846D0E74FF0FF30CDE700BF224700407C81FF1F38B500F0A1F90F4A0F4913780F4C43F0080313700B78C82543
:400E400043F008030B702570137B43F0100313730B7B02F5587243F010030B7313789B06FCD5BDE8384000F087B900BFA0430040B04300400147004001BE7047024A13788B
:400E800043F0010313707047F6460040B0F5004F70B506461AD904460D4DA4F50044686800F05EF9B4F5004FF7D8A6F50043013B23F4FF4323F07F03A6F50046F61AA86885
:400EC00000FB06F0BDE8704000F04AB9004DF6E7D480FF1F024B1B7800FB03F000F040B9D480FF1F08B500F043F900BF00BF00BF00BF00BF00BF00BF00BF00BF00BF00BFD6
:400F000000BF00BF00BF00BF00BF064A13889BB243F0040313801388BFF36F8FBDE8084000F02AB900480040054B00F01F001A6800F1100352F8230042F82310704700BF29
:400F400008ED00E000F01F0000F16040490100F56440C9B20170704708B500F009F90749074A0B7843F008030B70137843F008031370BDE8084000F0FFB800BFA043004028
:400F8000B04300402DE9F0410F4699B14E1EF6B20644451E094CDFF8288002E00120FFF799FF2378DB07F9D598F8003005F8013FB542F6D13846BDE8F08100BF22470040F0
:400FC00020470040F0B41B4C2578AD071DD51A4DB6262E70D52702262F702E702478A40710D428705BB15E1EB6B21644013A12F8014FB2422C70FAD1B3F5807F08D0F0BC92
:40100000072070470920F0BC70470420F0BC70473F28F4D800F5103001EB0021490106480A46203112F8013BDBB291420370F9D1E5E700BF2247004020470040F0B40F4D53
:401040002C78A60716D50E4CB6262670D8270526277026702D78AD0709D40D0AC9B2207025702170227023700720F0BC70470920F0BC70470420F0BC704700BF2247004069
:40108000204700400B4A1378990711D530B40A4BB625E1240E211D701C7019701278920703D4187030BC07207047092030BC704704207047224700402047004038B500F019
:4010C00057F80D4A137823B1042400F055F8204638BD0125094915700C682C40F5D00C6824F001040C6000BF00BF00BF1C46556000F042F8204638BD6881FF1F0400084064
:4011000010B500F035F8094B002259681A70012908D1074C216841F00101216000BF00BF00BF5A60BDE8104000F026B86881FF1F04000840074B1B789B0708D5064BB620E1
:40114000E0210D221870197007201A7070470420704700BF2247004020470040000000000230800803D000BF01380046FCD17047EFF3108072B6704780F31088704700BFBB
:4011800008B500F071F800F04BF9BDE8084000F0A7B900BF00F0C6B8F8B50E460446174600F03EF94EB1751EADB22544013C14F8010F00F057F9AC42F9D13E800020F8BD6E
:4011C0002DE9F84303EB83035D0006468846174618BF002407D117E001340120A4B2FFF755FEAC4210DA00F0F3F80028F4D000F0EFF804461920FFF749FE00F0E9F88442CA
:40120000F5D34FF0000901E04FF0050900243C8000F0DEF8F8B100F0DBF83A8880B283189BB243453B801BD2C0B1204485B200F0A1F8631C30559CB2AC42F8D1731913F81D
:40124000013C172B02D00520FFF720FE2C4600F0BFF80028DFD14846BDE8F8832546EDE73A804846BDE8F883F8B5224D2C780CBB21492046FFF758FE20460721FFF762FE17
:401280001E4B1F492022692008701A701D4901206C70FFF749FE07210120FFF753FE1A4E1A481B4A06274724022101233770047011702B70FFF75CFF0546164C1649237823
:4012C000164A43F0200323700B78012043F010030B701060A378124843F010030221A3700160116000F09CF92846BDE8F840FFF743BF00BF7081FF1F211500008964004014
:4013000089650040B915000028640040386400408B650040996500409964004000E100E080E200E038B5FFF723FF05460D4A0E4C137803F0DF03137000F082F923780B4A1C
:40134000012003F0EF030A49237010600B78022403F0EF030B7028461460BDE83840FFF70BBF00BF996500409964004080E100E09B65004010B4114B114A0121196091786F
:40138000D3781079C9B210B9DBB2994212D04B1CDBB2402B0B4828BF0023405C93701379074CC0B20BB100232371074B01221A6010BC7047054B1878C0B2F6E780E100E0CA
:4013C0007081FF1F8081FF1F00E100E04A650040104A0121104B11609978DA7891420FD09978DA789142DA78987824BF02F14003181A0A4B38BF101A0122C0B21A60704793
:401400001B790122002B054B14BF402000201A60704700BF80E100E07081FF1F00E100E010B5FFF7A5FE0B4B0B4C1A7842F001021A701A7802F0FE021A70FFF79DFE074BD9
:4014400000220121064821609A70DA701A715A71016010BD9A65004080E100E07081FF1F00E100E070B4194DEC79AB792646DBB2591EE21A091BA2F13F02B1FA81F1B2FAF1
:4014800082F249095209A34288BF0A46002AECD1A34212D03F2C0E4A88BF00260D4B90551B789ABF0134E4B201249B07EC7102D5094B02221A6070BC7047064B1B785A07A8
:4014C000E8D4064B187070BC704700BF7081FF1FC081FF1F6B65004000E200E04865004010B5FFF745FE0A4B0A4C1A7842F001021A701A7802F0FE021A70FFF73DFE064AFF
:401500000223002105482360D1719171036010BD9865004080E100E07081FF1F00E100E02DE9F0431C481D491D4F1E4A1E4E1F4CDFF880C01E4D4FF0010E0378DBB213F03A
:401540001E0905D091F8008049EA080881F800809B0601D4BDE8F08397F8008013785FFA88F8DBB206F8038023784FF000080BB18CF800E013780133DBB2137013783F2B55
:4015800088BF82F8008092F800802B789845D4D184F800E0D1E700BF696400407181FF1F4A6500407381FF1F8081FF1F7481FF1F7281FF1F7581FF1F144A154813780178B4
:4015C000994221D0F0B513490B7803F0040303F0FF06C3B91746104D104C02E00B785B0711D413783F2B88BF3E701378DBB2EB5CDBB22370137890F800E00133DBB21370CB
:4016000013789E45EAD1F0BD704700BF7681FF1F7781FF1F6B650040C081FF1F486500400549064A0B7843F001030B70137843F001031370704700BFA2430040B2430040EF
:401640000549064A0B7803F0FE030B70137803F0FE031370704700BFA2430040B2430040014B1868704700BF4481FF1F0E4B70B51E460E4C0025E41AA410A54204D056F8C7
:40168000253098470135F8E700F08CFA084B094C1E46E41AA4100025A54204D056F8253098470135F8E770BDB01B0000B01B0000B01B0000B81B000010B5431E0A4491428E
:4016C00004D011F8014B03F8014FF8E710BD884210B501EB020301D8421E0BE09842FBD28118D21AD34204D013F8014D01F8014DF8E710BD994204D011F8014B02F8014F77
:40170000F8E710BD03460244934202D003F8011BFAE77047001D0000ED00000000000000005100401000205100401000405100403000F051004010000000014000100014B5
:4017400001400006801A0140800100400140000A004C014000020050014020001090000040000000CF083042C3003C0800100000082000000020F3000C30F3003D0FC0F055
:4017800008000084023F20C004F800010C3900C6430010C740318C003F0000FF00002800000000402105040003EC000003FFFFFF62A0F0410C00000000000000040404044F
:4017C0000000000100000000000040020010301000101012000000000000000000000000000000000152004001640040026500400107014054080140370901400414014085
:4018000003150140011701404D180140411901400D1A0140411B0140034001400241014002420140044301400147014002480140084C01400E4D014004500140015101402E
:401840000914893A89698B0FE60203010461060E071809480A400B860E0811801365142C15E61643171119601B8B1E43206121A02206260C28102D802F023020320F330774
:40188000341035F8364038023A083B083E504003474049FF4A074BFF4C404D204EF04F055008580459045A045F01604061A8624063208320850387048A028B088D038E022A
:4018C0008F0C9001950A9704980199039B04A310A710A801AF05B001B10FB320B510B602BB02BE40BF10D41AD604D804D904DB04DF0100A005800605071008800A450E2010
:401900000F0211101502161819401B021D241E211F0120402105220223042404271029012B212D802E023104331035043602371038523A143C143E083F0245084F025601C3
:4019400059025A206140634485208740C0E3C2AAC472CA9BCCE6CEEFD040D605D80DE008B980BF40D904DF012680A680B280EA0801020B011001140419011E022006280662
:401980002D01320633033401380839083E1440454102460E47BC483449FF4AFF4BFF4EF04F44500C580459045A045F0166C06A406B0284038508860C89088D088E0E900232
:4019C00091089208953D960F9702980299239A049B1C9D1E9F01A127A318A501A716A80CA926AA03AB19AC03AE0CAF1FB320B401B508B60EB71FB820BA80BB80BF04D602C6
:401A0000D712D804D904DB04DF01000403020520060408280A800E300F821209150216C0171019801BA01D081E082254241028282A012B8A2E8031143249371038A83E10F9
:401A40003F02464047104E02560657405A0869106A46705C79017A027B41910A941295109664978098809B109D039E06A210A303A450A508A720AF40B701C005C2BEC4533B
:401A8000CA1FCC2FCEAED0A0D210D602840188018C019601A201AE02B203BA08D401D604D804DB04DF0100440380059408120A120E101048114012101580164018041916A1
:401AC0001E101F0820802142281229042A402B8A30483110324138E239083A1040264102481049815C805D215E0867806A4082408C218D4090A09109928294069780988038
:401B000099A09C209D17A008A204A382A450A708C0EDC22FC49FCA0FCC0FCE0FD00FD208D6F0D880E004E88030103580CC309C109D809C109D8084109C109D80E640862085
:401B4000AD80EA105840620199089A20B508D401D802E80212807220750882018E8099089A209E01B040C408DC01DE04E202E80100010C0110011C01000F00004090900073
:401B80009000000010140400140000000000000101000000000000006910162E003C010143000000F8B500BFF8BC08BC9E4670475100000011030000F8B500BFF8BC08BC51
:401BC0009E4670472D000000D81B0000C880FF1F80000000B8000000000000001417000018170000180000000000E02EC05D000000366E010000000000000000000000004A
:401C00000000000000000000000000000000000000000000A01B000000000000000000000000000000000000000000000000000000000000000000000000000000000000E9
:401C40000000000000000000000000000000000000000000E480FF1F00000000000000000000000000000000000000000000000000000000000000000000000000000000E2
:401C80000000000000000000000000000000000000000000000000000000000000000000000000000000000000000000000000000000000000000000000000000000000024
:401CC00000000000000000000000000000000000000000000000000000000000000000000000000000000000000000000000000000000000000000000000000000000000E4
:401D000000800020111D0000ED510100ED51010080B500AF13F09EFA10B5054C237833B9044B13B10448AFF300800123237010BDB881FF1F00000000E8FC0100084B10B5E2
:401D40001BB108490848AFF300800848036803B910BD074B002BFBD0BDE81040184700BF00000000BC81FF1FE8FC0100C880FF1F0000000080B588B000AFE34B1B78FB7740
:401D8000E14BB3F98030DBB2013BDBB21946DE4809F0CEFD03461946DB4BB3F98030013BD94AD35C994204D0D74B002283F8842044E2FB7FA62B00F2408201A252F823F00D
:401DC000E1200000C32000003B220000E7200000ED20000011210000AB2000003B2200003B220000452100002B2100003B220000C9200000672100003B2200003B2200009D
:401E00003B2200003B2200003B2200003B2200003B2200003B2200003B2200003B2200003B2200003B2200003B2200003B2200003B2200003B2200003B2200003B220000D2
:401E40003B2200003B2200003B2200003B2200003B2200003B2200003B2200003B2200003B2200003B2200003B2200003B2200003B2200003B2200003B2200003B22000092
:401E80003B2200003B2200003B2200003B2200003B2200003B2200003B2200003B2200003B2200003B2200003B2200003B2200003B2200003B2200003B2200003B22000052
:401EC0003B2200003B2200003B2200003B2200003B2200003B2200003B2200003B2200003B2200003B2200003B2200003B2200003B2200003B2200003B2200003B22000012
:401F00003B2200003B2200003B2200003B2200003B2200003B2200003B2200003B2200003B2200003B2200003B2200003B2200003B2200003B2200003B2200003B220000D1
:401F40003B2200003B2200003B2200003B2200003B2200003B2200003B2200003B2200003B2200003B2200003B2200003B2200003B2200003B2200003B2200003B22000091
:401F80003B2200003B2200003B2200003B2200003B2200003B2200003B2200003B2200003B2200003B2200003B2200003B2200003B2200003B2200003B2200003B22000051
:401FC0005D2000009920000063200000A520000069200000752000006F2000003B22000093200000812000003B220000872000007B2000003B2200003B2200003B2200004F
:402000009F2000003B2200008D2000003B2200003B2200003B2200003B2200003B2200003B2200003B2200003B2200003B2200003B2200003B2200003B2200003B2200001E
:402040003B220000052200000B22000023220000292200002F220000352200000AF0DEFBECE00AF0B9FAE9E00AF076F9E6E00AF061FCE3E00AF0FAFCE0E00AF06DFDDDE048
:402080000AF0C4F9DAE00AF01DFAD7E00AF076FAD4E00AF0D1FED1E00AF01EFCCEE00AF08DFDCBE00AF0B4FDC8E0184B1B883B613B695BBAFB60FB689BB2184600F0CAF895
:4020C000BCE005F099FFB9E0104B1B88BB61BB695BBABB60BB689BB2184602F02DFAADE00AF086FDAAE00AF0C9FDA7E0322009F057FC0346002B03D0012009F039FC9DE03D
:40210000002009F035FC99E00895FF1F0995FF1F09F0D2FC0346002B03D0012009F028FC8CE0002009F024FC88E009F0F3FC0346002B03D0012009F01BFC7FE0002009F034
:4021400017FC7BE0012009F013FC4FF47A7015F08FFC002013F026FF4FF47A7015F088FC15F0B4FF6AE0374B5B781B021AB2354B9B781BB213431AB2334B5A80314BDB7824
:402180001B021AB22F4B1B791BB213431AB22E4B9A802D4BB3F90230B3F1FF3F0FD12A4BB3F90430B3F1FF3F09D1274B00221A70254B00225A80244B00229A803EE0224BBD
:4021C000B3F90230002B03DA1F4B00225A8007E01D4BB3F90230C82B02DD1B4BC8225A80194BB3F90430002B02DA174B00229A80164B00221A60144B01221A70012009F05E
:40220000B7FB1BE00AF048FE18E0114B1B887B617B695BBA7B607B689BB2184604F0F2FF0CE00BF005F909E00BF048F906E00BF0BBF903E00BF0E6F900E000BF2037BD4642
:4022400080BD00BF0895FF1F9095FF1F209AFF1F0995FF1F80B5ADF5BB4D92B000AF024607F14803423B1A8007F59C4303F1280300221A60043340F69C72002118461BF0C3
:4022800036F807F14803403B00221A60043344F61C62002118461BF02AF807F14803423B1B88032B50D801A252F823F0BD220000DF220000012300002723000007F59C4319
:4022C00003F12803184605F0D9FE14F02FFA07F59C4303F12803184614F006FA35E007F59C4303F12803184607F07EFC14F01EFA07F59C4303F12803184614F0F5F924E0C4
:4023000007F59C4303F128034FF47A61184611F08BF814F00BFA07F59C4303F12803184614F0E2F911E007F14803403B44F62061184611F09FF814F0F9F907F14803403B4F
:40234000184614F0D1F900E000BF00BF07F5BB474837BD4680BD00BFF0B5ADF65C4D00AF07F10C04206007F108000160391D0A603A46136007F1580300221A60043340F6BF
:40238000E632002118461AF0B2FF40F6EA33A7F8503C002387F8553C002387F8543C002387F8533C07F1240300221A6004332E22002118461AF09BFF002387F84F3C012301
:4023C00087F84E3C07F10C031B681B68C7F8483CD7F8483CC7F8443C07F158030C221A7007F1580324225A70002387F8553C02F038B897F8553C9B0007F10C0212681344DD
:402400001B68C7F8483C97F8553C322202FB03F3023397F8552C07F1080109680A44117807F15802D15497F8553C322202FB03F3033397F8552C391D09680A44117807F127
:402440005802D15497F8553C07F10802126813441B78092B22D801A252F823F08524000085240000852400008D2400008D2400009524000095240000952400009D240000E0
:4024800085240000012387F8533C07E0022387F8533C03E0042387F8533C00BF97F8553CD7F8782C13441B78002B40F02A8297F8553C07F10802126813441B78092B01F21F
:4024C0000E8301A252F823F0F124000059250000F1240000C1250000692600000F270000B52700005B280000DF3A0000F1240000002387F8573C23E097F8573C97F8532C03
:4025000002FB03F31A46D7F8483C1344C7F8443C97F8553C322202FB03F31A1D97F8573C97F8531C01FB03F31344D7F8442C117807F15802D15497F8573C013387F8573CB1
:4025400097F8553C3A1D126813441B7897F8572C9A42D1D301F0C3BA002387F8573C23E097F8573C97F8532C02FB03F31A46D7F8483C1344C7F8443C97F8553C322202FB6B
:4025800003F31A1D97F8573C97F8531C01FB03F31344D7F8442C117807F15802D15497F8573C013387F8573C97F8553C3A1D126813441B7897F8572C9A42D1D301F08FBA37
:4025C000002387F8573C43E097F8573C97F8532C02FB03F31A46D7F8483C1344C7F8443CD7F8443CB3F9002007F11E031A80002387F8563C21E097F8553C322202FB03F3AD
:402600001A1D97F8573C97F8531C01FB03F31A4497F8533C1A4497F8563CD31A013B97F8562C07F11E010A44117807F15802D15497F8563C013387F8563C97F8562C97F8B1
:40264000533C9A42D7D397F8573C013387F8573C97F8553C3A1D126813441B7897F8572C9A42B1D301F03BBA002387F8573C42E097F8573C97F8532C02FB03F31A46D7F801
:40268000483C1344C7F8443CD7F8443C1A8807F11C031A80002387F8563C21E097F8553C322202FB03F31A1D97F8573C97F8531C01FB03F31A4497F8533C1A4497F8563C7E
:4026C000D31A013B97F8562C07F11C010A44117807F15802D15497F8563C013387F8563C97F8562C97F8533C9A42D7D397F8573C013387F8573C97F8553C3A1D1268134472
:402700001B7897F8572C9A42B2D301F0E8B9002387F8573C42E097F8573C97F8532C02FB03F31A46D7F8483C1344C7F8443CD7F8443C1A6807F118031A60002387F8563CAC
:4027400021E097F8553C322202FB03F31A1D97F8573C97F8531C01FB03F31A4497F8533C1A4497F8563CD31A013B97F8562C07F118010A44117807F15802D15497F8563CF3
:40278000013387F8563C97F8562C97F8533C9A42D7D397F8573C013387F8573C97F8553C3A1D126813441B7897F8572C9A42B2D301F095B9002387F8573C42E097F8573CB1
:4027C00097F8532C02FB03F31A46D7F8483C1344C7F8443CD7F8443C1A6807F114031A60002387F8563C21E097F8553C322202FB03F31A1D97F8573C97F8531C01FB03F350
:402800001A4497F8533C1A4497F8563CD31A013B97F8562C07F114010A44117807F15802D15497F8563C013387F8563C97F8562C97F8533C9A42D7D397F8573C013387F818
:40284000573C97F8553C3A1D126813441B7897F8572C9A42B2D301F042B9002387F8573C42E097F8573C97F8532C02FB03F31A46D7F8483C1344C7F8443CD7F8443C1A68F7
:4028800007F120031A60002387F8563C21E097F8553C322202FB03F31A1D97F8573C97F8531C01FB03F31A4497F8533C1A4497F8563CD31A013B97F8562C07F120010A4402
:4028C000117807F15802D15497F8563C013387F8563C97F8562C97F8533C9A42D7D397F8573C013387F8573C97F8553C3A1D126813441B7897F8572C9A42B2D300BF01F057
:40290000EEB897F8553C0133023B332B01F2E68001A252F823F000BFE9290000092D0000DD3A0000DD3A0000DD3A0000DD3A000029300000DD3A0000DD3A0000EF300000A0
:40294000DD3A0000DD3A0000DD3A0000DD3A0000DD3A0000DD3A0000DD3A0000DD3A0000DD3A0000DD3A0000DD3A00001D320000DD3A0000DD3A0000DD3A0000DD3A0000AF
:40298000DD3A0000DD3A0000DD3A0000DD3A0000DD3A0000DD3A0000DD3A0000DD3A0000DD3A0000DD3A0000DD3A0000DD3A0000DD3A0000DD3A0000DD3A0000DD3A0000A7
:4029C000A5320000C7350000DD3A0000DD3A0000DD3A0000DD3A0000E3380000DD3A0000DD3A0000A739000097F84F2CC5491346DB009B1A1B010B4403F20F131B78032B3B
:402A000000F0C08097F84F2CBE491346DB009B1A1B010B44B0331B6818461AF0F1F903464FF08F4118461AF0F3FA03461A4607F120031A60002387F8573C1AE097F8553C0F
:402A4000322202FB03F31A1D97F8533C1A4497F8573CD31A013B97F8572C07F120010A44117807F15802D15497F8573C013387F8573C97F8572C97F8533C9A42DED397F8E4
:402A80004F2CA0491346DB009B1A1B010B44B4331B6818461AF0B4F903464FF08F4118461AF0B6FA03461A4607F120031A60002387F8573C1DE097F8553C322202FB03F398
:402AC0001A1D97F8533C1A4497F8533C1A4497F8573CD31A013B97F8572C07F120010A44117807F15802D15497F8573C013387F8573C97F8572C97F8533C9A42DBD397F832
:402B00004F2C80491346DB009B1A1B010B44B8331B6818461AF074F903464FF08F4118461AF076FA03461A4607F120031A60002387F8573C1EE097F8553C322202FB03F3B2
:402B40001A1D97F8533C5B001A4497F8533C1A4497F8573CD31A013B97F8572C07F120010A44117807F15802D15497F8573C013387F8573C97F8572C97F8533C9A42DAD3E6
:402B800000F0ADBF97F84F2C5E491346DB009B1A1B010B44C8331B6818461AF031F903464FF08F4118461AF033FA03461A4607F120031A60002387F8573C1AE097F8553C2A
:402BC000322202FB03F31A1D97F8533C1A4497F8573CD31A013B97F8572C07F120010A44117807F15802D15497F8573C013387F8573C97F8572C97F8533C9A42DED397F863
:402C00004F2C40491346DB009B1A1B010B44CC331B6818461AF0F4F803464FF08F4118461AF0F6F903461A4607F120031A60002387F8573C1DE097F8553C322202FB03F3E0
:402C40001A1D97F8533C1A4497F8533C1A4497F8573CD31A013B97F8572C07F120010A44117807F15802D15497F8573C013387F8573C97F8572C97F8533C9A42DBD397F8B0
:402C80004F2C20491346DB009B1A1B010B44D0331B6818461AF0B4F803464FF08F4118461AF0B6F903461A4607F120031A60002387F8573C1EE097F8553C322202FB03F3FB
:402CC0001A1D97F8533C5B001A4497F8533C1A4497F8573CD31A013B97F8572C07F120010A44117807F15802D15497F8573C013387F8573C97F8572C97F8533C9A42DAD365
:402D000000F0EDBEEC96FF1F97F84F2CC5491346DB009B1A1B010B4403F20F131B78032B00F0C08097F84F2CBE491346DB009B1A1B010B44BC331B6818461AF061F8034603
:402D40004FF08F4118461AF063F903461A4607F120031A60002387F8573C1AE097F8553C322202FB03F31A1D97F8533C1A4497F8573CD31A013B97F8572C07F120010A4435
:402D8000117807F15802D15497F8573C013387F8573C97F8572C97F8533C9A42DED397F84F2CA0491346DB009B1A1B010B44C0331B6818461AF024F803464FF08F411846F7
:402DC0001AF026F903461A4607F120031A60002387F8573C1DE097F8553C322202FB03F31A1D97F8533C1A4497F8533C1A4497F8573CD31A013B97F8572C07F120010A44E0
:402E0000117807F15802D15497F8573C013387F8573C97F8572C97F8533C9A42DBD397F84F2C80491346DB009B1A1B010B44C4331B68184619F0E4FF03464FF08F411846CF
:402E40001AF0E6F803461A4607F120031A60002387F8573C1EE097F8553C322202FB03F31A1D97F8533C5B001A4497F8533C1A4497F8573CD31A013B97F8572C07F1200192
:402E80000A44117807F15802D15497F8573C013387F8573C97F8572C97F8533C9A42DAD300F01DBE97F84F2C5E491346DB009B1A1B010B44D4331B68184619F0A1FF0346F9
:402EC0004FF08F4118461AF0A3F803461A4607F120031A60002387F8573C1AE097F8553C322202FB03F31A1D97F8533C1A4497F8573CD31A013B97F8572C07F120010A4475
:402F0000117807F15802D15497F8573C013387F8573C97F8572C97F8533C9A42DED397F84F2C40491346DB009B1A1B010B44D8331B68184619F064FF03464FF08F41184677
:402F40001AF066F803461A4607F120031A60002387F8573C1DE097F8553C322202FB03F31A1D97F8533C1A4497F8533C1A4497F8573CD31A013B97F8572C07F120010A441F
:402F8000117807F15802D15497F8573C013387F8573C97F8572C97F8533C9A42DBD397F84F2C20491346DB009B1A1B010B44DC331B68184619F024FF03464FF08F41184656
:402FC0001AF026F803461A4607F120031A60002387F8573C1EE097F8553C322202FB03F31A1D97F8533C5B001A4497F8533C1A4497F8573CD31A013B97F8572C07F12001D1
:403000000A44117807F15802D15497F8573C013387F8573C97F8572C97F8533C9A42DAD300F05DBDEC96FF1F97F84F2CD1491346DB009B1A1B010B4403F588731B7818461B
:4030400097F8572CCC4903465B0003449B001344663351F8231097F84F2CC6481346DB009B1A1B01034403F588731B781C4697F8572CC14823465B0023441B0103441344EB
:4030800003F295131B7841FA03F31AB207F11E031A80002387F8563C21E097F8553C322202FB03F31A1D97F8573C97F8531C01FB03F31A4497F8533C1A4497F8563CD31A63
:4030C000013B97F8562C07F11E010A44117807F15802D15497F8563C013387F8563C97F8562C97F8533C9A42D7D300F0F8BC97F84F2CA1491346DB009B1A1B010B44E43300
:40310000196897F84F2C9B481346DB009B1A1B01034403F588731B781846974A03465B0003441B01134403F295131B7841FA03F207F118031A60002387F8563C1AE097F808
:40314000553C322202FB03F31A1D97F8533C1A4497F8563CD31A013B97F8562C07F118010A44117807F15802D15497F8563C013387F8563C97F8562C97F8533C9A42DED3E8
:4031800097F84F2C7C491346DB009B1A1B010B44E833196897F84F2C76481346DB009B1A1B01034403F588731B781846724A03465B0003441B01134403F295131B7841FAD3
:4031C00003F207F118031A60002387F8563C1DE097F8553C322202FB03F31A1D97F8533C1A4497F8533C1A4497F8563CD31A013B97F8562C07F118010A44117807F15802F1
:40320000D15497F8563C013387F8563C97F8562C97F8533C9A42DBD300F061BC564BD3F8A01297F84F2C53481346DB009B1A1B01034403F588731B7818464F4A03465B000D
:4032400003441B01134403F295131B7841FA03F207F118031A60002387F8563C1AE097F8553C322202FB03F31A1D97F8533C1A4497F8563CD31A013B97F8562C07F11801F3
:403280000A44117807F15802D15497F8563C013387F8563C97F8562C97F8533C9A42DED300F01DBC97F84E2C33491346DB009B1A1B010B4403F20F131B78032B00F0C480F0
:4032C00097F84E2C2C491346DB009B1A1B010B44B0331B68184619F093FD03464FF08F41184619F095FE03461A4607F120031A60002387F8573C1AE097F8553C322202FB6F
:4033000003F31A1D97F8533C1A4497F8573CD31A013B97F8572C07F120010A44117807F15802D15497F8573C013387F8573C97F8572C97F8533C9A42DED397F84E2C0E499B
:403340001346DB009B1A1B010B44B4331B68184619F056FD03464FF08F41184619F058FE03461A4607F120031A60002387F8573C22E000BFBC9BFF1FEC96FF1F97F8553C57
:40338000322202FB03F31A1D97F8533C1A4497F8533C1A4497F8573CD31A013B97F8572C07F120010A44117807F15802D15497F8573C013387F8573C97F8572C97F8533C3B
:4033C0009A42DBD397F84E2CD2491346DB009B1A1B010B44B8331B68184619F011FD03464FF08F41184619F013FE03461A4607F120031A60002387F8573C1EE097F8553C87
:40340000322202FB03F31A1D97F8533C5B001A4497F8533C1A4497F8573CD31A013B97F8572C07F120010A44117807F15802D15497F8573C013387F8573C97F8572C97F8EE
:40344000533C9A42DAD34AE397F84E2CB1491346DB009B1A1B010B44C8331B68184619F0CFFC03464FF08F41184619F0D1FD03461A4607F120031A60002387F8573C1AE006
:4034800097F8553C322202FB03F31A1D97F8533C1A4497F8573CD31A013B97F8572C07F120010A44117807F15802D15497F8573C013387F8573C97F8572C97F8533C9A42BA
:4034C000DED397F84E2C93491346DB009B1A1B010B44CC331B68184619F092FC03464FF08F41184619F094FD03461A4607F120031A60002387F8573C1DE097F8553C322237
:4035000002FB03F31A1D97F8533C1A4497F8533C1A4497F8573CD31A013B97F8572C07F120010A44117807F15802D15497F8573C013387F8573C97F8572C97F8533C9A4231
:40354000DBD397F84E2C73491346DB009B1A1B010B44D0331B68184619F052FC03464FF08F41184619F054FD03461A4607F120031A60002387F8573C1EE097F8553C322254
:4035800002FB03F31A1D97F8533C5B001A4497F8533C1A4497F8573CD31A013B97F8572C07F120010A44117807F15802D15497F8573C013387F8573C97F8572C97F8533C32
:4035C0009A42DAD38BE297F84E2C52491346DB009B1A1B010B4403F20F131B78032B00F0C18097F84E2C4B491346DB009B1A1B010B44BC331B68184619F002FC03464FF084
:403600008F41184619F004FD03461A4607F120031A60002387F8573C1AE097F8553C322202FB03F31A1D97F8533C1A4497F8573CD31A013B97F8572C07F120010A4411787E
:4036400007F15802D15497F8573C013387F8573C97F8572C97F8533C9A42DED397F84E2C2C491346DB009B1A1B010B44C0331B68184619F0C5FB03464FF08F41184619F080
:40368000C7FC03461A4607F120031A60002387F8573C1DE097F8553C322202FB03F31A1D97F8533C1A4497F8533C1A4497F8573CD31A013B97F8572C07F120010A441178F4
:4036C00007F15802D15497F8573C013387F8573C97F8572C97F8533C9A42DBD397F84E2C0C491346DB009B1A1B010B44C4331B68184619F085FB03464FF08F41184619F05F
:4037000087FC03461A4607F120031A60002387F8573C20E0EC96FF1F97F8553C322202FB03F31A1D97F8533C5B001A4497F8533C1A4497F8573CD31A013B97F8572C07F1AD
:4037400020010A44117807F15802D15497F8573C013387F8573C97F8572C97F8533C9A42DAD3BCE197F84E2CDA491346DB009B1A1B010B44D4331B68184619F041FB034626
:403780004FF08F41184619F043FC03461A4607F120031A60002387F8573C1AE097F8553C322202FB03F31A1D97F8533C1A4497F8573CD31A013B97F8572C07F120010A4409
:4037C000117807F15802D15497F8573C013387F8573C97F8572C97F8533C9A42DED397F84E2CBC491346DB009B1A1B010B44D8331B68184619F004FB03464FF08F41184698
:4038000019F006FC03461A4607F120031A60002387F8573C1DE097F8553C322202FB03F31A1D97F8533C1A4497F8533C1A4497F8573CD31A013B97F8572C07F120010A44B3
:40384000117807F15802D15497F8573C013387F8573C97F8572C97F8533C9A42DBD397F84E2C9C491346DB009B1A1B010B44DC331B68184619F0C4FA03464FF08F41184677
:4038800019F0C6FB03461A4607F120031A60002387F8573C1EE097F8553C322202FB03F31A1D97F8533C5B001A4497F8533C1A4497F8573CD31A013B97F8572C07F1200166
:4038C0000A44117807F15802D15497F8573C013387F8573C97F8572C97F8533C9A42DAD3FDE097F84E2C7C491346DB009B1A1B010B4403F588731B78184697F8572C7549A6
:4039000003465B0003449B001344663351F8231097F84E2C70481346DB009B1A1B01034403F588731B781C4697F8572C694823465B0023441B010344134403F295131B78C8
:4039400041FA03F31AB207F11E031A80002387F8563C21E097F8553C322202FB03F31A1D97F8573C97F8531C01FB03F31A4497F8533C1A4497F8563CD31A013B97F8562C7D
:4039800007F11E010A44117807F15802D15497F8563C013387F8563C97F8562C97F8533C9A42D7D39BE097F84E2C4A491346DB009B1A1B010B44E433196897F84E2C4648ED
:4039C0001346DB009B1A1B01034403F588731B781846404A03465B0003441B01134403F295131B7841FA03F207F118031A60002387F8563C1AE097F8553C322202FB03F32D
:403A00001A1D97F8533C1A4497F8563CD31A013B97F8562C07F118010A44117807F15802D15497F8563C013387F8563C97F8562C97F8533C9A42DED397F84E2C2549134627
:403A4000DB009B1A1B010B44E833196897F84E2C21481346DB009B1A1B01034403F588731B7818461B4A03465B0003441B01134403F295131B7841FA03F207F118031A605D
:403A8000002387F8563C1DE097F8553C322202FB03F31A1D97F8533C1A4497F8533C1A4497F8563CD31A013B97F8562C07F118010A44117807F15802D15497F8563C013330
:403AC00087F8563C97F8562C97F8533C9A42DBD305E000BFEC96FF1FBC9BFF1F00BF97F8553C9B00D7F8742C13441A6807F12403114618461AF0C4F907F1240318461AF05F
:403B0000FCF9034687F8523C97F8553C07F10802126813441B78002B40F0FD8397F8543CD7F8702C13441B78013B0B2B00F2E98301A252F823F000BF693B0000EF3C000007
:403B4000AD3D0000F33D0000493E0000973E0000A53F00001B4000009D40000007410000CB41000045420000D7F8483C1B78072B00F29B8301A252F823F000BF9D3B000019
:403B8000BD3B0000DF3B0000093C0000313C0000573C0000873C0000AD3C000007F1240318461AF0AAF903461A4607F124031344D34A1068186012791A7197E007F1240300
:403BC00018461AF09AF903461A4607F124031344CC491A460B4603CB1060516086E007F1240318461AF089F903461A4607F124031344C54A1D4614460FCC28606960AA6066
:403C0000EB6023882B8271E007F1240318461AF074F903461A4607F124031344BB4A1C46134607CB20606160A2601B88A3815DE007F1240318461AF060F903461A4607F123
:403C400024031344B2491A460B4603CB106051601B8813814AE007F1240318461AF04DF903461A4607F124031344AA4A1D4614460FCC28606960AA60EB602388A2782B823A
:403C80001346AB7432E007F1240318461AF035F903461A4607F1240313449F491A460B4603CB106051601B8813811FE007F1240318461AF022F903461A4607F12403134427
:403CC000964A14469E4604F1200C754626460FCE28606960AA60EB6010340EF1100E6445F3D1724623461B88138000BFDDE2D7F8483C1B78032B00F2DA8201A252F823F0D6
:403D0000113D0000373D0000573D00007D3D000007F1240318461AF0F0F803461A4607F1240313447E491A460B4603CB106051601B88138139E007F1240318461AF0DDF8D2
:403D400003461A4607F124031344764A1068186012791A7129E007F1240318461AF0CDF803461A4607F1240313446F491A460B4603CB106051601B78137216E007F1240365
:403D800018461AF0BAF803461A4607F124031344664A1D4614460FCC28606960AA60EB6020682861A388AB8200BF80E2D7F8483C1B78002B0FD007F1240318461AF09DF846
:403DC00003461A4607F124031344594A1068186012791A7195E207F1240318461AF08DF803461A4607F124031344524A1068186087E2D7F8483C1B78002B02D0012B12D073
:403E00007FE207F1240318461AF077F803461A4607F124031344484A106818609188927999809A710FE007F1240318461AF065F803461A4607F124031344404A10681860D6
:403E400092889A8000BF5CE2D7F8483C1B78002B02D0012B10D054E207F1240318461AF04CF803461A4607F124031344344A1068186012791A710DE007F1240318461AF00A
:403E80003CF803461A4607F1240313442D4A1068186000BF35E2D7F8483C1B78032B00F2088201A252F823F0B93E0000D93E0000513F00007B3F000007F1240318461AF003
:403EC0001CF803461A4607F1240313441E4A1068186092889A8064E007F1240318461AF00CF803461A4607F124031344174A1C46134607CB20606160A2601B88A38150E0ED
:403F0000F0FC0100F8FC010000FD010014FD010024FD010030FD010044FD010050FD010074FD010080FD010088FD010094FD0100ACFD0100B4FD0100BCFD0100C4FD0100CF
:403F4000CCFD0100D4FD0100DCFD0100E4FD010007F12403184619F0D0FF03461A4607F124031344D44A1D4614460FCC28606960AA60EB6023882B8213E007F12403184651
:403F800019F0BBFF03461A4607F124031344CB4A1C46134607CB20606160A2601B78237300BF86E1D7F8483C1B78012B14D0022B22D0002B00D02FE007F12403184619F046
:403FC0009CFF03461A4607F124031344BC4A1068186092889A801FE007F12403184619F08CFF03461A4607F124031344B54A1068186012791A710FE007F12403184619F034
:404000007CFF03461A4607F124031344AE4A1068186092889A8000BF73E1D7F8483C1B78012B18D0022B28D0002B00D069E107F12403184619F061FF03461A4607F12403A5
:404040001344A24A1C46134607CB20606160A2601B88A38121E007F12403184619F04DFF03461A4607F124031344994A106818609188927999809A710FE007F124031846ED
:4040800019F03BFF03461A4607F124031344914A1068186092889A8000BF32E1D7F8483C1B78002B02D0012B15D02AE107F12403184619F022FF03461A4607F12403134408
:4040C000854A1D4614460FCC28606960AA60EB602068286116E007F12403184619F00DFF03461A4607F1240313447C4A1D4614460FCC28606960AA60EB6020682861A388BB
:40410000AB8200BFFDE0D7F8483C1B78032B00F2F78001A252F823F029410000514100007B410000A341000007F12403184619F0E4FE03461A4607F124031344684A1C4602
:40414000134607CB20606160A2601B88A3813BE007F12403184619F0D0FE03461A4607F1240313445F4A1D4614460FCC28606960AA60EB6023882B8226E007F124031846BA
:4041800019F0BBFE03461A4607F124031344564A1C46134607CB20606160A2601B88A38112E007F12403184619F0A7FE03461A4607F1240313444D4A1C4615460FCD2060FB
:4041C0006160A260E36000BF9AE0D7F8483C1B78002B02D0012B1AD093E007F12403184619F08BFE03461A4607F124031344404A1C4615460FCD20606160A260E3602868AD
:404200002061AB88AA79A3821346A37519E007F12403184619F071FE03461A4607F124031344344A1C4615460FCD20606160A260E36028682061AB88AA79A3821346A3756A
:4042400000BF5EE0D7F8483C1B78002B02D0012B15D056E007F12403184619F04EFE03461A4607F124031344234A1D4614460FCC28606960AA60EB602068286114E007F17E
:404280002403184619F039FE03461A4607F1240313441A4A1D4614460FCC28606960AA60EB602068286100BF2BE000BF29E000BF27E000BF25E000BFF4FD010008FE010093
:4042C000DCFD010018FE010020FE010028FE010038FE010040FE010048FE010060FE010078FE010088FE01009CFE0100ACFE0100C0FE0100D8FE0100F0FE010008FF01009A
:4043000000BF07F12403184619F0F7FD0346DBB2013387F8523C97F8523C87F8573C26E097F8553C322202FB03F31A1D97F8533C97F8551C381D00680144097801FB03F3C7
:404340001A4497F8523C1A4497F8573CD31A97F8521C97F8572C8A1A07F12401895C07F15802D15497F8573C013B87F8573C97F8573C002BD4D197F8553C07F1080212682B
:4043800013441B78002B21D197F8553C322202FB03F31A1D97F8533C97F8551C381D00680144097801FB03F31A4497F8523C134497F8542CD7F8701C0A44117807F1580260
:4043C000D15497F8543C013387F8543C97F8553C07F10802126813441B78002B1ED197F8553C322202FB03F31A1D97F8533C97F8551C381D00680144097801FB03F31A4407
:4044000097F8523C1344023397F8552C394609680A44117807F15802D1541DE097F8553C322202FB03F31A1D97F8533C97F8551C381D00680144097801FB03F31A4497F86A
:40444000523C1344013397F8552C394609680A44117807F15802D15497F8553C013387F8553C97F8553C232B7DF6C3AF002387F8563C3DE097F8563C9B00D7F87C2C134443
:404480001B68184619F039FD034687F8523C97F8523C87F8573C22E097F8563C962202FB03F303F20A7297F8523C1A4497F8573CD31A97F8562C9200D7F87C1C0A441268BC
:4044C00097F8520C97F8571C411A0A44117807F15802D15497F8573C013B87F8573C97F8573C002BD8D197F8563C013387F8563C97F8563C072BBDD9B7F8503C5C1EB7F80B
:40450000503CDBB2013BDAB207F158031146184607F00EFA03461A4607F158031A55B7F8502C07F158031146184607F06DF900BF07F65C47BD46F0BDB0B5ADF5A56D04AFBD
:404540000246BB1D1A80002387F80D35012387F80C35054BC7F81035BB1D1B88002B07D0024BC7F8103503E0EC96FF1FBC9BFF1FD7F8103503F1A00207F56F731A6097F80E
:404580000D251346DB009B1A1B01B033D7F810251A4407F56F735A6097F80D251346DB009B1A1B01B833D7F8102513441A1D07F56F739A6097F80D251346DB009B1A1B0106
:4045C000E033D7F810251A4407F56F73DA6097F80D251346DB009B1A1B0103F58473D7F8102513449A1D07F56F731A6197F80D251346DB009B1A1B0103F58473D7F8102555
:404600001344DA1D07F56F735A6197F80D25D7F810151346DB009B1A1B010B4403F588731B781A4613465B0013441B0103F5C873D7F8102513445A1D07F56F739A6197F810
:404640000D25D7F810151346DB009B1A1B010B4403F588731B781A4613465B0013441B0103F5CC73D7F810251A4407F56F73DA6197F80D25D7F810151346DB009B1A1B0147
:404680000B4403F588731B781A4613465B0013441B0103F5D073D7F8102513441A1D07F56F731A6297F80D251346DB009B1A1B01E033D7F810251344DA1C07F56F735A62B3
:4046C00097F80D251346DB009B1A1B01E033D7F8102513441A1D07F56F739A6297F80D251346DB009B1A1B01E833D7F8102513441A1D07F56F73DA6297F80D251346DB00F3
:404700009B1A1B0103F58473D7F8102513441A1D07F56F731A63D7F8103503F5F87207F56F735A63D7F8103503F5FF7207F56F739A63D7F8103503F5FA7207F56F73DA63D0
:40474000D7F8103503F5FE7207F56F731A6497F80D25D7F810151346DB009B1A1B010B4403F588731B781A4613465B0013441B0103F5D873D7F810251A4407F56F735A640A
:4047800097F80D25D7F810151346DB009B1A1B010B4403F588731B781A4613465B0013441B0103F5D873D7F8102513441A1D07F56F739A6497F80D251346DB009B1A1B016C
:4047C000E033D7F8102513445A1C07F56F73DA6497F80D251346DB009B1A1B01F033D7F8102513441A1D07F56F731A65D7F8103503F1A10207F56F735A65D7F8103503F58D
:40480000287207F56F739A65D7F8103503F5297207F56F73DA65D7F8103503F52A7207F56F731A66D7F8103503F52B7207F56F735A66D7F8103503F2FF1207F56F739A66F8
:40484000D7F8103503F1A70207F56F73DA66D7F8103503F5007207F56F731A67D7F8103503F2262207F56F735A67D7F8103503F1A80207F56F739A67D7F8103503F5087285
:4048800007F56F73DA67D7F8103503F2012207F56F73C3F88020D7F8103503F2022207F56F73C3F88420D7F8103503F1AB0207F56F73C3F88820D7F8103593F8AB30123355
:4048C0005B01D7F810251A4407F56F73C3F88C2097F80D251346DB009B1A1B0103F58873D7F810251A4407F56F73C3F8902097F80D251346DB009B1A1B01E033D7F8102574
:4049000013449A1C07F56F73C3F8942097F80D251346DB009B1A1B0103F58873D7F8102513445A1C07F56F73C3F8982097F80D251346DB009B1A1B0103F58873D7F8102585
:4049400013449A1C07F56F73C3F89C2097F80D25D7F810151346DB009B1A1B010B4403F588731B781A4613465B0013441B0103F5D873D7F8102513445A1C07F56F73C3F812
:40498000A02097F80D25D7F810151346DB009B1A1B010B4403F588731B781A4613465B0013441B0103F5D873D7F8102513445A1D07F56F73C3F8A420D7F8103503F1A902FC
:4049C00007F56F73C3F8A82097F80C251346DB009B1A1B01B033D7F810251A4407F56F73C3F8AC2097F80C251346DB009B1A1B01B833D7F8102513441A1D07F56F73C3F80C
:404A0000B02097F80C251346DB009B1A1B01E033D7F810251A4407F56F73C3F8B42097F80C251346DB009B1A1B0103F58473D7F8102513449A1D07F56F73C3F8B82097F839
:404A40000C251346DB009B1A1B0103F58473D7F810251344DA1D07F56F73C3F8BC2097F80C25D7F810151346DB009B1A1B010B4403F588731B781A4613465B0013441B0135
:404A800003F5C873D7F8102513445A1D07F56F73C3F8C02097F80C25D7F810151346DB009B1A1B010B4403F588731B781A4613465B0013441B0103F5CC73D7F810251A44CA
:404AC00007F56F73C3F8C42097F80C25D7F810151346DB009B1A1B010B4403F588731B781A4613465B0013441B0103F5D073D7F8102513441A1D07F56F73C3F8C82097F847
:404B00000C251346DB009B1A1B01E033D7F810251344DA1C07F56F73C3F8CC2097F80C251346DB009B1A1B01E033D7F8102513441A1D07F56F73C3F8D02097F80C2513464A
:404B4000DB009B1A1B01E833D7F8102513441A1D07F56F73C3F8D42097F80C251346DB009B1A1B0103F58473D7F8102513441A1D07F56F73C3F8D82097F80C25D7F81015C4
:404B80001346DB009B1A1B010B4403F588731B781A4613465B0013441B0103F5D873D7F810251A4407F56F73C3F8DC2097F80C25D7F810151346DB009B1A1B010B4403F55A
:404BC00088731B781A4613465B0013441B0103F5D873D7F8102513441A1D07F56F73C3F8E02097F80C251346DB009B1A1B01E033D7F8102513445A1C07F56F73C3F8E420EC
:404C000097F80C251346DB009B1A1B01F033D7F8102513441A1D07F56F73C3F8E82097F80C251346DB009B1A1B0103F58873D7F810251A4407F56F73C3F8EC2097F80C25DA
:404C40001346DB009B1A1B01E033D7F8102513449A1C07F56F73C3F8F02097F80C251346DB009B1A1B0103F58873D7F8102513445A1C07F56F73C3F8F42097F80C25134613
:404C8000DB009B1A1B0103F58873D7F8102513449A1C07F56F73C3F8F82097F80C25D7F810151346DB009B1A1B010B4403F588731B781A4613465B0013441B0103F5D8733B
:404CC000D7F8102513445A1C07F56F73C3F8FC2097F80C25D7F810151346DB009B1A1B010B4403F588731B781A4613465B0013441B0103F5D873D7F8102513445A1D07F508
:404D00006F73C3F80021D7F8103503F5C87207F56F73C3F80421D7F8103503F5E07207F56F73C3F80821D7F8103503F2272207F56F73C3F80C21D7F8103503F50A7207F5F5
:404D40006F73C3F81021D7F8103503F22E2207F56F73C3F81421D7F8103503F1AC0207F56F73C3F81821D7F8103503F52C7207F56F73C3F81C21D7F8103503F2B12207F55E
:404D80006F73C3F82021D7F8103503F5307207F56F73C3F82421D7F8103503F5317207F56F73C3F82821D7F8103503F5327207F56F73C3F82C21D7F8103503F5347207F5B4
:404DC0006F73C3F83021D7F8103503F2D22207F56F73C3F83421D7F8103503F2D62207F56F73C3F8382107F55B73F44A184611464F231A4618F070FA07F5477301221A7083
:404E000007F5477303225A7007F5477303229A7007F547730122DA7007F5477301221A7107F5477301225A7107F5477303229A7107F547730322DA7107F5477303221A724A
:404E400007F5477301225A7207F5477302229A7207F547730222DA7207F5477301221A7307F5477302225A7307F5477301229A7307F547730222DA7307F5477302221A74FF
:404E800007F5477301225A7407F5477301229A7407F547730122DA7407F5477306221A7507F5477303225A7507F5477301229A7507F547730122DA7507F5477301221A76AD
:404EC00007F5477301225A7607F5477301229A7607F547730122DA7607F5477301221A7707F5477301225A7707F5477301229A7707F547730622DA7707F54773012283F876
:404F0000202007F54773052283F8212007F54773012283F8222007F54773062283F8232007F54773012283F8242007F54773012283F8252007F54773012283F8262007F59F
:404F40004773012283F8272007F54773032283F8282007F54773032283F8292007F54773012283F82A2007F54773032283F82B2007F54773032283F82C2007F5477301229B
:404F800083F82D2007F54773012283F82E2007F54773012283F82F2007F54773032283F8302007F54773032283F8312007F54773032283F8322007F54773012283F8332048
:404FC00007F54773022283F8342007F54773022283F8352007F54773012283F8362007F54773012283F8372007F54773012283F8382007F54773012283F8392007F54773FA
:40500000062283F83A2007F54773012283F83B2007F54773012283F83C2007F54773012283F83D2007F54773012283F83E2007F54773032283F83F2007F54773032283F8A6
:4050400040205F4B1A7807F5477383F841205C4B5A7807F5477383F8422007F54773012283F8432007F54773062283F8442007F54773062283F8452007F54773012283F870
:40508000462007F54773012283F8472007F54773012283F8482007F54773012283F8492007F54773012283F84A2007F54773012283F84B2007F54773012283F84C2007F51D
:4050C0004773022283F84D2007F54773012283F84E2007F5337300221A7097F80D350A33DAB207F533735A7097F80D350A33DAB207F533739A7097F80D350A33DAB207F5F8
:405100003373DA7097F80D350A33DAB207F533731A7197F80D350A33DAB207F533735A7197F80D25D7F810151346DB009B1A1B010B4403F588731B781433DAB207F53373AD
:405140009A7197F80D25D7F810151346DB009B1A1B010B4403F588731B781433DAB207F53373DA7197F80D25D7F810151346DB009B1A1B010B4403F588731B781433DAB273
:4051800007F533731A7297F80D350A33DAB207F533735A7297F80D350A33DAB207F533739A7297F80D350A33DAB207F53373DA7297F80D350A33DAB204E000BF8002020028
:4051C0000096FF1F07F533731A7307F533731E225A7307F533731E229A7307F533731E22DA7307F533731E221A7497F80D25D7F810151346DB009B1A1B010B4403F5887393
:405200001B781433DAB207F533735A7497F80D25D7F810151346DB009B1A1B010B4403F588731B781433DAB207F533739A7497F80D350A33DAB207F53373DA7497F80D352B
:405240000A33DAB207F533731A7507F5337300225A7507F5337346229A7507F533734622DA7507F5337346221A7607F5337346225A7607F533731E229A7607F53373002205
:40528000DA7607F5337328221A7707F5337332225A7707F5337300229A7707F533733222DA7707F53373282283F8202007F53373282283F8212007F53373002283F822206E
:4052C000D7F8103593F8AB303C33DAB207F5337383F8232097F80D350A33DAB207F5337383F8242097F80D350A33DAB207F5337383F8252097F80D350A33DAB207F53373A6
:4053000083F8262097F80D350A33DAB207F5337383F8272097F80D25D7F810151346DB009B1A1B010B4403F588731B781433DAB207F5337383F8282097F80D25D7F8101532
:405340001346DB009B1A1B010B4403F588731B781433DAB207F5337383F8292007F53373002283F82A2097F80C350A33DAB207F5337383F82B2097F80C350A33DAB207F5FB
:40538000337383F82C2097F80C350A33DAB207F5337383F82D2097F80C350A33DAB207F5337383F82E2097F80C350A33DAB207F5337383F82F2097F80C25D7F81015134667
:4053C000DB009B1A1B010B4403F588731B781433DAB207F5337383F8302097F80C25D7F810151346DB009B1A1B010B4403F588731B781433DAB207F5337383F8312097F88E
:405400000C25D7F810151346DB009B1A1B010B4403F588731B781433DAB207F5337383F8322097F80C350A33DAB207F5337383F8332097F80C350A33DAB207F5337383F86C
:40544000342097F80C350A33DAB207F5337383F8352097F80C350A33DAB207F5337383F8362097F80C25D7F810151346DB009B1A1B010B4403F588731B781433DAB207F564
:40548000337383F8372097F80C25D7F810151346DB009B1A1B010B4403F588731B781433DAB207F5337383F8382097F80C350A33DAB207F5337383F8392097F80C350A3382
:4054C000DAB207F5337383F83A2097F80C350A33DAB207F5337383F83B2097F80C350A33DAB207F5337383F83C2097F80C350A33DAB207F5337383F83D2097F80C350A3366
:40550000DAB207F5337383F83E2097F80C25D7F810151346DB009B1A1B010B4403F588731B781433DAB207F5337383F83F2097F80C25D7F810151346DB009B1A1B010B447F
:4055400003F588731B781433DAB207F5337383F8402007F53373142283F8412007F53373152283F8422007F53373322283F8432007F53373322283F8442007F5337332224C
:4055800083F8452007F53373002283F8462007F53373502283F8472007F53373502283F8482007F533735A2283F8492007F533735A2283F84A2007F533735A2283F84B2070
:4055C00007F53373642283F84C2007F53373642283F84D2007F53373642283F84E2007F5C873D14A184611464FF49E731A4617F073FE07F58C7300221A60043372220021C5
:40560000184617F074FE07F58C7064230A22C74918F036FC07F1E803C54A1A6007F1E803C44A5A6007F1E803C34A9A6007F1E803C24ADA6007F1E803C14A1A6107F1E80328
:40564000C04A5A6107F1E80307F58C729A6107F1E803BD4ADA6107F1E803BC4A1A6207F1E803BB4A5A6207F1E803BA4A9A6207F1E803B94ADA6207F1C803B84A1C461546D8
:4056800028686968AA68EB680FC428696969AA6907C4AB8BAA7F23801346A37007F1BC03AF4A1068516803C3127A1A7007F1A803AC4A1C46154628686968AA68EB680FC4F6
:4056C0002B8A2380232387F80B35002387F81635002387F8173521E097F8163507F1BC02D35C1A4697F8173501339A420BD197F8173507F158020121D15497F81635013309
:4057000087F8163505E097F8173507F158020021D15497F81735013387F8173597F817354E2BD9D9002387F81635002387F8173521E097F8163507F1A802D35C1A4697F8F1
:40574000173501339A420BD197F8173507F108020121D15497F81635013387F8163505E097F8173507F108020021D15497F81735013387F8173597F817354E2BD9D9BB1D35
:405780001B88002B17D107F5337407F5477207F55B7107F56F7007F1E803039307F15803029307F5C873019307F1C80300932346FCF7D2FDDEE2BB1D1B88DBB2013B87F808
:4057C0000A3597F80A3507F55B72D35C092B23D801A252F823F000BF01580000015800000158000009580000095800001158000011580000115800001958000001580000E4
:40580000012387F8153507E0022387F8153503E0042387F8153500BF97F80A3507F10802D35C002B40F03A8297F80A3507F55B72D35C092B00F23A8201A252F823F000BF97
:40584000695800001F59000069580000B75900004D5A0000E15A0000755B0000095C0000AD5C0000B5580000002387F8173517E097F80A2507F56F7353F8223097F8172508
:4058800097F8151501FB02F2134497F81725033235498A5C1A7097F81735013387F8173597F80A3507F54772D35C97F817259A42DED3FCE1002387F8173517E097F80A2596
:4058C00007F56F7353F8223097F8172597F8151501FB02F2134497F81725033222498A5C1A7097F81735013387F8173597F80A3507F54772D35C97F817259A42DED397F814
:405900000A2507F56F7353F8223097F8172597F8151501FB02F2134400221A70C7E1002387F817353DE000BFF40A020020FF010094FF010020000200600002008C0002000E
:40594000A4000200CC0002002801020068010200B0010200140202004C020200300C0200500C02005C0C02000895FF1F97F80A2507F56F7353F8223097F8172597F8151584
:4059800001FB02F2134497F817250332C6490A4492F90020D2B21A7097F81735013387F8173597F80A3507F54772D35C97F817259A42DBD37BE1002387F817353CE097F8B4
:4059C000173597F8152502FB03F30333B64A1344B3F90030A7F80835002387F8163520E097F80A2507F56F7353F8222097F8173597F8151501FB03F3184697F8151597F818
:405A00001635CB1A0344013B134497F8162507F5A1610A4412781A7097F81635013387F8163597F8162597F815359A42D8D397F81735013387F8173597F80A3507F54772D3
:405A4000D35C97F817259A42B9D330E1002387F817353BE097F8173597F8152502FB03F30333914A13441B88A7F80635002387F8163520E097F80A2507F56F7353F8222018
:405A800097F8173597F8151501FB03F3184697F8151597F81635CB1A0344013B134497F8162507F206510A4412781A7097F81635013387F8163597F8162597F815359A42DD
:405AC000D8D397F81735013387F8173597F80A3507F54772D35C97F817259A42BAD3E6E0002387F817353BE097F8173597F8152502FB03F303336C4A13441B68C7F800351B
:405B0000002387F8163520E097F80A2507F56F7353F8222097F8173597F8151501FB03F3184697F8151597F81635CB1A0344013B134497F8162507F5A0610A4412781A70F0
:405B400097F81635013387F8163597F8162597F815359A42D8D397F81735013387F8173597F80A3507F54772D35C97F817259A42BAD39CE0002387F817353BE097F8173503
:405B800097F8152502FB03F30333474A13441B68C7F8FC34002387F8163520E097F80A2507F56F7353F8222097F8173597F8151501FB03F3184697F8151597F81635CB1A27
:405BC0000344013B134497F8162507F2FC410A4412781A7097F81635013387F8163597F8162597F815359A42D8D397F81735013387F8173597F80A3507F54772D35C97F84C
:405C000017259A42BAD352E0002387F817353BE097F8173597F8152502FB03F30333224A13441B68C7F8F834002387F8163520E097F80A2507F56F7353F8222097F8173595
:405C400097F8151501FB03F3184697F8151597F81635CB1A0344013B134497F8162507F59F610A4412781A7097F81635013387F8163597F8162597F815359A42D8D397F810
:405C80001735013387F8173597F80A3507F54772D35C97F817259A42BAD308E0BB1D1B88184600F06FF802E00895FF1F00BF97F80B359BB2BA1D12889A4211D0D7F81035E1
:405CC00093F8AB305B0103F51273D7F81025D018D7F8103503F5F8731022194617F0FCFA97F80A3507F55B72D35C002B42D1002387F80F35FF2387F80E3597F80F3507F5D7
:405D00005B72D35C002B04D197F80E35013387F80E3597F80F35013387F80F3597F80F2597F80A359A42E8D997F80E3507F1C802D35C052B1BD097F80E3507F1C802D35C06
:405D4000062B14D097F80E3507F1C802D35C082B0DD097F80E3507F1C802D35C092B06D097F80E3507F1C802D35C0A2B02D1044B01221A7000BF07F5A367BD46B0BD00BFB3
:405D8000E181FF1FF0B587B000AF0346FB8000233B750123FB74FB88023B452B01F21E8201A252F823F000BFC15E0000F3600000DD71000039630000DD710000DD71000034
:405DC00083630000DD710000DD710000B9640000DD710000DD710000DD710000DD710000DD710000DD710000DD710000DD710000DD710000DD710000DD710000B96500008C
:405E000017660000DD710000DD710000DD71000051660000DD710000DD710000CD67000079680000DD710000DD710000DD710000DD710000DD710000B3680000DD710000A4
:405E4000DD710000DD710000DD710000DD710000ED680000336B0000DD710000616D0000DD710000DD710000C96D0000DD710000DD710000DD6E0000DD710000DD71000086
:405E8000DD710000DD710000DD710000DD710000DD710000DB6F0000DD710000DD710000DD710000DD710000DD710000DD710000DD710000DD710000DD71000025700000BF
:405EC0003A7DAB491346DB009B1A1B010B4403F20F131B78032B00F08680A64B1B68FB600023BB750EE0BB7DC3F1030307F108021344BA7D07F10C010A4412781A70BB7DA4
:405F00000133BB75BB7D032BEDD93C7DBB684FF08F41184616F0C8FF0346184617F08AF90146954A2346DB001B1B1B011344B0331960924B1B68FB600023BB750EE0BB7DE7
:405F4000C3F1030307F108021344BA7D07F10C010A4412781A70BB7D0133BB75BB7D032BEDD93C7DBB684FF08F41184616F09CFF0346184617F05EF901467F4A2346DB0065
:405F80001B1B1B011344B43319607D4B1B68FB600023BB750EE0BB7DC3F1030307F108021344BA7D07F10C010A4412781A70BB7D0133BB75BB7D032BEDD93C7DBB684FF025
:405FC0008F41184616F070FF0346184617F032F90146694A2346DB001B1B1B011344B833196001F006B9634B1B68FB600023BB750EE0BB7DC3F1030307F108021344BA7DDB
:4060000007F10C010A4412781A70BB7D0133BB75BB7D032BEDD93C7DBB684FF08F41184616F042FF0346184617F004F90146524A2346DB001B1B1B011344C83319604F4B18
:406040001B68FB600023BB750EE0BB7DC3F1030307F108021344BA7D07F10C010A4412781A70BB7D0133BB75BB7D032BEDD93C7DBB684FF08F41184616F016FF0346184645
:4060800017F0D8F801463C4A2346DB001B1B1B011344CC3319603A4B1B68FB600023BB750EE0BB7DC3F1030307F108021344BA7D07F10C010A4412781A70BB7D0133BB75AE
:4060C000BB7D032BEDD93C7DBB684FF08F41184616F0EAFE0346184617F0ACF80146264A2346DB001B1B1B011344D033196001F080B83A7D1E491346DB009B1A1B010B4430
:4061000003F20F131B78032B00F09080194B1B68FB600023BB750EE0BB7DC3F1030307F108021344BA7D07F10C010A4412781A70BB7D0133BB75BB7D032BEDD93C7DBB6877
:406140004FF08F41184616F0AFFE0346184617F071F80146084A2346DB001B1B1B011344BC331960054B1B68FB600023BB7518E0EC96FF1F0B95FF1FBC9BFF1F0F95FF1FEC
:406180001395FF1FBB7DC3F1030307F108021344BA7D07F10C010A4412781A70BB7D0133BB75BB7D032BEDD93C7DBB684FF08F41184616F079FE0346184617F03BF801467A
:4061C000B54A2346DB001B1B1B011344C0331960B24B1B68FB600023BB750EE0BB7DC3F1030307F108021344BA7D07F10C010A4412781A70BB7D0133BB75BB7D032BEDD97A
:406200003C7DBB684FF08F41184616F04DFE0346184617F00FF801469F4A2346DB001B1B1B011344C433196000F0E3BF9C4B1B68FB600023BB750EE0BB7DC3F1030307F100
:4062400008021344BA7D07F10C010A4412781A70BB7D0133BB75BB7D032BEDD93C7DBB684FF08F41184616F01FFE0346184616F0E1FF0146884A2346DB001B1B1B01134458
:40628000D4331960874B1B68FB600023BB750EE0BB7DC3F1030307F108021344BA7D07F10C010A4412781A70BB7D0133BB75BB7D032BEDD93C7DBB684FF08F41184616F06D
:4062C000F3FD0346184616F0B5FF0146724A2346DB001B1B1B011344D83319606F4B1B68FB600023BB750EE0BB7DC3F1030307F108021344BA7D07F10C010A4412781A7017
:40630000BB7D0133BB75BB7D032BEDD93C7DBB684FF08F41184616F0C7FD0346184616F089FF01465C4A2346DB001B1B1B011344DC33196000F05DBF3A7D5B4BD878564993
:406340001346DB009B1A1B010B4403F5877302461A70397D3A7D50481346DB009B1A1B01034403F588731B781846504A342303FB00F313441A684E480B0103441A6000F0C2
:4063800038BF0023FB757EE03A7D43491346DB009B1A1B010B4403F588731B781C46FA7DFB7D5B0003334049CB5C1B0219B2FB7D02335B003C48C35C1BB20B431BB218466D
:4063C000354923465B0023449B001344663341F823003A7D30491346DB009B1A1B010B4403F588731B781D46F97D3A7D2A481346DB009B1A1B01034403F588731B781C46CD
:40640000FA7D254823465B0023449B001344663350F823003A7D204C1346DB009B1A1B01234403F588731B781E46FA7D1A4C33465B0033441B012344134403F295131B78AC
:4064400000FA03F214482B465B002B449B000B44663340F823203A7D0F491346DB009B1A1B010B4403F588731B781846FB7D0F49342202FB00F20A441344183300221A70A0
:40648000FB7D0133FB75FB7D022B7FF67DAF094B01221A7000F0ADBEBC9BFF1F1395FF1F0B95FF1F0F95FF1F0895FF1F2896FF1F209AFF1FE896FF1F3A7DC14BDB78190623
:4064C000BF4B1B791B041943BD4B5B791B020B43BB4989791943BB481346DB009B1A1B010344E43319603A7DB54BDB791906B44B1B7A1B041943B24B5B7A1B020B43B0498C
:40650000897A1943AF481346DB009B1A1B010344E83319603A7D397DAA480B46DB005B1A1B010344E4331868397DA64C0B46DB005B1A1B01234403F588731B781C46A1498D
:4065400023465B0023441B010B4403F295131B7800FA03F19B481346DB009B1A1B010344E43319603A7D397D96480B46DB005B1A1B010344E8331868397D924C0B46DB00FE
:406580005B1A1B01234403F588731B781C468D4923465B0023441B010B4403F295131B7800FA03F187481346DB009B1A1B010344E833196000F01DBE814BDB781A06804BED
:4065C0001B791B041A437E4B5B791B0213437C4A927913437B4AC2F8A0327A4BD3F8A0123A7D78481346DB009B1A1B01034403F588731B781846734A03465B0003441B0156
:40660000134403F295131B7801FA03F36D4AC2F8A03200F0EEBD6A4BDB781A06684B1B791B041A43664B5B791B021343644A92791343644AC2F8A432624BD3F8A432092B52
:4066400000F3CE855F4B0A22C3F8A42200F0C8BD5B4BDB78BB74BB7C002B04D0594B012283F8A72003E0574B002283F8A720564B01221A70534B93F8AC30002B40F0B285D3
:406680003A7D504B93F8A7004E491346DB009B1A1B010B4403F5887302461A703A7D49491346DB009B1A1B010B4403F588731B781946444A0B465B000B441B01134403F530
:4066C000D87301221A703A7D3E491346DB009B1A1B010B4403F588731B781946394A0B465B000B441B01134403F2B51323221A703A7D34491346DB009B1A1B010B4403F52E
:4067000088731B7819462F4A0B465B000B441B01134403F5DB7303221A703A7D29491346DB009B1A1B010B4403F588731B781946244A0B465B000B441B01134403F2B71393
:40674000FF221A703A7D1F491346DB009B1A1B010B4403F2111301221A703A7D19491346DB009B1A1B010B4403F5897301221A703A7D14491346DB009B1A1B010B44E433A8
:4067800000221A603A7D0F4B93F8103118460D4903465B0003441B010B4403F295131B7819464FF47A5303FA01F106481346DB009B1A1B010344E833196000F013BD00BF1B
:4067C0000895FF1FBC9BFF1FE896FF1FA94BDB78BB74BB7C002B05D00BF0B0FCA64B002283F8A820A54B93F82632012B40F0FC8487200CF057FA0346BB74BB7C1B09DBB220
:406800001A46920013445B00DAB2BB7C03F00F03DBB21344DAB2984B83F8A42089200CF041FA0346BB74BB7C1B09DBB21A46920013445B00DAB2BB7C03F00F03DBB21344CA
:40684000DAB28D4B83F8A5208D200CF02BFA0346BB74BB7C1B09DBB21A46920013445B00DAB2BB7C03F00F03DBB21344DAB2824B83F8A62000F0B8BC00237B750CE07B7D01
:406880007A7D03327B49895C7B4A13440A4683F820227B7D01337B757B7D052BEFD9764B93F82632012B40F0A1840CF0FFFA00F09DBC3A7D6F4BD8786F491346DB009B1A09
:4068C0001B010B44E23302461A706B4B93F852315B005AB2684B93F8E2305BB213435BB2DBB2184611F0F4FC00F083BCFA7C63491346DB009B1A1B010B4403F20F131B7830
:40690000032B00F085805E4B1B68FB600023BB750EE0BB7DC3F1030307F108021344BA7D07F10C010A4412781A70BB7D0133BB75BB7D032BEDD9FC7CBB684FF08F411846B3
:4069400016F0B2FA0346184616F074FC01464A4A2346DB001B1B1B011344B0331960494B1B68FB600023BB750EE0BB7DC3F1030307F108021344BA7D07F10C010A44127812
:406980001A70BB7D0133BB75BB7D032BEDD9FC7CBB684FF08F41184616F086FA0346184616F048FC0146344A2346DB001B1B1B011344B4331960344B1B68FB600023BB7544
:4069C0000EE0BB7DC3F1030307F108021344BA7D07F10C010A4412781A70BB7D0133BB75BB7D032BEDD9FC7CBB684FF08F41184616F05AFA0346184616F01CFC01461E4A22
:406A00002346DB001B1B1B011344B8331960F0E31B4B1B68FB600023BB750EE0BB7DC3F1030307F108021344BA7D07F10C010A4412781A70BB7D0133BB75BB7D032BEDD9FC
:406A4000FC7CBB684FF08F41184616F02DFA0346184616F0EFFB0146074A2346DB001B1B1B011344C8331960064B1B68FB600023BB751AE00895FF1FBC9BFF1FEC96FF1F05
:406A80000B95FF1F0F95FF1F1395FF1FBB7DC3F1030307F108021344BA7D07F10C010A4412781A70BB7D0133BB75BB7D032BEDD9FC7CBB684FF08F41184616F0F5F903469A
:406AC000184616F0B7FB0146B74A2346DB001B1B1B011344CC331960B44B1B68FB600023BB750EE0BB7DC3F1030307F108021344BA7D07F10C010A4412781A70BB7D013360
:406B0000BB75BB7D032BEDD9FC7CBB684FF08F41184616F0C9F90346184616F08BFB0146A14A2346DB001B1B1B011344D03319605FE3FA7C9E491346DB009B1A1B010B4468
:406B400003F20F131B78032B00F08580994B1B68FB600023BB750EE0BB7DC3F1030307F108021344BA7D07F10C010A4412781A70BB7D0133BB75BB7D032BEDD9FC7CBB68F9
:406B80004FF08F41184616F08FF90346184616F051FB0146844A2346DB001B1B1B011344BC331960844B1B68FB600023BB750EE0BB7DC3F1030307F108021344BA7D07F10F
:406BC0000C010A4412781A70BB7D0133BB75BB7D032BEDD9FC7CBB684FF08F41184616F063F90346184616F025FB01466E4A2346DB001B1B1B011344C03319606B4B1B6896
:406C0000FB600023BB750EE0BB7DC3F1030307F108021344BA7D07F10C010A4412781A70BB7D0133BB75BB7D032BEDD9FC7CBB684FF08F41184616F037F90346184616F01C
:406C4000F9FA0146584A2346DB001B1B1B011344C4331960CDE2574B1B68FB600023BB750EE0BB7DC3F1030307F108021344BA7D07F10C010A4412781A70BB7D0133BB75E6
:406C8000BB7D032BEDD9FC7CBB684FF08F41184616F00AF90346184616F0CCFA0146424A2346DB001B1B1B011344D4331960424B1B68FB600023BB750EE0BB7DC3F1030346
:406CC00007F108021344BA7D07F10C010A4412781A70BB7D0133BB75BB7D032BEDD9FC7CBB684FF08F41184616F0DEF80346184616F0A0FA01462C4A2346DB001B1B1B0157
:406D00001344D8331960294B1B68FB600023BB750EE0BB7DC3F1030307F108021344BA7D07F10C010A4412781A70BB7D0133BB75BB7D032BEDD9FC7CBB684FF08F4118462C
:406D400016F0B2F80346184616F074FA0146164A2346DB001B1B1B011344DC33196048E2FA7C164BD87810491346DB009B1A1B010B4403F5877302461A70F97CFA7C0A482D
:406D80001346DB009B1A1B01034403F588731B7818460B4A342303FB00F313441A6809480B0103441A6024E2BC9BFF1F1395FF1FEC96FF1F0B95FF1F0F95FF1F0895FF1FF3
:406DC0002896FF1F209AFF1F0023FB757EE0FA7C90491346DB009B1A1B010B4403F588731B781C46FA7DFB7D5B0003338A49CB5C1B0219B2FB7D02335B008748C35C1BB23E
:406E00000B431BB21846834923465B0023449B001344663341F82300FA7C7E491346DB009B1A1B010B4403F588731B781D46F97DFA7C78481346DB009B1A1B01034403F591
:406E400088731B781C46FA7D724823465B0023449B001344663350F82300FA7C6D4C1346DB009B1A1B01234403F588731B781E46FA7D684C33465B0033441B0123441344FB
:406E800003F295131B7800FA03F262482B465B002B449B000B44663340F82320FA7C5D491346DB009B1A1B010B4403F588731B781846FB7D5949342202FB00F20A44134478
:406EC000183300221A70FB7D0133FB75FB7D022B7FF67DAF524B01221A708AE1FA7C4E4BDB7819064C4B1B791B0419434A4B5B791B020B4348498979194346481346DB00D8
:406F00009B1A1B010344E4331960FA7C424BDB791906414B1B7A1B0419433F4B5B7A1B020B433D49897A19433A481346DB009B1A1B010344E8331960FA7CF97C35480B46CD
:406F4000DB005B1A1B010344E4331868F97C314C0B46DB005B1A1B01234403F588731B781C462C4923465B0023441B010B4403F295131B7800FA03F126481346DB009B1A49
:406F80001B010344E4331960FA7CF97C21480B46DB005B1A1B010344E8331868F97C1D4C0B46DB005B1A1B01234403F588731B781C46184923465B0023441B010B4403F215
:406FC00095131B7800FA03F112481346DB009B1A1B010344E83319600BE1FA7C0E4BD8780C491346DB009B1A1B010B44E23302461A70084B93F852315B005AB2054B93F8F0
:40700000E2305BB213435BB2DBB2184611F060F9EFE000BFBC9BFF1F0895FF1F2896FF1FE896FF1F754BDA78754B83F8AC20744B93F8AC30002B40F09D803A7D70491346D3
:40704000DB009B1A1B010B4403F588731B7819466B4A0B465B000B441B01134403F5D87301221A703A7D66491346DB009B1A1B010B4403F588731B781946614A0B465B0027
:407080000B441B01134403F2B51323221A703A7D5B491346DB009B1A1B010B4403F588731B781946564A0B465B000B441B01134403F5DB7303221A703A7D51491346DB0066
:4070C0009B1A1B010B4403F588731B7819464C4A0B465B000B441B01134403F2B713FF221A703A7D464B93F8A70045491346DB009B1A1B010B4403F5887302461A703A7D45
:407100003F491346DB009B1A1B010B4403F2111301221A703A7D3A491346DB009B1A1B010B4403F5897301221A703A7D34491346DB009B1A1B010B44E43300221A603A7D8C
:407140002F4B93F8103118462D4903465B0003441B010B4403F295131B7819464FF47A5303FA01F126481346DB009B1A1B010344E8331960224B93F8AC30042B38D1204B4C
:40718000012283F8A9203A7D1D491346DB009B1A1B010B4403F588731B781946184A0B465B000B441B01134403F5D87301221A70FA7C13491346DB009B1A1B010B4403F534
:4071C00088731B7819460E4A0B465B000B441B01134403F5D87301221A7009E000BF08E000BF06E000BF04E000BF02E000BF00E000BF00BF1C37BD46F0BD00BF0895FF1FD9
:40720000BC9BFF1FB0B5ADF5D56D00AF0246BB1D1A8007F58A7300221A60043340F275520021184616F063F80723A7F89A360023A7F8A6360223A7F89836B7F89A365A1CC4
