:400000000080002011000000A9020000A9020000044A08B51268044B1A6000F0ADF900F04BF900BFFA460040BC76004010B5054C237833B9044B13B10448AFF300800123AE
:40004000237010BD4881FF1F000000001C170000084B10B51BB108490848AFF300800848036803B910BD074B002BFBD0BDE81040184700BF000000004C81FF1F1C170000A2
:40008000C880FF1F0000000008B500F077FDFEE7F8B572B66D4E0024354604EB4403AA8856F813000134002101F02CFB0A2C05F10605F2D1664E674B96E803008022186073
:4000C0009980654806F1080101F0F6FA06F1840706F1E00E0025E43657F8043F13F0FF0C23F0FF0414D00CF1FF3C5FFA8CFC05EB0C0006EB400006EB45030330013313F828
:40010000012C13F8021B98421155F8D1013565447745E1D1514C41F251262278504F42F0020222703A784F4D42F002023A702A78A4F5863442F040022A70413C2278A7F5E8
:400140007E4742F01002484B2270513F04F66E5403CB3860796003CBC5F8720DC5F8761D93E8070003C4414922800B7805F58C6543F008030B703E4C3E4861232B70A7F604
:40018000C2673D4A332118250223218005704FF040243B7008210320384B217010701A783748384BD2B287F8A123A4F8221206801C784FF4F07004F001041E4600F0D0FF91
:4001C00001E0032C0DD033784FF4F07003F0010343EA440400F0C4FF013D04F00304F0D1FEE7294B294D2A4F2A484FF4807407221C8000211A704826274A022439702E70FE
:4002000019700470137800F5F820033043F00103812601242149137085F8F86704700B78A0F5F420DBB21E49A0F2967005F5C35503F007071B4C1B090770023A0B700E35EF
:4002400044260FCA2E7007C42380F8BD201700005C17000060520040001A01400350014013500140A04300407C1B0000224300408040004082400040004200400801004916
:40028000204200402542004004400040084000400640004001400040A2430040CF0100496F580040B043004008B501F0D9F903680C2B00D0FEE7FEE780B5134FF7B1134E0E
:4002C000002556F80C0C56F8084C56F8102C03463CB1043A52F8041F43F8041B191AA142F8D156F8040C1A4620B142F8045BD11A8842FAD1013F06F11006E2D101F0B6F9E5
:40030000FFF7C2FEFEE700BF01000000D81B00000E4B0F4A0F491A600B680F4A43F400730E480B600023032B94BF50F823100C490133302B42F8041FF5D10A4B0A49187856
:400340000A4A0B4B08701A60FFF7A2BE0CED00E00004FA0514ED00E0FC7FFF1F00000000A9020000BC760040C080FF1F0080FF1F08ED00E0004700BF134A137803F0C003A3
:40038000802B00D0704770B400231048104E114D1370017833782A780F4C120442EA032322780B4353EA026301D170BC7047017833782A782078120442EA03230B4343EA24
:4003C000006070BCFFF7D6BFFA460040C1FF0300C2FF0300C3FF0300C4FF0300F0B50002C0F57F3090F8C5E390F8C67390F8C92390F8CAC390F8CB1390F8CC3390F8D15336
:40040000C1B0012D69D0DBB21D06C9B290F8C53390F8C663FFB245EA01415FFA8EFED2B25FFA8CFC0A434EEA072E43EA062642EA0C220EF10107013602EB072736020022FC
:40044000B74200F2D13415460AD916F8013B591EC9B2FD29134498BF0125B742DAB2F4D190F8C53390F8C6131D4E43EA0121B7424FEA411101F1200114BFFF084FF4004738
:400480008F4209D901F1904107F1904711F8013B1344B942DAB2F9D1534290F8C023DBB2934202D0062041B0F0BD002DFAD068464FF4807224F0FF0101F009F99DF8D1309B
:4004C000012B0AD00123C4F307216A4603208DF8D13000F0E1FB00F005FD002041B0F0BDC0FF0300013810B40B2863D8DFE800F017202632383E444A50565C060902C1F5DE
:400500007F3101F578710A784C788B78C8781B0443EA0423134343EA006010BC70470902C1F57F3101F57071087810BCC0B270470902C1F57F3101F2C131E4E70902C1F52B
:400540007F3101F2C5314A1C0B78107810BC43EA002070470902C1F57F3101F2C931D2E70902C1F57F3101F57471DDE70902C1F57F3101F2D131D7E70902C1F57F3101F2F2
:40058000D231E0E70902C1F57F3101F2D631DAE70902C1F57F3101F57571D4E70902C1F57F3101F57671AEE70902C1F57F3101F57771B9E701220021C6E700BF2DE98048DD
:4005C000ADF5677D00F0DCFD62B600239B461E4601930DF23F1451AF0DF245190DF5A3780293FF2305AA4FF4967150A800F0E8FD0028F6D1BDF81420062A03D99DF8405145
:40060000012D2CD04FF0040A0025284604210123ADF816008DF841A18DF842518DF843618DF840310023625C0139134489B29BB20029F8D15B429BB25FFA83FE1A0AC11D5C
:40064000172507F800E089B209F80020962308F800500DF1160250A800F09EFDC1E7BDF84231D91D914200F2E680B1F5967F00F2E28050AA1A449279172AC3D1191D89B2B8
:40068000002900F04A82625C0139104489B280B20029F8D1404280B250AAD11891F805E00A7942EA0E22824202D04FF0080AABE79DF841119DF844A1A1F131020A2A00F201
:4006C000AD80DFE802F04788AB5A41AB311F5A1606000020FFF782FE10B9BD4A8023137000F058FD002500F0C9FB04218A4628468DE7BBF1000F40F0BB80042100258A46CD
:40070000284684E7002BF8D1B24A082592E8030008AA82E8030087E8030001939A4628460C214FF0010B72E7BBF1000FE5D0019A03EB020EBEF5967F40F3108100252846DA
:4007400004214FF0030A62E7BBF1000FD5D00023019346E7BBF1000FCFD0002BCDD118460393FFF73BFEB0FA80F0039B40098DF844019A460521584649E734295ED0BBF15F
:40078000000FBAD0022BB8D9AAF1400B019D5FFA8BFB033B9BAA50190DF247111A46039300F08AFF019BBBF13F0F1A46039B1A4495B240F207814FF480734FF49072954288
:4007C00000F0F38000250195284604214FF0010B4FF0030A1BE7BBF1000F8ED0012B8CD1BAF1030F89D87C4B1B681B68C3F30742924500F09E8194BF012200220023FF2162
:4008000004258DF846118DF844318DF845218DF84761284608214FF0000AF8E66F4A1568002D6CD0BBF1000F6ED10025284604214FF0050AEBE64FF0030AE5E6BBF1000FA1
:400840003FF45BAF032B7FF458AFAAF1400B5FFA8BFBBBF13F0F94BF10254FF490752A4600219BA80393019500F04CFF039B90E7032B7FF442AFAAF140033F2BBDF84511CF
:4008800040F2E780FF2979D84FEA0A2E0EEB0100000200F1FF020023013812F801C963448242DBB2F9D1BAF13F0F20D80EF110720A4452011046203210F801EB73448242AB
:4008C000DBB2F9D1BAF1030F11D1FF290FD1002105200393FFF706FE039B00211B1A06205FFA83FAFFF7FEFDC0EB0A00C3B25B428DF8443105214FF0000A012087E6042160
:4009000028464FF0050A82E68DF81810ADF81A3006A80797089609960A9708A9A847BDF824000A9BB0F5937F01D3BB422ED05BB39DF82030021D91B28DF841310122030AAD
:40094000ADF816008DF842018DF840218DF8433100297FF467AE0A468E4670E61A46019B9BA90B441846394600251FFA8EF30193AA4600F0A1FE2846042148E60025284658
:4009800004214FF00A0A42E60028D1D001220E23ADF816608DF842618DF843618DF840218DF84131042100203CE6BDF845219A42019215D30025284604214FF0010B4FF016
:4009C0000A0A24E600F030FA80231022F7E600BFFA460040981B0000CC80FF1F6481FF1FBAF13F0F20D8554B02EB0A221B6892B21968C1F30F2311F0FF0F1CBF01339BB26B
:400A00009A42C0F08C80029B73B919464FF4907208A800F077FE4FF4907308AAFF21032000F0A0F9012302932B46019950469BAA00F098F9002398420CBF9A464FF00A0ABD
:400A400001931D464FF0010B00F04CFA01980421DDE5039100F0E8F903997F294FEA01138CD837483749384A18441944DFF8DCC000781A440978DFF8D8E012789C449E4445
:400A800008449CF80010DFF8CCC010449EF80020DFF8C4E09C449E4408449CF80010DFF8BCC010449EF80020DFF8B4E09C449E4408449CF80010DFF8ACC010449EF80020E5
:400AC000DFF8A4E09C449E4408449CF80010DFF89CC010449EF80020DFF894E09C449E4408449CF80010DFF88CC010449EF80020DFF884E09C4408449E449CF8001003F1A1
:400B00008043104403F500439EF8002001441B780A44134403F0FF03E9E60846BCE5002301931D46184604214FF0010B4FF00A0A6DE5C3F30723002261E600BFCC80FF1F7E
:400B40000F8000400E8000400D8000400C8000400B8000400A80004009800040088000400780004006800040058000400480004003800040028000400180004038B500F0E0
:400B800039F870BB0020FFF729FC184C0028236818BF06251A6808BF00256AB1002312F8011D0B44DBB2002AF9D162681278D31A03F0FF039A4202D0002000F05DF90C4A41
:400BC000137803F0C003402B00D025B1084B00221A70FFF7F3FC80231370BDE8384000F04DB9002000F048F9CCE700BFCC80FF1FFA46004038B500F0AFF900F05FFA10B14A
:400C00000424204638BD00F095FA072804462BD000F076FA002CF4D100F09EF900F04EFA0028EDD1012000F02DFA072805D04FF0FF3400F065FA204638BD154C02E0237812
:400C40009B07F4D40221134800F09CF90228F6D10F4C2378990705D4012000F03BF923789A07F9D50024E4E7094D2B789B0705D4012000F02FF92B789807F9D5044B1A78CB
:400C80009507D6D51B789B08D3D100F039FAC3E7224700407C81FF1FF0B53F2883B00AD8441F3A2C8CBF00240124B1F5807F17D9012003B0F0BD412894BF0024012481293F
:400CC00028BF01241027002AF2D0002CF0D116460D46044600F0F2F928B1042003B0F0BD4FF48077EFE73B4632462946204600F069F9072804D0019000F002FA0198EDE78A
:400D0000164E33789B0705D4012000F0E3F833789807F9D5114E33789F071BD533789B0818D10F4A294653782046127800F086F90728E0D102E0012000F0CCF8337899077A
:400D4000F9D5064B1A78920704D51B789B0801D11846D0E74FF0FF30CDE700BF224700407C81FF1FF0B5412883B015D8441F3A2C8CBF002401243F280FD8B1F5807F11D827
:400D800082B17CB91E4617460D46044600F096F958B1042003B0F0BD0124812928BF0124102BEDD0012003B0F0BD33463A462946204600F007F9072804D0019000F0A0F932
:400DC0000198F0E7164E33789B0705D4012000F081F833789807F9D5114E33789F071BD533789B0818D10F4A294653782046127800F024F90728E0D102E0012000F06AF8BB
:400E000033789907F9D5064B1A78920704D51B789B0801D11846D0E74FF0FF30CDE700BF224700407C81FF1F38B500F0A1F90F4A0F4913780F4C43F0080313700B78C82543
:400E400043F008030B702570137B43F0100313730B7B02F5587243F010030B7313789B06FCD5BDE8384000F087B900BFA0430040B04300400147004001BE7047024A13788B
:400E800043F0010313707047F6460040B0F5004F70B506461AD904460D4DA4F50044686800F05EF9B4F5004FF7D8A6F50043013B23F4FF4323F07F03A6F50046F61AA86885
:400EC00000FB06F0BDE8704000F04AB9004DF6E7D480FF1F024B1B7800FB03F000F040B9D480FF1F08B500F043F900BF00BF00BF00BF00BF00BF00BF00BF00BF00BF00BFD6
:400F000000BF00BF00BF00BF00BF064A13889BB243F0040313801388BFF36F8FBDE8084000F02AB900480040054B00F01F001A6800F1100352F8230042F82310704700BF29
:400F400008ED00E000F01F0000F16040490100F56440C9B20170704708B500F009F90749074A0B7843F008030B70137843F008031370BDE8084000F0FFB800BFA043004028
:400F8000B04300402DE9F0410F4699B14E1EF6B20644451E094CDFF8288002E00120FFF799FF2378DB07F9D598F8003005F8013FB542F6D13846BDE8F08100BF22470040F0
:400FC00020470040F0B41B4C2578AD071DD51A4DB6262E70D52702262F702E702478A40710D428705BB15E1EB6B21644013A12F8014FB2422C70FAD1B3F5807F08D0F0BC92
:40100000072070470920F0BC70470420F0BC70473F28F4D800F5103001EB0021490106480A46203112F8013BDBB291420370F9D1E5E700BF2247004020470040F0B40F4D53
:401040002C78A60716D50E4CB6262670D8270526277026702D78AD0709D40D0AC9B2207025702170227023700720F0BC70470920F0BC70470420F0BC704700BF2247004069
:40108000204700400B4A1378990711D530B40A4BB625E1240E211D701C7019701278920703D4187030BC07207047092030BC704704207047224700402047004038B500F019
:4010C00057F80D4A137823B1042400F055F8204638BD0125094915700C682C40F5D00C6824F001040C6000BF00BF00BF1C46556000F042F8204638BD6881FF1F0400084064
:4011000010B500F035F8094B002259681A70012908D1074C216841F00101216000BF00BF00BF5A60BDE8104000F026B86881FF1F04000840074B1B789B0708D5064BB620E1
:40114000E0210D221870197007201A7070470420704700BF2247004020470040000000000230800803D000BF01380046FCD17047EFF3108072B6704780F31088704700BFBB
:4011800008B500F071F800F04BF9BDE8084000F0A7B900BF00F0C6B8F8B50E460446174600F03EF94EB1751EADB22544013C14F8010F00F057F9AC42F9D13E800020F8BD6E
:4011C0002DE9F84303EB83035D0006468846174618BF002407D117E001340120A4B2FFF755FEAC4210DA00F0F3F80028F4D000F0EFF804461920FFF749FE00F0E9F88442CA
:40120000F5D34FF0000901E04FF0050900243C8000F0DEF8F8B100F0DBF83A8880B283189BB243453B801BD2C0B1204485B200F0A1F8631C30559CB2AC42F8D1731913F81D
:40124000013C172B02D00520FFF720FE2C4600F0BFF80028DFD14846BDE8F8832546EDE73A804846BDE8F883F8B5224D2C780CBB21492046FFF758FE20460721FFF762FE17
:401280001E4B1F492022692008701A701D4901206C70FFF749FE07210120FFF753FE1A4E1A481B4A06274724022101233770047011702B70FFF75CFF0546164C1649237823
:4012C000164A43F0200323700B78012043F010030B701060A378124843F010030221A3700160116000F09CF92846BDE8F840FFF743BF00BF7081FF1F211500008964004014
:4013000089650040B915000028640040386400408B650040996500409964004000E100E080E200E038B5FFF723FF05460D4A0E4C137803F0DF03137000F082F923780B4A1C
:40134000012003F0EF030A49237010600B78022403F0EF030B7028461460BDE83840FFF70BBF00BF996500409964004080E100E09B65004010B4114B114A0121196091786F
:40138000D3781079C9B210B9DBB2994212D04B1CDBB2402B0B4828BF0023405C93701379074CC0B20BB100232371074B01221A6010BC7047054B1878C0B2F6E780E100E0CA
:4013C0007081FF1F8081FF1F00E100E04A650040104A0121104B11609978DA7891420FD09978DA789142DA78987824BF02F14003181A0A4B38BF101A0122C0B21A60704793
:401400001B790122002B054B14BF402000201A60704700BF80E100E07081FF1F00E100E010B5FFF7A5FE0B4B0B4C1A7842F001021A701A7802F0FE021A70FFF79DFE074BD9
:4014400000220121064821609A70DA701A715A71016010BD9A65004080E100E07081FF1F00E100E070B4194DEC79AB792646DBB2591EE21A091BA2F13F02B1FA81F1B2FAF1
:4014800082F249095209A34288BF0A46002AECD1A34212D03F2C0E4A88BF00260D4B90551B789ABF0134E4B201249B07EC7102D5094B02221A6070BC7047064B1B785A07A8
:4014C000E8D4064B187070BC704700BF7081FF1FC081FF1F6B65004000E200E04865004010B5FFF745FE0A4B0A4C1A7842F001021A701A7802F0FE021A70FFF73DFE064AFF
:401500000223002105482360D1719171036010BD9865004080E100E07081FF1F00E100E02DE9F0431C481D491D4F1E4A1E4E1F4CDFF880C01E4D4FF0010E0378DBB213F03A
:401540001E0905D091F8008049EA080881F800809B0601D4BDE8F08397F8008013785FFA88F8DBB206F8038023784FF000080BB18CF800E013780133DBB2137013783F2B55
:4015800088BF82F8008092F800802B789845D4D184F800E0D1E700BF696400407181FF1F4A6500407381FF1F8081FF1F7481FF1F7281FF1F7581FF1F144A154813780178B4
:4015C000994221D0F0B513490B7803F0040303F0FF06C3B91746104D104C02E00B785B0711D413783F2B88BF3E701378DBB2EB5CDBB22370137890F800E00133DBB21370CB
:4016000013789E45EAD1F0BD704700BF7681FF1F7781FF1F6B650040C081FF1F486500400549064A0B7843F001030B70137843F001031370704700BFA2430040B2430040EF
:401640000549064A0B7803F0FE030B70137803F0FE031370704700BFA2430040B2430040014B1868704700BF4481FF1F0E4B70B51E460E4C0025E41AA410A54204D056F8C7
:40168000253098470135F8E700F08CFA084B094C1E46E41AA4100025A54204D056F8253098470135F8E770BDB01B0000B01B0000B01B0000B81B000010B5431E0A4491428E
:4016C00004D011F8014B03F8014FF8E710BD884210B501EB020301D8421E0BE09842FBD28118D21AD34204D013F8014D01F8014DF8E710BD994204D011F8014B02F8014F77
:40170000F8E710BD03460244934202D003F8011BFAE77047001D0000ED00000000000000005100401000205100401000405100403000F051004010000000014000100014B5
:4017400001400006801A0140800100400140000A004C014000020050014020001090000040000000CF083042C3003C0800100000082000000020F3000C30F3003D0FC0F055
:4017800008000084023F20C004F800010C3900C6430010C740318C003F0000FF00002800000000402105040003EC000003FFFFFF62A0F0410C00000000000000040404044F
:4017C0000000000100000000000040020010301000101012000000000000000000000000000000000152004001640040026500400107014054080140370901400414014085
:4018000003150140011701404D180140411901400D1A0140411B0140034001400241014002420140044301400147014002480140084C01400E4D014004500140015101402E
:401840000914893A89698B0FE60203010461060E071809480A400B860E0811801365142C15E61643171119601B8B1E43206121A02206260C28102D802F023020320F330774
:40188000341035F8364038023A083B083E504003474049FF4A074BFF4C404D204EF04F055008580459045A045F01604061A8624063208320850387048A028B088D038E022A
:4018C0008F0C9001950A9704980199039B04A310A710A801AF05B001B10FB320B510B602BB02BE40BF10D41AD604D804D904DB04DF0100A005800605071008800A450E2010
:401900000F0211101502161819401B021D241E211F0120402105220223042404271029012B212D802E023104331035043602371038523A143C143E083F0245084F025601C3
:4019400059025A206140634485208740C0E3C2AAC472CA9BCCE6CEEFD040D605D80DE008B980BF40D904DF012680A680B280EA0801020B011001140419011E022006280662
:401980002D01320633033401380839083E1440454102460E47BC483449FF4AFF4BFF4EF04F44500C580459045A045F0166C06A406B0284038508860C89088D088E0E900232
:4019C00091089208953D960F9702980299239A049B1C9D1E9F01A127A318A501A716A80CA926AA03AB19AC03AE0CAF1FB320B401B508B60EB71FB820BA80BB80BF04D602C6
:401A0000D712D804D904DB04DF01000403020520060408280A800E300F821209150216C0171019801BA01D081E082254241028282A012B8A2E8031143249371038A83E10F9
:401A40003F02464047104E02560657405A0869106A46705C79017A027B41910A941295109664978098809B109D039E06A210A303A450A508A720AF40B701C005C2BEC4533B
:401A8000CA1FCC2FCEAED0A0D210D602840188018C019601A201AE02B203BA08D401D604D804DB04DF0100440380059408120A120E101048114012101580164018041916A1
:401AC0001E101F0820802142281229042A402B8A30483110324138E239083A1040264102481049815C805D215E0867806A4082408C218D4090A09109928294069780988038
:401B000099A09C209D17A008A204A382A450A708C0EDC22FC49FCA0FCC0FCE0FD00FD208D6F0D880E004E88030103580CC309C109D809C109D8084109C109D80E640862085
:401B4000AD80EA105840620199089A20B508D401D802E80212807220750882018E8099089A209E01B040C408DC01DE04E202E80100010C0110011C01000F00004090900073
:401B80009000000010140400140000000000000101000000000000006910162E003C010143000000F8B500BFF8BC08BC9E4670475100000011030000F8B500BFF8BC08BC51
:401BC0009E4670472D000000D81B0000C880FF1F80000000B8000000000000001417000018170000180000000000E02EC05D000000366E010000000000000000000000004A
:401C00000000000000000000000000000000000000000000A01B000000000000000000000000000000000000000000000000000000000000000000000000000000000000E9
:401C40000000000000000000000000000000000000000000E480FF1F00000000000000000000000000000000000000000000000000000000000000000000000000000000E2
:401C80000000000000000000000000000000000000000000000000000000000000000000000000000000000000000000000000000000000000000000000000000000000024
:401CC00000000000000000000000000000000000000000000000000000000000000000000000000000000000000000000000000000000000000000000000000000000000E4
:401D000000800020111D00003D6901003D69010080B500AF14F046FE10B5054C237833B9044B13B10448AFF300800123237010BDB881FF1F0000000038140200084B10B5FC
:401D40001BB108490848AFF300800848036803B910BD074B002BFBD0BDE81040184700BF00000000BC81FF1F38140200C880FF1F0000000080B588B000AFE34B1B78FB77D7
:401D8000E14BB3F98030DBB2013BDBB21946DE480AF046FE03461946DB4BB3F98030013BD94AD35C994204D0D74B002283F8842044E2FB7FA62B00F2408201A252F823F093
:401DC000E1200000C32000003B220000E7200000ED20000011210000AB2000003B2200003B220000452100002B2100003B220000C9200000672100003B2200003B2200009D
:401E00003B2200003B2200003B2200003B2200003B2200003B2200003B2200003B2200003B2200003B2200003B2200003B2200003B2200003B2200003B2200003B220000D2
:401E40003B2200003B2200003B2200003B2200003B2200003B2200003B2200003B2200003B2200003B2200003B2200003B2200003B2200003B2200003B2200003B22000092
:401E80003B2200003B2200003B2200003B2200003B2200003B2200003B2200003B2200003B2200003B2200003B2200003B2200003B2200003B2200003B2200003B22000052
:401EC0003B2200003B2200003B2200003B2200003B2200003B2200003B2200003B2200003B2200003B2200003B2200003B2200003B2200003B2200003B2200003B22000012
:401F00003B2200003B2200003B2200003B2200003B2200003B2200003B2200003B2200003B2200003B2200003B2200003B2200003B2200003B2200003B2200003B220000D1
:401F40003B2200003B2200003B2200003B2200003B2200003B2200003B2200003B2200003B2200003B2200003B2200003B2200003B2200003B2200003B2200003B22000091
:401F80003B2200003B2200003B2200003B2200003B2200003B2200003B2200003B2200003B2200003B2200003B2200003B2200003B2200003B2200003B2200003B22000051
:401FC0005D2000009920000063200000A520000069200000752000006F2000003B22000093200000812000003B220000872000007B2000003B2200003B2200003B2200004F
:402000009F2000003B2200008D2000003B2200003B2200003B2200003B2200003B2200003B2200003B2200003B2200003B2200003B2200003B2200003B2200003B2200001E
:402040003B220000052200000B22000023220000292200002F220000352200000BF0A8FBECE00BF083FAE9E00BF040F9E6E00BF02BFCE3E00BF0C4FCE0E00BF037FDDDE086
:402080000BF08EF9DAE00BF0E7F9D7E00BF040FAD4E00BF09BFED1E00BF0E8FBCEE00BF057FDCBE00BF07EFDC8E0184B1B883B613B695BBAFB60FB689BB2184600F0CAF80A
:4020C000BCE006F08BFFB9E0104B1B88BB61BB695BBABB60BB689BB2184603F0E5F9ADE00BF050FDAAE00BF093FDA7E032200AF0CFFC0346002B03D001200AF0B1FC9DE00A
:4021000000200AF0ADFC99E00C95FF1F0D95FF1F0AF04AFD0346002B03D001200AF0A0FC8CE000200AF09CFC88E00AF06BFD0346002B03D001200AF093FC7FE000200AF053
:402140008FFC7BE001200AF08BFC4FF47A7017F077FA002014F0F2FD4FF47A7017F070FA15F0FCFC6AE0374B5B781B021AB2354B9B781BB213431AB2334B5A80314BDB7853
:402180001B021AB22F4B1B791BB213431AB22E4B9A802D4BB3F90230B3F1FF3F0FD12A4BB3F90430B3F1FF3F09D1274B00221A70254B00225A80244B00229A803EE0224BBD
:4021C000B3F90230002B03DA1F4B00225A8007E01D4BB3F90230C82B02DD1B4BC8225A80194BB3F90430002B02DA174B00229A80164B00221A60144B01221A7001200AF05D
:402200002FFC1BE00BF012FE18E0114B1B887B617B695BBA7B607B689BB2184605F0E4FF0CE00CF0CFF809E00CF012F906E00CF085F903E00CF0B0F900E000BF2037BD46E0
:4022400080BD00BF0C95FF1F9495FF1F249AFF1F0D95FF1F80B5ADF5BB4D92B000AF024607F14803423B1A8007F59C4303F1280300221A60043340F69C72002118461CF0B2
:40228000DEFB07F14803403B00221A60043344F61C62002118461CF0D2FB07F14803423B1B88032B50D801A252F823F0BD220000DF220000012300002723000007F59C43C2
:4022C00003F12803184606F0CBFE15F089F907F59C4303F12803184615F060F935E007F59C4303F12803184608F0F6FC15F078F907F59C4303F12803184615F04FF924E0EF
:4023000007F59C4303F128034FF47A61184613F05DF815F065F907F59C4303F12803184615F03CF911E007F14803403B44F62061184613F071F815F053F907F14803403B97
:40234000184615F02BF900E000BF00BF07F5BB474837BD4680BD00BFF0B5ADF5B85D85B000AF07F11004043C206007F110000838016007F110010C390A6007F11002103A3B
:40238000136007F170031C3B00221A60043341F2A462002118461CF052FB41F2A86307F5B85202F108021380002307F5B85202F10D021370002307F5B85202F10C021370D5
:4023C000002307F5B85202F10B02137007F13003103B00221A6004332E22002118461CF02EFB002307F5B85202F107021370012307F5B85202F10602137007F11003043B4A
:402400001B681B6807F5B852136007F5B8531B6807F5B75202F11C02136007F170031C3B0C221A7007F170031C3B4F225A70002307F5B85202F10D02137002F078BF07F5C0
:40244000B85303F10D031B789A0007F11003043B1B6813441B6807F5B852136007F5B85303F10D031B78322202FB03F39A1C07F5B85303F10D03197807F11003083B1B68F8
:402480000B44197807F170031C3B995407F5B85303F10D031B78322202FB03F3DA1C07F5B85303F10D03197807F110030C3B1B680B44197807F170031C3B995407F5B853AB
:4024C00003F10D031A7807F11003083B1B6813441B78092B2BD801A252F823F005250000052500000525000013250000132500002125000021250000212500002F25000040
:4025000005250000012307F5B85202F10B0213700DE0022307F5B85202F10B02137006E0042307F5B85202F10B02137000BF07F5B85303F10D031B7807F5B95202F110022A
:40254000126813441B78002B40F0CC8307F5B85303F10D031A7807F11003083B1B6813441B78092B02F2258101A252F823F000BF9925000051260000992500000927000045
:4025800037280000632900008F2A0000B72B0000B347000099250000002307F5B85202F10F02137040E007F5B85303F10F031B7807F5B85202F10B02127802FB03F31A468A
:4025C00007F5B8531B68134407F5B75202F11C02136007F5B85303F10D031B78322202FB03F31A1D07F5B85303F10F031B7807F5B85101F10B01097801FB03F31A4407F5E5
:40260000B75303F11C031B68197807F170031C3B995407F5B85303F10F031B78013307F5B85202F10F02137007F5B85303F10D031A7807F110030C3B1B6813441B7807F501
:40264000B85202F10F0212789A42ACD302F0B1B8002307F5B85202F10F02137040E007F5B85303F10F031B7807F5B85202F10B02127802FB03F31A4607F5B8531B681344D8
:4026800007F5B75202F11C02136007F5B85303F10D031B78322202FB03F31A1D07F5B85303F10F031B7807F5B85101F10B01097801FB03F31A4407F5B75303F11C031B6865
:4026C000197807F170031C3B995407F5B85303F10F031B78013307F5B85202F10F02137007F5B85303F10D031A7807F110030C3B1B6813441B7807F5B85202F10F02127849
:402700009A42ACD302F055B8002307F5B85202F10F0213707AE007F5B85303F10F031B7807F5B85202F10B02127802FB03F31A4607F5B8531B68134407F5B75202F11C02BB
:40274000136007F5B75303F11C031B68B3F9002007F13003163B1A80002307F5B85202F10E0213703BE007F5B85303F10D031B78322202FB03F31A1D07F5B85303F10F0375
:402780001B7807F5B85101F10B01097801FB03F31A4407F5B85303F10B031B781A4407F5B85303F10E031B78D31A5A1E07F5B85303F10E03197807F13003163B0B441978BB
:4027C00007F170031C3B995407F5B85303F10E031B78013307F5B85202F10E02137007F5B85303F10E031A7807F5B85303F10B031B789A42B7D307F5B85303F10F031B788B
:40280000013307F5B85202F10F02137007F5B85303F10D031A7807F110030C3B1B6813441B7807F5B85202F10F0212789A42FFF472AF01F0BEBF002307F5B85202F10F025C
:40284000137079E007F5B85303F10F031B7807F5B85202F10B02127802FB03F31A4607F5B8531B68134407F5B75202F11C02136007F5B75303F11C031B681A8807F1300326
:40288000183B1A80002307F5B85202F10E0213703BE007F5B85303F10D031B78322202FB03F31A1D07F5B85303F10F031B7807F5B85101F10B01097801FB03F31A4407F5D5
:4028C000B85303F10B031B781A4407F5B85303F10E031B78D31A5A1E07F5B85303F10E03197807F13003183B0B44197807F170031C3B995407F5B85303F10E031B78013359
:4029000007F5B85202F10E02137007F5B85303F10E031A7807F5B85303F10B031B789A42B7D307F5B85303F10F031B78013307F5B85202F10F02137007F5B85303F10D03FF
:402940001A7807F110030C3B1B6813441B7807F5B85202F10F0212789A42FFF473AF01F028BF002307F5B85202F10F02137079E007F5B85303F10F031B7807F5B85202F107
:402980000B02127802FB03F31A4607F5B8531B68134407F5B75202F11C02136007F5B75303F11C031B681A6807F130031C3B1A60002307F5B85202F10E0213703BE007F5E3
:4029C000B85303F10D031B78322202FB03F31A1D07F5B85303F10F031B7807F5B85101F10B01097801FB03F31A4407F5B85303F10B031B781A4407F5B85303F10E031B78AA
:402A0000D31A5A1E07F5B85303F10E03197807F130031C3B0B44197807F170031C3B995407F5B85303F10E031B78013307F5B85202F10E02137007F5B85303F10E031A7886
:402A400007F5B85303F10B031B789A42B7D307F5B85303F10F031B78013307F5B85202F10F02137007F5B85303F10D031A7807F110030C3B1B6813441B7807F5B85202F19E
:402A80000F0212789A42FFF473AF01F092BE002307F5B85202F10F02137077E007F5B85303F10F031B7807F5B85202F10B02127802FB03F31A4607F5B8531B68134407F5E2
:402AC000B75202F11C02136007F5B75303F11C031B681A6807F110031A60002307F5B85202F10E0213703AE007F5B85303F10D031B78322202FB03F31A1D07F5B85303F1C6
:402B00000F031B7807F5B85101F10B01097801FB03F31A4407F5B85303F10B031B781A4407F5B85303F10E031B78D31A5A1E07F5B85303F10E031B7807F110010B44197896
:402B400007F170031C3B995407F5B85303F10E031B78013307F5B85202F10E02137007F5B85303F10E031A7807F5B85303F10B031B789A42B8D307F5B85303F10F031B7806
:402B8000013307F5B85202F10F02137007F5B85303F10D031A7807F110030C3B1B6813441B7807F5B85202F10F0212789A42FFF475AF01F0FEBD002307F5B85202F10F0298
:402BC000137079E007F5B85303F10F031B7807F5B85202F10B02127802FB03F31A4607F5B8531B68134407F5B75202F11C02136007F5B75303F11C031B681A6807F13003C3
:402C0000143B1A60002307F5B85202F10E0213703BE007F5B85303F10D031B78322202FB03F31A1D07F5B85303F10F031B7807F5B85101F10B01097801FB03F31A4407F575
:402C4000B85303F10B031B781A4407F5B85303F10E031B78D31A5A1E07F5B85303F10E03197807F13003143B0B44197807F170031C3B995407F5B85303F10E031B780133D9
:402C800007F5B85202F10E02137007F5B85303F10E031A7807F5B85303F10B031B789A42B7D307F5B85303F10F031B78013307F5B85202F10F02137007F5B85303F10D037C
:402CC0001A7807F110030C3B1B6813441B7807F5B85202F10F0212789A42FFF473AF00BF01F067BD07F5B85303F10D031B780133023B332B01F25C8501A252F823F000BF2A
:402D0000D12D00009D320000B1470000B1470000B1470000B14700006D370000B1470000B147000093380000B1470000B1470000B1470000B1470000B1470000B1470000B7
:402D4000B1470000B1470000B1470000B1470000B1470000573A0000B1470000B1470000B1470000B1470000B1470000B1470000B1470000B1470000B1470000B14700003A
:402D8000B1470000B1470000B1470000B1470000B1470000B1470000B1470000B1470000B1470000B14700002B3B0000F33F0000B1470000B1470000B1470000B1470000EB
:402DC000C1440000B1470000B1470000E545000007F5B85303F107031A78AC491346DB009B1A1B010B4403F20F131B78032B00F0298107F5B85303F107031A78A349134686
:402E0000DB009B1A1B010B44B0331B6818461BF09FFB03464FF08F4118461BF0A1FC03461A4607F13003143B1A60002307F5B85202F10F0213702EE007F5B85303F10D036A
:402E40001B78322202FB03F31A1D07F5B85303F10B031B781A4407F5B85303F10F031B78D31A5A1E07F5B85303F10F03197807F13003143B0B44197807F170031C3B99549B
:402E800007F5B85303F10F031B78013307F5B85202F10F02137007F5B85303F10F031A7807F5B85303F10B031B789A42C4D307F5B85303F107031A7874491346DB009B1AC6
:402EC0001B010B44B4331B6818461BF041FB03464FF08F4118461BF043FC03461A4607F13003143B1A60002307F5B85202F10F02137034E007F5B85303F10D031B78322205
:402F000002FB03F31A1D07F5B85303F10B031B781A4407F5B85303F10B031B781A4407F5B85303F10F031B78D31A5A1E07F5B85303F10F03197807F13003143B0B44197876
:402F400007F170031C3B995407F5B85303F10F031B78013307F5B85202F10F02137007F5B85303F10F031A7807F5B85303F10B031B789A42BED307F5B85303F107031A7802
:402F800042491346DB009B1A1B010B44B8331B6818461BF0DDFA03464FF08F4118461BF0DFFB03461A4607F13003143B1A60002307F5B85202F10F02137035E007F5B85380
:402FC00003F10D031B78322202FB03F31A1D07F5B85303F10B031B785B001A4407F5B85303F10B031B781A4407F5B85303F10F031B78D31A5A1E07F5B85303F10F031978CA
:4030000007F13003143B0B44197807F170031C3B995407F5B85303F10F031B78013307F5B85202F10F02137007F5B85303F10F031A7807F5B85303F10B031B789A42BDD37F
:4030400001F0B7BB07F5B85303F107031A780F491346DB009B1A1B010B44C8331B6818461BF076FA03464FF08F4118461BF078FB03461A4607F13003143B1A60002307F563
:40308000B85202F10F02137031E000BFF096FF1F07F5B85303F10D031B78322202FB03F31A1D07F5B85303F10B031B781A4407F5B85303F10F031B78D31A5A1E07F5B853E9
:4030C00003F10F03197807F13003143B0B44197807F170031C3B995407F5B85303F10F031B78013307F5B85202F10F02137007F5B85303F10F031A7807F5B85303F10B0327
:403100001B789A42C4D307F5B85303F107031A78AB491346DB009B1A1B010B44CC331B6818461BF015FA03464FF08F4118461BF017FB03461A4607F13003143B1A6000231D
:4031400007F5B85202F10F02137034E007F5B85303F10D031B78322202FB03F31A1D07F5B85303F10B031B781A4407F5B85303F10B031B781A4407F5B85303F10F031B78FE
:40318000D31A5A1E07F5B85303F10F03197807F13003143B0B44197807F170031C3B995407F5B85303F10F031B78013307F5B85202F10F02137007F5B85303F10F031A7803
:4031C00007F5B85303F10B031B789A42BED307F5B85303F107031A7879491346DB009B1A1B010B44D0331B6818461BF0B1F903464FF08F4118461BF0B3FA03461A4607F171
:403200003003143B1A60002307F5B85202F10F02137035E007F5B85303F10D031B78322202FB03F31A1D07F5B85303F10B031B785B001A4407F5B85303F10B031B781A4462
:4032400007F5B85303F10F031B78D31A5A1E07F5B85303F10F03197807F13003143B0B44197807F170031C3B995407F5B85303F10F031B78013307F5B85202F10F02137041
:4032800007F5B85303F10F031A7807F5B85303F10B031B789A42BDD301F08BBA07F5B85303F107031A7846491346DB009B1A1B010B4403F20F131B78032B00F02B8107F547
:4032C000B85303F107031A783D491346DB009B1A1B010B44BC331B6818461BF039F903464FF08F4118461BF03BFA03461A4607F13003143B1A60002307F5B85202F10F028C
:4033000013702EE007F5B85303F10D031B78322202FB03F31A1D07F5B85303F10B031B781A4407F5B85303F10F031B78D31A5A1E07F5B85303F10F03197807F13003143BC9
:403340000B44197807F170031C3B995407F5B85303F10F031B78013307F5B85202F10F02137007F5B85303F10F031A7807F5B85303F10B031B789A42C4D307F5B85303F1B4
:4033800007031A780E491346DB009B1A1B010B44C0331B6818461BF0DBF803464FF08F4118461BF0DDF903461A4607F13003143B1A60002307F5B85202F10F02137036E01A
:4033C000F096FF1F07F5B85303F10D031B78322202FB03F31A1D07F5B85303F10B031B781A4407F5B85303F10B031B781A4407F5B85303F10F031B78D31A5A1E07F5B8530D
:4034000003F10F03197807F13003143B0B44197807F170031C3B995407F5B85303F10F031B78013307F5B85202F10F02137007F5B85303F10F031A7807F5B85303F10B03E3
:403440001B789A42BED307F5B85303F107031A78C5491346DB009B1A1B010B44C4331B6818461BF075F803464FF08F4118461BF077F903461A4607F13003143B1A60002312
:4034800007F5B85202F10F02137035E007F5B85303F10D031B78322202FB03F31A1D07F5B85303F10B031B785B001A4407F5B85303F10B031B781A4407F5B85303F10F03F2
:4034C0001B78D31A5A1E07F5B85303F10F03197807F13003143B0B44197807F170031C3B995407F5B85303F10F031B78013307F5B85202F10F02137007F5B85303F10F03BF
:403500001A7807F5B85303F10B031B789A42BDD301F04FB907F5B85303F107031A7892491346DB009B1A1B010B44D4331B6818461BF00EF803464FF08F4118461BF010F96F
:4035400003461A4607F13003143B1A60002307F5B85202F10F0213702EE007F5B85303F10D031B78322202FB03F31A1D07F5B85303F10B031B781A4407F5B85303F10F03CD
:403580001B78D31A5A1E07F5B85303F10F03197807F13003143B0B44197807F170031C3B995407F5B85303F10F031B78013307F5B85202F10F02137007F5B85303F10F03FE
:4035C0001A7807F5B85303F10B031B789A42C4D307F5B85303F107031A7863491346DB009B1A1B010B44D8331B6818461AF0B0FF03464FF08F4118461BF0B2F803461A46DA
:4036000007F13003143B1A60002307F5B85202F10F02137034E007F5B85303F10D031B78322202FB03F31A1D07F5B85303F10B031B781A4407F5B85303F10B031B781A44C2
:4036400007F5B85303F10F031B78D31A5A1E07F5B85303F10F03197807F13003143B0B44197807F170031C3B995407F5B85303F10F031B78013307F5B85202F10F0213703D
:4036800007F5B85303F10F031A7807F5B85303F10B031B789A42BED307F5B85303F107031A7831491346DB009B1A1B010B44DC331B6818461AF04CFF03464FF08F41184602
:4036C0001BF04EF803461A4607F13003143B1A60002307F5B85202F10F02137035E007F5B85303F10D031B78322202FB03F31A1D07F5B85303F10B031B785B001A4407F5AA
:40370000B85303F10B031B781A4407F5B85303F10F031B78D31A5A1E07F5B85303F10F03197807F13003143B0B44197807F170031C3B995407F5B85303F10F031B7801330B
:4037400007F5B85202F10F02137007F5B85303F10F031A7807F5B85303F10B031B789A42BDD301F026B800BFF096FF1F07F5B85303F107031A78CC491346DB009B1A1B0132
:403780000B4403F588731B78184607F5B85303F10F031A78C54903465B0003449B001344663351F8231007F5B85303F107031A78BD481346DB009B1A1B01034403F588735C
:4037C0001B781C4607F5B85303F10F031A78B74823465B0023441B010344134403F295131B7841FA03F31AB207F13003163B1A80002307F5B85202F10E0213703BE007F548
:40380000B85303F10D031B78322202FB03F31A1D07F5B85303F10F031B7807F5B85101F10B01097801FB03F31A4407F5B85303F10B031B781A4407F5B85303F10E031B785B
:40384000D31A5A1E07F5B85303F10E03197807F13003163B0B44197807F170031C3B995407F5B85303F10E031B78013307F5B85202F10E02137007F5B85303F10E031A783E
:4038800007F5B85303F10B031B789A42B7D300F090BF07F5B85303F107031A7883491346DB009B1A1B010B44E433196807F5B85303F107031A787C481346DB009B1A1B0118
:4038C000034403F588731B781846784A03465B0003441B01134403F295131B7841FA03F207F130031C3B1A60002307F5B85202F10E0213702EE007F5B85303F10D031B78C6
:40390000322202FB03F31A1D07F5B85303F10B031B781A4407F5B85303F10E031B78D31A5A1E07F5B85303F10E03197807F130031C3B0B44197807F170031C3B995407F561
:40394000B85303F10E031B78013307F5B85202F10E02137007F5B85303F10E031A7807F5B85303F10B031B789A42C4D307F5B85303F107031A784D491346DB009B1A1B0105
:403980000B44E833196807F5B85303F107031A7845481346DB009B1A1B01034403F588731B781846414A03465B0003441B01134403F295131B7841FA03F207F130031C3BFD
:4039C0001A60002307F5B85202F10E02137034E007F5B85303F10D031B78322202FB03F31A1D07F5B85303F10B031B781A4407F5B85303F10B031B781A4407F5B85303F17F
:403A00000E031B78D31A5A1E07F5B85303F10E03197807F130031C3B0B44197807F170031C3B995407F5B85303F10E031B78013307F5B85202F10E02137007F5B85303F175
:403A40000E031A7807F5B85303F10B031B789A42BED300F0AEBE154BD3F8A01207F5B85303F107031A7810481346DB009B1A1B01034403F588731B7818460C4A03465B0048
:403A800003441B01134403F295131B7841FA03F207F130031C3B1A60002307F5B85202F10E02137033E000BFC09BFF1FF096FF1F07F5B85303F10D031B78322202FB03F36D
:403AC0001A1D07F5B85303F10B031B781A4407F5B85303F10E031B78D31A5A1E07F5B85303F10E03197807F130031C3B0B44197807F170031C3B995407F5B85303F10E03D7
:403B00001B78013307F5B85202F10E02137007F5B85303F10E031A7807F5B85303F10B031B789A42C4D300F044BE07F5B85303F106031A78AB491346DB009B1A1B010B44B5
:403B400003F20F131B78032B00F0298107F5B85303F106031A78A3491346DB009B1A1B010B44B0331B6818461AF0F2FC03464FF08F4118461AF0F4FD03461A4607F13003BC
:403B8000143B1A60002307F5B85202F10F0213702EE007F5B85303F10D031B78322202FB03F31A1D07F5B85303F10B031B781A4407F5B85303F10F031B78D31A5A1E07F567
:403BC000B85303F10F03197807F13003143B0B44197807F170031C3B995407F5B85303F10F031B78013307F5B85202F10F02137007F5B85303F10F031A7807F5B85303F11F
:403C00000B031B789A42C4D307F5B85303F106031A7874491346DB009B1A1B010B44B4331B6818461AF094FC03464FF08F4118461AF096FD03461A4607F13003143B1A6077
:403C4000002307F5B85202F10F02137034E007F5B85303F10D031B78322202FB03F31A1D07F5B85303F10B031B781A4407F5B85303F10B031B781A4407F5B85303F10F0363
:403C80001B78D31A5A1E07F5B85303F10F03197807F13003143B0B44197807F170031C3B995407F5B85303F10F031B78013307F5B85202F10F02137007F5B85303F10F03F7
:403CC0001A7807F5B85303F10B031B789A42BED307F5B85303F106031A7842491346DB009B1A1B010B44B8331B6818461AF030FC03464FF08F4118461AF032FD03461A461A
:403D000007F13003143B1A60002307F5B85202F10F02137035E007F5B85303F10D031B78322202FB03F31A1D07F5B85303F10B031B785B001A4407F5B85303F10B031B78BD
:403D40001A4407F5B85303F10F031B78D31A5A1E07F5B85303F10F03197807F13003143B0B44197807F170031C3B995407F5B85303F10F031B78013307F5B85202F10F025B
:403D8000137007F5B85303F10F031A7807F5B85303F10B031B789A42BDD300F00ABD07F5B85303F106031A780E491346DB009B1A1B010B44C8331B6818461AF0C9FB0346EE
:403DC0004FF08F4118461AF0CBFC03461A4607F13003143B1A60002307F5B85202F10F02137030E0F096FF1F07F5B85303F10D031B78322202FB03F31A1D07F5B85303F16D
:403E00000B031B781A4407F5B85303F10F031B78D31A5A1E07F5B85303F10F03197807F13003143B0B44197807F170031C3B995407F5B85303F10F031B78013307F5B852FD
:403E400002F10F02137007F5B85303F10F031A7807F5B85303F10B031B789A42C4D307F5B85303F106031A78AB491346DB009B1A1B010B44CC331B6818461AF069FB034698
:403E80004FF08F4118461AF06BFC03461A4607F13003143B1A60002307F5B85202F10F02137034E007F5B85303F10D031B78322202FB03F31A1D07F5B85303F10B031B780B
:403EC0001A4407F5B85303F10B031B781A4407F5B85303F10F031B78D31A5A1E07F5B85303F10F03197807F13003143B0B44197807F170031C3B995407F5B85303F10F03B1
:403F00001B78013307F5B85202F10F02137007F5B85303F10F031A7807F5B85303F10B031B789A42BED307F5B85303F106031A7879491346DB009B1A1B010B44D0331B6853
:403F400018461AF005FB03464FF08F4118461AF007FC03461A4607F13003143B1A60002307F5B85202F10F02137035E007F5B85303F10D031B78322202FB03F31A1D07F59C
:403F8000B85303F10B031B785B001A4407F5B85303F10B031B781A4407F5B85303F10F031B78D31A5A1E07F5B85303F10F03197807F13003143B0B44197807F170031C3BEF
:403FC000995407F5B85303F10F031B78013307F5B85202F10F02137007F5B85303F10F031A7807F5B85303F10B031B789A42BDD3DFE307F5B85303F106031A78464913468C
:40400000DB009B1A1B010B4403F20F131B78032B00F02B8107F5B85303F106031A783E491346DB009B1A1B010B44BC331B6818461AF08EFA03464FF08F4118461AF090FBF3
:4040400003461A4607F13003143B1A60002307F5B85202F10F0213702EE007F5B85303F10D031B78322202FB03F31A1D07F5B85303F10B031B781A4407F5B85303F10F03C2
:404080001B78D31A5A1E07F5B85303F10F03197807F13003143B0B44197807F170031C3B995407F5B85303F10F031B78013307F5B85202F10F02137007F5B85303F10F03F3
:4040C0001A7807F5B85303F10B031B789A42C4D307F5B85303F106031A780F491346DB009B1A1B010B44C0331B6818461AF030FA03464FF08F4118461AF032FB03461A463F
:4041000007F13003143B1A60002307F5B85202F10F02137037E000BFF096FF1F07F5B85303F10D031B78322202FB03F31A1D07F5B85303F10B031B781A4407F5B85303F150
:404140000B031B781A4407F5B85303F10F031B78D31A5A1E07F5B85303F10F03197807F13003143B0B44197807F170031C3B995407F5B85303F10F031B78013307F5B852BA
:4041800002F10F02137007F5B85303F10F031A7807F5B85303F10B031B789A42BED307F5B85303F106031A78C4491346DB009B1A1B010B44C4331B6818461AF0C9F90346EC
:4041C0004FF08F4118461AF0CBFA03461A4607F13003143B1A60002307F5B85202F10F02137035E007F5B85303F10D031B78322202FB03F31A1D07F5B85303F10B031B7869
:404200005B001A4407F5B85303F10B031B781A4407F5B85303F10F031B78D31A5A1E07F5B85303F10F03197807F13003143B0B44197807F170031C3B995407F5B85303F124
:404240000F031B78013307F5B85202F10F02137007F5B85303F10F031A7807F5B85303F10B031B789A42BDD3A3E207F5B85303F106031A7891491346DB009B1A1B010B44E8
:40428000D4331B6818461AF063F903464FF08F4118461AF065FA03461A4607F13003143B1A60002307F5B85202F10F0213702EE007F5B85303F10D031B78322202FB03F351
:4042C0001A1D07F5B85303F10B031B781A4407F5B85303F10F031B78D31A5A1E07F5B85303F10F03197807F13003143B0B44197807F170031C3B995407F5B85303F10F03D4
:404300001B78013307F5B85202F10F02137007F5B85303F10F031A7807F5B85303F10B031B789A42C4D307F5B85303F106031A7862491346DB009B1A1B010B44D8331B6858
:4043400018461AF005F903464FF08F4118461AF007FA03461A4607F13003143B1A60002307F5B85202F10F02137034E007F5B85303F10D031B78322202FB03F31A1D07F59D
:40438000B85303F10B031B781A4407F5B85303F10B031B781A4407F5B85303F10F031B78D31A5A1E07F5B85303F10F03197807F13003143B0B44197807F170031C3B995459
:4043C00007F5B85303F10F031B78013307F5B85202F10F02137007F5B85303F10F031A7807F5B85303F10B031B789A42BED307F5B85303F106031A7830491346DB009B1ABC
:404400001B010B44DC331B6818461AF0A1F803464FF08F4118461AF0A3F903461A4607F13003143B1A60002307F5B85202F10F02137035E007F5B85303F10D031B783222CE
:4044400002FB03F31A1D07F5B85303F10B031B785B001A4407F5B85303F10B031B781A4407F5B85303F10F031B78D31A5A1E07F5B85303F10F03197807F13003143B0B4457
:40448000197807F170031C3B995407F5B85303F10F031B78013307F5B85202F10F02137007F5B85303F10F031A7807F5B85303F10B031B789A42BDD37BE100BFF096FF1FF5
:4044C00007F5B85303F106031A78B7491346DB009B1A1B010B4403F588731B78184607F5B85303F10F031A78B04903465B0003449B001344663351F8231007F5B85303F169
:4045000006031A78A8481346DB009B1A1B01034403F588731B781C4607F5B85303F10F031A78A24823465B0023441B010344134403F295131B7841FA03F31AB207F13003F6
:40454000163B1A80002307F5B85202F10E0213703BE007F5B85303F10D031B78322202FB03F31A1D07F5B85303F10F031B7807F5B85101F10B01097801FB03F31A4407F5FA
:40458000B85303F10B031B781A4407F5B85303F10E031B78D31A5A1E07F5B85303F10E03197807F13003163B0B44197807F170031C3B995407F5B85303F10E031B7801337E
:4045C00007F5B85202F10E02137007F5B85303F10E031A7807F5B85303F10B031B789A42B7D3E6E007F5B85303F106031A786F491346DB009B1A1B010B44E433196807F593
:40460000B85303F106031A7867481346DB009B1A1B01034403F588731B781846634A03465B0003441B01134403F295131B7841FA03F207F130031C3B1A60002307F5B85271
:4046400002F10E0213702EE007F5B85303F10D031B78322202FB03F31A1D07F5B85303F10B031B781A4407F5B85303F10E031B78D31A5A1E07F5B85303F10E03197807F1F7
:4046800030031C3B0B44197807F170031C3B995407F5B85303F10E031B78013307F5B85202F10E02137007F5B85303F10E031A7807F5B85303F10B031B789A42C4D307F5D9
:4046C000B85303F106031A7838491346DB009B1A1B010B44E833196807F5B85303F106031A7831481346DB009B1A1B01034403F588731B7818462D4A03465B0003441B01F2
:40470000134403F295131B7841FA03F207F130031C3B1A60002307F5B85202F10E02137034E007F5B85303F10D031B78322202FB03F31A1D07F5B85303F10B031B781A44ED
:4047400007F5B85303F10B031B781A4407F5B85303F10E031B78D31A5A1E07F5B85303F10E03197807F130031C3B0B44197807F170031C3B995407F5B85303F10E031B78EE
:40478000013307F5B85202F10E02137007F5B85303F10E031A7807F5B85303F10B031B789A42BED305E000BFC09BFF1FF096FF1F00BF07F5B85303F10D031B789B0007F5DD
:4047C000B95202F10C02126813441A6807F13003103B114618461AF0FBFE07F13003103B18461AF032FF034607F5B85202F10A02137007F5B85303F10D031A7807F11003A4
:40480000083B1B6813441B78002B40F0718407F5B85303F10C031B7807F5B95202F10802126813441B78013B0B2B00F2538401A252F823F0654800000B4A0000DD4A00000F
:404840002D4B00008D4B0000E54B0000FD4C0000814D0000114E0000854E0000934F00005750000007F5B8531B681B78072B00F22A8401A252F823F099480000BD48000011
:40488000E3480000114900003D490000674900009B490000C549000007F13003103B18461AF0D3FE03461A4607F13003103B1344D54A1068186012791A71A5E007F1300351
:4048C000103B18461AF0C1FE03461A4607F13003103B1344CD491A460B4603CB1060516092E007F13003103B18461AF0AEFE03461A4607F13003103B1344C54A1D461446DC
:404900000FCC28606960AA60EB6023882B827BE007F13003103B18461AF097FE03461A4607F13003103B1344BA4A1C46134607CB20606160A2601B88A38165E007F130034F
:40494000103B18461AF081FE03461A4607F13003103B1344B0491A460B4603CB106051601B88138150E007F13003103B18461AF06CFE03461A4607F13003103B1344A74AE0
:404980001D4614460FCC28606960AA60EB602388A2782B821346AB7436E007F13003103B18461AF052FE03461A4607F13003103B13449B491A460B4603CB106051601B88EE
:4049C000138121E007F13003103B18461AF03DFE03461A4607F13003103B1344914A14469E4604F1200C754626460FCE28606960AA60EB6010340EF1100E6445F3D1724629
:404A000023461B88138000BF5DE307F5B8531B681B78032B00F2598301A252F823F000BF314A00005B4A00007F4A0000A94A000007F13003103B18461AF007FE03461A4698
:404A400007F13003103B134477491A460B4603CB106051601B8813813FE007F13003103B18461AF0F2FD03461A4607F13003103B13446E4A1068186012791A712DE007F1AD
:404A80003003103B18461AF0E0FD03461A4607F13003103B134466491A460B4603CB106051601B78137218E007F13003103B18461AF0CBFD03461A4607F13003103B134442
:404AC0005C4A1D4614460FCC28606960AA60EB6020682861A388AB8200BFF6E207F5B8531B681B78002B11D007F13003103B18461AF0ABFD03461A4607F13003103B1344AD
:404B00004D4A1068186012791A71E3E207F13003103B18461AF099FD03461A4607F13003103B1344454A10681860D3E207F5B8531B681B78002B02D0012B14D0CAE207F127
:404B40003003103B18461AF080FD03461A4607F13003103B13443A4A106818609188927999809A7111E007F13003103B18461AF06CFD03461A4607F13003103B1344314A77
:404B80001068186092889A8000BFA3E207F5B8531B681B78002B02D0012B12D09AE207F13003103B18461AF050FD03461A4607F13003103B1344244A1068186012791A71D4
:404BC0000FE007F13003103B18461AF03EFD03461A4607F13003103B13441C4A1068186000BF77E207F5B8531B681B78032B00F26E8201A252F823F0514C0000754C00003E
:404C0000A14C0000CF4C000040140200481402005014020064140200741402008014020094140200A0140200C4140200D0140200D8140200E4140200FC1402000415020083
:404C40000C150200141502001C1502002415020007F13003103B18461AF0F7FC03461A4607F13003103B1344CE4A1068186092889A8042E007F13003103B18461AF0E5FC14
:404C800003461A4607F13003103B1344C64A1C46134607CB20606160A2601B88A3812CE007F13003103B18461AF0CFFC03461A4607F13003103B1344BC4A1D4614460FCC0E
:404CC00028606960AA60EB6023882B8215E007F13003103B18461AF0B8FC03461A4607F13003103B1344B24A1C46134607CB20606160A2601B78237300BFE8E107F5B85335
:404D00001B681B78012B16D0022B26D0002B00D035E007F13003103B18461AF096FC03461A4607F13003103B13449E4A1068186092889A8023E007F13003103B18461AF045
:404D400084FC03461A4607F13003103B1344994A1068186012791A7111E007F13003103B18461AF072FC03461A4607F13003103B1344914A1068186092889A8000BFA9E159
:404D800007F5B8531B681B78012B1AD0022B2CD0002B00D09EE107F13003103B18461AF054FC03461A4607F13003103B1344834A1C46134607CB20606160A2601B88A38115
:404DC00025E007F13003103B18461AF03EFC03461A4607F13003103B1344794A106818609188927999809A7111E007F13003103B18461AF02AFC03461A4607F13003103B11
:404E00001344704A1068186092889A8000BF61E107F5B8531B681B78002B02D0012B17D058E107F13003103B18461AF00EFC03461A4607F13003103B1344634A1D4614460E
:404E40000FCC28606960AA60EB602068286118E007F13003103B18461AF0F7FB03461A4607F13003103B1344584A1D4614460FCC28606960AA60EB6020682861A388AB8219
:404E800000BF27E107F5B8531B681B78042B00F2208101A252F823F0AD4E0000D94E0000074F0000334F00005D4F000007F13003103B18461AF0C9FB03461A4607F1300330
:404EC000103B1344424A1C46134607CB20606160A2601B88A3815BE007F13003103B18461AF0B3FB03461A4607F13003103B1344384A1D4614460FCC28606960AA60EB60F0
:404F000023882B8244E007F13003103B18461AF09CFB03461A4607F13003103B13442E4A1C46134607CB20606160A2601B88A3812EE007F13003103B18461AF086FB034645
:404F40001A4607F13003103B1344244A1C4615460FCD20606160A260E36019E007F13003103B18461AF071FB03461A4607F13003103B13441A4A1D4614460FCC2860696071
:404F8000AA60EB602388A2782B821346AB7400BF9FE007F5B8531B681B78002B22D0012B3CD097E02C1502003415020044150200581502006815020070150200781502009E
:404FC000881502009015020098150200B0150200C8150200D8150200EC150200FC1502001016020007F13003103B18461AF02DFB03461A4607F13003103B1344D34A1C46EE
:4050000015460FCD20606160A260E36028682061AB88AA79A3821346A3751BE007F13003103B18461AF011FB03461A4607F13003103B1344C64A1C4615460FCD2060616071
:40504000A260E36028682061AB88AA79A3821346A37500BF3EE007F5B8531B681B78002B02D0012B17D035E007F13003103B18461AF0EBFA03461A4607F13003103B134496
:40508000B44A1D4614460FCC28606960AA60EB602068286116E007F13003103B18461AF0D4FA03461A4607F13003103B1344AA4A1D4614460FCC28606960AA60EB602068D1
:4050C000286100BF06E000BF04E000BF02E000BF00E000BF07F13003103B18461AF0B5FA0346DBB2013307F5B85202F10A02137007F5B85303F10A031B7807F5B85202F12D
:405100000F02137045E007F5B85303F10D031B78322202FB03F31A1D07F5B85303F10B03197807F5B85303F10D03187807F110030C3B1B6803441B7803FB01F31A4407F56A
:40514000B85303F10A031B781A4407F5B85303F10F031B78D21A07F5B85303F10A03197807F5B85303F10F031B78C91A07F13003103B595C07F170031C3B995407F5B853A9
:4051800003F10F031B78013B07F5B85202F10F02137007F5B85303F10F031B78002BB2D107F5B85303F10D031A7807F11003083B1B6813441B78002B3CD107F5B85303F1B4
:4051C0000D031B78322202FB03F31A1D07F5B85303F10B03197807F5B85303F10D03187807F110030C3B1B6803441B7803FB01F31A4407F5B85303F10A031B781A4407F565
:40520000B85303F10C031B7807F5B95101F1080109680B44197807F170031C3B995407F5B85303F10C031B78013307F5B85202F10C02137007F5B85303F10D031A7807F1DC
:405240001003083B1B6813441B78002B32D107F5B85303F10D031B78322202FB03F31A1D07F5B85303F10B03197807F5B85303F10D03187807F110030C3B1B6803441B783D
:4052800003FB01F31A4407F5B85303F10A031B7813449A1C07F5B85303F10D03197807F11003103B1B680B44197807F170031C3B995431E007F5B85303F10D031B783222EF
:4052C00002FB03F31A1D07F5B85303F10B03197807F5B85303F10D03187807F110030C3B1B6803441B7803FB01F31A4407F5B85303F10A031B7813445A1C07F5B85303F1ED
:405300000D03197807F11003103B1B680B44197807F170031C3B995407F5B85303F10D031B78013307F5B85202F10D02137007F5B85303F10D031B784E2B7DF680A8002332
:4053400007F5B85202F10E02137079E0241602003C160200541602006C16020007F5B85303F10E031B789B0007F5B95202F11402126813441B6818461AF067F9034607F51D
:40538000B85202F10A02137007F5B85303F10A031B7807F5B85202F10F0213703EE007F5B85303F10E031B78962202FB03F303F5776207F5B85303F10A031B781A4407F50B
:4053C000B85303F10F031B78D21A07F5B85303F10E031B789B0007F5B95101F1140109680B441B6807F5B85101F10A01087807F5B85101F10F010978411A0B44197807F156
:4054000070031C3B995407F5B85303F10F031B78013B07F5B85202F10F02137007F5B85303F10F031B78002BB9D107F5B85303F10E031B78013307F5B85202F10E02137098
:4054400007F5B85303F10E031B780B2B86D907F5B85303F108031B885C1E07F5B85303F108031B88DBB2013BDAB207F170031C3B1146184607F0D4FA03461A4607F1700387
:405480001C3B1A5507F5B85303F108031A8807F170031C3B1146184607F02EFA00BF07F5B8571437BD46F0BDB0B5ADF5AB6D04AF0246BB1D1A80002387F83D35012387F8E0
:4054C0003C35054BC7F84035BB1D1B88002B07D0024BC7F8403503E0F096FF1FC09BFF1FD7F8403503F1A00207F578731A6097F83D251346DB009B1A1B01B033D7F8402571
:405500001A4407F578735A6097F83D251346DB009B1A1B01B833D7F8402513441A1D07F578739A6097F83D251346DB009B1A1B01E033D7F840251A4407F57873DA6097F89D
:405540003D251346DB009B1A1B0103F58473D7F8402513449A1D07F578731A6197F83D251346DB009B1A1B0103F58473D7F840251344DA1D07F578735A6197F83D25D7F868
:4055800040151346DB009B1A1B010B4403F588731B781A4613465B0013441B0103F5C873D7F8402513445A1D07F578739A6197F83D25D7F840151346DB009B1A1B010B44B5
:4055C00003F588731B781A4613465B0013441B0103F5CC73D7F840251A4407F57873DA6197F83D25D7F840151346DB009B1A1B010B4403F588731B781A4613465B00134459
:405600001B0103F5D073D7F8402513441A1D07F578731A6297F83D251346DB009B1A1B01E033D7F840251344DA1C07F578735A6297F83D251346DB009B1A1B01E033D7F8E9
:40564000402513441A1D07F578739A6297F83D251346DB009B1A1B01E833D7F8402513441A1D07F57873DA6297F83D251346DB009B1A1B0103F58473D7F8402513441A1DB7
:4056800007F578731A63D7F8403503F5F87207F578735A63D7F8403503F5FF7207F578739A63D7F8403503F5FA7207F57873DA63D7F8403503F5FE7207F578731A6497F83F
:4056C0003D25D7F840151346DB009B1A1B010B4403F588731B781A4613465B0013441B0103F5D873D7F840251A4407F578735A6497F83D25D7F840151346DB009B1A1B012F
:405700000B4403F588731B781A4613465B0013441B0103F5D873D7F8402513441A1D07F578739A6497F83D251346DB009B1A1B01E033D7F8402513445A1C07F57873DA64F4
:4057400097F83D251346DB009B1A1B01F033D7F8402513441A1D07F578731A65D7F8403503F1A10207F578735A65D7F8403503F5287207F578739A65D7F8403503F52972D4
:4057800007F57873DA65D7F8403503F52A7207F578731A66D7F8403503F52B7207F578735A66D7F8403503F2FF1207F578739A66D7F8403503F1A70207F57873DA66D7F8FC
:4057C000403503F5007207F578731A67D7F8403503F2262207F578735A67D7F8403503F1A80207F578739A67D7F8403503F5087207F57873DA67D7F8403503F2012207F539
:405800007873C3F88020D7F8403503F2022207F57873C3F88420D7F8403503F1AB0207F57873C3F88820D7F8403593F8AB3012335B01D7F840251A4407F57873C3F88C2025
:4058400097F83D251346DB009B1A1B0103F58873D7F840251A4407F57873C3F8902097F83D251346DB009B1A1B01E033D7F8402513449A1C07F57873C3F8942097F83D25CA
:405880001346DB009B1A1B0103F58873D7F8402513445A1C07F57873C3F8982097F83D251346DB009B1A1B0103F58873D7F8402513449A1C07F57873C3F89C2097F83D251C
:4058C000D7F840151346DB009B1A1B010B4403F588731B781A4613465B0013441B0103F5D873D7F8402513445A1C07F57873C3F8A02097F83D25D7F840151346DB009B1A7F
:405900001B010B4403F588731B781A4613465B0013441B0103F5D873D7F8402513445A1D07F57873C3F8A420D7F8403503F1A90207F57873C3F8A82097F83C251346DB00D3
:405940009B1A1B01B033D7F840251A4407F57873C3F8AC2097F83C251346DB009B1A1B01B833D7F8402513441A1D07F57873C3F8B02097F83C251346DB009B1A1B01E03357
:40598000D7F840251A4407F57873C3F8B42097F83C251346DB009B1A1B0103F58473D7F8402513449A1D07F57873C3F8B82097F83C251346DB009B1A1B0103F58473D7F88C
:4059C00040251344DA1D07F57873C3F8BC2097F83C25D7F840151346DB009B1A1B010B4403F588731B781A4613465B0013441B0103F5C873D7F8402513445A1D07F57873E5
:405A0000C3F8C02097F83C25D7F840151346DB009B1A1B010B4403F588731B781A4613465B0013441B0103F5CC73D7F840251A4407F57873C3F8C42097F83C25D7F84015F3
:405A40001346DB009B1A1B010B4403F588731B781A4613465B0013441B0103F5D073D7F8402513441A1D07F57873C3F8C82097F83C251346DB009B1A1B01E033D7F8402502
:405A80001344DA1C07F57873C3F8CC2097F83C251346DB009B1A1B01E033D7F8402513441A1D07F57873C3F8D02097F83C251346DB009B1A1B01E833D7F8402513441A1DDD
:405AC00007F57873C3F8D42097F83C251346DB009B1A1B0103F58473D7F8402513441A1D07F57873C3F8D82097F83C25D7F840151346DB009B1A1B010B4403F588731B78E2
:405B00001A4613465B0013441B0103F5D873D7F840251A4407F57873C3F8DC2097F83C25D7F840151346DB009B1A1B010B4403F588731B781A4613465B0013441B0103F5FE
:405B4000D873D7F8402513441A1D07F57873C3F8E02097F83C251346DB009B1A1B01E033D7F8402513445A1C07F57873C3F8E42097F83C251346DB009B1A1B01F033D7F8E0
:405B8000402513441A1D07F57873C3F8E82097F83C251346DB009B1A1B0103F58873D7F840251A4407F57873C3F8EC2097F83C251346DB009B1A1B01E033D7F8402513448D
:405BC0009A1C07F57873C3F8F02097F83C251346DB009B1A1B0103F58873D7F8402513445A1C07F57873C3F8F42097F83C251346DB009B1A1B0103F58873D7F8402513442B
:405C00009A1C07F57873C3F8F82097F83C25D7F840151346DB009B1A1B010B4403F588731B781A4613465B0013441B0103F5D873D7F8402513445A1C07F57873C3F8FC207D
:405C400097F83C25D7F840151346DB009B1A1B010B4403F588731B781A4613465B0013441B0103F5D873D7F8402513445A1D07F57873C3F80021D7F8403503F5C87207F535
:405C80007873C3F80421D7F8403503F5E07207F57873C3F80821D7F8403503F2272207F57873C3F80C21D7F8403503F50A7207F57873C3F81021D7F8403503F22E2207F55F
:405CC0007873C3F81421D7F8403503F52C7207F57873C3F81821D7F8403503F2B22207F57873C3F81C21D7F8403503F52D7207F57873C3F82021D7F8403503F1AC0207F588
:405D00007873C3F82421D7F8403503F5387207F57873C3F82821D7F8403503F2E22207F57873C3F82C21D7F8403503F2E62207F57873C3F83021D7F8403503F5307207F56D
:405D40007873C3F83421D7F8403503F2C12207F57873C3F83821D7F8403503F5347207F57873C3F83C21D7F8403503F5357207F57873C3F84021D7F8403503F5367207F56A
:405D80007873C3F8442107F56373F54A1846114652231A4618F048FE07F54E7301221A7007F54E7303225A7007F54E7303229A7007F54E730122DA7007F54E7301221A7158
:405DC00007F54E7301225A7107F54E7303229A7107F54E730322DA7107F54E7303221A7207F54E7301225A7207F54E7302229A7207F54E730222DA7207F54E7301221A733D
:405E000007F54E7302225A7307F54E7301229A7307F54E730222DA7307F54E7302221A7407F54E7301225A7407F54E7301229A7407F54E730122DA7407F54E7306221A75EC
:405E400007F54E7303225A7507F54E7301229A7507F54E730122DA7507F54E7301221A7607F54E7301225A7607F54E7301229A7607F54E730122DA7607F54E7301221A77A2
:405E800007F54E7301225A7707F54E7301229A7707F54E730622DA7707F54E73012283F8202007F54E73052283F8212007F54E73012283F8222007F54E73062283F823208F
:405EC00007F54E73012283F8242007F54E73012283F8252007F54E73012283F8262007F54E73012283F8272007F54E73032283F8282007F54E73032283F8292007F54E7318
:405F0000012283F82A2007F54E73032283F82B2007F54E73032283F82C2007F54E73012283F82D2007F54E73012283F82E2007F54E73012283F82F2007F54E73032283F8D0
:405F4000302007F54E73032283F8312007F54E73032283F8322007F54E73012283F8332007F54E73022283F8342007F54E73022283F8352007F54E73012283F8362007F5B8
:405F80004E73012283F8372007F54E73012283F8382007F54E73012283F8392007F54E73062283F83A2007F54E73012283F83B2007F54E73012283F83C2007F54E730122BD
:405FC00083F83D2007F54E73012283F83E2007F54E73032283F83F2007F54E73032283F84020604B1A7807F54E7383F841205D4B5A7807F54E7383F8422007F54E730122CD
:4060000083F8432007F54E73062283F8442007F54E73062283F8452007F54E73012283F8462007F54E73012283F8472007F54E73022283F8482007F54E73012283F84920EE
:4060400007F54E73012283F84A2007F54E73022283F84B2007F54E73012283F84C2007F54E73012283F84D2007F54E73012283F84E2007F54E73012283F84F2007F54E73B5
:40608000012283F8502007F54E73012283F8512007F5397300221A7097F83D350A33DAB207F539735A7097F83D350A33DAB207F539739A7097F83D350A33DAB207F5397388
:4060C000DA7097F83D350A33DAB207F539731A7197F83D350A33DAB207F539735A7197F83D25D7F840151346DB009B1A1B010B4403F588731B781433DAB207F539739A71A7
:4061000097F83D25D7F840151346DB009B1A1B010B4403F588731B781433DAB207F53973DA7197F83D25D7F840151346DB009B1A1B010B4403F588731B781433DAB207F5EC
:4061400039731A7297F83D350A33DAB207F539735A7297F83D350A33DAB207F5397303E0FC1902000496FF1F9A7297F83D350A33DAB207F53973DA7297F83D350A33DAB2F1
:4061800007F539731A7307F539731E225A7307F539731E229A7307F539731E22DA7307F539731E221A7497F83D25D7F840151346DB009B1A1B010B4403F588731B7814331F
:4061C000DAB207F539735A7497F83D25D7F840151346DB009B1A1B010B4403F588731B781433DAB207F539739A7497F83D350A33DAB207F53973DA7497F83D350A33DAB29B
:4062000007F539731A7507F5397300225A7507F5397346229A7507F539734622DA7507F5397346221A7607F5397346225A7607F539731E229A7607F539730022DA7607F582
:40624000397328221A7707F5397332225A7707F5397300229A7707F539733222DA7707F53973282283F8202007F53973282283F8212007F53973002283F82220D7F840357C
:4062800093F8AB303C33DAB207F5397383F8232097F83D350A33DAB207F5397383F8242097F83D350A33DAB207F5397383F8252097F83D350A33DAB207F5397383F8262081
:4062C00097F83D350A33DAB207F5397383F8272097F83D25D7F840151346DB009B1A1B010B4403F588731B781433DAB207F5397383F8282097F83D25D7F840151346DB00F4
:406300009B1A1B010B4403F588731B781433DAB207F5397383F8292007F53973002283F82A2097F83C350A33DAB207F5397383F82B2097F83C350A33DAB207F5397383F8C6
:406340002C2097F83C350A33DAB207F5397383F82D2097F83C350A33DAB207F5397383F82E2097F83C350A33DAB207F5397383F82F2097F83C25D7F840151346DB009B1A26
:406380001B010B4403F588731B781433DAB207F5397383F8302097F83C25D7F840151346DB009B1A1B010B4403F588731B781433DAB207F5397383F8312097F83C25D7F8B2
:4063C00040151346DB009B1A1B010B4403F588731B781433DAB207F5397383F8322097F83C350A33DAB207F5397383F8332097F83C350A33DAB207F5397383F8342097F818
:406400003C350A33DAB207F5397383F8352097F83C350A33DAB207F5397383F8362097F83C25D7F840151346DB009B1A1B010B4403F588731B781433DAB207F5397383F884
:40644000372097F83C25D7F840151346DB009B1A1B010B4403F588731B781433DAB207F5397383F8382097F83C350A33DAB207F5397383F8392097F83C350A33DAB207F57F
:40648000397383F83A2097F83C350A33DAB207F5397383F83B2097F83C350A33DAB207F5397383F83C2097F83C350A33DAB207F5397383F83D2097F83C350A33DAB207F5BE
:4064C000397383F83E2097F83C25D7F840151346DB009B1A1B010B4403F588731B781433DAB207F5397383F83F2097F83C25D7F840151346DB009B1A1B010B4403F5887379
:406500001B781433DAB207F5397383F8402007F53973142283F8412007F53973152283F8422007F53973322283F8432007F53973322283F8442007F53973322283F845206B
:4065400007F539736E2283F8462007F539736E2283F8472007F539736E2283F8482007F53973002283F8492007F53973642283F84A2007F53973642283F84B2007F5397350
:40658000642283F84C2007F53973502283F84D2007F53973502283F84E2007F539735A2283F84F2007F539735A2283F8502007F539735A2283F8512007F5CE73D04A184687
:4065C00011464FF4A4731A4618F02EFA07F5927300221A60043372220021184618F02FFA07F5927064230A22C64918F0F1FF07F1F403C54A1A6007F1F403C44A5A6007F163
:40660000F403C34A9A6007F1F403C24ADA6007F1F403C14A1A6107F1F403C04A5A6107F1F40307F592729A6107F1F403BC4ADA6107F1F403BB4A1A6207F1F403BA4A5A62C5
:4066400007F1F403B94A9A6207F1F403B84ADA6207F1D403B74A1C46154628686968AA68EB680FC428696969AA6907C4AB8BAA7F23801346A37007F1C803AF4A106851683D
:4066800003C3127A1A7007F1B403AC4A1C46154628686968AA68EB680FC42B8A2380232387F83B35002387F84635002387F8473521E097F8463507F1C802D35C1A4697F850
:4066C000473501339A420BD197F8473507F160020121D15497F84635013387F8463505E097F8473507F160020021D15497F84735013387F8473597F84735512BD9D9002328
:4067000087F84635002387F8473521E097F8463507F1B402D35C1A4697F8473501339A420BD197F8473507F10C020121D15497F84635013387F8463505E097F8473507F18A
:406740000C020021D15497F84735013387F8473597F84735512BD9D9BB1D1B88002B17D107F5397407F54E7207F5637107F5787007F1F403039307F16003029307F5CE73F9
:40678000019307F1D40300932346FBF7E5FDDDE2BB1D1B88DBB2013B87F83A3597F83A3507F56372D35C092B22D801A252F823F0D9670000D9670000D9670000E167000081
:4067C000E1670000E9670000E9670000E9670000F1670000D9670000012387F8453507E0022387F8453503E0042387F8453500BF97F83A3507F10C02D35C002B40F03A829B
:4068000097F83A3507F56372D35C092B00F23A8201A252F823F000BF41680000F7680000416800008F690000256A0000B96A00004D6B0000E16B0000856C00008D68000074
:40684000002387F8473517E097F83A2507F5787353F8223097F8472597F8451501FB02F2134497F84725033235498A5C1A7097F84735013387F8473597F83A3507F54E7254
:40688000D35C97F847259A42DED3FCE1002387F8473517E097F83A2507F5787353F8223097F8472597F8451501FB02F2134497F84725033222498A5C1A7097F84735013348
:4068C00087F8473597F83A3507F54E72D35C97F847259A42DED397F83A2507F5787353F8223097F8472597F8451501FB02F2134400221A70C7E1002387F847353DE000BF41
:40690000C822020084160200F816020084170200C4170200F017020008180200301802008C180200CC1802001419020090190200C819020010240200302402003C24020099
:406940000C95FF1F97F83A2507F5787353F8223097F8472597F8451501FB02F2134497F847250332C6490A4492F90020D2B21A7097F84735013387F8473597F83A3507F541
:406980004E72D35C97F847259A42DBD37BE1002387F847353CE097F8473597F8452502FB03F30333B64A1344B3F90030A7F83835002387F8463520E097F83A2507F578736F
:4069C00053F8222097F8473597F8451501FB03F3184697F8451597F84635CB1A0344013B134497F8462507F5A7610A4412781A7097F84635013387F8463597F8462597F8F3
:406A000045359A42D8D397F84735013387F8473597F83A3507F54E72D35C97F847259A42B9D330E1002387F847353BE097F8473597F8452502FB03F30333914A13441B8883
:406A4000A7F83635002387F8463520E097F83A2507F5787353F8222097F8473597F8451501FB03F3184697F8451597F84635CB1A0344013B134497F8462507F236510A44CF
:406A800012781A7097F84635013387F8463597F8462597F845359A42D8D397F84735013387F8473597F83A3507F54E72D35C97F847259A42BAD3E6E0002387F847353BE07A
:406AC00097F8473597F8452502FB03F303336C4A13441B68C7F83035002387F8463520E097F83A2507F5787353F8222097F8473597F8451501FB03F3184697F8451597F87A
:406B00004635CB1A0344013B134497F8462507F5A6610A4412781A7097F84635013387F8463597F8462597F845359A42D8D397F84735013387F8473597F83A3507F54E7206
:406B4000D35C97F847259A42BAD39CE0002387F847353BE097F8473597F8452502FB03F30333474A13441B68C7F82C35002387F8463520E097F83A2507F5787353F8222096
:406B800097F8473597F8451501FB03F3184697F8451597F84635CB1A0344013B134497F8462507F22C510A4412781A7097F84635013387F8463597F8462597F845359A42F6
:406BC000D8D397F84735013387F8473597F83A3507F54E72D35C97F847259A42BAD352E0002387F847353BE097F8473597F8452502FB03F30333224A13441B68C7F8283569
:406C0000002387F8463520E097F83A2507F5787353F8222097F8473597F8451501FB03F3184697F8451597F84635CB1A0344013B134497F8462507F5A5610A4412781A7081
:406C400097F84635013387F8463597F8462597F845359A42D8D397F84735013387F8473597F83A3507F54E72D35C97F847259A42BAD308E0BB1D1B88184600F06FF802E0D1
:406C80000C95FF1F00BF97F83B359BB2BA1D12889A4211D0D7F8403593F8AB305B0103F51273D7F84025D018D7F8403503F5F8731022194617F0B8FE97F83A3507F5637279
:406CC000D35C002B42D1002387F83F35FF2387F83E3597F83F3507F56372D35C002B04D197F83E35013387F83E3597F83F35013387F83F3597F83F2597F83A359A42E8D91A
:406D000097F83E3507F1D402D35C052B1BD097F83E3507F1D402D35C062B14D097F83E3507F1D402D35C082B0DD097F83E3507F1D402D35C092B06D097F83E3507F1D4023D
:406D4000D35C0A2B02D1044B01221A7000BF07F5A967BD46B0BD00BFE981FF1FF0B587B000AF0346FB8000233B750123FB74FB88023B482B01F2248201A252F823F000BF1E
:406D8000A56E0000D7700000C18100001D730000C1810000C181000067730000C1810000C18100009D740000C1810000C1810000C1810000C1810000C1810000C181000028
:406DC000C1810000C1810000C1810000C1810000C18100009D750000FB750000C1810000C1810000C181000035760000C1810000C1810000B17700005D780000C181000093
:406E0000C1810000C1810000C1810000C181000097780000C1810000C1810000C1810000C1810000C1810000D1780000177B0000C1810000457D0000C1810000C18100008E
:406E4000AD7D0000C1810000C1810000C17E0000C1810000C1810000C1810000C1810000C1810000C1810000C1810000BF7F0000C1810000C1810000C1810000C181000011
:406E8000C1810000C1810000C1810000C1810000C1810000C1810000C1810000C1810000098000003A7DAB491346DB009B1A1B010B4403F20F131B78032B00F08680A64B7B
:406EC0001B68FB600023BB750EE0BB7DC3F1030307F108021344BA7D07F10C010A4412781A70BB7D0133BB75BB7D032BEDD93C7DBB684FF08F41184617F07EFB0346184652
:406F000017F040FD0146954A2346DB001B1B1B011344B0331960924B1B68FB600023BB750EE0BB7DC3F1030307F108021344BA7D07F10C010A4412781A70BB7D0133BB751D
:406F4000BB7D032BEDD93C7DBB684FF08F41184617F052FB0346184617F014FD01467F4A2346DB001B1B1B011344B43319607D4B1B68FB600023BB750EE0BB7DC3F1030353
:406F800007F108021344BA7D07F10C010A4412781A70BB7D0133BB75BB7D032BEDD93C7DBB684FF08F41184617F026FB0346184617F0E8FC0146694A2346DB001B1B1B017F
:406FC0001344B833196001F006B9634B1B68FB600023BB750EE0BB7DC3F1030307F108021344BA7D07F10C010A4412781A70BB7D0133BB75BB7D032BEDD93C7DBB684FF08D
:407000008F41184617F0F8FA0346184617F0BAFC0146524A2346DB001B1B1B011344C83319604F4B1B68FB600023BB750EE0BB7DC3F1030307F108021344BA7D07F10C0141
:407040000A4412781A70BB7D0133BB75BB7D032BEDD93C7DBB684FF08F41184617F0CCFA0346184617F08EFC01463C4A2346DB001B1B1B011344CC3319603A4B1B68FB6003
:407080000023BB750EE0BB7DC3F1030307F108021344BA7D07F10C010A4412781A70BB7D0133BB75BB7D032BEDD93C7DBB684FF08F41184617F0A0FA0346184617F062FCE8
:4070C0000146264A2346DB001B1B1B011344D033196001F080B83A7D1E491346DB009B1A1B010B4403F20F131B78032B00F09080194B1B68FB600023BB750EE0BB7DC3F18E
:40710000030307F108021344BA7D07F10C010A4412781A70BB7D0133BB75BB7D032BEDD93C7DBB684FF08F41184617F065FA0346184617F027FC0146084A2346DB001B1BF7
:407140001B011344BC331960054B1B68FB600023BB7518E0F096FF1F0F95FF1FC09BFF1F1395FF1F1795FF1FBB7DC3F1030307F108021344BA7D07F10C010A4412781A7063
:40718000BB7D0133BB75BB7D032BEDD93C7DBB684FF08F41184617F02FFA0346184617F0F1FB0146B54A2346DB001B1B1B011344C0331960B24B1B68FB600023BB750EE039
:4071C000BB7DC3F1030307F108021344BA7D07F10C010A4412781A70BB7D0133BB75BB7D032BEDD93C7DBB684FF08F41184617F003FA0346184617F0C5FB01469F4A23468A
:40720000DB001B1B1B011344C433196000F0E3BF9C4B1B68FB600023BB750EE0BB7DC3F1030307F108021344BA7D07F10C010A4412781A70BB7D0133BB75BB7D032BEDD911
