:400000000080002011000000A9020000A9020000044A08B51268044B1A6000F0ADF900F04BF900BFFA460040BC76004010B5054C237833B9044B13B10448AFF300800123AE
:40004000237010BD4881FF1F000000001C170000084B10B51BB108490848AFF300800848036803B910BD074B002BFBD0BDE81040184700BF000000004C81FF1F1C170000A2
:40008000C880FF1F0000000008B500F077FDFEE7F8B572B66D4E0024354604EB4403AA8856F813000134002101F02CFB0A2C05F10605F2D1664E674B96E803008022186073
:4000C0009980654806F1080101F0F6FA06F1840706F1E00E0025E43657F8043F13F0FF0C23F0FF0414D00CF1FF3C5FFA8CFC05EB0C0006EB400006EB45030330013313F828
:40010000012C13F8021B98421155F8D1013565447745E1D1514C41F251262278504F42F0020222703A784F4D42F002023A702A78A4F5863442F040022A70413C2278A7F5E8
:400140007E4742F01002484B2270513F04F66E5403CB3860796003CBC5F8720DC5F8761D93E8070003C4414922800B7805F58C6543F008030B703E4C3E4861232B70A7F604
:40018000C2673D4A332118250223218005704FF040243B7008210320384B217010701A783748384BD2B287F8A123A4F8221206801C784FF4F07004F001041E4600F0D0FF91
:4001C00001E0032C0DD033784FF4F07003F0010343EA440400F0C4FF013D04F00304F0D1FEE7294B294D2A4F2A484FF4807407221C8000211A704826274A022439702E70FE
:4002000019700470137800F5F820033043F00103812601242149137085F8F86704700B78A0F5F420DBB21E49A0F2967005F5C35503F007071B4C1B090770023A0B700E35EF
:4002400044260FCA2E7007C42380F8BD201700005C17000060520040001A01400350014013500140A04300407C1B0000224300408040004082400040004200400801004916
:40028000204200402542004004400040084000400640004001400040A2430040CF0100496F580040B043004008B501F0D9F903680C2B00D0FEE7FEE780B5134FF7B1134E0E
:4002C000002556F80C0C56F8084C56F8102C03463CB1043A52F8041F43F8041B191AA142F8D156F8040C1A4620B142F8045BD11A8842FAD1013F06F11006E2D101F0B6F9E5
:40030000FFF7C2FEFEE700BF01000000D81B00000E4B0F4A0F491A600B680F4A43F400730E480B600023032B94BF50F823100C490133302B42F8041FF5D10A4B0A49187856
:400340000A4A0B4B08701A60FFF7A2BE0CED00E00004FA0514ED00E0FC7FFF1F00000000A9020000BC760040C080FF1F0080FF1F08ED00E0004700BF134A137803F0C003A3
:40038000802B00D0704770B400231048104E114D1370017833782A780F4C120442EA032322780B4353EA026301D170BC7047017833782A782078120442EA03230B4343EA24
:4003C000006070BCFFF7D6BFFA460040C1FF0300C2FF0300C3FF0300C4FF0300F0B50002C0F57F3090F8C5E390F8C67390F8C92390F8CAC390F8CB1390F8CC3390F8D15336
:40040000C1B0012D69D0DBB21D06C9B290F8C53390F8C663FFB245EA01415FFA8EFED2B25FFA8CFC0A434EEA072E43EA062642EA0C220EF10107013602EB072736020022FC
:40044000B74200F2D13415460AD916F8013B591EC9B2FD29134498BF0125B742DAB2F4D190F8C53390F8C6131D4E43EA0121B7424FEA411101F1200114BFFF084FF4004738
:400480008F4209D901F1904107F1904711F8013B1344B942DAB2F9D1534290F8C023DBB2934202D0062041B0F0BD002DFAD068464FF4807224F0FF0101F009F99DF8D1309B
:4004C000012B0AD00123C4F307216A4603208DF8D13000F0E1FB00F005FD002041B0F0BDC0FF0300013810B40B2863D8DFE800F017202632383E444A50565C060902C1F5DE
:400500007F3101F578710A784C788B78C8781B0443EA0423134343EA006010BC70470902C1F57F3101F57071087810BCC0B270470902C1F57F3101F2C131E4E70902C1F52B
:400540007F3101F2C5314A1C0B78107810BC43EA002070470902C1F57F3101F2C931D2E70902C1F57F3101F57471DDE70902C1F57F3101F2D131D7E70902C1F57F3101F2F2
:40058000D231E0E70902C1F57F3101F2D631DAE70902C1F57F3101F57571D4E70902C1F57F3101F57671AEE70902C1F57F3101F57771B9E701220021C6E700BF2DE98048DD
:4005C000ADF5677D00F0DCFD62B600239B461E4601930DF23F1451AF0DF245190DF5A3780293FF2305AA4FF4967150A800F0E8FD0028F6D1BDF81420062A03D99DF8405145
:40060000012D2CD04FF0040A0025284604210123ADF816008DF841A18DF842518DF843618DF840310023625C0139134489B29BB20029F8D15B429BB25FFA83FE1A0AC11D5C
:40064000172507F800E089B209F80020962308F800500DF1160250A800F09EFDC1E7BDF84231D91D914200F2E680B1F5967F00F2E28050AA1A449279172AC3D1191D89B2B8
:40068000002900F04A82625C0139104489B280B20029F8D1404280B250AAD11891F805E00A7942EA0E22824202D04FF0080AABE79DF841119DF844A1A1F131020A2A00F201
:4006C000AD80DFE802F04788AB5A41AB311F5A1606000020FFF782FE10B9BD4A8023137000F058FD002500F0C9FB04218A4628468DE7BBF1000F40F0BB80042100258A46CD
:40070000284684E7002BF8D1B24A082592E8030008AA82E8030087E8030001939A4628460C214FF0010B72E7BBF1000FE5D0019A03EB020EBEF5967F40F3108100252846DA
:4007400004214FF0030A62E7BBF1000FD5D00023019346E7BBF1000FCFD0002BCDD118460393FFF73BFEB0FA80F0039B40098DF844019A460521584649E734295ED0BBF15F
:40078000000FBAD0022BB8D9AAF1400B019D5FFA8BFB033B9BAA50190DF247111A46039300F08AFF019BBBF13F0F1A46039B1A4495B240F207814FF480734FF49072954288
:4007C00000F0F38000250195284604214FF0010B4FF0030A1BE7BBF1000F8ED0012B8CD1BAF1030F89D87C4B1B681B68C3F30742924500F09E8194BF012200220023FF2162
:4008000004258DF846118DF844318DF845218DF84761284608214FF0000AF8E66F4A1568002D6CD0BBF1000F6ED10025284604214FF0050AEBE64FF0030AE5E6BBF1000FA1
:400840003FF45BAF032B7FF458AFAAF1400B5FFA8BFBBBF13F0F94BF10254FF490752A4600219BA80393019500F04CFF039B90E7032B7FF442AFAAF140033F2BBDF84511CF
:4008800040F2E780FF2979D84FEA0A2E0EEB0100000200F1FF020023013812F801C963448242DBB2F9D1BAF13F0F20D80EF110720A4452011046203210F801EB73448242AB
:4008C000DBB2F9D1BAF1030F11D1FF290FD1002105200393FFF706FE039B00211B1A06205FFA83FAFFF7FEFDC0EB0A00C3B25B428DF8443105214FF0000A012087E6042160
:4009000028464FF0050A82E68DF81810ADF81A3006A80797089609960A9708A9A847BDF824000A9BB0F5937F01D3BB422ED05BB39DF82030021D91B28DF841310122030AAD
:40094000ADF816008DF842018DF840218DF8433100297FF467AE0A468E4670E61A46019B9BA90B441846394600251FFA8EF30193AA4600F0A1FE2846042148E60025284658
:4009800004214FF00A0A42E60028D1D001220E23ADF816608DF842618DF843618DF840218DF84131042100203CE6BDF845219A42019215D30025284604214FF0010B4FF016
:4009C0000A0A24E600F030FA80231022F7E600BFFA460040981B0000CC80FF1F6481FF1FBAF13F0F20D8554B02EB0A221B6892B21968C1F30F2311F0FF0F1CBF01339BB26B
:400A00009A42C0F08C80029B73B919464FF4907208A800F077FE4FF4907308AAFF21032000F0A0F9012302932B46019950469BAA00F098F9002398420CBF9A464FF00A0ABD
:400A400001931D464FF0010B00F04CFA01980421DDE5039100F0E8F903997F294FEA01138CD837483749384A18441944DFF8DCC000781A440978DFF8D8E012789C449E4445
:400A800008449CF80010DFF8CCC010449EF80020DFF8C4E09C449E4408449CF80010DFF8BCC010449EF80020DFF8B4E09C449E4408449CF80010DFF8ACC010449EF80020E5
:400AC000DFF8A4E09C449E4408449CF80010DFF89CC010449EF80020DFF894E09C449E4408449CF80010DFF88CC010449EF80020DFF884E09C4408449E449CF8001003F1A1
:400B00008043104403F500439EF8002001441B780A44134403F0FF03E9E60846BCE5002301931D46184604214FF0010B4FF00A0A6DE5C3F30723002261E600BFCC80FF1F7E
:400B40000F8000400E8000400D8000400C8000400B8000400A80004009800040088000400780004006800040058000400480004003800040028000400180004038B500F0E0
:400B800039F870BB0020FFF729FC184C0028236818BF06251A6808BF00256AB1002312F8011D0B44DBB2002AF9D162681278D31A03F0FF039A4202D0002000F05DF90C4A41
:400BC000137803F0C003402B00D025B1084B00221A70FFF7F3FC80231370BDE8384000F04DB9002000F048F9CCE700BFCC80FF1FFA46004038B500F0AFF900F05FFA10B14A
:400C00000424204638BD00F095FA072804462BD000F076FA002CF4D100F09EF900F04EFA0028EDD1012000F02DFA072805D04FF0FF3400F065FA204638BD154C02E0237812
:400C40009B07F4D40221134800F09CF90228F6D10F4C2378990705D4012000F03BF923789A07F9D50024E4E7094D2B789B0705D4012000F02FF92B789807F9D5044B1A78CB
:400C80009507D6D51B789B08D3D100F039FAC3E7224700407C81FF1FF0B53F2883B00AD8441F3A2C8CBF00240124B1F5807F17D9012003B0F0BD412894BF0024012481293F
:400CC00028BF01241027002AF2D0002CF0D116460D46044600F0F2F928B1042003B0F0BD4FF48077EFE73B4632462946204600F069F9072804D0019000F002FA0198EDE78A
:400D0000164E33789B0705D4012000F0E3F833789807F9D5114E33789F071BD533789B0818D10F4A294653782046127800F086F90728E0D102E0012000F0CCF8337899077A
:400D4000F9D5064B1A78920704D51B789B0801D11846D0E74FF0FF30CDE700BF224700407C81FF1FF0B5412883B015D8441F3A2C8CBF002401243F280FD8B1F5807F11D827
:400D800082B17CB91E4617460D46044600F096F958B1042003B0F0BD0124812928BF0124102BEDD0012003B0F0BD33463A462946204600F007F9072804D0019000F0A0F932
:400DC0000198F0E7164E33789B0705D4012000F081F833789807F9D5114E33789F071BD533789B0818D10F4A294653782046127800F024F90728E0D102E0012000F06AF8BB
:400E000033789907F9D5064B1A78920704D51B789B0801D11846D0E74FF0FF30CDE700BF224700407C81FF1F38B500F0A1F90F4A0F4913780F4C43F0080313700B78C82543
:400E400043F008030B702570137B43F0100313730B7B02F5587243F010030B7313789B06FCD5BDE8384000F087B900BFA0430040B04300400147004001BE7047024A13788B
:400E800043F0010313707047F6460040B0F5004F70B506461AD904460D4DA4F50044686800F05EF9B4F5004FF7D8A6F50043013B23F4FF4323F07F03A6F50046F61AA86885
:400EC00000FB06F0BDE8704000F04AB9004DF6E7D480FF1F024B1B7800FB03F000F040B9D480FF1F08B500F043F900BF00BF00BF00BF00BF00BF00BF00BF00BF00BF00BFD6
:400F000000BF00BF00BF00BF00BF064A13889BB243F0040313801388BFF36F8FBDE8084000F02AB900480040054B00F01F001A6800F1100352F8230042F82310704700BF29
:400F400008ED00E000F01F0000F16040490100F56440C9B20170704708B500F009F90749074A0B7843F008030B70137843F008031370BDE8084000F0FFB800BFA043004028
:400F8000B04300402DE9F0410F4699B14E1EF6B20644451E094CDFF8288002E00120FFF799FF2378DB07F9D598F8003005F8013FB542F6D13846BDE8F08100BF22470040F0
:400FC00020470040F0B41B4C2578AD071DD51A4DB6262E70D52702262F702E702478A40710D428705BB15E1EB6B21644013A12F8014FB2422C70FAD1B3F5807F08D0F0BC92
:40100000072070470920F0BC70470420F0BC70473F28F4D800F5103001EB0021490106480A46203112F8013BDBB291420370F9D1E5E700BF2247004020470040F0B40F4D53
:401040002C78A60716D50E4CB6262670D8270526277026702D78AD0709D40D0AC9B2207025702170227023700720F0BC70470920F0BC70470420F0BC704700BF2247004069
:40108000204700400B4A1378990711D530B40A4BB625E1240E211D701C7019701278920703D4187030BC07207047092030BC704704207047224700402047004038B500F019
:4010C00057F80D4A137823B1042400F055F8204638BD0125094915700C682C40F5D00C6824F001040C6000BF00BF00BF1C46556000F042F8204638BD6881FF1F0400084064
:4011000010B500F035F8094B002259681A70012908D1074C216841F00101216000BF00BF00BF5A60BDE8104000F026B86881FF1F04000840074B1B789B0708D5064BB620E1
:40114000E0210D221870197007201A7070470420704700BF2247004020470040000000000230800803D000BF01380046FCD17047EFF3108072B6704780F31088704700BFBB
:4011800008B500F071F800F04BF9BDE8084000F0A7B900BF00F0C6B8F8B50E460446174600F03EF94EB1751EADB22544013C14F8010F00F057F9AC42F9D13E800020F8BD6E
:4011C0002DE9F84303EB83035D0006468846174618BF002407D117E001340120A4B2FFF755FEAC4210DA00F0F3F80028F4D000F0EFF804461920FFF749FE00F0E9F88442CA
:40120000F5D34FF0000901E04FF0050900243C8000F0DEF8F8B100F0DBF83A8880B283189BB243453B801BD2C0B1204485B200F0A1F8631C30559CB2AC42F8D1731913F81D
:40124000013C172B02D00520FFF720FE2C4600F0BFF80028DFD14846BDE8F8832546EDE73A804846BDE8F883F8B5224D2C780CBB21492046FFF758FE20460721FFF762FE17
:401280001E4B1F492022692008701A701D4901206C70FFF749FE07210120FFF753FE1A4E1A481B4A06274724022101233770047011702B70FFF75CFF0546164C1649237823
:4012C000164A43F0200323700B78012043F010030B701060A378124843F010030221A3700160116000F09CF92846BDE8F840FFF743BF00BF7081FF1F211500008964004014
:4013000089650040B915000028640040386400408B650040996500409964004000E100E080E200E038B5FFF723FF05460D4A0E4C137803F0DF03137000F082F923780B4A1C
:40134000012003F0EF030A49237010600B78022403F0EF030B7028461460BDE83840FFF70BBF00BF996500409964004080E100E09B65004010B4114B114A0121196091786F
:40138000D3781079C9B210B9DBB2994212D04B1CDBB2402B0B4828BF0023405C93701379074CC0B20BB100232371074B01221A6010BC7047054B1878C0B2F6E780E100E0CA
:4013C0007081FF1F8081FF1F00E100E04A650040104A0121104B11609978DA7891420FD09978DA789142DA78987824BF02F14003181A0A4B38BF101A0122C0B21A60704793
:401400001B790122002B054B14BF402000201A60704700BF80E100E07081FF1F00E100E010B5FFF7A5FE0B4B0B4C1A7842F001021A701A7802F0FE021A70FFF79DFE074BD9
:4014400000220121064821609A70DA701A715A71016010BD9A65004080E100E07081FF1F00E100E070B4194DEC79AB792646DBB2591EE21A091BA2F13F02B1FA81F1B2FAF1
:4014800082F249095209A34288BF0A46002AECD1A34212D03F2C0E4A88BF00260D4B90551B789ABF0134E4B201249B07EC7102D5094B02221A6070BC7047064B1B785A07A8
:4014C000E8D4064B187070BC704700BF7081FF1FC081FF1F6B65004000E200E04865004010B5FFF745FE0A4B0A4C1A7842F001021A701A7802F0FE021A70FFF73DFE064AFF
:401500000223002105482360D1719171036010BD9865004080E100E07081FF1F00E100E02DE9F0431C481D491D4F1E4A1E4E1F4CDFF880C01E4D4FF0010E0378DBB213F03A
:401540001E0905D091F8008049EA080881F800809B0601D4BDE8F08397F8008013785FFA88F8DBB206F8038023784FF000080BB18CF800E013780133DBB2137013783F2B55
:4015800088BF82F8008092F800802B789845D4D184F800E0D1E700BF696400407181FF1F4A6500407381FF1F8081FF1F7481FF1F7281FF1F7581FF1F144A154813780178B4
:4015C000994221D0F0B513490B7803F0040303F0FF06C3B91746104D104C02E00B785B0711D413783F2B88BF3E701378DBB2EB5CDBB22370137890F800E00133DBB21370CB
:4016000013789E45EAD1F0BD704700BF7681FF1F7781FF1F6B650040C081FF1F486500400549064A0B7843F001030B70137843F001031370704700BFA2430040B2430040EF
:401640000549064A0B7803F0FE030B70137803F0FE031370704700BFA2430040B2430040014B1868704700BF4481FF1F0E4B70B51E460E4C0025E41AA410A54204D056F8C7
:40168000253098470135F8E700F08CFA084B094C1E46E41AA4100025A54204D056F8253098470135F8E770BDB01B0000B01B0000B01B0000B81B000010B5431E0A4491428E
:4016C00004D011F8014B03F8014FF8E710BD884210B501EB020301D8421E0BE09842FBD28118D21AD34204D013F8014D01F8014DF8E710BD994204D011F8014B02F8014F77
:40170000F8E710BD03460244934202D003F8011BFAE77047001D0000ED00000000000000005100401000205100401000405100403000F051004010000000014000100014B5
:4017400001400006801A0140800100400140000A004C014000020050014020001090000040000000CF083042C3003C0800100000082000000020F3000C30F3003D0FC0F055
:4017800008000084023F20C004F800010C3900C6430010C740318C003F0000FF00002800000000402105040003EC000003FFFFFF62A0F0410C00000000000000040404044F
:4017C0000000000100000000000040020010301000101012000000000000000000000000000000000152004001640040026500400107014054080140370901400414014085
:4018000003150140011701404D180140411901400D1A0140411B0140034001400241014002420140044301400147014002480140084C01400E4D014004500140015101402E
:401840000914893A89698B0FE60203010461060E071809480A400B860E0811801365142C15E61643171119601B8B1E43206121A02206260C28102D802F023020320F330774
:40188000341035F8364038023A083B083E504003474049FF4A074BFF4C404D204EF04F055008580459045A045F01604061A8624063208320850387048A028B088D038E022A
:4018C0008F0C9001950A9704980199039B04A310A710A801AF05B001B10FB320B510B602BB02BE40BF10D41AD604D804D904DB04DF0100A005800605071008800A450E2010
:401900000F0211101502161819401B021D241E211F0120402105220223042404271029012B212D802E023104331035043602371038523A143C143E083F0245084F025601C3
:4019400059025A206140634485208740C0E3C2AAC472CA9BCCE6CEEFD040D605D80DE008B980BF40D904DF012680A680B280EA0801020B011001140419011E022006280662
:401980002D01320633033401380839083E1440454102460E47BC483449FF4AFF4BFF4EF04F44500C580459045A045F0166C06A406B0284038508860C89088D088E0E900232
:4019C00091089208953D960F9702980299239A049B1C9D1E9F01A127A318A501A716A80CA926AA03AB19AC03AE0CAF1FB320B401B508B60EB71FB820BA80BB80BF04D602C6
:401A0000D712D804D904DB04DF01000403020520060408280A800E300F821209150216C0171019801BA01D081E082254241028282A012B8A2E8031143249371038A83E10F9
:401A40003F02464047104E02560657405A0869106A46705C79017A027B41910A941295109664978098809B109D039E06A210A303A450A508A720AF40B701C005C2BEC4533B
:401A8000CA1FCC2FCEAED0A0D210D602840188018C019601A201AE02B203BA08D401D604D804DB04DF0100440380059408120A120E101048114012101580164018041916A1
:401AC0001E101F0820802142281229042A402B8A30483110324138E239083A1040264102481049815C805D215E0867806A4082408C218D4090A09109928294069780988038
:401B000099A09C209D17A008A204A382A450A708C0EDC22FC49FCA0FCC0FCE0FD00FD208D6F0D880E004E88030103580CC309C109D809C109D8084109C109D80E640862085
:401B4000AD80EA105840620199089A20B508D401D802E80212807220750882018E8099089A209E01B040C408DC01DE04E202E80100010C0110011C01000F00004090900073
:401B80009000000010140400140000000000000101000000000000006910162E003C010143000000F8B500BFF8BC08BC9E4670475100000011030000F8B500BFF8BC08BC51
:401BC0009E4670472D000000D81B0000C880FF1F80000000B8000000000000001417000018170000180000000000E02EC05D000000366E010000000000000000000000004A
:401C00000000000000000000000000000000000000000000A01B000000000000000000000000000000000000000000000000000000000000000000000000000000000000E9
:401C40000000000000000000000000000000000000000000E480FF1F00000000000000000000000000000000000000000000000000000000000000000000000000000000E2
:401C80000000000000000000000000000000000000000000000000000000000000000000000000000000000000000000000000000000000000000000000000000000000024
:401CC00000000000000000000000000000000000000000000000000000000000000000000000000000000000000000000000000000000000000000000000000000000000E4
:401D000000800020111D000041BD000041BD000080B500AF0AF048F810B5054C237833B9044B13B10448AFF300800123237010BDC881FF1F0000000034520100084B10B513
:401D40001BB108490848AFF300800848036803B910BD074B002BFBD0BDE81040184700BF00000000CC81FF1F34520100C880FF1F0000000080B586B000AFE14B1B78FB7594
:401D8000DF4BB3F98030DBB2013BDBB21946DC4804F084F803461946D94BB3F98030013BD74AD35C994204D0D54B002283F884201FE2FB7DA12B00F21B8201A252F823F0BC
:401DC000C7200000A9200000F1210000CD200000D3200000EF20000091200000F1210000F12100002B21000011210000F1210000AF2000004D210000F1210000F12100006C
:401E0000F1210000F1210000F1210000F1210000F1210000F1210000F1210000F1210000F1210000F1210000F1210000F1210000F1210000F1210000F1210000F121000082
:401E4000F1210000F1210000F1210000F1210000F1210000F1210000F1210000F1210000F1210000F1210000F1210000F1210000F1210000F1210000F1210000F121000042
:401E8000F1210000F1210000F1210000F1210000F1210000F1210000F1210000F1210000F1210000F1210000F1210000F1210000F1210000F1210000F1210000F121000002
:401EC000F1210000F1210000F1210000F1210000F1210000F1210000F1210000F1210000F1210000F1210000F1210000F1210000F1210000F1210000F1210000F1210000C2
:401F0000F1210000F1210000F1210000F1210000F1210000F1210000F1210000F1210000F1210000F1210000F1210000F1210000F1210000F1210000F1210000F121000081
:401F4000F1210000F1210000F1210000F1210000F1210000F1210000F1210000F1210000F1210000F1210000F1210000F1210000F1210000F1210000F1210000F121000041
:401F8000F1210000F1210000F1210000F1210000F1210000F1210000F1210000F1210000F1210000F1210000F1210000F1210000F1210000F1210000F1210000F121000001
:401FC000492000007F2000004F2000008B20000055200000612000005B200000F1210000792000006D200000F12100007320000067200000F1210000F1210000F1210000B4
:4020000085200000F1210000F1210000F1210000F1210000F1210000F1210000F1210000F1210000F1210000F1210000F1210000F1210000F1210000F1210000F1210000ED
:40204000F1210000EB21000004F0BEFAD1E004F05FFACEE004F088F9CBE004F0F3FAC8E004F050FBC5E004F07DFBC2E004F0C2F9BFE004F005FABCE004F082FCB9E004F073
:40208000C7FAB6E004F090FBB3E004F0B7FBB0E01C4B1B88FB60FB685BBABB60BB689BB2184600F0AFF8A4E001F0C2FFA1E0154B1B883B613B695BBA7B607B689BB21846AC
:4020C00001F048FA95E004F089FB92E004F0C0FB8FE0322003F01AFF0346002B03D0012003F0FCFE85E0002003F0F8FE81E003F08BFF0346002B07D0012003F0EFFE78E08D
:402100006C93FF1F6D93FF1F002003F0E7FE70E003F0A8FF0346002B03D0012003F0DEFE67E0002003F0DAFE63E0012003F0D6FE4FF47A700BF0DEFF00200AF0F9FC4FF497
:402140007A700BF0D7FF0CF0B5FB52E02A4B5B781B021AB2284B9B781BB213431AB2274B5A80254BDB781B021AB2234B1B791BB213431AB2214B9A80204BB3F90230B3F1C4
:40218000FF3F0FD11D4BB3F90430B3F1FF3F09D11A4B00221A70194B00225A80174B00229A8026E0154BB3F90230002B03DA134B00225A8007E0114BB3F90230C82B02DD55
:4021C0000E4BC8225A800D4BB3F90430002B02DA0A4B00229A800A4B00221A60074B01221A70012003F07AFE03E004F0F9FB00E000BF1837BD4680BD6C93FF1FF493FF1FBB
:40220000FC95FF1F80B5ADF6A87D00AF0246BB1D1A8007F1080300221A60043340F69C720021184610F0D5FABB1D1B88002B02D0012B0DD019E007F10803184601F046FF10
:402240000AF0F0FF07F1080318460AF0C9FF0CE007F10803184603F0F1F90AF0E3FF07F1080318460AF0BCFF00BF00BF07F6A877BD4680BDF0B5ADF68C1D00AF07F5EA7363
:4022800000221A60043340F29A720021184610F0A0FA40F29E73A7F87A39002387F88539002387F88439002387F8833907F5D07300221A6004332E220021184610F089FADE
:4022C000C84BC7F87C39D7F87C39C7F8743907F5B873C54A1C46154628686968AA68EB680FC428696969AA6907C42B7F237007F5A873BE4A1C46154628686968AA68EB68BB
:402300000FC428696969AA6907C42B7F237007F5A273B74A1068516803C312891A8007F1D003B44A1846114674231A4610F046FA07F16C03B04A1846114663231A4610F05D
:402340003DFA07F12C06AD4B34461D460FCD0FC40FCD0FC40FCD0FC495E80F0007C4238002341B0C2370002386F83F303B46A44A1C4615460FCD0FC40FCD0FC495E8070012
:4023800003C4228007F5EA730C221A7007F5EA731D225A70002387F8853901F027B897F88539322202FB03F3023397F8852907F5B871895C07F5EA72D15497F885393222E3
:4023C00002FB03F3033397F8852907F5A871895C07F5EA72D15497F8853907F5B872D35C072B1FD801A252F823F000BF0D2400000D2400000D240000152400001524000071
:402400001D2400001D2400001D240000012387F8833907E0022387F8833903E0042387F8833900BF97F8853907F5B872D35C072B00F2B98501A252F823F000BF5D240000EB
:40244000C32400005D240000292500007B2600001F270000F92800009B290000002387F8873923E097F8873997F8832902FB03F31A46D7F87C391344C7F8743997F8853904
:40248000322202FB03F31A1D97F8873997F8831901FB03F31344D7F87429117807F5EA72D15497F88739013387F8873997F8853907F5A872D35C97F887299A42D2D300F065
:4024C00072BD002387F8873923E097F8873997F8832902FB03F31A46D7F87C391344C7F8743997F88539322202FB03F31A1D97F8873997F8831901FB03F31344D7F874292A
:40250000117807F5EA72D15497F88739013387F8873997F8853907F5A872D35C97F887299A42D2D300F03FBD002387F8873998E097F88539072B3ED197F88739314A0E3322
:402540009B0013445B6897F887292E490A4492F8372013411AB207F5CD731A80002387F8863921E097F88539322202FB03F31A1D97F8873997F8831901FB03F31A4497F845
:4025800083391A4497F88639D31A013B97F8862907F5CD710A44117807F5EA72D15497F88639013387F8863997F8862997F883399A42D7D350E097F8873997F8832902FB38
:4025C00003F31A46D7F87C391344C7F87439D7F87439B3F9002007F5CD731A80002387F8863933E0A994FF1FD4520100F4520100145301000056010074560100D85601002A
:4026000018570100A894FF1F97F88539322202FB03F31A1D97F8873997F8831901FB03F31A4497F883391A4497F88639D31A013B97F8862907F5CD710A44117807F5EA7274
:40264000D15497F88639013387F8863997F8862997F883399A42D7D397F88739013387F8873997F8853907F5A872D35C97F887299A42FFF45DAF00F096BC002387F8873954
:4026800042E097F8873997F8832902FB03F31A46D7F87C391344C7F87439D7F874391A8807F5CC731A80002387F8863921E097F88539322202FB03F31A1D97F8873997F8D6
:4026C000831901FB03F31A4497F883391A4497F88639D31A013B97F8862907F5CC710A44117807F5EA72D15497F88639013387F8863997F8862997F883399A42D7D397F8A5
:402700008739013387F8873997F8853907F5A872D35C97F887299A42B3D300F044BC002387F88739DDE097F885390A2B02D0152B62D092E0C44B9B6DC34A92F8372043FAAA
:4027400002F207F5CA731A60002387F886391AE097F88539322202FB03F31A1D97F883391A4497F88639D31A013B97F8862907F5CA710A44117807F5EA72D15497F8863955
:40278000013387F8863997F8862997F883399A42DED3AD4BDB6DAC4A92F8372043FA02F207F5CA731A60002387F886391DE097F88539322202FB03F31A1D97F883391A44C4
:4027C00097F883391A4497F88639D31A013B97F8862907F5CA710A44117807F5EA72D15497F88639013387F8863997F8862997F883399A42DBD36FE0934BD3F89830924A81
:4028000092F8372043FA02F207F5CA731A60002387F886391AE097F88539322202FB03F31A1D97F883391A4497F88639D31A013B97F8862907F5CA710A44117807F5EA72E9
:40284000D15497F88639013387F8863997F8862997F883399A42DED33EE097F8873997F8832902FB03F31A46D7F87C391344C7F87439D7F874391A6807F5CA731A60002347
:4028800087F8863921E097F88539322202FB03F31A1D97F8873997F8831901FB03F31A4497F883391A4497F88639D31A013B97F8862907F5CA710A44117807F5EA72D1545B
:4028C00097F88639013387F8863997F8862997F883399A42D7D300BF97F88739013387F8873997F8853907F5A872D35C97F887299A42FFF418AF56E3002387F8873942E064
:4029000097F8873997F8832902FB03F31A46D7F87C391344C7F87439D7F874391A6807F5C8731A60002387F8863921E097F88539322202FB03F31A1D97F8873997F883191D
:4029400001FB03F31A4497F883391A4497F88639D31A013B97F8862907F5C8710A44117807F5EA72D15497F88639013387F8863997F8862997F883399A42D7D397F8873902
:40298000013387F8873997F8853907F5A872D35C97F887299A42B3D305E397F88539012B03D0022B00F05781ABE2274B93F83630032B00F0A980244B5B6818460FF072FC14
:4029C00003464FF08F4118460FF074FD03461A4607F5CE731A60002387F887391AE097F88539322202FB03F31A1D97F883391A4497F88739D31A013B97F8872907F5CE718F
:402A00000A44117807F5EA72D15497F88739013387F8873997F8872997F883399A42DED3094B9B6818460FF03DFC03464FF08F4118460FF03FFD03461A4607F5CE731A602B
:402A4000002387F887391FE0A894FF1F97F88539322202FB03F31A1D97F883391A4497F883391A4497F88739D31A013B97F8872907F5CE710A44117807F5EA72D15497F8A9
:402A80008739013387F8873997F8872997F883399A42DBD3D04BDB6818460FF003FC03464FF08F4118460FF005FD03461A4607F5CE731A60002387F887391EE097F8853951
:402AC000322202FB03F31A1D97F883395B001A4497F883391A4497F88739D31A013B97F8872907F5CE710A44117807F5EA72D15497F88739013387F8873997F8872997F8D5
:402B000083399A42DAD34DE2B34BDB6918460FF0C9FB03464FF08F4118460FF0CBFC03461A4607F5CE731A60002387F887391AE097F88539322202FB03F31A1D97F8833970
:402B40001A4497F88739D31A013B97F8872907F5CE710A44117807F5EA72D15497F88739013387F8873997F8872997F883399A42DED3994B1B6A18460FF094FB03464FF0FB
:402B80008F4118460FF096FC03461A4607F5CE731A60002387F887391DE097F88539322202FB03F31A1D97F883391A4497F883391A4497F88739D31A013B97F8872907F5C7
:402BC000CE710A44117807F5EA72D15497F88739013387F8873997F8872997F883399A42DBD37D4B5B6A18460FF05CFB03464FF08F4118460FF05EFC03461A4607F5CE7336
:402C00001A60002387F887391EE097F88539322202FB03F31A1D97F883395B001A4497F883391A4497F88739D31A013B97F8872907F5CE710A44117807F5EA72D15497F86D
:402C40008739013387F8873997F8872997F883399A42DAD3A6E1604B93F83630032B00F0A7805D4B1B6918460FF01CFB03464FF08F4118460FF01EFC03461A4607F5CE7351
:402C80001A60002387F887391AE097F88539322202FB03F31A1D97F883391A4497F88739D31A013B97F8872907F5CE710A44117807F5EA72D15497F88739013387F88739C2
:402CC00097F8872997F883399A42DED3424B5B6918460FF0E7FA03464FF08F4118460FF0E9FB03461A4607F5CE731A60002387F887391DE097F88539322202FB03F31A1D0B
:402D000097F883391A4497F883391A4497F88739D31A013B97F8872907F5CE710A44117807F5EA72D15497F88739013387F8873997F8872997F883399A42DBD3264B9B69B0
:402D400018460FF0AFFA03464FF08F4118460FF0B1FB03461A4607F5CE731A60002387F887391EE097F88539322202FB03F31A1D97F883395B001A4497F883391A4497F825
:402D80008739D31A013B97F8872907F5CE710A44117807F5EA72D15497F88739013387F8873997F8872997F883399A42DAD3F9E0094B9B6A18460FF075FA03464FF08F4131
:402DC00018460FF077FB03461A4607F5CE731A60002387F887391CE0A894FF1F97F88539322202FB03F31A1D97F883391A4497F88739D31A013B97F8872907F5CE710A4438
:402E0000117807F5EA72D15497F88739013387F8873997F8872997F883399A42DED3D74BDB6A18460FF03EFA03464FF08F4118460FF040FB03461A4607F5CE731A60002344
:402E400087F887391DE097F88539322202FB03F31A1D97F883391A4497F883391A4497F88739D31A013B97F8872907F5CE710A44117807F5EA72D15497F88739013387F8B1
:402E8000873997F8872997F883399A42DBD3BB4B1B6B18460FF006FA03464FF08F4118460FF008FB03461A4607F5CE731A60002387F887391EE097F88539322202FB03F349
:402EC0001A1D97F883395B001A4497F883391A4497F88739D31A013B97F8872907F5CE710A44117807F5EA72D15497F88739013387F8873997F8872997F883399A42DAD3D3
:402F000050E0002387F8873942E097F8873997F8832902FB03F31A46D7F87C391344C7F87439D7F874391A6807F5CE731A60002387F8863921E097F88539322202FB03F30E
:402F40001A1D97F8873997F8831901FB03F31A4497F883391A4497F88639D31A013B97F8862907F5CE710A44117807F5EA72D15497F88639013387F8863997F8862997F8D6
:402F800083399A42D7D397F88739013387F8873997F8853907F5A872D35C97F887299A42B3D300BF00BF97F8852907F1D00353F8222007F5D0731146184610F0D3F907F50B
:402FC000D073184610F001FA034687F8823997F8853907F5B872D35C002B40F03C8197F8843907F5A272D35C022B00F09180032B00F00181012B40F02481D7F87C391B7887
:40300000052B00F21B8101A252F823F025300000453000006730000091300000B9300000DF30000007F5D073184610F0CEF903461A4607F5D0731344514A106818601279FF
:403040001A7164E007F5D073184610F0BEF903461A4607F5D07313444A491A460B4603CB1060516053E007F5D073184610F0ADF903461A4607F5D0731344434A1D461446BC
:403080000FCC28606960AA60EB6023882B823EE007F5D073184610F098F903461A4607F5D0731344394A1C46134607CB20606160A2601B88A3812AE007F5D073184610F0EB
:4030C00084F903461A4607F5D073134430491A460B4603CB106051601B88138117E007F5D073184610F071F903461A4607F5D0731344284A1D4614460FCC28606960AA6022
:40310000EB602388A2782B821346AB7400BF95E0D7F87C391B78032B00F2928001A252F823F000BF353100005B310000A1310000C731000007F5D073184610F046F903463D
:403140001A4607F5D073134413491A460B4603CB106051601B8813814CE007F5D073184610F033F903461A4607F5D07313440B4A1068186012791A713CE000BFA894FF1F62
:403180003852010040520100485201005C5201006C520100785201008C5201009852010007F5D073184610F010F903461A4607F5D0731344DB491A460B4603CB10605160AA
:4031C0001B78137216E007F5D073184610F0FDF803461A4607F5D0731344D34A1D4614460FCC28606960AA60EB6020682861A388AB8200BF24E0D7F87C391B78002B0FD048
:4032000007F5D073184610F0E0F803461A4607F5D0731344C54A1068186012791A7110E007F5D073184610F0D0F803461A4607F5D0731344BE4A1068186002E000BF00E0B8
:4032400000BF07F5D073184610F0BFF80346DBB2013387F8823997F8823987F8873925E097F88539322202FB03F31A1D97F8833997F8851907F5A870415C01FB03F31A4425
:4032800097F882391A4497F88739D31A97F8821997F887298A1A07F5D071895C07F5EA72D15497F88739013B87F8873997F88739002BD5D197F8853907F5B872D35C002BC7
:4032C0001FD197F88539322202FB03F31A1D97F8833997F8851907F5A870415C01FB03F31A4497F88239134497F8842907F5A271895C07F5EA72D15497F88439013387F84D
:40330000843997F885391B2B5AD801A252F823F081330000C133000089330000C1330000C1330000C13300009133000099330000C1330000A1330000C1330000C13300008B
:40334000C1330000C1330000A9330000C1330000C1330000C1330000C1330000C1330000B1330000C1330000C1330000C1330000C1330000C1330000C1330000B93300003D
:403380006C4BC7F87C392CE06B4BC7F87C3928E06A4BC7F87C3924E0694BC7F87C3920E0684BC7F87C391CE0674BC7F87C3918E0664BC7F87C3914E0654BC7F87C3910E0E1
:4033C00097F8853907F5A872D35C1A4697F8833903FB02F31A46D7F87C391344C7F87C3900BF97F88539013387F8853997F885391C2B7EF6D4AF07F16C0318460FF0E5FF3E
:40340000034687F8823997F8823987F8873916E097F8823903F2AC5297F88739D31A97F8821997F887298A1A07F16C01895C07F5EA72D15497F88739013B87F8873997F8E4
:403440008739002BE4D107F12C0318460FF0BDFF034687F8823997F8823987F8873916E097F8823903F2426297F88739D31A97F8821997F887298A1A07F12C01895C07F538
:40348000EA72D15497F88739013B87F8873997F88739002BE4D13B4618460FF096FF034687F8823997F8823987F8873915E097F8823903F5DB6297F88739D31A97F8821939
:4034C00097F887298A1A3946895C07F5EA72D15497F88739013B87F8873997F88739002BE5D1B7F87A395C1EB7F87A39DBB2013BDAB207F5EA731146184602F0CFFC034667
:403500001A4607F5EA731A55B7F87A2907F5EA731146184602F03EFC00BF07F68C17BD46F0BD00BFA0520100AC520100C4520100CC520100AC94FF1FDC94FF1FE494FF1F5F
:40354000F094FF1F0095FF1F1895FF1F4095FF1FB895FF1F80B586B000AF0346FB80FB881D2B00F25A8501A252F823F0E5350000ED350000F9350000C7370000A939000009
:40358000C5390000D1390000DD390000053A00007D3A0000CF3A0000DB3A0000593B00009B3B0000B53B0000EB3B0000F73B00003D3C0000493C0000693C0000773C0000D1
:4035C000833C0000D73C00000F3D00003F3D0000873D0000B73D0000D73D0000013E0000973E0000FEF746FE00F017BDB04BDA78B04B5A7000F011BDAF4B93F83630032B6B
:4036000070D0AE4B1B683B610023BB750EE0BB7DC3F1030307F10C021344BA7D07F110010A4412781A70BB7D0133BB75BB7D032BEDD9FB684FF08F4118460EF087FE03469C
:4036400018460FF049F802469A4B5A609C4B1B683B610023BB750EE0BB7DC3F1030307F10C021344BA7D07F110010A4412781A70BB7D0133BB75BB7D032BEDD9FB684FF023
:403680008F4118460EF062FE034618460FF024F80246884B9A608B4B1B683B610023BB750EE0BB7DC3F1030307F10C021344BA7D07F110010A4412781A70BB7D0133BB75E4
:4036C000BB7D032BEDD9FB684FF08F4118460EF03DFE034618460EF0FFFF0246754BDA6000F09BBC754B1B683B610023BB750EE0BB7DC3F1030307F10C021344BA7D07F1CB
:4037000010010A4412781A70BB7D0133BB75BB7D032BEDD9FB684FF08F4118460EF016FE034618460EF0D8FF0246624BDA61644B1B683B610023BB750EE0BB7DC3F10303BF
:4037400007F10C021344BA7D07F110010A4412781A70BB7D0133BB75BB7D032BEDD9FB684FF08F4118460EF0F1FD034618460EF0B3FF02464F4B1A62524B1B683B61002332
:40378000BB750EE0BB7DC3F1030307F10C021344BA7D07F110010A4412781A70BB7D0133BB75BB7D032BEDD9FB684FF08F4118460EF0CCFD034618460EF08EFF02463D4B99
:4037C0005A6200F02ABC3C4B93F83630032B7BD03A4B1B683B610023BB750EE0BB7DC3F1030307F10C021344BA7D07F110010A4412781A70BB7D0133BB75BB7D032BEDD9A8
:40380000FB684FF08F4118460EF0A0FD034618460EF062FF0246274B1A61294B1B683B610023BB750EE0BB7DC3F1030307F10C021344BA7D07F110010A4412781A70BB7DE5
:403840000133BB75BB7D032BEDD9FB684FF08F4118460EF07BFD034618460EF03DFF0246144B5A61174B1B683B610023BB750EE0BB7DC3F1030307F10C021344BA7D07F1EF
:4038800010010A4412781A70BB7D0133BB75BB7D032BEDD9FB684FF08F4118460EF056FD034618460EF018FF0246024B9A61B4E36C93FF1FE896FF1FA894FF1F6F93FF1F96
:4038C0007393FF1F7793FF1F9C4B1B683B610023BB750EE0BB7DC3F1030307F10C021344BA7D07F110010A4412781A70BB7D0133BB75BB7D032BEDD9FB684FF08F411846AC
:403900000EF024FD034618460EF0E6FE02468C4B9A628C4B1B683B610023BB750EE0BB7DC3F1030307F10C021344BA7D07F110010A4412781A70BB7D0133BB75BB7D032B9A
:40394000EDD9FB684FF08F4118460EF0FFFC034618460EF0C1FE0246794BDA627A4B1B683B610023BB750EE0BB7DC3F1030307F10C021344BA7D07F110010A4412781A70F6
:40398000BB7D0133BB75BB7D032BEDD9FB684FF08F4118460EF0DAFC034618460EF09CFE0246674B1A6338E3684BDB78002B04D0634B012283F834202FE3614B002283F8CA
:4039C00034202AE3614BDA785D4B83F8352024E35E4BDA785A4B83F836201EE30023FB750CE0FB7DFA7D03325849895C544A13440A4683F83720FB7D0133FB75FB7D022B76
:403A0000EFD90AE30023FB7531E0FB7DFA7D520003324E498A5C120211B2FA7D023252004A48825C12B20A4312B21146444A0E339B0013445960F97DFB7D414A0E339B00FB
:403A400013445B68FA7D3E48024492F8372003FA02F23B4801F10E039B0003445A60FB7D3B4A134400221A75FB7D0133FB75FB7D022BCAD9374B01221A70CEE20023FB751A
:403A800021E0FB7D9B000333304A13441B683B610023BB7511E0FB7D12339B00284A1A44BB7DC3F103031344BA7D07F110010A4412781A70BB7D0133BB75BB7D032BEAD9B0
:403AC000FB7D0133FB75FB7D022BDAD9A5E21F4BDA781B4B83F854209FE21C4BDB781A061A4B1B791B041A43184B5B791B021343164A92791343124A9365144BDB791A0658
:403B0000124B1B7A1B041A43104B5B7A1B0213430E4A927A13430A4AD365094B9B6D084A92F837209340064A9365054BDB6D044A92F837209340024AD3656EE26F93FF1FF6
:403B4000E896FF1F7393FF1F7793FF1F6C93FF1F2C94FF1FA494FF1FA24BDB781A06A14B1B791B041A439F4B5B791B0213439D4A927913439C4A13669A4BDB791A06994B9B
:403B80001B7A1B041A43974B5B7A1B021343954A927A1343944A53663FE2924BDB781B021AB2904B1B791BB213431AB28E4BA3F8682032E28B4BDB781B021AB2894B1B79D0
:403BC0001BB213431BB29AB2874BA3F86A20854B5B791B021AB2834B9B791BB213431BB29AB2814BA3F86C2017E27E4BDA787E4B83F86E2011E27B4BDB781A06794B1B798A
:403C00001B041A43774B5B791B021343754A927913431A46744B1A67724BDB791A06714B1B7A1B041A436F4B5B7A1B0213436D4A927A13431A466C4B5A67EEE1694BDA7879
:403C4000694B83F87820E8E1664BDB787B757B7D002B04D0644B012283F87920DDE1624B002283F87920D8E1604B93F900205E4B83F87A20D1E15B4BDA785B4B83F87B200E
:403C8000CBE10023FB7522E0FB7D9B000333554A13441B683B610023BB7512E0FB7D1E339B00514A13441A1DBB7DC3F103031344BA7D07F110010A4412781A70BB7D01333C
:403CC000BB75BB7D032BE9D9FB7D0133FB75FB7D052BD9D9A1E1434BDB781A06414B1B791B041A433F4B5B791B0213433D4A927913433D4AC2F898303B4BD3F898303A4A78
:403D000092F837209340384AC2F8983085E1374B1B683B610023FB750DE0FB7DC3F10303334A1344FA7D07F110010A4412781A70FB7D0133FB75FB7D032BEED96DE12B4B0F
:403D40001B683B610023FB750DE0FB7DC3F10303284A1344FA7D07F110010A4412781A70FB7D0133FB75FB7D032BEED91E4BD3F8A030214918460EF09DFB03461A461A4BCE
:403D8000C3F8A02049E1194B1B683B610023FB750DE0FB7DC3F10303184A1344FA7D07F110010A4412781A70FB7D0133FB75FB7D032BEED931E10B4BDB787B757B7D002B37
:403DC00004D0094B012283F8A82026E1064B002283F8A82021E1034BDA78034B83F8A9201BE100BF6C93FF1FE896FF1F6F93FF1F8497FF1F8897FF1F00007A448C97FF1F3B
:403E0000884BDB787B757B7D002B01D005F090FC872007F0C7FB03467B757B7D1B09DBB21A46920013445B00DAB27B7D03F00F03DBB21344DAB27C4B83F89520892007F081
:403E4000B1FB03467B757B7D1B09DBB21A46920013445B00DAB27B7D03F00F03DBB21344DAB2714B83F896208D2007F09BFB03467B757B7D1B09DBB21A46920013445B006A
:403E8000DAB27B7D03F00F03DBB21344DAB2664B83F89720C1E00023FB750CE0FB7DFA7D03326049895C604A13440A4683F81021FB7D0133FB75FB7D052BEFD95A4B93F89B
:403EC00010315A4AA2FB0323DB08DBB21B01D8B2554B93F81021554BA3FB0213D9080B469B000B445B00D31ADBB20344DBB21946862007F025FB4C4B93F811314B4AA2FBDE
:403F00000323DB08DBB21B01D8B2474B93F81121464BA3FB0213D9080B469B000B445B00D31ADBB20344DBB21946882007F008FB3D4B93F812313D4AA2FB0323DB08DBB2DC
:403F40001B01D8B2384B93F81221384BA3FB0213D9080B469B000B445B00D31ADBB20344DBB219468C2007F0EBFA2F4B93F813312E4AA2FB0323DB08DBB21B01D8B22A4B69
:403F800093F81321294BA3FB0213D9080B469B000B445B00D31ADBB20344DBB21946842007F0CEFA204B93F81431204AA2FB0323DB08DBB21B01D8B21B4B93F814211B4B8A
:403FC000A3FB0213D9080B469B000B445B00D31ADBB20344DBB21946822007F0B1FA124B93F81531114AA2FB0323DB08DBB21B01D8B20D4B93F815210C4BA3FB0213D90840
:404000000B469B000B445B00D31ADBB20344DBB21946802007F094FA00BF00BF1837BD4680BD00BF6C93FF1FE896FF1FCDCCCCCC80B582B000AF0023FB7131E0FB79FA79C5
:40404000520001321D498A5C120211B2FA79013252001A48825C12B20A4312B21146184A0E339B0013445960F979FB79144A0E339B0013445B68FA791148024492F83720B9
:4040800003FA02F20E4801F10E039B0003445A60FB790C4A134400221A75FB790133FB71FB79022BCAD9084B01221A70012001F015FF00BF0837BD4680BD00BF6C93FF1FB0
:4040C000E896FF1F2C94FF1FA494FF1F2DE9F043A1B004AF7860C54B5B78FA2B01F091827B6800221A7078680FF06FF903461A467B681344BE4A1188927819809A707868D8
:404100000FF063F903461A467B681344B94A1D4614460FCC28606960AA60EB602388A2782B821346AB7478680FF04FF903461A467B681344B04A14469E4604F1200C7546F8
:4041400026460FCE28606960AA60EB6010340EF1100E6445F3D1734622461068186012791A7178680FF031F903461A467B681344A24A1068186092889A8078680FF025F962
:4041800003461A467B6813449D4A1C46134607CB20606160A2601B88A381944B5B781A4607F10803974918460FF0DCF807F10803194678680FF0FAF878680FF006F903461E
:4041C0001A467B681344904A1D4614460FCC28606960AA60EB6003CC286169612388A2782B831346AB76814B93F87B30012B0CD178680FF0EAF803461A467B681344834A82
:404200001068186012791A7109E078680FF0DDF803461A467B6813447D4A106818607D4B1B781A4607F108037B4918460FF09AF807F10803194678680FF0B8F878680FF000
:40424000C4F803461A467B681344694A1188927819809A7078680FF0B8F803461A467B6813446E4A1C46134607CB20606160A2601B78237378680FF0A8F803461A467B6878
:404280001344674A1C4615460FCD20606160A260E360644B93F83630022B10D178680FF094F803461A467B6813445F4A1C46134607CB20606160A2601B88A38124E0594BF3
:4042C00093F83630012B0FD178680FF07EF803461A467B68134455491A460B4603CB106051601B7813720FE078680FF06EF803461A467B6813444E4A1C46134607CB206077
:404300006160A2601B88A381464B93F83630022B0ED1484B5A6807F10803474918460FF021F807F10803194678680FF03FF826E03C4B93F83630012B0ED13E4B9A6807F183
:4043400008033D4918460FF00DF807F10803194678680FF02BF812E0364B1B68234A92F8372043FA02F207F10803334918460EF0F9FF07F10803194678680FF017F878686E
:404380000FF023F803461A467B681344184A1188927819809A7078680FF017F803461A467B681344124A1188927819809A7007F10803224A1C4613460FCB84E80F001D4BFE
:4043C0001B7B03F00103002B3CD007F1080318460EF0FBFF03461A4607F108031344184A1068186092889A803BE000BFA894FF1F50580100545801006858010090580100E3
:4044000098580100A8580100B4580100D0580100D85801001C96FF1FDC580100EC580100FC580100E896FF1F0C5901001C59010028590100EC95FF1F385901003C590100C3
:404440004C59010007F1080318460EF0BEFF03461A4607F1080313449B4A1068186012791A7107F10803194678680EF09FFF78680EF0ABFF03461A467B681344934A1D4603
:4044800014460FCC28606960AA60EB6020682861A388AB8278680EF098FF03461A467B6813448B4A1C4615460FCD20606160A260E3600023FB6626E0FB6E5C1C854AFB6EC9
:4044C00052F823308449FA6E0A4437321278134107F10800224681490EF044FF07F10803194678680EF062FF78680EF06EFF03461A467B6813447A4A1188927819809A7009
:40450000FB6E0133FB66FB6E022BD5DD754B1A6807F10803744918460EF024FF07F10803194678680EF042FF78680EF04EFF03461A467B6813446A4A1188927819809A702B
:404540006A4B1A6807F10803694918460EF00AFF07F10803194678680EF028FF78680EF034FF03461A467B6813445D4A1188927819809A705F4B1A6807F108035E4918466E
:404580000EF0F0FE07F10803194678680EF00EFF78680EF01AFF03461A467B681344504A1188927819809A704A4BDA6807F10803524918460EF0D6FE07F108031946786821
:4045C0000EF0F4FE78680EF000FF03461A467B681344434A1188927819809A7078680EF0F4FE03461A467B681344454A1D4614460FCC28606960AA60EB6020682861A3887C
:40460000AB8278680EF0E1FE03461A467B6813443C4A1D4614460FCC28606960AA60EB6023882B822C4B93F83630032B74D02A4B5B6818460DF02CFA4FF00002324B0DF043
:40464000B7FB03460C4607F108001A4623462F490EF088FE07F10803194678680EF0A6FE1D4B9B6818460DF013FA4FF00002264B0DF09EFB03460C4607F108001A462346C5
:4046800023490EF06FFE07F10803194678680EF08DFE114BDB6818460DF0FAF94FF00002194B0DF085FB03460C4607F108001A46234618490EF056FE07F1080319467868F0
:4046C0000EF074FE73E000BF545901005C590100745901002C94FF1FA894FF1F8459010050580100C898FF1F905901003C98FF1FAC5901002894FF1FD0590100F459010095
:40470000085A0100205A01000000F040345A0100405A01004C5A0100C44BDB6918460DF0B7F94FF00002C24B0DF042FB03460C4607F108001A462346BE490EF013FE07F142
:404740000803194678680EF031FEB84B1B6A18460DF09EF94FF00002B54B0DF029FB03460C4607F108001A462346B3490EF0FAFD07F10803194678680EF018FEAB4B5B6A80
:4047800018460DF085F94FF00002A94B0DF010FB03460C4607F108001A462346A7490EF0E1FD07F10803194678680EF0FFFD78680EF00BFE03461A467B681344A04A1D4660
:4047C00014460FCC28606960AA60EB6003CC2861696123882B83954B93F83630032B4BD0924B1B6918460DF053F94FF00002904B0DF0DEFA03460C4607F108001A462346EC
:404800008C490EF0AFFD07F10803194678680EF0CDFD864B5B6918460DF03AF94FF00002834B0DF0C5FA03460C4607F108001A46234681490EF096FD07F108031946786800
:404840000EF0B4FD794B9B6918460DF021F94FF00002774B0DF0ACFA03460C4607F108001A46234675490EF07DFD07F10803194678680EF09BFD4AE06C4B9B6A18460DF0F3
:4048800007F94FF000026A4B0DF092FA03460C4607F108001A46234666490EF063FD07F10803194678680EF081FD604BDB6A18460DF0EEF84FF000025D4B0DF079FA034677
:4048C0000C4607F108001A4623465B490EF04AFD07F10803194678680EF068FD534B1B6B18460DF0D5F84FF00002514B0DF060FA03460C4607F108001A4623464F490EF095
:4049000031FD07F10803194678680EF04FFD78680EF05BFD03461A467B681344494A1188927819809A70414B93F83430012B14D178680EF04AFD03461A467B681344424AAB
:404940001D4614460FCC28606960AA60EB6003CC2861696123882B8313E078680EF035FD03461A467B681344384A1D4614460FCC28606960AA60EB6003CC2861696123781B
:404980002B762A4B93F83530052B00F2AE8001A252F823F0AD490000D1490000F94900005D4A00008D4A0000BB4A000078680EF00CFD03461A467B681344254A1D461446D6
:4049C0000FCC28606960AA60EB6023882B828CE078680EF0FAFC03461A467B6813441D4A1D4614460FCC28606960AA60EB602068286123792B7578E078680EF0E6FC034668
:404A00001A467B681344144A1D4614460FCC28606960AA60EB6007CC28616961AA612388A278AB831346AB775FE000BFA894FF1F0000F040345A0100405A01004C5A010048
:404A4000585A010050580100745A0100905A0100AC5A0100C05A0100D85A010078680EF0B4FC03461A467B681344C24A1D4614460FCC28606960AA60EB6003CC28616961EE
:404A80002388A2782B831346AB762EE078680EF09CFC03461A467B681344B74A1C4615460FCD20606160A260E36028682061AB88AA79A3821346A37517E078680EF085FC2F
:404AC00003461A467B681344AC4A1D4614460FCC28606960AA60EB6003CC286169612388A2782B831346AB7600BFA54B93F83630032B64D801A252F823F000BF0D4B00006F
:404B0000374B00005B4B0000814B000078680EF05CFC03461A467B6813449A4A1D4614460FCC28606960AA60EB6003CC2861696123782B7644E078680EF047FC03461A46FA
:404B40007B681344904A1D4614460FCC28606960AA60EB602068286132E078680EF035FC03461A467B681344884A1D4614460FCC28606960AA60EB6003CC286169611FE09D
:404B800078680EF022FC03461A467B681344804A14469E4604F1200C754626460FCE28606960AA60EB6010340EF1100E6445F3D1734622461068186012791A7100E000BFAF
:404BC0006F4B93F87930002B1CD078680EF0FDFB03461A467B6813446E4A14469E4604F1200C754626460FCE28606960AA60EB6010340EF1100E6445F3D1734622461278BD
:404C00001A7013E078680EF0E0FB03461A467B681344614A1C4615460FCD20606160A260E3600FCD20616161A261E361544B93F97A301A4607F10803584918460EF092FB69
:404C400007F10803194678680EF0B0FB78680EF0BCFB03461A467B681344514A1D4614460FCC28606960AA60EB602068286123792B750023FB6621E0FB6E591C404AFB6E55
:404C8000134437331B7807F108000A4645490EF069FB07F10803194678680EF087FB78680EF093FB03461A467B6813443E4A1188927819809A70FB6E0133FB66FB6E022BED
:404CC000DADD78680EF081FB03461A467B681344364A1D4614460FCC28606960AA60EB6020682861A388AB820023FB6628E0FB6E5C1C234AFB6E0E339B0013445B682049F7
:404D0000FA6E0A4437321278134107F10800224627490EF027FB07F10803194678680EF045FB78680EF051FB03461A467B6813441D4A1188927819809A70FB6E0133FB6646
:404D4000FB6E022BD3DD78680EF03FFB03461A467B681344174A1D4614460FCC28606960AA60EB6003CC2861696123882B830023FB664AE0F85A0100145B01002C5B0100DF
:404D8000A894FF1F485B0100645B0100785B0100905B0100B85B0100DC5B0100FC5B0100185C01008459010050580100305C0100485C0100545C0100FB6E5D1CB34AFB6EAA
:404DC000123352F8233018460CF074FE03460C4607F10800CDE900342A46AD490EF0C2FA07F10803194678680EF0E0FA78680EF0ECFA03461A467B681344A64A118892780C
:404E000019809A70FB6E0133FB66FB6E022BD3DD78680EF0DAFA03461A467B6813449E4A1D4614460FCC28606960AA60EB6003CC28616961954BDB6F18460CF03BFE80462B
:404E40008946924BD3F8803018460CF033FE04460D468E4BD3F8843018460CF02BFE02460B4607F10800CDE90223CDE9004542464B468A490EF076FA07F1080319467868FD
:404E80000EF094FA814BD3F8883018460CF012FE804689467D4BD3F88C3018460CF00AFE04460D46794BD3F8903018460CF002FE02460B4607F10800CDE90223CDE90045B2
:404EC00042464B4676490EF04DFA07F10803194678680EF06BFA78680EF077FA03461A467B6813446B4A1188927819809A706D4B93F854301A4607F108036B4918460EF089
:404F000031FA07F10803194678680EF04FFA78680EF05BFA03461A467B6813445D4A1188927819809A705F4B9B6D5E4A92F8372043FA02F207F108035C4918460EF012FA3E
:404F400007F10803194678680EF030FA554BDB6D544A92F8372043FA02F207F10803544918460EF0FFF907F10803194678680EF01DFA4C4B5A6E4B4B1B6E07F108004D49D0
:404F80000EF0F0F907F10803194678680EF00EFA78680EF01AFA03461A467B6813443D4A1188927819809A703E4BB3F968301A4607F10803404918460EF0D4F907F108033B
:404FC000194678680EF0F2F978680EF0FEF903461A467B6813442F4A1188927819809A70304BB3F86A301A462E4BB3F86C3007F1080032490EF0B6F907F1080319467868C8
:405000000EF0D4F978680EF0E0F903461A467B681344204A1188927819809A70214B1A6F204B5B6F07F1080025490EF09BF907F10803194678680EF0B9F978680EF0C5F9A3
:4050400003461A467B681344124A1188927819809A70144B93F86E30002B35D078680EF0B4F903461A467B681344164A1D4614460FCC28606960AA60EB6003CC28616961C5
:405080002388A2782B831346AB7631E0A894FF1F705C0100505801007C5C0100945C0100B05C0100E896FF1FCC5C0100E85C01000C5D01001C5D0100385D01004C5D01001D
:4050C000705D0100945D010078680EF07EF903461A467B681344AF4A1D4614460FCC28606960AA60EB6003CC2861696123882B83A94B93F878301A4607F10803A74918462E
:405100000EF030F907F10803194678680EF04EF978680EF05AF903461A467B681344A04A1188927819809A709B4BD3F89C3018460CF0C0FC03460C4607F108001A46234686
:4051400098490EF00FF907F10803194678680EF02DF978680EF039F903461A467B6813448F4A1188927819809A708B4BD3F8A0308D4918460DF0EAF8034618460CF09AFC13
:4051800003460C4607F108001A46234687490EF0E9F807F10803194678680EF007F978680EF013F903461A467B6813447C4A1188927819809A70784BD3F898307C4A92F81D
:4051C000372043FA02F207F108037A4918460EF0C9F807F10803194678680EF0E7F878680EF0F3F803461A467B6813446C4A1188927819809A70684BD3F8A43018460CF0D1
:4052000059FC03460C4607F108001A4623466A490EF0A8F807F10803194678680EF0C6F878680EF0D2F803461A467B6813445C4A1188927819809A70786800F0FFF95F4B7D
:405240001B781A4607F108035D4918460EF08AF807F10803194678680EF0A8F878680EF0B4F803461A467B6813444D4A1188927819809A7078680EF0A8F803461A467B6880
:405280001344504A1D4614460FCC28606960AA60EB602068286123792B750023FB667DE1494AFB6E13441B7807F10800FA6E47490EF058F807F10803194678680EF076F8B6
:4052C00007F10803424A1C4615460FCD0FC42B6823803D4AFB6E13441B781946344A0B469B000B44134403F221131B78002B0FD007F1080318460EF068F803461A4607F10E
:4053000008031344334A1068186092889A800EE007F1080318460EF058F803461A4607F1080313442C4A1068186012791A7107F1080318460EF049F803461A4607F1080302
:405340001344264A1C46134607CB20606160A2601B88A3811C4AFB6E13441B781946144A0B469B000B44134403F591731B78002B36D007F1080318460EF027F803461A46E0
:4053800007F108031344134A1068186092889A8035E000BFB05D0100E896FF1FCC5D010050580100E05D010000007A44FC5D0100A894FF1F245E0100385E01006893FF1FDE
:4053C000485E01005C5E01002094FF1F745E0100885E01004C590100545901009C5E010007F1080318460DF0F0FF03461A4607F108031344854A1068186012791A7107F153
:40540000080318460DF0E1FF03461A4607F1080313447F4A1D4614460FCC28606960AA60EB6023782B747B4AFB6E13441B781946794A0B469B000B44134403F223131B7858
:40544000002B0FD007F1080318460DF0BEFF03461A4607F108031344704A1068186092889A800EE007F1080318460DF0AEFF03461A4607F108031344644A10681860127901
:405480001A7107F1080318460DF09FFF03461A4607F108031344624A1C46134607CB20606160A2601B88A3815A4AFB6E13441B781946594A0B469B000B44134403F5927397
:4054C0001B78002B0FD007F1080318460DF07DFF03461A4607F108031344504A1068186092889A800EE007F1080318460DF06DFF03461A4607F108031344444A106818603B
:4055000012791A7107F1080318460DF05EFF03461A4607F108031344424A1C46134607CB20606160A2601A889B78A281A373394AFB6E13441B781946374A0B469B000B445C
:40554000134403F225131B78002B0FD007F1080318460DF03AFF03461A4607F1080313442E4A1068186092889A800EE007F1080318460DF02AFF03461A4607F1080313445C
:40558000224A1068186012791A7107F10803194678680DF00BFFFB6E0133FB66224B1B781A46FB6E9A423FF77BAE78680DF00DFF03461A467B6813441C4A118892781980C0
:4055C0009A70786800F0EAF9194B1A68194B1B68D21A07F10803184918460DF0C3FE07F10803194678680DF0E1FE78680DF0EDFE03461A467B6813440C4A1188927819805A
:405600009A7000BF7437BD46BDE8F08354590100AC5E01002094FF1FA894FF1F4C590100C05E0100D05E01006893FF1F505801001094FF1F2494FF1FE05E0100F0B5A3B071
:4056400004AF786078680DF0C0FE03461A467B681344C34A1D4614460FCC28606960AA60EB602068286123792B7578680DF0ADFE03461A467B681344BA4A118892781980DE
:405680009A70B94B93F895301A46B74B93F896301946B54B93F8973007F10C0000930B46B2490DF05FFE07F10C03194678680DF07DFEAD4B93F810311D46AB4B93F8113143
:4056C0001E46A94B93F812311A46A74B93F813311946A54B93F814311C46A34B93F8153107F10C00039302940191009233462A469F490DF037FE07F10C03194678680DF089
:4057000055FE07F10C039B4A1C4615460FCD0FC495E80F0007C4238002341B0C237007F10C03194678680DF041FE8F4BDB6D8E4A92F837201341904A82FB03129210DB1723
:40574000D31A3B6701237B6721E07B6F013B3A6F02FB03F35C1C3B6F7A6F02FB03F37A6F013A8149323251F8222007F10C000192009323467A6F81490DF0F4FD07F10C03BB
:40578000194678680DF012FE7B6F01337B677B6F0A2BDADD78680DF018FE03461A467B681344704A1188927819809A7007F10C03734A1C4615460FCD0FC495E8070003C476
:4057C000228007F10C03194678680DF0EFFD664BB3F96830002B00DA03339B101BB23B6701237B6720E07B6F013B3A6F02FB03F43B6F7A6F02FB03F37A6F013A5A493C320A
:4058000051F8222007F10C000192009323467A6F5C490DF0A7FD07F10C03194678680DF0C5FD7B6F01337B677B6F042BDBDD78680DF0CBFD03461A467B681344494A118891
:40584000927819809A70484BD3F8C020464BD3F8C43007F10C004C490DF084FD07F10C03194678680DF0A2FD78680DF0AEFD03461A467B6813443B4A1188927819809A70BE
:40588000394BD3F8002107F10C03404918460DF069FD07F10C03194678680DF087FD78680DF093FD03461A467B6813442D4A1188927819809A702C4BD3F8042107F10C03E5
:4058C000334918460DF04EFD07F10C03194678680DF06CFD78680DF078FD03461A467B681344204A1188927819809A701E4BD3F8082107F10C03274918460DF033FD07F19E
:405900000C03194678680DF051FD78680DF05DFD03461A467B681344124A1188927819809A70114BD3F80C2107F10C031A4918460DF018FD07F10C03194678680DF036FD6E
:4059400078680DF042FD03461A467B681344054A1188927819809A7000BF7C37BD46F0BDF05E010050580100E896FF1F085F01002C5F0100505F010067666666705F0100D0
:40598000885F0100A45F0100C05F0100E45F0100046001002C6001004C6001002DE9B04FD4B006AF3B1D18603B1D18680DF00DFD03461A463B1D1B681344C94A1C46134652
:4059C00007CB20606160A2601A889B78A281A3730023C7F8343166E1C24AD7F8343113441B7807F10800D7F83421BF490DF0BAFC07F108023B1D114618680DF0D7FCB94A09
:405A0000D7F8343113441B781946B84A0B469B000B44134403F221131B78002B31D0B449D7F8342113469B001344DB000B440233B3F900301C46AE49D7F8342113469B0055
:405A40001344DB000B440433B3F900301D46A849D7F8342113469B001344DB000B440633B3F9003007F1080000932B462246A1490DF078FC07F108023B1D114618680DF09B
:405A800095FC984AD7F8343113441B781946974A0B469B000B44134403F591731B78002B31D09349D7F8342113469B001344DB000B440833B3F900301C468D49D7F83421E0
:405AC00013469B001344DB000B440A33B3F900301D468749D7F8342113469B001344DB000B440C33B3F9003007F1080000932B46224681490DF036FC07F108023B1D11461B
:405B000018680DF053FC774AD7F8343113441B781946764A0B469B000B44134403F223131B78002B31D07249D7F8342113469B001344DB000B440E33B3F900301C466C4997
:405B4000D7F8342113469B001344DB000B441033B3F900301D466649D7F8342113469B001344DB000B441233B3F9003007F1080000932B46224661490DF0F4FB07F108029D
:405B80003B1D114618680DF011FC564AD7F8343113441B781946554A0B469B000B44134403F592731B78002B4FD05149D7F8342113469B001344DB000B4414331B68184629
:405BC0000BF078FF82468B464949D7F8342113469B001344DB000B4418331B6818460BF069FF04460D464249D7F8342113469B001344DB000B441C331B6818460BF05AFF9B
:405C0000804689463A49D7F8342113469B001344DB000B4420331B6818460BF04BFF02460B4607F10800CDE90423CDE90289CDE9004552465B4632490DF094FB07F1080246
:405C40003B1D114618680DF0B1FB264AD7F8343113441B781946254A0B469B000B44134403F225131B78002B18D02149D7F8342113469B001344DB000B442433B3F9003055
:405C80001A4607F108031F4918460DF06BFB07F108023B1D114618680DF088FBD7F834310133C7F83431184B1B781A46D7F834319A423FF791AE3B1D18680DF086FB0346A1
:405CC0001A463B1D1B681344104A1188927819809A7000BF07F59C77BD46BDE8B08F00BF706001002094FF1F745E0100A894FF1F4898FF1F8060010094600100A860010051
:405D0000BC600100DC6001006893FF1F5058010080B584B000AF78600B467B8013467B703A2007F043FA3A2007F040FA7B78184607F03CFA7B88DBB2184607F037FA0023F7
:405D4000FB8109E0FB897A6813441B78184607F02DFAFB890133FB81FA897B889A42F1D30023FB8100BF07F015FA034603F00103002B05D1FB895A1CFA81B3F57A7FF2D912
:405D8000012006F0B5FE002006F0B2FE00BF1037BD4680BD80B584B000AF78600B467B803A2007F003FA3A2007F000FA1A4B5B78184607F0FBF97B88DBB2184607F0F6F9E3
:405DC0000023FB8109E0FB897A6813441B78184607F0ECF9FB890133FB81FA897B889A42F1D30023FB8100BF07F0D4F9034603F00103002B05D1FB895A1CFA81B3F57A7FBE
:405E0000F2D9012006F074FE002006F071FE00BF1037BD4680BD00BFE896FF1F80B584B000AF78600B467B803A2007F0BFF93A2007F0BCF9184B5B78013BDBB2184607F049
:405E4000B5F97B88DBB2184607F0B0F90023FB8109E0FB897A6813441B78184607F0A6F9FB890133FB81FA897B889A42F1D30023FB8100BF07F08EF9034603F00103002B79
:405E800005D1FB895A1CFA81B3F57A7FF2D900BF1037BD4680BD00BFE896FF1F80B485B000AF78600B46FB700023BB730023FB7309E0FB7B7A6813441A78BB7B5340BB73DB
:405EC000FB7B0133FB73FA7BFB789A42F1D3BB7B18461437BD4680BC704700BF80B584B000AF0346FB710223FB60FB793B72FB797B72FB689AB207F1080311461846FFF742
:405F000049FF00BF1037BD4680BD00BF80B586B000AF78600123FB7407F054FA002006F0B1FC08F07FF81D4A1D4B104619464FF498731A460CF042FC1323FB6000237B611C
:405F400018E07B691B011A46154BD0187B69DAB27B68DBB21344DBB2194606F0C9FC0346FB72FB7A002B02D00023FB7406E07B6901337B617A69FB689A42E2DB084A074B8C
:405F8000104619464FF498731A460CF017FC07F00DFAFB7C18461837BD4680BDA894FF1FE896FF1F80B582B000AF0023FB800CE0FB88124A1344124A1168FA880A44127812
:405FC000D2B21A70FB880133FB80FB88B3F5987FEED30A4B1B78002B02D100F015F808E0084A064B104619464FF498731A460CF0E5FB00BF0837BD4680BD00BFE896FF1F18
:40600000CC80FF1FA894FF1F80B582B000AF0023FB800EE0FB88114A1344114A1168FA8802F548720A441278D2B21A70FB880133FB80FB88B3F5987FECD3084B1B78002B94
:4060400003D100F00FF8034603E00020FFF75EFF034618460837BD4680BD00BFE896FF1FCC80FF1F80B582B000AFBC4B01225A70BA4B40F2D7325A60B84B00229A60B74BA6
:406080004FF4E572DA60B54B4FF480321A61B34B41225A61B14B00229A61B04B41F69912DA61AE4B00221A62AC4B00225A62AB4B44F6CC429A62A94B0D22DA62A74B002236
:4060C0001A63A64B012283F83420A44B042283F83520A24B002283F83620A04B012283F854209E4B002283F87B209C4B00229A659A4B93F837301A4645F2F0539340974AF0
:40610000D3650023FB7116E0FB79944A1344032283F83720FB79914A12334FF07E5142F82310FB798D4A0E339B00134400225A60FB790133FB71FB79022BE5D9874B002232
:406140005A66864B00221A66844B40F2DC52A3F86820824B002283F86E20804B4FF480621A677E4B4FF480625A677C4BC822A3F86A207A4BC822A3F86C20784B642283F812
:406180007820764B002283F87920744B162283F87A200023FB710AE0FB79704A1E339B0013444FF000025A60FB790133FB71FB79052BF1D9694B93F837301A4641F6583315
:4061C0009340664AC2F89830644B654AC3F89C20624B4FF08042C3F8A020604B614AC3F8A4205E4B002283F8A8205C4B002283F8A9200023FB7108E0FB79584A13440022A6
:4062000083F8AA20FB790133FB71FB79152BF3D903F08EFA0023FB7108E0FB794F4A1344002283F81621FB790133FB71FB79092BF3D9872005F0B6F90346FB71FB791B093B
:40624000DBB21A46920013445B00DAB2FB7903F00F03DBB21344DAB2404B83F89520892005F0A0F90346FB71FB791B09DBB21A46920013445B00DAB2FB7903F00F03DBB276
:406280001344DAB2354B83F896208D2005F08AF90346FB71FB791B09DBB21A46920013445B00DAB2FB7903F00F03DBB21344DAB22A4B83F897200023FB7134E0FA79274905
:4062C00013469B0013440B4403F2211301221A70FA79224913469B0013440B4403F5917301221A70FA791D4913469B0013440B4403F2231300221A70FA79184913469B00FB
:4063000013440B4403F5927300221A70FA79134913469B0013440B4403F2251300221A70FB790133FB71FB79022BC7D90B4B01221A700020FFF7EAFD0346002B07D03220DA
:40634000FFF7E4FD0346002B01D0012300E00023DBB218460837BD4680BD00BFE896FF1F00409C450000A04080B584B000AF84233B710323FB7323E0FB7B1C4A52F8233099
:40638000FA7B1B490A4492F8372013411BB2BB81FB7B5B00023307F10C02127807F110010B4403F80C2CFB7B5B005A1C07F10C030133197807F1100313440A4603F80C2C5F
:4063C000FB7B5A1EFA73002BD6D13B1D07211846FFF764FD0346FB723B1D08211846FFF7D9FC00BF1037BD4680BD00BF2096FF1FE896FF1F80B584B000AF89233B710323D0
:40640000FB7324E0FB7B1C4A083352F82330FA7B1A490A4492F8372013411BB2BB81FB7B5B00023307F10C02127807F110010B4403F80C2CFB7B5B005A1C07F10C0301332F
:40644000197807F1100313440A4603F80C2CFB7B5A1EFA73002BD5D13B1D07211846FFF71DFD0346FB723B1D08211846FFF792FC00BF1037BD4680BD2096FF1FE896FF1FBD
:4064800080B584B000AF8B233B710323FB7325E0FB7B1D4A0A339B0013445B68FA7B1B490A4492F8372013411BB2BB81FB7B5B00023307F10C02127807F110010B4403F8B4
:4064C0000C2CFB7B5B005A1C07F10C030133197807F1100313440A4603F80C2CFB7B5A1EFA73002BD4D13B1D07211846FFF7D6FC0346FB723B1D08211846FFF74BFC00BF0A
:406500001037BD4680BD00BF2096FF1FE896FF1F80B483B000AF284B5B781B021AB2264B9B781BB21343FB80244B93F83630022B04D1B7F90630224A536015E01F4B93F8ED
:406540003630012B04D1B7F906301D4A93600BE0B7F906301A4A1360194B1B68174A92F837209340164A1360164B93F85430002B1DD0124B93F83630032B04D00F4B93F840
:406580003630002B13D10E4B1A680E4B9B6D9A4203DA0C4B9B6D0A4A1360094B1A68094BDB6D9A4203DD074BDB6D054A136000BF0C37BD4680BC70476C93FF1FE896FF1F10
:4065C000FC95FF1FA894FF1F80B500AF0C4B5A780C4B1A730C4B93F83630002B04D00A4B93F83630032B03D1084B1B68054A1360044B1B7B184606F08BFA00BF80BD00BF01
:406600006C93FF1FFC95FF1FE896FF1F2C94FF1F80B582B000AF81233B71094B1B7B7B713B1D02211846FFF739FC0346BB713B1D03211846FFF7AEFB00BF0837BD4680BDA8
:40664000EC95FF1F80B584B000AF86233B702B4BDB681BB2BB8107F10C031B78BB7007F10C0301331B787B70244B1B691BB2BB8107F10C031B783B7107F10C0301331B78BF
:40668000FB700323FB7323E0FB7B1C4A52F82330FA7B1B490A4492F8372013411BB2BB81FB7B5B00063307F10C02127807F110010B4403F8102CFB7B5B005A1D07F10C0382
:4066C0000133197807F1100313440A4603F8102CFB7B5A1EFA73002BD6D13B460B211846FFF7DCFB0346FB723B460C211846FFF751FB00BF1037BD4680BD00BF2096FF1F0A
:40670000E896FF1F80B584B000AF85233B72144BDB681BB2FB80BB1D1B78BB72BB1D01331B787B720E4B1B691BB2FB80BB1D1B783B73BB1D01331B78FB7207F108030521CF
:406740001846FFF7ABFB03467B7307F1080306211846FFF71FFB00BF1037BD4680BD00BF2096FF1F80B582B000AF8E233B710D4B1B691BB27B80BB1C1B78BB71BB1C0133BF
:406780001B787B713B1D03211846FFF787FB0346FB713B1D04211846FFF740FB00BF0837BD4680BD2096FF1F80B500AF094B5A78094B83F89420074B5B780D2B04D1012154
:4067C0000C2006F00BFE03E00121022006F006FE00BF80BD6C93FF1FA894FF1F80B582B000AF00233B7100237B713B1D02211846FFF7D0FA00BF0837BD4680BD80B584B0A6
:4068000000AF83233B72104B1B68104A92F8372013411BB2FB80BB1D1B78BB72BB1D01331B787B7207F1080305211846FFF736FB03467B7307F1080306211846FFF7AAFA76
:4068400000BF1037BD4680BD1898FF1FE896FF1F80B584B000AF0223FB73464B93F83530002B4ED1434BDB6BBB60424B9B6C7B60414B1B6818460BF015FD03467968184692
:406880000BF018FE034618460BF026FF02463A4B1A60394B1B6818460BF004FD0246374B9B6C194610460BF051FD034618460BF013FF0246304B1A602F4B1B681A462F4BC1
:4068C000DB6B1946BB68CB1A13441A462A4B1A60284B93F85430002B13D0274B1A68254B9B6D9A4203DA234B9B6D234A1360224B1A68204BDB6D9A4203DD1E4BDB6D1E4AC3
:4069000013601C4B5A781D4B5B789A4220D0194B5B78FB700020FFF7F9FA0346002B0BD001233B7001237B70FB7B99B2FA783B461846FFF7EDF918E000233B7000237B700A
:40694000FB7B99B2FA783B461846FFF7E1F90CE00020FFF7DBFA0346002B03D00120FFF7BDFA02E00020FFF7B9FA00BF1037BD4680BD00BFA894FF1FFC95FF1FE896FF1FF4
:4069800080B584B000AF88233B72144B9B691BB2FB80BB1D1B78BB72BB1D01331B787B720E4BDB691BB2FB80BB1D1B783B73BB1D01331B78FB7207F1080305211846FFF711
:4069C0006DFA03467B7307F1080306211846FFF7E1F900BF1037BD4680BD00BF2096FF1F90B5E3B000AF012387F88631002387F88531012387F8843107F11C03A1221A70D3
:406A0000002387F887317EE23B1D3A221A7097F88731DA4AD35C1946D94A0B469B000B44134403F221131B78002B5DD097F88721D44913469B001344DB000B440233B3F9F2
:406A40000030A7F8823197F88631013307F5C17211783A1DD15497F8862107F5C173013319783B1D995497F88721C64913469B001344DB000B440433B3F90030A7F8823156
:406A800097F88631033307F5C17211783A1DD15497F886319A1C07F5C173013319783B1D995497F88721B74913469B001344DB000B440633B3F90030A7F8823197F8863197
:406AC000053307F5C17211783A1DD15497F886311A1D07F5C173013319783B1D995497F88631063387F8863197F88731A34AD35C1946A34A0B469B000B44134403F5917381
:406B00001B78002B5DD097F887219E4913469B001344DB000B440833B3F90030A7F8823197F88631013307F5C17211783A1DD15497F8862107F5C173013319783B1D995450
:406B400097F887218F4913469B001344DB000B440A33B3F90030A7F8823197F88631033307F5C17211783A1DD15497F886319A1C07F5C173013319783B1D995497F8872109
:406B8000804913469B001344DB000B440C33B3F90030A7F8823197F88631053307F5C17211783A1DD15497F886311A1D07F5C173013319783B1D995497F88631063387F8C3
:406BC000863197F887316D4AD35C19466C4A0B469B000B44134403F223131B78002B5DD097F88721674913469B001344DB000B440E33B3F90030A7F8823197F886310133AF
:406C000007F5C17211783A1DD15497F8862107F5C173013319783B1D995497F88721594913469B001344DB000B441033B3F90030A7F8823197F88631033307F5C1721178BD
:406C40003A1DD15497F886319A1C07F5C173013319783B1D995497F887214A4913469B001344DB000B441233B3F90030A7F8823197F88631053307F5C17211783A1DD154FE
:406C800097F886311A1D07F5C173013319783B1D995497F88631063387F8863197F88731364AD35C1946364A0B469B000B44134403F592731B78002B00F0AB8097F88721F4
:406CC000304913469B001344DB000B4414331B68C7F87C31002387F8853113E097F886311A1D97F88531D31A013B97F8852107F5BE710A4411783A1DD15497F8853101330E
:406D000087F8853197F88531032BE7D997F887211C4913469B001344DB000B4418331B68C7F87C31002387F8853113E097F886311A1D97F88531D31A013B97F8852107F539
:406D4000BE710A4411783A1DD15497F88531013387F8853197F88531032BE7D997F88721084913469B001344DB000B441C331B68C7F87C31002387F8853119E02094FF1F52
:406D8000A894FF1F4898FF1F97F886311A1D97F88531D31A013B97F8852107F5BE710A4411783A1DD15497F88531013387F8853197F88531032BE7D997F8872166491346BD
:406DC0009B001344DB000B4420331B68C7F87C31002387F8853113E097F886311A1D97F88531D31A013B97F8852107F5BE710A4411783A1DD15497F88531013387F885319E
:406E000097F88531032BE7D997F88631103387F8863197F88731514AD35C1946504A0B469B000B44134403F225131B78002B21D097F88721484913469B001344DB000B44AB
:406E40002433B3F90030A7F8823197F88631013307F5C17211783A1DD15497F8862107F5C173013319783B1D995497F88631023387F8863197F88731384AD35C1A46394BE2
:406E800053F82230013B3A1D3A21D154012387F88631002387F8853110E097F8842197F88531134497F88521391D895C07F11C02D15497F88531013387F8853197F8852122
:406EC00097F887312549CB5C1946264B53F821309A42E2DB97F88731204AD35C1A46214B53F82230DAB297F88431134487F884313B1D1622002118460BF06BFC97F8873155
:406F0000013387F88731184B1B7897F887219A42FFF47AAD154B1B685C1E144B1B68DBB2013BDAB207F11C0311461846FEF7B6FF03461A4607F11C031A550C4B1B689AB264
:406F400007F11C0311461846FEF724FF00BF07F5C677BD4690BD00BF4898FF1F2094FF1FA894FF1F7094FF1F6893FF1FFC93FF1F80B400AF034B01221A7000BFBD4680BC38
:406F8000704700BFE481FF1F80B400AF044B01221A70044B1B7800BFBD4680BC704700BFE581FF1F6B65004080B582B000AF0123FB710023BB71D5E006F00AF803467B7138
:406FC0006F4B1B78042B00F2CD8001A252F823F0E56F00004B70000073700000C17000002B710000674B5A78664B1A70654B9A78644B5A70634A7B799370624B5B783A2B94
:4070000010D1604B9B783A2B0CD15E4B00221A705C4B00225A705B4B00229A70584B01221A7011E0574B1B783F2B40F09B80554B5B780D2B40F09680524B9B780A2B40F084
:4070400091800020FBF7DEF88CE04F4B5B787A799A4202D07B79002B02D10023FB7101E00123FB71494B00221A70454B02221A7078E0464A7B791370444B1B78012B06D8A2
:40708000424B00221A703E4B00221A706AE03F4B1B78802B06D93D4B00221A70384B00221A705FE03A4B00221A70FB79002B03D1334B03221A7055E0314B04221A7051E06C
:4070C000334B1B781946334A7B795354304B1B780133DAB22E4B1A702D4B1A782B4B1B789A423FD3FB79002B12D1284B1B781A46284929480BF062FB244B1B781AB2264BD5
:40710000A3F88020244B012283F88420FAF732FE1F4B00221A701D4B00221A70184B00221A70BB790133BB711CE0184B1B78013BDAB2164B1A70154B1B78002B11D1144B71
:4071400000221A70114B00221A70012005F0D0FC002005F0CDFC0A4B00221A70BB790133BB7100BF05F08EFF0346002B03D0BB79052B7FF621AF00BF0837BD4680BD00BFD8
:40718000E881FF1FEC81FF1FA894FF1FEF81FF1FF081FF1FF481FF1F6C93FF1F00000000B0B5ADF6C81D00AF002387F8C73905F02FFE0246BF4B1A603B4600221A60043316
:4071C0004FF41C62002118460BF003FB012005F0BDF9B94B1B78002B07D0B74B00221A70FFF7E2FE012387F8C73900F01BFEB24B1B78002B07D0B04B00221A70FFF7D4FEC0
:40720000012387F8C73900F0E7F9AB4B1B78002B07D0A94B00221A70FFF7C6FE012387F8C73901F049F8A44B1B78002B07D0A24B00221A70FFF7B8FE012387F8C73901F0C4
