:400000000080002011000000A9020000A9020000044A08B51268044B1A6000F0ADF900F04BF900BFFA460040BC76004010B5054C237833B9044B13B10448AFF300800123AE
:40004000237010BD4881FF1F000000001C170000084B10B51BB108490848AFF300800848036803B910BD074B002BFBD0BDE81040184700BF000000004C81FF1F1C170000A2
:40008000C880FF1F0000000008B500F077FDFEE7F8B572B66D4E0024354604EB4403AA8856F813000134002101F02CFB0A2C05F10605F2D1664E674B96E803008022186073
:4000C0009980654806F1080101F0F6FA06F1840706F1E00E0025E43657F8043F13F0FF0C23F0FF0414D00CF1FF3C5FFA8CFC05EB0C0006EB400006EB45030330013313F828
:40010000012C13F8021B98421155F8D1013565447745E1D1514C41F251262278504F42F0020222703A784F4D42F002023A702A78A4F5863442F040022A70413C2278A7F5E8
:400140007E4742F01002484B2270513F04F66E5403CB3860796003CBC5F8720DC5F8761D93E8070003C4414922800B7805F58C6543F008030B703E4C3E4861232B70A7F604
:40018000C2673D4A332118250223218005704FF040243B7008210320384B217010701A783748384BD2B287F8A123A4F8221206801C784FF4F07004F001041E4600F0D0FF91
:4001C00001E0032C0DD033784FF4F07003F0010343EA440400F0C4FF013D04F00304F0D1FEE7294B294D2A4F2A484FF4807407221C8000211A704826274A022439702E70FE
:4002000019700470137800F5F820033043F00103812601242149137085F8F86704700B78A0F5F420DBB21E49A0F2967005F5C35503F007071B4C1B090770023A0B700E35EF
:4002400044260FCA2E7007C42380F8BD201700005C17000060520040001A01400350014013500140A04300407C1B0000224300408040004082400040004200400801004916
:40028000204200402542004004400040084000400640004001400040A2430040CF0100496F580040B043004008B501F0D9F903680C2B00D0FEE7FEE780B5134FF7B1134E0E
:4002C000002556F80C0C56F8084C56F8102C03463CB1043A52F8041F43F8041B191AA142F8D156F8040C1A4620B142F8045BD11A8842FAD1013F06F11006E2D101F0B6F9E5
:40030000FFF7C2FEFEE700BF01000000D81B00000E4B0F4A0F491A600B680F4A43F400730E480B600023032B94BF50F823100C490133302B42F8041FF5D10A4B0A49187856
:400340000A4A0B4B08701A60FFF7A2BE0CED00E00004FA0514ED00E0FC7FFF1F00000000A9020000BC760040C080FF1F0080FF1F08ED00E0004700BF134A137803F0C003A3
:40038000802B00D0704770B400231048104E114D1370017833782A780F4C120442EA032322780B4353EA026301D170BC7047017833782A782078120442EA03230B4343EA24
:4003C000006070BCFFF7D6BFFA460040C1FF0300C2FF0300C3FF0300C4FF0300F0B50002C0F57F3090F8C5E390F8C67390F8C92390F8CAC390F8CB1390F8CC3390F8D15336
:40040000C1B0012D69D0DBB21D06C9B290F8C53390F8C663FFB245EA01415FFA8EFED2B25FFA8CFC0A434EEA072E43EA062642EA0C220EF10107013602EB072736020022FC
:40044000B74200F2D13415460AD916F8013B591EC9B2FD29134498BF0125B742DAB2F4D190F8C53390F8C6131D4E43EA0121B7424FEA411101F1200114BFFF084FF4004738
:400480008F4209D901F1904107F1904711F8013B1344B942DAB2F9D1534290F8C023DBB2934202D0062041B0F0BD002DFAD068464FF4807224F0FF0101F009F99DF8D1309B
:4004C000012B0AD00123C4F307216A4603208DF8D13000F0E1FB00F005FD002041B0F0BDC0FF0300013810B40B2863D8DFE800F017202632383E444A50565C060902C1F5DE
:400500007F3101F578710A784C788B78C8781B0443EA0423134343EA006010BC70470902C1F57F3101F57071087810BCC0B270470902C1F57F3101F2C131E4E70902C1F52B
:400540007F3101F2C5314A1C0B78107810BC43EA002070470902C1F57F3101F2C931D2E70902C1F57F3101F57471DDE70902C1F57F3101F2D131D7E70902C1F57F3101F2F2
:40058000D231E0E70902C1F57F3101F2D631DAE70902C1F57F3101F57571D4E70902C1F57F3101F57671AEE70902C1F57F3101F57771B9E701220021C6E700BF2DE98048DD
:4005C000ADF5677D00F0DCFD62B600239B461E4601930DF23F1451AF0DF245190DF5A3780293FF2305AA4FF4967150A800F0E8FD0028F6D1BDF81420062A03D99DF8405145
:40060000012D2CD04FF0040A0025284604210123ADF816008DF841A18DF842518DF843618DF840310023625C0139134489B29BB20029F8D15B429BB25FFA83FE1A0AC11D5C
:40064000172507F800E089B209F80020962308F800500DF1160250A800F09EFDC1E7BDF84231D91D914200F2E680B1F5967F00F2E28050AA1A449279172AC3D1191D89B2B8
:40068000002900F04A82625C0139104489B280B20029F8D1404280B250AAD11891F805E00A7942EA0E22824202D04FF0080AABE79DF841119DF844A1A1F131020A2A00F201
:4006C000AD80DFE802F04788AB5A41AB311F5A1606000020FFF782FE10B9BD4A8023137000F058FD002500F0C9FB04218A4628468DE7BBF1000F40F0BB80042100258A46CD
:40070000284684E7002BF8D1B24A082592E8030008AA82E8030087E8030001939A4628460C214FF0010B72E7BBF1000FE5D0019A03EB020EBEF5967F40F3108100252846DA
:4007400004214FF0030A62E7BBF1000FD5D00023019346E7BBF1000FCFD0002BCDD118460393FFF73BFEB0FA80F0039B40098DF844019A460521584649E734295ED0BBF15F
:40078000000FBAD0022BB8D9AAF1400B019D5FFA8BFB033B9BAA50190DF247111A46039300F08AFF019BBBF13F0F1A46039B1A4495B240F207814FF480734FF49072954288
:4007C00000F0F38000250195284604214FF0010B4FF0030A1BE7BBF1000F8ED0012B8CD1BAF1030F89D87C4B1B681B68C3F30742924500F09E8194BF012200220023FF2162
:4008000004258DF846118DF844318DF845218DF84761284608214FF0000AF8E66F4A1568002D6CD0BBF1000F6ED10025284604214FF0050AEBE64FF0030AE5E6BBF1000FA1
:400840003FF45BAF032B7FF458AFAAF1400B5FFA8BFBBBF13F0F94BF10254FF490752A4600219BA80393019500F04CFF039B90E7032B7FF442AFAAF140033F2BBDF84511CF
:4008800040F2E780FF2979D84FEA0A2E0EEB0100000200F1FF020023013812F801C963448242DBB2F9D1BAF13F0F20D80EF110720A4452011046203210F801EB73448242AB
:4008C000DBB2F9D1BAF1030F11D1FF290FD1002105200393FFF706FE039B00211B1A06205FFA83FAFFF7FEFDC0EB0A00C3B25B428DF8443105214FF0000A012087E6042160
:4009000028464FF0050A82E68DF81810ADF81A3006A80797089609960A9708A9A847BDF824000A9BB0F5937F01D3BB422ED05BB39DF82030021D91B28DF841310122030AAD
:40094000ADF816008DF842018DF840218DF8433100297FF467AE0A468E4670E61A46019B9BA90B441846394600251FFA8EF30193AA4600F0A1FE2846042148E60025284658
:4009800004214FF00A0A42E60028D1D001220E23ADF816608DF842618DF843618DF840218DF84131042100203CE6BDF845219A42019215D30025284604214FF0010B4FF016
:4009C0000A0A24E600F030FA80231022F7E600BFFA460040981B0000CC80FF1F6481FF1FBAF13F0F20D8554B02EB0A221B6892B21968C1F30F2311F0FF0F1CBF01339BB26B
:400A00009A42C0F08C80029B73B919464FF4907208A800F077FE4FF4907308AAFF21032000F0A0F9012302932B46019950469BAA00F098F9002398420CBF9A464FF00A0ABD
:400A400001931D464FF0010B00F04CFA01980421DDE5039100F0E8F903997F294FEA01138CD837483749384A18441944DFF8DCC000781A440978DFF8D8E012789C449E4445
:400A800008449CF80010DFF8CCC010449EF80020DFF8C4E09C449E4408449CF80010DFF8BCC010449EF80020DFF8B4E09C449E4408449CF80010DFF8ACC010449EF80020E5
:400AC000DFF8A4E09C449E4408449CF80010DFF89CC010449EF80020DFF894E09C449E4408449CF80010DFF88CC010449EF80020DFF884E09C4408449E449CF8001003F1A1
:400B00008043104403F500439EF8002001441B780A44134403F0FF03E9E60846BCE5002301931D46184604214FF0010B4FF00A0A6DE5C3F30723002261E600BFCC80FF1F7E
:400B40000F8000400E8000400D8000400C8000400B8000400A80004009800040088000400780004006800040058000400480004003800040028000400180004038B500F0E0
:400B800039F870BB0020FFF729FC184C0028236818BF06251A6808BF00256AB1002312F8011D0B44DBB2002AF9D162681278D31A03F0FF039A4202D0002000F05DF90C4A41
:400BC000137803F0C003402B00D025B1084B00221A70FFF7F3FC80231370BDE8384000F04DB9002000F048F9CCE700BFCC80FF1FFA46004038B500F0AFF900F05FFA10B14A
:400C00000424204638BD00F095FA072804462BD000F076FA002CF4D100F09EF900F04EFA0028EDD1012000F02DFA072805D04FF0FF3400F065FA204638BD154C02E0237812
:400C40009B07F4D40221134800F09CF90228F6D10F4C2378990705D4012000F03BF923789A07F9D50024E4E7094D2B789B0705D4012000F02FF92B789807F9D5044B1A78CB
:400C80009507D6D51B789B08D3D100F039FAC3E7224700407C81FF1FF0B53F2883B00AD8441F3A2C8CBF00240124B1F5807F17D9012003B0F0BD412894BF0024012481293F
:400CC00028BF01241027002AF2D0002CF0D116460D46044600F0F2F928B1042003B0F0BD4FF48077EFE73B4632462946204600F069F9072804D0019000F002FA0198EDE78A
:400D0000164E33789B0705D4012000F0E3F833789807F9D5114E33789F071BD533789B0818D10F4A294653782046127800F086F90728E0D102E0012000F0CCF8337899077A
:400D4000F9D5064B1A78920704D51B789B0801D11846D0E74FF0FF30CDE700BF224700407C81FF1FF0B5412883B015D8441F3A2C8CBF002401243F280FD8B1F5807F11D827
:400D800082B17CB91E4617460D46044600F096F958B1042003B0F0BD0124812928BF0124102BEDD0012003B0F0BD33463A462946204600F007F9072804D0019000F0A0F932
:400DC0000198F0E7164E33789B0705D4012000F081F833789807F9D5114E33789F071BD533789B0818D10F4A294653782046127800F024F90728E0D102E0012000F06AF8BB
:400E000033789907F9D5064B1A78920704D51B789B0801D11846D0E74FF0FF30CDE700BF224700407C81FF1F38B500F0A1F90F4A0F4913780F4C43F0080313700B78C82543
:400E400043F008030B702570137B43F0100313730B7B02F5587243F010030B7313789B06FCD5BDE8384000F087B900BFA0430040B04300400147004001BE7047024A13788B
:400E800043F0010313707047F6460040B0F5004F70B506461AD904460D4DA4F50044686800F05EF9B4F5004FF7D8A6F50043013B23F4FF4323F07F03A6F50046F61AA86885
:400EC00000FB06F0BDE8704000F04AB9004DF6E7D480FF1F024B1B7800FB03F000F040B9D480FF1F08B500F043F900BF00BF00BF00BF00BF00BF00BF00BF00BF00BF00BFD6
:400F000000BF00BF00BF00BF00BF064A13889BB243F0040313801388BFF36F8FBDE8084000F02AB900480040054B00F01F001A6800F1100352F8230042F82310704700BF29
:400F400008ED00E000F01F0000F16040490100F56440C9B20170704708B500F009F90749074A0B7843F008030B70137843F008031370BDE8084000F0FFB800BFA043004028
:400F8000B04300402DE9F0410F4699B14E1EF6B20644451E094CDFF8288002E00120FFF799FF2378DB07F9D598F8003005F8013FB542F6D13846BDE8F08100BF22470040F0
:400FC00020470040F0B41B4C2578AD071DD51A4DB6262E70D52702262F702E702478A40710D428705BB15E1EB6B21644013A12F8014FB2422C70FAD1B3F5807F08D0F0BC92
:40100000072070470920F0BC70470420F0BC70473F28F4D800F5103001EB0021490106480A46203112F8013BDBB291420370F9D1E5E700BF2247004020470040F0B40F4D53
:401040002C78A60716D50E4CB6262670D8270526277026702D78AD0709D40D0AC9B2207025702170227023700720F0BC70470920F0BC70470420F0BC704700BF2247004069
:40108000204700400B4A1378990711D530B40A4BB625E1240E211D701C7019701278920703D4187030BC07207047092030BC704704207047224700402047004038B500F019
:4010C00057F80D4A137823B1042400F055F8204638BD0125094915700C682C40F5D00C6824F001040C6000BF00BF00BF1C46556000F042F8204638BD6881FF1F0400084064
:4011000010B500F035F8094B002259681A70012908D1074C216841F00101216000BF00BF00BF5A60BDE8104000F026B86881FF1F04000840074B1B789B0708D5064BB620E1
:40114000E0210D221870197007201A7070470420704700BF2247004020470040000000000230800803D000BF01380046FCD17047EFF3108072B6704780F31088704700BFBB
:4011800008B500F071F800F04BF9BDE8084000F0A7B900BF00F0C6B8F8B50E460446174600F03EF94EB1751EADB22544013C14F8010F00F057F9AC42F9D13E800020F8BD6E
:4011C0002DE9F84303EB83035D0006468846174618BF002407D117E001340120A4B2FFF755FEAC4210DA00F0F3F80028F4D000F0EFF804461920FFF749FE00F0E9F88442CA
:40120000F5D34FF0000901E04FF0050900243C8000F0DEF8F8B100F0DBF83A8880B283189BB243453B801BD2C0B1204485B200F0A1F8631C30559CB2AC42F8D1731913F81D
:40124000013C172B02D00520FFF720FE2C4600F0BFF80028DFD14846BDE8F8832546EDE73A804846BDE8F883F8B5224D2C780CBB21492046FFF758FE20460721FFF762FE17
:401280001E4B1F492022692008701A701D4901206C70FFF749FE07210120FFF753FE1A4E1A481B4A06274724022101233770047011702B70FFF75CFF0546164C1649237823
:4012C000164A43F0200323700B78012043F010030B701060A378124843F010030221A3700160116000F09CF92846BDE8F840FFF743BF00BF7081FF1F211500008964004014
:4013000089650040B915000028640040386400408B650040996500409964004000E100E080E200E038B5FFF723FF05460D4A0E4C137803F0DF03137000F082F923780B4A1C
:40134000012003F0EF030A49237010600B78022403F0EF030B7028461460BDE83840FFF70BBF00BF996500409964004080E100E09B65004010B4114B114A0121196091786F
:40138000D3781079C9B210B9DBB2994212D04B1CDBB2402B0B4828BF0023405C93701379074CC0B20BB100232371074B01221A6010BC7047054B1878C0B2F6E780E100E0CA
:4013C0007081FF1F8081FF1F00E100E04A650040104A0121104B11609978DA7891420FD09978DA789142DA78987824BF02F14003181A0A4B38BF101A0122C0B21A60704793
:401400001B790122002B054B14BF402000201A60704700BF80E100E07081FF1F00E100E010B5FFF7A5FE0B4B0B4C1A7842F001021A701A7802F0FE021A70FFF79DFE074BD9
:4014400000220121064821609A70DA701A715A71016010BD9A65004080E100E07081FF1F00E100E070B4194DEC79AB792646DBB2591EE21A091BA2F13F02B1FA81F1B2FAF1
:4014800082F249095209A34288BF0A46002AECD1A34212D03F2C0E4A88BF00260D4B90551B789ABF0134E4B201249B07EC7102D5094B02221A6070BC7047064B1B785A07A8
:4014C000E8D4064B187070BC704700BF7081FF1FC081FF1F6B65004000E200E04865004010B5FFF745FE0A4B0A4C1A7842F001021A701A7802F0FE021A70FFF73DFE064AFF
:401500000223002105482360D1719171036010BD9865004080E100E07081FF1F00E100E02DE9F0431C481D491D4F1E4A1E4E1F4CDFF880C01E4D4FF0010E0378DBB213F03A
:401540001E0905D091F8008049EA080881F800809B0601D4BDE8F08397F8008013785FFA88F8DBB206F8038023784FF000080BB18CF800E013780133DBB2137013783F2B55
:4015800088BF82F8008092F800802B789845D4D184F800E0D1E700BF696400407181FF1F4A6500407381FF1F8081FF1F7481FF1F7281FF1F7581FF1F144A154813780178B4
:4015C000994221D0F0B513490B7803F0040303F0FF06C3B91746104D104C02E00B785B0711D413783F2B88BF3E701378DBB2EB5CDBB22370137890F800E00133DBB21370CB
:4016000013789E45EAD1F0BD704700BF7681FF1F7781FF1F6B650040C081FF1F486500400549064A0B7843F001030B70137843F001031370704700BFA2430040B2430040EF
:401640000549064A0B7803F0FE030B70137803F0FE031370704700BFA2430040B2430040014B1868704700BF4481FF1F0E4B70B51E460E4C0025E41AA410A54204D056F8C7
:40168000253098470135F8E700F08CFA084B094C1E46E41AA4100025A54204D056F8253098470135F8E770BDB01B0000B01B0000B01B0000B81B000010B5431E0A4491428E
:4016C00004D011F8014B03F8014FF8E710BD884210B501EB020301D8421E0BE09842FBD28118D21AD34204D013F8014D01F8014DF8E710BD994204D011F8014B02F8014F77
:40170000F8E710BD03460244934202D003F8011BFAE77047001D0000ED00000000000000005100401000205100401000405100403000F051004010000000014000100014B5
:4017400001400006801A0140800100400140000A004C014000020050014020001090000040000000CF083042C3003C0800100000082000000020F3000C30F3003D0FC0F055
:4017800008000084023F20C004F800010C3900C6430010C740318C003F0000FF00002800000000402105040003EC000003FFFFFF62A0F0410C00000000000000040404044F
:4017C0000000000100000000000040020010301000101012000000000000000000000000000000000152004001640040026500400107014054080140370901400414014085
:4018000003150140011701404D180140411901400D1A0140411B0140034001400241014002420140044301400147014002480140084C01400E4D014004500140015101402E
:401840000914893A89698B0FE60203010461060E071809480A400B860E0811801365142C15E61643171119601B8B1E43206121A02206260C28102D802F023020320F330774
:40188000341035F8364038023A083B083E504003474049FF4A074BFF4C404D204EF04F055008580459045A045F01604061A8624063208320850387048A028B088D038E022A
:4018C0008F0C9001950A9704980199039B04A310A710A801AF05B001B10FB320B510B602BB02BE40BF10D41AD604D804D904DB04DF0100A005800605071008800A450E2010
:401900000F0211101502161819401B021D241E211F0120402105220223042404271029012B212D802E023104331035043602371038523A143C143E083F0245084F025601C3
:4019400059025A206140634485208740C0E3C2AAC472CA9BCCE6CEEFD040D605D80DE008B980BF40D904DF012680A680B280EA0801020B011001140419011E022006280662
:401980002D01320633033401380839083E1440454102460E47BC483449FF4AFF4BFF4EF04F44500C580459045A045F0166C06A406B0284038508860C89088D088E0E900232
:4019C00091089208953D960F9702980299239A049B1C9D1E9F01A127A318A501A716A80CA926AA03AB19AC03AE0CAF1FB320B401B508B60EB71FB820BA80BB80BF04D602C6
:401A0000D712D804D904DB04DF01000403020520060408280A800E300F821209150216C0171019801BA01D081E082254241028282A012B8A2E8031143249371038A83E10F9
:401A40003F02464047104E02560657405A0869106A46705C79017A027B41910A941295109664978098809B109D039E06A210A303A450A508A720AF40B701C005C2BEC4533B
:401A8000CA1FCC2FCEAED0A0D210D602840188018C019601A201AE02B203BA08D401D604D804DB04DF0100440380059408120A120E101048114012101580164018041916A1
:401AC0001E101F0820802142281229042A402B8A30483110324138E239083A1040264102481049815C805D215E0867806A4082408C218D4090A09109928294069780988038
:401B000099A09C209D17A008A204A382A450A708C0EDC22FC49FCA0FCC0FCE0FD00FD208D6F0D880E004E88030103580CC309C109D809C109D8084109C109D80E640862085
:401B4000AD80EA105840620199089A20B508D401D802E80212807220750882018E8099089A209E01B040C408DC01DE04E202E80100010C0110011C01000F00004090900073
:401B80009000000010140400140000000000000101000000000000006910162E003C010143000000F8B500BFF8BC08BC9E4670475100000011030000F8B500BFF8BC08BC51
:401BC0009E4670472D000000D81B0000C880FF1F80000000B8000000000000001417000018170000180000000000E02EC05D000000366E010000000000000000000000004A
:401C00000000000000000000000000000000000000000000A01B000000000000000000000000000000000000000000000000000000000000000000000000000000000000E9
:401C40000000000000000000000000000000000000000000E480FF1F00000000000000000000000000000000000000000000000000000000000000000000000000000000E2
:401C80000000000000000000000000000000000000000000000000000000000000000000000000000000000000000000000000000000000000000000000000000000000024
:401CC00000000000000000000000000000000000000000000000000000000000000000000000000000000000000000000000000000000000000000000000000000000000E4
:401D000000800020111D0000751101007511010080B500AF0FF062FA10B5054C237833B9044B13B10448AFF300800123237010BDB081FF1F0000000070BC0100084B10B552
:401D40001BB108490848AFF300800848036803B910BD074B002BFBD0BDE81040184700BF00000000B481FF1F70BC0100C880FF1F0000000080B588B000AFE24B1B78FB7701
:401D8000E04BB3F98030DBB2013BDBB21946DD4807F078F903461946DA4BB3F98030013BD84AD35C994204D0D64B002283F8842042E2FB7FA62B00F23E8201A252F823F072
:401DC000DB200000BD20000037220000E1200000E72000000D210000A52000003722000037220000412100002721000037220000C3200000632100003722000037220000E9
:401E00003722000037220000372200003722000037220000372200003722000037220000372200003722000037220000372200003722000037220000372200003722000012
:401E400037220000372200003722000037220000372200003722000037220000372200003722000037220000372200003722000037220000372200003722000037220000D2
:401E80003722000037220000372200003722000037220000372200003722000037220000372200003722000037220000372200003722000037220000372200003722000092
:401EC0003722000037220000372200003722000037220000372200003722000037220000372200003722000037220000372200003722000037220000372200003722000052
:401F00003722000037220000372200003722000037220000372200003722000037220000372200003722000037220000372200003722000037220000372200003722000011
:401F400037220000372200003722000037220000372200003722000037220000372200003722000037220000372200003722000037220000372200003722000037220000D1
:401F80003722000037220000372200003722000037220000372200003722000037220000372200003722000037220000372200003722000037220000372200003722000091
:401FC0005D20000093200000632000009F20000069200000752000006F200000372200008D2000008120000037220000872000007B20000037220000372200003722000075
:4020000099200000372200003722000037220000372200003722000037220000372200003722000037220000372200003722000037220000372200003722000037220000B0
:402040003722000001220000072200001F220000252200002B2200003122000007F052FEEAE007F059FDE7E007F046FCE4E007F0D7FEE1E007F072FFDEE007F0CBFFDBE042
:4020800007F094FCD8E007F0EBFCD5E008F02EF9D2E007F097FECFE007F0EAFFCCE008F011F8C9E0184B1B883B613B695BBAFB60FB689BB2184600F0CBF8BDE003F012FDF6
:4020C000BAE0114B1B88BB61BB695BBABB60BB689BB2184601F05CFBAEE007F0E3FFABE008F026F8A8E0322007F004F80346002B03D0012006F0E6FF9EE0002006F0E2FF34
:402100009AE000BF0094FF1F0194FF1F07F07EF80346002B03D0012006F0D4FF8CE0002006F0D0FF88E007F09FF80346002B03D0012006F0C7FF7FE0002006F0C3FF7BE066
:40214000012006F0BFFF4FF47A7011F055FC00200FF0ECFE4FF47A7011F04EFC11F07AFF6AE0374B5B781B021AB2354B9B781BB213431AB2334B5A80314BDB781B021AB2F6
:402180002F4B1B791BB213431AB22E4B9A802D4BB3F90230B3F1FF3F0FD12A4BB3F90430B3F1FF3F09D1274B00221A70254B00225A80244B00229A803EE0224BB3F90230C8
:4021C000002B03DA1F4B00225A8007E01D4BB3F90230C82B02DD1B4BC8225A80194BB3F90430002B02DA174B00229A80164B00221A60144B01221A70012006F063FF1BE0E2
:4022000008F0A4F818E0114B1B887B617B695BBA7B607B689BB2184602F06AFD0CE008F061FB09E008F0A4FB06E008F017FC03E008F042FC00E000BF2037BD4680BD00BFBD
:402240000094FF1F8894FF1FC098FF1F0194FF1F80B5ADF6A87D00AF0246BB1D1A8007F1080300221A60043340F69C720021184616F0D9FFBB1D1B88002B02D0012B0DD0EB
:4022800019E007F10803184603F070FC10F012FA07F10803184610F0EBF90CE007F10803184605F0EDF810F005FA07F10803184610F0DEF900BF00BF07F6A877BD4680BDDC
:4022C000B0B5ADF5426D00AF07F10C04206007F108000160391D0A603A46136007F1580300221A60043340F6B4320021184616F09AFF40F6B833A7F8183C002387F81D3C6E
:40230000002387F81C3C002387F81B3C07F1240300221A6004332E220021184616F083FF07F10C031B681B68C7F8143CD7F8143CC7F8103C07F158030C221A7007F15803BD
:4023400023225A70002387F81D3C01F0A5B997F81D3C9B0007F10C02126813441B68C7F8143C97F81D3C322202FB03F3023397F81D2C07F1080109680A44117807F1580241
:40238000D15497F81D3C322202FB03F3033397F81D2C391D09680A44117807F15802D15497F81D3C07F10802126813441B78092B22D801A252F823F0E1230000E123000022
:4023C000E1230000E9230000E9230000F1230000F1230000F1230000F9230000E1230000012387F81B3C07E0022387F81B3C03E0042387F81B3C00BF97F81D3CD7F8342CD3
:4024000013441B78002B40F0298297F81D3C07F10802126813441B78092B00F2F88501A252F823F04D240000B52400004D2400001D250000C52500006B260000112700000B
:40244000B72700000F3000004D240000002387F81F3C23E097F81F3C97F81B2C02FB03F31A46D7F8143C1344C7F8103C97F81D3C322202FB03F31A1D97F81F3C97F81B1C24
:4024800001FB03F31344D7F8102C117807F15802D15497F81F3C013387F81F3C97F81D3C3A1D126813441B7897F81F2C9A42D1D300F0ADBD002387F81F3C23E097F81F3C8F
:4024C00097F81B2C02FB03F31A46D7F8143C1344C7F8103C97F81D3C322202FB03F31A1D97F81F3C97F81B1C01FB03F31344D7F8102C117807F15802D15497F81F3C0133AA
:4025000087F81F3C97F81D3C3A1D126813441B7897F81F2C9A42D1D300F079BD002387F81F3C43E097F81F3C97F81B2C02FB03F31A46D7F8143C1344C7F8103CD7F8103CCF
:40254000B3F9002007F11E031A80002387F81E3C21E097F81D3C322202FB03F31A1D97F81F3C97F81B1C01FB03F31A4497F81B3C1A4497F81E3CD31A013B97F81E2C07F152
:402580001E010A44117807F15802D15497F81E3C013387F81E3C97F81E2C97F81B3C9A42D7D397F81F3C013387F81F3C97F81D3C3A1D126813441B7897F81F2C9A42B1D39E
:4025C00000F025BD002387F81F3C42E097F81F3C97F81B2C02FB03F31A46D7F8143C1344C7F8103CD7F8103C1A8807F11C031A80002387F81E3C21E097F81D3C322202FBB2
:4026000003F31A1D97F81F3C97F81B1C01FB03F31A4497F81B3C1A4497F81E3CD31A013B97F81E2C07F11C010A44117807F15802D15497F81E3C013387F81E3C97F81E2C0C
:4026400097F81B3C9A42D7D397F81F3C013387F81F3C97F81D3C3A1D126813441B7897F81F2C9A42B2D300F0D2BC002387F81F3C42E097F81F3C97F81B2C02FB03F31A4668
:40268000D7F8143C1344C7F8103CD7F8103C1A6807F118031A60002387F81E3C21E097F81D3C322202FB03F31A1D97F81F3C97F81B1C01FB03F31A4497F81B3C1A4497F839
:4026C0001E3CD31A013B97F81E2C07F118010A44117807F15802D15497F81E3C013387F81E3C97F81E2C97F81B3C9A42D7D397F81F3C013387F81F3C97F81D3C3A1D126833
:4027000013441B7897F81F2C9A42B2D300F07FBC002387F81F3C42E097F81F3C97F81B2C02FB03F31A46D7F8143C1344C7F8103CD7F8103C1A6807F114031A60002387F8CE
:402740001E3C21E097F81D3C322202FB03F31A1D97F81F3C97F81B1C01FB03F31A4497F81B3C1A4497F81E3CD31A013B97F81E2C07F114010A44117807F15802D15497F87F
:402780001E3C013387F81E3C97F81E2C97F81B3C9A42D7D397F81F3C013387F81F3C97F81D3C3A1D126813441B7897F81F2C9A42B2D300F02CBC002387F81F3C42E097F811
:4027C0001F3C97F81B2C02FB03F31A46D7F8143C1344C7F8103CD7F8103C1A6807F120031A60002387F81E3C21E097F81D3C322202FB03F31A1D97F81F3C97F81B1C01FB93
:4028000003F31A4497F81B3C1A4497F81E3CD31A013B97F81E2C07F120010A44117807F15802D15497F81E3C013387F81E3C97F81E2C97F81B3C9A42D7D397F81F3C013355
:4028400087F81F3C97F81D3C3A1D126813441B7897F81F2C9A42B2D300BFD8E397F81D3C0133023B152B00F2D18301A252F823F0C92800007D2B00000D3000000D30000034
:402880000D3000000D300000372E00000D3000000D300000DB2E00000D3000000D3000000D3000000D3000000D3000000D3000000D3000000D3000000D3000000D30000054
:4028C0000D300000A32F0000D54B93F80F31032B00F0AA80D24BD3F8B030184616F02CFA03464FF08F41184616F02EFB03461A4607F120031A60002387F81F3C1AE097F89B
:402900001D3C322202FB03F31A1D97F81B3C1A4497F81F3CD31A013B97F81F2C07F120010A44117807F15802D15497F81F3C013387F81F3C97F81F2C97F81B3C9A42DED3E3
:40294000B74BD3F8B430184616F0F6F903464FF08F41184616F0F8FA03461A4607F120031A60002387F81F3C1DE097F81D3C322202FB03F31A1D97F81B3C1A4497F81B3CDD
:402980001A4497F81F3CD31A013B97F81F2C07F120010A44117807F15802D15497F81F3C013387F81F3C97F81F2C97F81B3C9A42DBD39B4BD3F8B830184616F0BDF9034627
:4029C0004FF08F41184616F0BFFA03461A4607F120031A60002387F81F3C1EE097F81D3C322202FB03F31A1D97F81B3C5B001A4497F81B3C1A4497F81F3CD31A013B97F887
:402A00001F2C07F120010A44117807F15802D15497F81F3C013387F81F3C97F81F2C97F81B3C9A42DAD3F2E27D4BD3F8C830184616F082F903464FF08F41184616F084FA2B
:402A400003461A4607F120031A60002387F81F3C1AE097F81D3C322202FB03F31A1D97F81B3C1A4497F81F3CD31A013B97F81F2C07F120010A44117807F15802D15497F894
:402A80001F3C013387F81F3C97F81F2C97F81B3C9A42DED3624BD3F8CC30184616F04CF903464FF08F41184616F04EFA03461A4607F120031A60002387F81F3C1DE097F878
:402AC0001D3C322202FB03F31A1D97F81B3C1A4497F81B3C1A4497F81F3CD31A013B97F81F2C07F120010A44117807F15802D15497F81F3C013387F81F3C97F81F2C97F8C2
:402B00001B3C9A42DBD3464BD3F8D030184616F013F903464FF08F41184616F015FA03461A4607F120031A60002387F81F3C1EE097F81D3C322202FB03F31A1D97F81B3C98
:402B40005B001A4497F81B3C1A4497F81F3CD31A013B97F81F2C07F120010A44117807F15802D15497F81F3C013387F81F3C97F81F2C97F81B3C9A42DAD348E2284B93F89B
:402B80000F31032B00F0AD80254BD3F8BC30184616F0D2F803464FF08F41184616F0D4F903461A4607F120031A60002387F81F3C1AE097F81D3C322202FB03F31A1D97F882
:402BC0001B3C1A4497F81F3CD31A013B97F81F2C07F120010A44117807F15802D15497F81F3C013387F81F3C97F81F2C97F81B3C9A42DED30A4BD3F8C030184616F09CF87F
:402C000003464FF08F41184616F09EF903461A4607F120031A60002387F81F3C20E000BFFC95FF1F97F81D3C322202FB03F31A1D97F81B3C1A4497F81B3C1A4497F81F3CC0
:402C4000D31A013B97F81F2C07F120010A44117807F15802D15497F81F3C013387F81F3C97F81F2C97F81B3C9A42DBD3D44BD3F8C430184616F060F803464FF08F41184658
:402C800016F062F903461A4607F120031A60002387F81F3C1EE097F81D3C322202FB03F31A1D97F81B3C5B001A4497F81B3C1A4497F81F3CD31A013B97F81F2C07F120012B
:402CC0000A44117807F15802D15497F81F3C013387F81F3C97F81F2C97F81B3C9A42DAD395E1B74BD3F8D430184616F025F803464FF08F41184616F027F903461A4607F100
:402D000020031A60002387F81F3C1AE097F81D3C322202FB03F31A1D97F81B3C1A4497F81F3CD31A013B97F81F2C07F120010A44117807F15802D15497F81F3C013387F864
:402D40001F3C97F81F2C97F81B3C9A42DED39C4BD3F8D830184615F0EFFF03464FF08F41184616F0F1F803461A4607F120031A60002387F81F3C1DE097F81D3C322202FB8A
:402D800003F31A1D97F81B3C1A4497F81B3C1A4497F81F3CD31A013B97F81F2C07F120010A44117807F15802D15497F81F3C013387F81F3C97F81F2C97F81B3C9A42DBD3C8
:402DC0007F4BD3F8DC30184615F0B6FF03464FF08F41184616F0B8F803461A4607F120031A60002387F81F3C1EE097F81D3C322202FB03F31A1D97F81B3C5B001A4497F8E1
:402E00001B3C1A4497F81F3CD31A013B97F81F2C07F120010A44117807F15802D15497F81F3C013387F81F3C97F81F2C97F81B3C9A42DAD3EBE0634B93F81031184697F816
:402E40001F2C5F4903465B0003449B001344663351F823205B4B93F810311C4697F81F1C574823465B0023441B0103440B4403F295131B7842FA03F31AB207F11E031A8062
:402E8000002387F81E3C21E097F81D3C322202FB03F31A1D97F81F3C97F81B1C01FB03F31A4497F81B3C1A4497F81E3CD31A013B97F81E2C07F11E010A44117807F1580240
:402EC000D15497F81E3C013387F81E3C97F81E2C97F81B3C9A42D7D399E0394BD3F8E430374A92F8952143FA02F207F118031A60002387F81E3C1AE097F81D3C322202FBE8
:402F000003F31A1D97F81B3C1A4497F81E3CD31A013B97F81E2C07F118010A44117807F15802D15497F81E3C013387F81E3C97F81E2C97F81B3C9A42DED3214BD3F8E83045
:402F40001F4A92F8952143FA02F207F118031A60002387F81E3C1DE097F81D3C322202FB03F31A1D97F81B3C1A4497F81B3C1A4497F81E3CD31A013B97F81E2C07F1180107
:402F80000A44117807F15802D15497F81E3C013387F81E3C97F81E2C97F81B3C9A42DBD335E0074BD3F84032054A92F8952143FA02F207F118031A60002387F81E3C1EE099
:402FC000FC95FF1F709AFF1F97F81D3C322202FB03F31A1D97F81B3C1A4497F81E3CD31A013B97F81E2C07F118010A44117807F15802D15497F81E3C013387F81E3C97F881
:403000001E2C97F81B3C9A42DED300E000BF97F81D3C9B00D7F8302C13441A6807F124031146184616F0C8FE07F12403184616F000FF034687F81A3C97F81D3C07F1080283
:40304000126813441B78002B40F0C68297F81C3C3A46126813441B78013B082B00F2B28201A252F823F000BF8D300000A531000065320000AB320000013300004F3300006D
:403080000D340000D334000051350000D7F8143C1B78052B00F2918201A252F823F000BFB9300000D9300000FB300000253100004D3100007331000007F12403184616F084
:4030C000B8FE03461A4607F124031344D44A1068186012791A7164E007F12403184616F0A8FE03461A4607F124031344CD491A460B4603CB1060516053E007F124031846E5
:4031000016F097FE03461A4607F124031344C64A1D4614460FCC28606960AA60EB6023882B823EE007F12403184616F082FE03461A4607F124031344BC4A1C46134607CB5C
:4031400020606160A2601B88A3812AE007F12403184616F06EFE03461A4607F124031344B3491A460B4603CB106051601B88138117E007F12403184616F05BFE03461A46DE
:4031800007F124031344AB4A1D4614460FCC28606960AA60EB602388A2782B821346AB7400BF0AE2D7F8143C1B78032B00F2078201A252F823F000BFC9310000EF3100009D
:4031C0000F3200003532000007F12403184616F030FE03461A4607F12403134496491A460B4603CB106051601B88138139E007F12403184616F01DFE03461A4607F1240322
:4032000013448E4A1068186012791A7129E007F12403184616F00DFE03461A4607F12403134487491A460B4603CB106051601B78137216E007F12403184616F0FAFD034662
:403240001A4607F1240313447E4A1D4614460FCC28606960AA60EB6020682861A388AB8200BFACE1D7F8143C1B78002B0FD007F12403184616F0DDFD03461A4607F12403DC
:403280001344714A1068186012791A719AE107F12403184616F0CDFD03461A4607F1240313446A4A106818608CE1D7F8143C1B78002B02D0012B12D084E107F1240318465F
:4032C00016F0B7FD03461A4607F124031344604A106818609188927999809A710FE007F12403184616F0A5FD03461A4607F124031344584A1068186092889A8000BF61E119
:40330000D7F8143C1B78002B02D0012B10D059E107F12403184616F08CFD03461A4607F1240313444C4A1068186012791A710DE007F12403184616F07CFD03461A4607F147
:4033400024031344454A1068186000BF3AE1D7F8143C1B78032B00F2348101A252F823F07133000091330000B9330000E333000007F12403184616F05CFD03461A4607F108
:4033800024031344364A1068186092889A803CE007F12403184616F04CFD03461A4607F1240313442F4A1C46134607CB20606160A2601B88A38128E007F12403184616F049
:4033C00038FD03461A4607F124031344264A1D4614460FCC28606960AA60EB6023882B8213E007F12403184616F023FD03461A4607F1240313441D4A1C46134607CB20604A
:403400006160A2601B78237300BFDAE0D7F8143C1B78012B3CD0022B4AD0002B28D057E078BC010080BC010088BC01009CBC0100ACBC0100B8BC0100CCBC0100D8BC010090
:40344000E0BC0100ECBC010004BD01000CBD010014BD01001CBD010024BD01002CBD010034BD01003CBD01004CBD010060BD010007F12403184616F0DCFC03461A4607F1F2
:4034800024031344BA4A1068186092889A801FE007F12403184616F0CCFC03461A4607F124031344B34A1068186012791A710FE007F12403184616F0BCFC03461A4607F12F
:4034C00024031344AC4A1068186092889A8000BF78E0D7F8143C1B78012B16D0022B26D0002B00D06EE007F12403184616F0A1FC03461A4607F124031344A04A10681860D4
:403500009188927999809A7121E007F12403184616F08FFC03461A4607F124031344984A106818609188927999809A710FE007F12403184616F07DFC03461A4607F1240348
:403540001344904A1068186092889A8000BF39E0D7F8143C1B78002B02D0012B15D031E007F12403184616F064FC03461A4607F124031344844A1D4614460FCC2860696094
:40358000AA60EB602068286116E007F12403184616F04FFC03461A4607F1240313447B4A1D4614460FCC28606960AA60EB6020682861A388AB8200BF04E000BF02E000BF53
:4035C00000E000BF07F12403184616F032FC0346DBB2013387F81A3C97F81A3C87F81F3C26E097F81D3C322202FB03F31A1D97F81B3C97F81D1C381D00680144097801FB44
:4036000003F31A4497F81A3C1A4497F81F3CD31A97F81A1C97F81F2C8A1A07F12401895C07F15802D15497F81F3C013B87F81F3C97F81F3C002BD4D197F81D3C07F10802BC
:40364000126813441B78002B21D197F81D3C322202FB03F31A1D97F81B3C97F81D1C381D00680144097801FB03F31A4497F81A3C134497F81C2C394609680A44117807F110
:403680005802D15497F81C3C013387F81C3C97F81D3C013387F81D3C97F81D3C222B7EF656AE002387F81E3C3DE097F81E3C9B00D7F8382C13441B68184616F0BAFB0346EC
:4036C00087F81A3C97F81A3C87F81F3C22E097F81E3C962202FB03F303F5DB6297F81A3C1A4497F81F3CD31A97F81E2C9200D7F8381C0A44126897F81A0C97F81F1C411A21
:403700000A44117807F15802D15497F81F3C013B87F81F3C97F81F3C002BD8D197F81E3C013387F81E3C97F81E3C072BBDD9B7F8183C5C1EB7F8183CDBB2013BDAB207F109
:4037400058031146184605F09DFC03461A4607F158031A55B7F8182C07F158031146184605F00CFC00BF07F54267BD46B0BD00BF34BD010070BD010078BD010080BD010021
:4037800088BD010090BD010098BD0100B0BD0100F0B5ADF54F7D04AF0246BB1D1A80002387F81D33F34BC7F82033BB1D1B88002B02D0F14BC7F82033D7F82033A033C7F875
:4037C0004C3297F81D231346DB009B1A1B01B033D7F820231344C7F8503297F81D231346DB009B1A1B01B833D7F8202313440433C7F8543297F81D231346DB009B1A1B0172
:40380000E033D7F820231344C7F8583297F81D231346DB009B1A1B0103F58473D7F8202313440633C7F85C3297F81D231346DB009B1A1B0103F58473D7F8202313440733AB
:40384000C7F8603297F81D23D7F820131346DB009B1A1B010B4403F588731B781A4613465B0013441B0103F5C873D7F8202313440533C7F8643297F81D23D7F82013134672
:40388000DB009B1A1B010B4403F588731B781A4613465B0013441B0103F5CC73D7F820231344C7F8683297F81D23D7F820131346DB009B1A1B010B4403F588731B781A46FC
:4038C00013465B0013441B0103F5D073D7F8202313440433C7F86C3297F81D231346DB009B1A1B01E033D7F8202313440333C7F8703297F81D231346DB009B1A1B01E0339B
:40390000D7F8202313440433C7F8743297F81D231346DB009B1A1B01E833D7F8202313440433C7F8783297F81D231346DB009B1A1B0103F58473D7F8202313440433C7F868
:403940007C32D7F8203303F5F873C7F88032D7F8203303F2FD13C7F88432D7F8203303F5FA73C7F88832D7F8203303F5FE73C7F88C3297F81D23D7F820131346DB009B1A45
:403980001B010B4403F588731B781A4613465B0013441B0103F5D873D7F820231344C7F8903297F81D23D7F820131346DB009B1A1B010B4403F588731B781A4613465B00A3
:4039C00013441B0103F5D873D7F8202313440133C7F8943297F81D231346DB009B1A1B01E033D7F8202313440133C7F8983297F81D231346DB009B1A1B01F033D7F82023D9
:403A000013440433C7F89C32D7F82033A133C7F8A032D7F8203303F51073C7F8A432D7F8203303F51173C7F8A832D7F8203303F51273C7F8AC32D7F8203303F51373C7F8E0
:403A4000B032D7F8203303F5FF73C7F8B432D7F82033A733C7F8B832D7F8203303F50073C7F8BC32D7F8203303F22E23C7F8C032D7F82033A833C7F8C432D7F8203303F56F
:403A80000873C7F8C832D7F8203303F20123C7F8CC32D7F8203303F20223C7F8D032D7F8203303F51473C7F8D432D7F8203303F58873C7F8D832D7F8203303F5C073C7F88D
:403AC000DC32D7F8203303F22623C7F8E032D7F8203303F5C873C7F8E432D7F8203303F5E073C7F8E832D7F8203303F50C73C7F8EC32D7F8203303F23623C7F8F032D7F881
:403B0000203303F22F23C7F8F432D7F82033A933C7F8F832D7F82033E233C7F8FC32D7F8203303F5A973C7F8003397F81D231346DB009B1A1B0103F58873D7F820231344A3
:403B40000133C7F8043397F81D231346DB009B1A1B0103F58873D7F8202313440233C7F8083307F50773054A14461E4604F1300E06E000BFFC95FF1F709AFF1F28C00100A1
:403B800035462346186859689A68DB680FC5103410367445F4D107F5F67301221A7007F5F67303225A7007F5F67303229A7007F5F6730122DA7007F5F67301221A7107F5E4
:403BC000F67301225A7107F5F67303229A7107F5F6730322DA7107F5F67303221A7207F5F67301225A7207F5F67302229A7207F5F6730222DA7207F5F67301221A7307F51F
:403C0000F67302225A7307F5F67301229A7307F5F6730222DA7307F5F67301221A7407F5F67301225A7407F5F67301229A7407F5F6730122DA7407F5F67306221A7507F5CF
:403C4000F67303225A7507F5F67301229A7507F5F6730122DA7507F5F67301221A7607F5F67301225A7607F5F67301229A7607F5F6730122DA7607F5F67301221A7707F584
:403C8000F67301225A7707F5F67301229A7707F5F6730622DA7707F5F673012283F8202007F5F673052283F8212007F5F673012283F8222007F5F673012283F8232007F51E
:403CC000F673012283F8242007F5F673062283F82520C24B1A7807F5F67383F82620BF4B5A7807F5F67383F8272007F5F673062283F8282007F5F673062283F8292007F5C7
:403D0000F673012283F82A2007F5F673012283F82B2007F5F673012283F82C2007F5F673012283F82D2007F5F673012283F82E2007F5F673012283F82F2007F59673A84AAB
:403D400018461146C0231A4615F062FA07F1B40300221A60043372220021184615F063FA07F1B40064230A229E4916F025F807F190039D4A1A6007F190039C4A5A6007F17B
:403D800090039B4A9A6007F190039A4ADA6007F19003994A1A6107F19003984A5A6107F1900307F1B4029A6107F19003944ADA6107F19003934A1A6207F17C03924A1C4666
:403DC000154628686968AA68EB680FC42869206007F174038D4A1068186012791A7107F168038B4A10685168926807C3002387F82633002387F8273321E097F8263307F16D
:403E00007402D35C1A4697F8273301339A420BD197F8273307F138020121D15497F82633013387F8263305E097F8273307F138020021D15497F82733013387F8273397F887
:403E400027332F2BD9D9002387F82633002387F8273321E097F8263307F16802D35C1A4697F8273301339A420BD197F8273307F108020121D15497F82633013387F8263310
:403E800005E097F8273307F108020021D15497F82733013387F8273397F827332F2BD9D9BB1D1B88002B14D107F17C0407F5F67207F5077107F5137007F19003029307F18F
:403EC0003803019307F5967300932346FEF7F8F9E2E2BB1D1B88DBB2013B87F81C3397F81C3307F50772D35C092B23D801A252F823F000BF1D3F00001D3F00001D3F0000B2
:403F0000253F0000253F00002D3F00002D3F00002D3F0000353F00001D3F0000012387F8253307E0022387F8253303E0042387F8253300BF97F81C3307F10802D35C002BED
:403F400040F04A8297F81C3307F50772D35C092B00F2488201A252F823F000BF853F000083400000853F0000D9400000734100000B420000A34200003B430000E543000024
:403F8000D53F0000002387F8273319E097F81C339B0007F54A72134453F8DC3C97F8272397F8251301FB02F2134497F82723033218498A5C1A7097F82733013387F8273351
:403FC00097F81C3307F5F672D35C97F827239A42DCD308E2002387F8273337E01895FF1F2CC50100C8BD01003CBE0100A0BE0100E0BE01000CBF010024BF01004CBF0100F7
:40400000A8BF0100E0BF0100ECC5010000C6010008C601000094FF1F97F81C339B0007F54A72134453F8DC3C97F8272397F8251301FB02F2134497F827230332C9498A5CA6
:404040001A7097F82733013387F8273397F81C3307F5F672D35C97F827239A42DCD397F81C339B0007F54A72134453F8DC3C97F8272397F8251301FB02F2134400221A706D
:40408000B1E1002387F827331CE097F81C339B0007F54A72134453F8DC3C97F8272397F8251301FB02F2134497F827230332AD490A4492F90020D2B21A7097F8273301337C
:4040C00087F8273397F81C3307F5F672D35C97F827239A42D9D386E1002387F827333EE097F8273397F8252302FB03F303339D4A1344B3F90030A7F81A33002387F82633AA
:4041000022E097F81C339B0007F54A72134453F8DC2C97F8273397F8251301FB03F3184697F8251397F82633CB1A0344013B134497F8262307F21A310A4412781A7097F827
:404140002633013387F8263397F8262397F825339A42D6D397F82733013387F8273397F81C3307F5F672D35C97F827239A42B7D339E1002387F827333DE097F8273397F845
:40418000252302FB03F30333764A13441B88A7F81833002387F8263322E097F81C339B0007F54A72134453F8DC2C97F8273397F8251301FB03F3184697F8251397F8263363
:4041C000CB1A0344013B134497F8262307F546710A4412781A7097F82633013387F8263397F8262397F825339A42D6D397F82733013387F8273397F81C3307F5F672D35C74
:4042000097F827239A42B8D3EDE0002387F827333DE097F8273397F8252302FB03F30333504A13441B68C7F81433002387F8263322E097F81C339B0007F54A72134453F825
:40424000DC2C97F8273397F8251301FB03F3184697F8251397F82633CB1A0344013B134497F8262307F545710A4412781A7097F82633013387F8263397F8262397F8253329
:404280009A42D6D397F82733013387F8273397F81C3307F5F672D35C97F827239A42B8D3A1E0002387F827333DE097F8273397F8252302FB03F303332A4A13441B68C7F842
:4042C0001033002387F8263322E097F81C339B0007F54A72134453F8DC2C97F8273397F8251301FB03F3184697F8251397F82633CB1A0344013B134497F8262307F54471AC
:404300000A4412781A7097F82633013387F8263397F8262397F825339A42D6D397F82733013387F8273397F81C3307F5F672D35C97F827239A42B8D355E0002387F827330B
:4043400040E097F8273397F8252302FB03F30333044A13441B68C7F80C33002387F8263325E000BF0094FF1F97F81C339B0007F54A72134453F8DC2C97F8273397F8251312
:4043800001FB03F3184697F8251397F82633CB1A0344013B134497F8262307F543710A4412781A7097F82633013387F8263397F8262397F825339A42D6D397F82733013300
:4043C00087F8273397F81C3307F5F672D35C97F827239A42B5D306E0BB1D1B88184600F063F800E000BFBB1D1B88232B11D0D7F8203393F8503225331B01D7F820231344D7
:40440000181DD7F8203303F5F8731022194614F0FFFE97F81C3307F50772D35C002B3BD1002387F81F33FF2387F81E3397F81F3307F50772D35C002B04D197F81E330133F8
:4044400087F81E3397F81F33013387F81F3397F81F2397F81C339A42E8D997F81E3307F17C02D35C052B14D097F81E3307F17C02D35C062B0DD097F81E3307F17C02D35C89
:40448000082B06D097F81E3307F17C02D35C092B02D1044B01221A7000BF07F54B77BD46F0BD00BFD181FF1FF0B587B000AF0346FB80FB88023B2B2B00F2088401A252F83F
:4044C00023F000BF754500004B470000CD4C000037490000CD4C0000CD4C00005D490000CD4C0000CD4C0000294A0000CD4C0000CD4C0000CD4C0000CD4C0000CD4C00000B
:40450000CD4C0000CD4C0000CD4C0000CD4C0000CD4C0000CD4C0000C34A0000114B0000CD4C0000CD4C0000CD4C0000494B0000CD4C0000CD4C0000994B0000434C0000F8
:40454000CD4C0000CD4C0000CD4C0000CD4C0000CD4C0000CD4C0000CD4C0000CD4C0000CD4C0000CD4C0000CD4C0000794C0000A34C0000B44B93F80F31032B72D0B34B3C
:404580001B683B610023BB750EE0BB7DC3F1030307F10C021344BA7D07F110010A4412781A70BB7D0133BB75BB7D032BEDD9FB684FF08F41184614F013FC0346184614F054
:4045C000D5FD0246A24BC3F8B020A24B1B683B610023BB750EE0BB7DC3F1030307F10C021344BA7D07F110010A4412781A70BB7D0133BB75BB7D032BEDD9FB684FF08F41B1
:40460000184614F0EDFB0346184614F0AFFD02468F4BC3F8B420904B1B683B610023BB750EE0BB7DC3F1030307F10C021344BA7D07F110010A4412781A70BB7D0133BB7560
:40464000BB7D032BEDD9FB684FF08F41184614F0C7FB0346184614F089FD02467C4BC3F8B8203AE3794B1B683B610023BB750EE0BB7DC3F1030307F10C021344BA7D07F1E6
:4046800010010A4412781A70BB7D0133BB75BB7D032BEDD9FB684FF08F41184614F0A0FB0346184614F062FD0246694BC3F8C820684B1B683B610023BB750EE0BB7DC3F1A8
:4046C000030307F10C021344BA7D07F110010A4412781A70BB7D0133BB75BB7D032BEDD9FB684FF08F41184614F07AFB0346184614F03CFD0246564BC3F8CC20564B1B680C
:404700003B610023BB750EE0BB7DC3F1030307F10C021344BA7D07F110010A4412781A70BB7D0133BB75BB7D032BEDD9FB684FF08F41184614F054FB0346184614F016FD02
:404740000246434BC3F8D020C7E23F4B93F80F31032B72D03D4B1B683B610023BB750EE0BB7DC3F1030307F10C021344BA7D07F110010A4412781A70BB7D0133BB75BB7D9D
:40478000032BEDD9FB684FF08F41184614F028FB0346184614F0EAFC02462D4BC3F8BC202C4B1B683B610023BB750EE0BB7DC3F1030307F10C021344BA7D07F110010A4472
:4047C00012781A70BB7D0133BB75BB7D032BEDD9FB684FF08F41184614F002FB0346184614F0C4FC02461A4BC3F8C0201A4B1B683B610023BB750EE0BB7DC3F1030307F1AA
:404800000C021344BA7D07F110010A4412781A70BB7D0133BB75BB7D032BEDD9FB684FF08F41184614F0DCFA0346184614F09EFC0246074BC3F8C4204FE2044B1B683B61E2
:404840000023BB7519E000BFFC95FF1F0394FF1F709AFF1F0794FF1F0B94FF1FBB7DC3F1030307F10C021344BA7D07F110010A4412781A70BB7D0133BB75BB7D032BEDD972
:40488000FB684FF08F41184614F0AAFA0346184614F06CFC0246B94BC3F8D420B84B1B683B610023BB750EE0BB7DC3F1030307F10C021344BA7D07F110010A4412781A701E
:4048C000BB7D0133BB75BB7D032BEDD9FB684FF08F41184614F084FA0346184614F046FC0246A64BC3F8D820A64B1B683B610023BB750EE0BB7DC3F1030307F10C02134425
:40490000BA7D07F110010A4412781A70BB7D0133BB75BB7D032BEDD9FB684FF08F41184614F05EFA0346184614F020FC0246934BC3F8DC20D1E1944BDA78904B83F80E21D5
:404940008E4B93F810311946904A0B465B000B441B0113441B688E4A1360BEE10023FB755BE0864B93F810311C46FA7DFB7D5B0003338549CB5C1B0219B2FB7D02335B004C
:404980008148C35C1BB20B431BB218467B4923465B0023449B001344663341F82300774B93F810311D46F97D744B93F810311C46FA7D724823465B0023449B0013446633B8
:4049C00050F823206D4B93F810311E46F87D6B4C33465B0033441B012344034403F295131B789A4065482B465B002B449B000B44663340F82320614B93F810311846FA7DC6
:404A0000624903465B0003441B010B441344143300221A70FB7D0133FB75FB7D022BA0D95C4B01221A7058E1574BDB781A06564B1B791B041A43544B5B791B021343524A1C
:404A4000927913434D4AC2F8E4304F4BDB791A064D4B1B7A1B041A434B4B5B7A1B021343494A927A1343454AC2F8E830434BD3F8E420424B93F810311846404903465B0044
:404A800003441B010B4403F295131B7802FA03F33A4AC2F8E430394BD3F8E820374B93F810311846354903465B0003441B010B4403F295131B7802FA03F3304AC2F8E8308B
:404AC0000BE1314BDB781A062F4B1B791B041A432D4B5B791B0213432B4A92791343274AC2F84032254BD3F84022244B93F810311846224903465B0003441B010B4403F233
:404B000095131B7802FA03F31C4AC2F84032E4E01D4BDB781A061C4B1B791B041A431A4B5B791B021343184A92791343134AC2F84432124BD3F84432092B00F3C9800F4B3C
:404B40000A22C3F84422C3E00F4BDB783B753B7D002B04D0094B012283F8A72003E0074B002283F8A7200B4B01221A70034B93F8A720024B83F81021AFE000BF709AFF1FCD
:404B80000794FF1F0B94FF1F0094FF1F4095FF1FC098FF1FF895FF1F524BDB783B753B7D002B05D009F0DAFA4F4B002283F8A8204E4B93F82E32012B40F08C8087200AF008
:404BC0006FF803463B753B7D1B09DBB21A46920013445B00DAB23B7D03F00F03DBB21344DAB2414B83F8A42089200AF059F803463B753B7D1B09DBB21A46920013445B00CA
:404C0000DAB23B7D03F00F03DBB21344DAB2364B83F8A5208D200AF043F803463B753B7D1B09DBB21A46920013445B00DAB23B7D03F00F03DBB21344DAB22B4B83F8A620A2
:404C400048E000237B750CE07B7D7A7D03322549895C254A13440A4683F820227B7D01337B757B7D052BEFD91F4B93F82E32012B32D10AF019F92FE01A4BDA781A4B83F881
:404C8000E220194B93F852315B005AB2164B93F8E2305BB213435BB2DBB218460FF0DCFA1BE0104BDA78104B83F852210E4B93F852315B005AB20C4B93F8E2305BB21343D5
:404CC0005BB2DBB218460FF0C7FA06E000BF04E000BF02E000BF00E000BF00BF1C37BD46F0BD00BF0094FF1F709AFF1FFC95FF1FB0B5ADF5D56D00AF0246BB1D1A8007F5BC
:404D00008A7300221A60043340F275520021184614F089FA0723A7F89A360023A7F8A6360223A7F89836B7F89A365A1CB7F8A636134401339AB2D24B1B789BB213449BB2E3
:404D40001A46920013441A4691001A460B4613445B009BB2FB33A7F896360023A7F8943607F1F803C74A1C4615460FCD0FC495E8070003C4228007F1EC0300221A6004330D
:404D800000221A60C3F8032007F1D803BE4A1C4615460FCD0FC42B68236007F1C80300221A60043300221A605A609A6007F19C0300221A60043326220021184614F033FAD4
:404DC00007F1800300221A60043300221A605A609A60DA601A619A8207F1C803184615F028F8034687F8933607F1F803184615F020F8034687F8923607F1EC03184615F025
:404E000018F8034687F8913607F1D803184615F010F8034687F8903607F19C03184615F008F8034687F88F3607F18003184615F000F8034687F89D3607F1080300221A6070
:404E4000043372220021184614F0EDF907F1080064230A228D4914F0AFFF07F10803184614F0E7FF034687F88E36854B1B785B08DBB2A7F8A636824B1B781A46B7F8A636D3
:404E80005B00D31A002B04DDB7F8A6360133A7F8A636B7F89A365A1CB7F8A636134401339AB2774B1B789BB213449BB21A46920013441A4691001A460B4613445B009BB2DD
:404EC000C933A7F89636B7F89A26B7F8A63613449BB20333A7F8983607F58A73A2221A70B7F89A36DAB2B7F8A636DBB21344DAB2634B1B781344DBB20333DAB207F58A73DD
:404F00005A70BB1D1B88002B40F0D0840023A7F8943607F58A7302229A7007F58A730122DA70574B1A7807F58A731A7197F89236A7F8A43615E097F892365A1DB7F8A43690
:404F4000D31A97F89216B7F8A4268A1A07F1F801895C07F58A72D154B7F8A436013BA7F8A436B7F8A436002BE5D1B7F894363233A7F894360023A7F8A4360023A7F8A036DA
:404F8000B2E0B7F8A02607F1EC034149184614F013FF0423A7F89E3607F1EC03184614F048FF034687F89136B7F894369A1CB7F8A036322101FB03F3134407F58A720221E1
:404FC000D154B7F89436DA1CB7F8A036322101FB03F3134407F58A720321D154B7F8A0361A4652001344A7F8A23639E0B7F8A436284AD35C9BB2B7F8A2269A4217D1B7F83C
:405000009E26B7F894361A44B7F8A036322101FB03F31344B7F8A4261E49895C07F58A72D154B7F8A4360133A7F8A4360EE0B7F89E26B7F894361A44B7F8A036322101FB90
:4050400003F3134407F58A72FF21D154B7F89E360133A7F89E36B7F8A2360133A7F8A236B7F8A216B7F8A02613465B00134402339942BBDD97F89136A7F8A2362BE000BF24
:40508000FC93FF1F7CC6010098C60100C8BD010014C601003095FF1FB7F89436DA1DB7F8A036322101FB03F31A4497F891361A44B7F8A236D31A97F89116B7F8A2268A1A4C
:4050C00007F1EC01895C07F58A72D154B7F8A236013BA7F8A236B7F8A236002BDCD1B7F8A0360133A7F8A036B7F8A026B7F89A369A42FFF446AFB7F89A361A469200134482
:405100001A4691001A460B4613445B009AB2B7F894361344A7F894360023A7F8A0361FE1B7F894369A1CB7F8A036322101FB03F3134407F58A720221D154B7F89436DA1CFF
:40514000B7F8A036322101FB03F3134407F58A720321D154B7F894361A1DB7F8A036322101FB03F31A44B7F8A0365B00B249CB5C1846B24903465B0003440B44197807F5D3
:405180008A739954B7F894365A1DB7F8A036322101FB03F31A44B7F8A0365B00A649CB5C1846A64903465B0003440B440133197807F58A739954B7F894369A1DB7F8A03610
:4051C000322101FB03F31A44B7F8A0365B009A49CB5C1846994903465B0003440B440233197807F58A739954954B1B781A46B7F8A03601335B009A4228DA97F89036A7F843
:40520000A2361EE0B7F89436DA1DB7F8A036322101FB03F31A4497F890361A44B7F8A236D31A97F89016B7F8A2268A1A07F1D801895C07F58A72D154B7F8A236013BA7F854
:40524000A236B7F8A236002BDCD184E0B7F89436DA1CB7F8A036322101FB03F3134407F58A720621D154B7F89436DA1DB7F8A036322101FB03F31A44B7F8A0365B00013313
:405280006D49CB5C18466D4903465B0003440B44197807F58A739954B7F8943603F10802B7F8A036322101FB03F31A44B7F8A0365B0001336049CB5C1846604903465B001E
:4052C00003440B440133197807F58A739954B7F8943603F10902B7F8A036322101FB03F31A44B7F8A0365B0001335349CB5C1846524903465B0003440B440233197807F501
:405300008A73995497F89036A7F8A2361FE0B7F8943603F10A02B7F8A036322101FB03F31A4497F890361A44B7F8A236D31A97F89016B7F8A2268A1A07F1D801895C07F5EE
:405340008A72D154B7F8A236013BA7F8A236B7F8A236002BDBD1B7F8A0360133A7F8A036B7F8A026B7F8A6369A42FFF4D9AEB7F8A6361A46920013441A4691001A460B467A
:4053800013445B009AB2B7F894361344A7F89436B7F898365A1E07F1C8032A49184614F00BFD07F1C803184614F043FD034687F89336B7F89436023307F58A720221D1543D
:4053C000B7F89436033307F58A720121D154B7F8943604331C4A92F8A01007F58A72D15497F89336A7F8A43618E0B7F894365A1D97F893361A44B7F8A436D31A97F8931635
:40540000B7F8A4268A1A07F1C801895C07F58A72D154B7F8A436013BA7F8A436B7F8A436002BE2D1B7F894363233A7F894360023A7F8A43638E100BF3095FF1FA095FF1FF6
:40544000FC93FF1F20C60100FC95FF1FB7F89826B7F8A436D118B7F8A436D54AD35C07F19C000A46D34914F0A7FC07F19C03184614F0DFFC034687F88F36B7F8A4361A4642
:40548000920013441A4691001A460B4613445B009AB2B7F8943613449BB202339BB21A4607F58A7302219954B7F8A4361A46920013441A4691001A460B4613445B009AB2E9
:4054C000B7F8943613449BB203339BB21A4607F58A7305219954B7F8A4361A46920013441A4691001A460B4613445B009AB2B7F8943613449BB204339BB21846B7F8A436A6
:40550000AB4AD35C1946AC4A0B469B000B44134403F202231A7807F58A731A54B7F8A4361A46920013441A4691001A460B4613445B009AB2B7F8943613449BB205339BB239
:405540001846B7F8A4369A4AD35C19469A4A0B469B000B44134403F203231A7807F58A731A54B7F8A4361A46920013441A4691001A460B4613445B009AB2B7F89436134406
:405580009BB206339BB21846B7F8A436884AD35C1946894A0B469B000B44134403F501731A7807F58A731A54B7F8A4361A46920013441A4691001A460B4613445B009AB295
:4055C000B7F8943613449BB207339BB21846B7F8A436774AD35C1946774A0B469B000B44134403F205231A7807F58A731A54B7F8A4361A46920013441A4691001A460B46F4
:4056000013445B009AB2B7F8943613449BB208339BB21846B7F8A436654AD35C1946664A0B469B000B44134403F206231A7807F58A731A5497F88F36A7F8A2362BE0B7F8C5
:40564000A4361A46920013441A4691001A460B4613445B009AB2B7F8943613449AB297F88F369BB213449AB2B7F8A236D31A9BB209339BB2194697F88F26B7F8A236D31AA6
:4056800007F19C02D25C07F58A735A54B7F8A236013BA7F8A236B7F8A236002BCFD1B7F8A4360133A7F8A436444B1B789BB2B7F8A4269A42FFF4CAAE404B1B789BB21A46C3
:4056C000920013441A4691001A460B4613445B009AB2B7F894361344A7F89436B7F89836364A12781A4407F180033549184614F063FBB7F89436023307F58A720021D1545E
:40570000B7F89436033307F58A720121D154B7F894360433284A92F8011207F58A72D154254B93F80132012B17D0022B28D0002B00D038E007F18003184614F07AFB03468B
:405740001A4607F1800313441E4A1068186092889A801A2387F89D3625E007F18003184614F067FB03461A4607F180031344164A1068186012791A71192387F89D3612E037
:4057800007F18003184614F054FB03461A4607F1800313440D4A1068186092889A801A2387F89D3600BF97F89D36A7F8A43628E03095FF1F30C60100FC95FF1FFC93FF1F60
:4057C0004CC6010064C601006CC6010074C60100B7F894365A1D97F89D361A44B7F8A436D31A97F89D16B7F8A4268A1A07F18001895C07F58A72D154B7F8A436013BA7F899
:40580000A436B7F8A436002BE2D1B7F894365A1D97F89D36134407F58A720121D154B7F894363233A7F8943697F88E36A7F8A4361AE0B7F8943602339BB21A4697F88E3684
:405840001A44B7F8A436D31A97F88E16B7F8A4268A1A07F10801895C07F58A72D154B7F8A436013BA7F8A436B7F8A436002BE0D1B7F896365C1EB7F89636DBB2013BDAB299
:4058800007F58A731146184603F0FCFB03461A4607F58A731A55B7F8962607F58A731146184603F06BFB0CF005FF09E1BB1D1A88B7F89836013B9A42C0F20181BB1D1A8826
:4058C000B7F89836814909780B449A4205D1804BDA78804B83F80122F2E0BB1D1A88B7F89836013B9A4205D1794BDA78794B83F8A020E5E0BB1D1A88B7F89836D31A764A24
:40590000D35C1946724BD878724A0B469B000B44134403F2022302461A70BB1D1A88B7F89836D31A6C4AD35C1946694B1879694A0B469B000B44134403F2032302461A70F3
:40594000BB1D1A88B7F89836D31A634AD35C19465F4B58795F4A0B469B000B44134403F5017302461A70BB1D1A88B7F89836D31A594AD35C1946564B9879564A0B469B00C1
:405980000B44134403F2052302461A70BB1D1A88B7F89836D31A504AD35C19464C4BD8794C4A0B469B000B44134403F2062302461A704A4B01221A600023A7F8A43671E027
:4059C000B7F8A436444AD35C1C46B7F8A436424AD35C19463F4A0B469B000B44134403F202231B781A4613465B0013445B005A1CB7F8A4363849CB5C1846364903469B0066
:405A000003440B4403F203231B7819460B465B000B445B001A44B7F8A4362F49CB5C18462C4903469B0003440B4403F501731B7819460B465B000B445B001A44B7F8A436FF
:405A40002549CB5C1846234903469B0003440B4403F205231B781B011A44B7F8A4361E49CB5C18461B4903469B0003440B4403F206231B785B0013440133194A42F8243048
:405A8000B7F8A436144AD35C1A46154B53F82220124B1B681344114A1360B7F8A4360133A7F8A436094B1B789BB2B7F8A4269A4286D30A4B1B680133084A136000E000BFF6
:405AC00000BF07F5D567BD46B0BD00BFFC93FF1F0094FF1F709AFF1F3095FF1FD094FF1FB095FF1F90B583B000AF0023BB7127E00023FB711EE0BA79F979FB79174850F867
:405B000023301C46164813465B0013449B000B44663340F82340BA79F979124813465B0013441B0103440B44143300221A70FB790133FB71FB79022BDDD9BB790133BB717B
:405B4000BB79012BD4D9084B01221A70012003F0B9FA00BF0C37BD4690BD00BF1C95FF1F709AFF1F4095FF1FF895FF1F2DE9F043A7B004AF78609E4BFB679D4B93F8A030F2
:405B8000FA2B01F05A847B6800221A70786814F050F903461A467B681344964A1188927819809A70786814F044F903461A467B681344914A1D4614460FCC28606960AA605A
:405BC000EB602388A2782B821346AB74786814F030F903461A467B681344884A14469E4604F1300C754626460FCE28606960AA60EB6010340EF1100E6445F3D173462246A6
:405C00001068186092889A80786814F012F903461A467B6813447A4A1068186092889A80FB6F93F85032012B02D0022B15D027E0786814F0FEF803461A467B681344714A80
:405C40001D4614460FCC28606960AA60EB6003CC2861696123782B7622E0786814F0E9F803461A467B681344674A1D4614460FCC28606960AA60EB6003CC286169610FE0DE
:405C8000786814F0D6F803461A467B6813445F4A1C4615460FCD20606160A260E36000BF786814F0C6F803461A467B681344514A1188927819809A70786814F0BAF8034683
:405CC0001A467B681344524A1C46134607CB20606160A2601B88A381FB6F93F8A0301A4607F10C034B49184614F066F807F10C031946786814F084F8FB6F93F8A730002B9A
:405D000002D0012B15D026E0786814F092F803461A467B681344404A1D4614460FCC28606960AA60EB602388A2782B821346AB7411E0786814F07DF803461A467B6813444A
:405D4000364A1D4614460FCC28606960AA60EB6023882B8200BF786814F06BF803461A467B681344234A1188927819809A70002387F8833000F0ABBF97F8833087F87B3056
:405D800097F87B201346DB009B1A1B01B033FA6F13447B677B6F93F8603087F87330786814F047F803461A467B6813441C4A1D4614460FCC28606960AA60EB6003CC286106
:405DC00069612388A2782B831346AB767B6F93F83130012B28D1786814F02BF803461A467B6813440F4A1068186012791A7125E0FC95FF1FACC60100B0C60100C4C601007F
:405E0000FCC6010004C7010020C7010038C7010048C7010058C7010064C7010078C701008CC70100A8C70100786814F002F803461A467B681344A04A1068186097F87B30B6
:405E40009E4AD35C1A4607F10C039D49184613F0B3FF07F10C031946786813F0D1FF786813F0E7FF03461A467B681344954A1188927819809A7097F87B305A1C07F10C030A
:405E80009149184613F098FF07F10C031946786813F0B6FF786813F0CCFF03461A467B6813448A4A1C4615460FCD20606160A260E3607B6F93F85F30022B10D1786813F099
:405EC000B8FF03461A467B681344814A1C46134607CB20606160A2601B88A38124E07B6F93F85F30012B0FD1786813F0A2FF03461A467B68134477491A460B4603CB10607C
:405F000051601B7813720FE0786813F092FF03461A467B681344704A1C46134607CB20606160A2601B88A3817B6F93F85F30022B13D197F87B30694A1B01134404331A68D3
:405F400007F10C036649184613F036FF07F10C031946786813F054FF37E07B6F93F85F30012B13D197F87B305C4A1B01134408331A6807F10C035A49184613F01DFF07F1DF
:405F80000C031946786813F03BFF1EE097F87B30524A1B011344196897F87320F86F13465B0013441B01034403F295131B7841FA03F207F10C034A49184613F0FDFE07F149
:405FC0000C031946786813F01BFF786813F031FF03461A467B6813443A4A1188927819809A70786813F025FF03461A467B681344344A1188927819809A7007F10C03394A3E
:406000001C4613460FCB84E80F0097F87B30364A1B0113440C331B7803F00103002B0FD007F10C03184613F004FF03461A4607F10C0313442D4A1068186092889A800EE055
:4060400007F10C03184613F0F4FE03461A4607F10C031344264A1068186012791A7107F10C031946786813F0CBFE786813F0E1FE03461A467B6813441E4A1D4614460FCC92
:4060800028606960AA60EB6020682861A388AB82786813F0CEFE03461A467B681344164A1C4615460FCD20606160A260E3600023C7F884305EE000BFB0C70100F898FF1F07
:4060C000B4C70100ACC60100C4C70100D4C70100E4C70100F4C7010000C80100F49CFF1F10C8010014C80100A098FF1F24C801002CC8010034C801004CC80100D7F8843027
:406100005C1C97F873208A4913465B0013449B00D7F88420134451F8231097F87320F86F13465B0013441B01C218D7F88430134403F295131B7841FA03F307F10C002246D5
:406140007C4913F039FE07F10C031946786813F057FE786813F06DFE03461A467B681344754A1188927819809A70D7F884300133C7F88430D7F88430022BBFDD97F87B309C
:40618000591C97F87B306D4A52F8233007F10C000A466B4913F010FE07F10C031946786813F02EFE786813F044FE03461A467B681344614A1188927819809A7097F87B301B
:4061C000591C97F87B305F4A52F8233007F10C000A465D4913F0F0FD07F10C031946786813F00EFE786813F024FE03461A467B681344514A1188927819809A7097F87B3068
:406200005C1C97F873204A4913465B0013441B010B440C331B6807F10C0022464B4913F0CBFD07F10C031946786813F0E9FD786813F0FFFD03461A467B6813443E4A11881C
:40624000927819809A70786813F0F3FD03461A467B6813443E4A1D4614460FCC28606960AA60EB6020682861A388AB82786813F0E0FD03461A467B681344364A1D461446AC
:406280000FCC28606960AA60EB6023882B827B6F93F85F30032B67D07B6F1B68184612F02BF94FF000022C4B12F0B6FA03460C4607F10C001A462346284913F07DFD07F1F3
:4062C0000C031946786813F09BFD7B6F5B68184612F012F94FF000021F4B12F09DFA03460C4607F10C001A4623461D4913F064FD07F10C031946786813F082FD7B6F9B6872
:40630000184612F0F9F84FF00002134B12F084FA03460C4607F10C001A462346114913F04BFD07F10C031946786813F069FD66E04095FF1F5CC80100ACC60100789EFF1F2C
:4063400068C801003895FF1F88C80100B0C80100C8C80100E0C801000000F040F4C8010000C901000CC901007B6F9B69184612F0C3F84FF00002CD4B12F04EFA03460C4629
:4063800007F10C001A462346C94913F015FD07F10C031946786813F033FD7B6FDB69184612F0AAF84FF00002C04B12F035FA03460C4607F10C001A462346BE4913F0FCFC59
:4063C00007F10C031946786813F01AFD7B6F1B6A184612F091F84FF00002B44B12F01CFA03460C4607F10C001A462346B24913F0E3FC07F10C031946786813F001FD786821
:4064000013F017FD03461A467B681344AB4A1D4614460FCC28606960AA60EB6003CC2861696123882B837B6F93F85F30032B4BD07B6FDB68184612F05FF84FF000029B4B5C
:4064400012F0EAF903460C4607F10C001A462346974913F0B1FC07F10C031946786813F0CFFC7B6F1B69184612F046F84FF000028E4B12F0D1F903460C4607F10C001A463A
:4064800023468C4913F098FC07F10C031946786813F0B6FC7B6F5B69184612F02DF84FF00002824B12F0B8F903460C4607F10C001A462346804913F07FFC07F10C03194603
:4064C000786813F09DFC4AE07B6F5B6A184612F013F84FF00002754B12F09EF903460C4607F10C001A462346714913F065FC07F10C031946786813F083FC7B6F9B6A1846A7
:4065000011F0FAFF4FF00002684B12F085F903460C4607F10C001A462346664913F04CFC07F10C031946786813F06AFC7B6FDB6A184611F0E1FF4FF000025C4B12F06CF91F
:4065400003460C4607F10C001A4623465A4913F033FC07F10C031946786813F051FC786813F067FC03461A467B681344544A1188927819809A707B6F93F83030012B14D155
:40658000786813F056FC03461A467B6813444D4A1D4614460FCC28606960AA60EB6003CC2861696123882B8313E0786813F041FC03461A467B681344434A1D4614460FCC58
:4065C00028606960AA60EB6003CC2861696123782B767B6F93F85E30052B00F2AE8001A252F823F0FD65000021660000496600007B660000DD6600000B670000786813F033
:4066000018FC03461A467B681344304A1D4614460FCC28606960AA60EB6023882B828CE0786813F006FC03461A467B681344284A1D4614460FCC28606960AA60EB602068E7
:40664000286123792B7578E0786813F0F2FB03461A467B6813441F4A1D4614460FCC28606960AA60EB6007CC28616961AA612388A278AB831346AB775FE0786813F0D9FB0E
:4066800003461A467B681344134A1D4614460FCC28606960AA60EB6003CC286169612388A2782B831346AB7647E000BF0000F040F4C8010000C901000CC9010018C90100F8
:4066C000ACC6010034C9010050C901006CC9010080C9010098C90100B8C90100786813F0A8FB03461A467B681344D14A1C4615460FCD20606160A260E36028682061AB88C4
:40670000AA79A3821346A37517E0786813F091FB03461A467B681344C64A1D4614460FCC28606960AA60EB6003CC286169612388A2782B831346AB7600BF7B6F93F85F3037
:40674000032B64D801A252F823F000BF5D67000087670000AB670000D1670000786813F068FB03461A467B681344B34A1D4614460FCC28606960AA60EB6003CC286169616E
:4067800023782B7644E0786813F053FB03461A467B681344A94A1D4614460FCC28606960AA60EB602068286132E0786813F041FB03461A467B681344A14A1D4614460FCC8C
:4067C00028606960AA60EB6003CC286169611FE0786813F02EFB03461A467B681344994A14469E4604F1200C754626460FCE28606960AA60EB6010340EF1100E6445F3D129
:40680000734622461068186012791A7100E000BF97F87320F96F13465B0013441B010B4403F5D8731B78002B1CD0786813F001FB03461A467B681344834A14469E4604F1E3
:40684000200C754626460FCE28606960AA60EB6010340EF1100E6445F3D17346224612781A7013E0786813F0E4FA03461A467B681344764A1C4615460FCD20606160A2600C
:40688000E3600FCD20616161A261E36197F87320F96F13465B0013441B010B4403F2B11393F900301A4607F10C036949184613F083FA07F10C031946786813F0A1FA7868FF
:4068C00013F0B7FA03461A467B681344614A1D4614460FCC28606960AA60EB602068286123792B750023C7F884302DE0D7F884305C1C97F87320F96F13465B0013441B017C
:40690000CA18D7F88430134403F295131B7807F10C002246504913F04FFA07F10C031946786813F06DFA786813F083FA03461A467B681344494A1188927819809A70D7F87F
:4069400084300133C7F88430D7F88430022BCDDD786813F06EFA03461A467B681344404A1D4614460FCC28606960AA60EB6020682861A388AB820023C7F884303CE0D7F882
:4069800084305C1C97F87320F96F13465B0013449B00D7F884201344663351F8231097F87320F86F13465B0013441B01C218D7F88430134403F295131B7841FA03F307F1DF
:4069C0000C002246274913F0F7F907F10C031946786813F015FA786813F02BFA03461A467B6813441D4A1188927819809A70D7F884300133C7F88430D7F88430022BBEDD5B
:406A0000786813F016FA03461A467B681344164A1D4614460FCC28606960AA60EB6003CC2861696123882B830023C7F8843052E0D4C90100ECC9010008CA010024CA010089
:406A400038CA010050CA010078CA01009CCA0100BCCA0100D8CA01005CC80100ACC60100F0CA010008CB010014CB0100D7F884305D1C97F87320F96F13465B0013449B00F1
:406A8000D7F88420134468339B000B445B68184611F044FD03460C4607F10C00CDE900342A46C14913F088F907F10C031946786813F0A6F9786813F0BCF903461A467B6891
:406AC0001344BA4A1188927819809A70D7F884300133C7F88430D7F88430022BC6DD786813F0A7F903461A467B681344B04A1D4614460FCC28606960AA60EB6003CC286182
:406B000069617B6F5B6C184611F008FD804689467B6F9B6C184611F001FD04460D467B6FDB6C184611F0FAFC02460B4607F10C00CDE90223CDE9004542464B469D4913F0FB
:406B40003BF907F10C031946786813F059F97B6F1B6D184611F0E2FC804689467B6F5B6D184611F0DBFC04460D467B6F9B6D184611F0D4FC02460B4607F10C00CDE90223E4
:406B8000CDE9004542464B468B4913F015F907F10C031946786813F033F9786813F049F903461A467B681344804A1188927819809A707B6F93F833301A4607F10C037F4948
:406BC000184613F0F9F807F10C031946786813F017F9786813F02DF903461A467B681344724A1188927819809A707B6F596B97F87320F86F13465B0013441B01034403F262
:406C000095131B7841FA03F207F10C036C49184613F0D2F807F10C031946786813F0F0F87B6F996B97F87320F86F13465B0013441B01034403F295131B7841FA03F207F194
:406C40000C036049184613F0B7F807F10C031946786813F0D5F87B6F1A6C7B6FDB6B07F10C00594913F0A8F807F10C031946786813F0C6F8786813F0DCF803461A467B6803
:406C800013444A4A1188927819809A707B6FB3F95C301A4607F10C034C49184613F08CF807F10C031946786813F0AAF8786813F0C0F803461A467B6813443C4A118892780E
:406CC00019809A7097F88330013387F88330FB6F93F8A93097F883209A427FF64DA8786813F0A7F803461A467B681344384A1D4614460FCC28606960AA60EB6020682861CD
:406D0000FB6FB3F8F0311A46FB6FB3F8F23107F10C00304913F050F807F10C031946786813F06EF8786813F084F803461A467B6813441E4A1188927819809A70FB6FD3F8E9
:406D4000F421FB6FD3F8F83107F10C00224913F033F807F10C031946786813F051F8786813F067F803461A467B6813440F4A1188927819809A70FB6F93F8FE31002B2FD05F
:406D8000786813F056F803461A467B681344134A1D4614460FCC28606960AA60EB602068286123792B752CE030CB0100ACC601003CCB010054CB010070CB01008CCB0100A0
:406DC000A8CB0100CCCB0100DCCB0100F8CB01000CCC010020CC010044CC010068CC0100786813F026F803461A467B681344B34A1D4614460FCC28606960AA60EB60206868
:406E00002861FB6F93F8FD31002B17D0786813F010F803461A467B681344A94A1D4614460FCC28606960AA60EB6003CC286169612388A2782B831346AB7613E0786812F0B1
:406E4000F8FF03461A467B6813449E4A1D4614460FCC28606960AA60EB6003CC2861696123882B83FB6F93F8FC311A4607F10C039549184612F0A0FF07F10C0319467868EB
:406E800012F0BEFF786812F0D4FF03461A467B6813448E4A1188927819809A70FB6F93F82F32012B6ED1786812F0C3FF03461A467B681344864A1C4615460FCD206061606B
:406EC000A260E3600FCD20616161A261E3610023C7F8843025E0D7F88430591C7D4AD7F88430023352F8233007F10C000A467A4912F062FF07F10C031946786812F080FFF7
:406F0000786812F096FF03461A467B6813446F4A1188927819809A70D7F884300133C7F88430D7F88430052BD5DD0023C7F8843024E0D7F88430591C664AD7F8843052F85A
:406F4000233007F10C000A46644912F035FF07F10C031946786812F053FF786812F069FF03461A467B681344584A1188927819809A70D7F884300133C7F88430D7F884302B
:406F8000012BD6DDFB6F93F84C32002B5ED0FB6FD3F8442207F10C035149184612F00CFF07F10C031946786812F02AFF786812F040FF03461A467B681344444A11889278D9
:406FC00019809A70FB6FD3F8482207F10C034549184612F0F1FE07F10C031946786812F00FFF786812F025FF03461A467B681344364A1188927819809A70FB6FD3F84022CF
:40700000FB6F93F810311846F96F03465B0003441B010B4403F295131B781A4107F10C033149184612F0C8FE07F10C031946786812F0E6FE786812F0FCFE03461A467B6838
:407040001344224A1188927819809A70FB6F93F80032002B00F0C781244B1B781A4607F10C032349184612F0A7FE07F10C031946786812F0C5FE786812F0DBFE03461A4634
:407080007B681344114A1188927819809A70786812F0CFFE03461A467B681344154A1D4614460FCC28606960AA60EB602068286123792B750023C7F884307DE180CC010038
:4070C00094CC0100B0CC0100CCCC0100ACC60100E0CC0100D494FF1F00CD010010CD010024CD010040CD010068CD0100FC93FF1F7CCD010090CD0100D24AD7F88430134446
:407100001B7807F10C00D7F88420CF4912F054FE07F10C031946786812F072FE07F10C03CA4A1C4615460FCD0FC42B682380C54AD7F8843013441B781946FA6F0B469B0034
:407140000B44134403F202231B78002B0FD007F10C03184612F06DFE03461A4607F10C031344BB4A1068186092889A800EE007F10C03184612F05DFE03461A4607F10C0350
:407180001344B44A1068186012791A7107F10C03184612F04EFE03461A4607F10C031344AD4A1C46134607CB20606160A2601B88A381A44AD7F8843013441B781946FA6F09
:4071C0000B469B000B44134403F203231B78002B0FD007F10C03184612F02BFE03461A4607F10C0313449A4A1068186092889A800EE007F10C03184612F01BFE03461A468F
:4072000007F10C031344934A1068186012791A7107F10C03184612F00CFE03461A4607F10C0313448D4A1D4614460FCC28606960AA60EB6023782B74824AD7F884301344A0
