:400000000080002011000000A9020000A9020000044A08B51268044B1A6000F0ADF900F04BF900BFFA460040BC76004010B5054C237833B9044B13B10448AFF300800123AE
:40004000237010BD4881FF1F000000001C170000084B10B51BB108490848AFF300800848036803B910BD074B002BFBD0BDE81040184700BF000000004C81FF1F1C170000A2
:40008000C880FF1F0000000008B500F077FDFEE7F8B572B66D4E0024354604EB4403AA8856F813000134002101F02CFB0A2C05F10605F2D1664E674B96E803008022186073
:4000C0009980654806F1080101F0F6FA06F1840706F1E00E0025E43657F8043F13F0FF0C23F0FF0414D00CF1FF3C5FFA8CFC05EB0C0006EB400006EB45030330013313F828
:40010000012C13F8021B98421155F8D1013565447745E1D1514C41F251262278504F42F0020222703A784F4D42F002023A702A78A4F5863442F040022A70413C2278A7F5E8
:400140007E4742F01002484B2270513F04F66E5403CB3860796003CBC5F8720DC5F8761D93E8070003C4414922800B7805F58C6543F008030B703E4C3E4861232B70A7F604
:40018000C2673D4A332118250223218005704FF040243B7008210320384B217010701A783748384BD2B287F8A123A4F8221206801C784FF4F07004F001041E4600F0D0FF91
:4001C00001E0032C0DD033784FF4F07003F0010343EA440400F0C4FF013D04F00304F0D1FEE7294B294D2A4F2A484FF4807407221C8000211A704826274A022439702E70FE
:4002000019700470137800F5F820033043F00103812601242149137085F8F86704700B78A0F5F420DBB21E49A0F2967005F5C35503F007071B4C1B090770023A0B700E35EF
:4002400044260FCA2E7007C42380F8BD201700005C17000060520040001A01400350014013500140A04300407C1B0000224300408040004082400040004200400801004916
:40028000204200402542004004400040084000400640004001400040A2430040CF0100496F580040B043004008B501F0D9F903680C2B00D0FEE7FEE780B5134FF7B1134E0E
:4002C000002556F80C0C56F8084C56F8102C03463CB1043A52F8041F43F8041B191AA142F8D156F8040C1A4620B142F8045BD11A8842FAD1013F06F11006E2D101F0B6F9E5
:40030000FFF7C2FEFEE700BF01000000D81B00000E4B0F4A0F491A600B680F4A43F400730E480B600023032B94BF50F823100C490133302B42F8041FF5D10A4B0A49187856
:400340000A4A0B4B08701A60FFF7A2BE0CED00E00004FA0514ED00E0FC7FFF1F00000000A9020000BC760040C080FF1F0080FF1F08ED00E0004700BF134A137803F0C003A3
:40038000802B00D0704770B400231048104E114D1370017833782A780F4C120442EA032322780B4353EA026301D170BC7047017833782A782078120442EA03230B4343EA24
:4003C000006070BCFFF7D6BFFA460040C1FF0300C2FF0300C3FF0300C4FF0300F0B50002C0F57F3090F8C5E390F8C67390F8C92390F8CAC390F8CB1390F8CC3390F8D15336
:40040000C1B0012D69D0DBB21D06C9B290F8C53390F8C663FFB245EA01415FFA8EFED2B25FFA8CFC0A434EEA072E43EA062642EA0C220EF10107013602EB072736020022FC
:40044000B74200F2D13415460AD916F8013B591EC9B2FD29134498BF0125B742DAB2F4D190F8C53390F8C6131D4E43EA0121B7424FEA411101F1200114BFFF084FF4004738
:400480008F4209D901F1904107F1904711F8013B1344B942DAB2F9D1534290F8C023DBB2934202D0062041B0F0BD002DFAD068464FF4807224F0FF0101F009F99DF8D1309B
:4004C000012B0AD00123C4F307216A4603208DF8D13000F0E1FB00F005FD002041B0F0BDC0FF0300013810B40B2863D8DFE800F017202632383E444A50565C060902C1F5DE
:400500007F3101F578710A784C788B78C8781B0443EA0423134343EA006010BC70470902C1F57F3101F57071087810BCC0B270470902C1F57F3101F2C131E4E70902C1F52B
:400540007F3101F2C5314A1C0B78107810BC43EA002070470902C1F57F3101F2C931D2E70902C1F57F3101F57471DDE70902C1F57F3101F2D131D7E70902C1F57F3101F2F2
:40058000D231E0E70902C1F57F3101F2D631DAE70902C1F57F3101F57571D4E70902C1F57F3101F57671AEE70902C1F57F3101F57771B9E701220021C6E700BF2DE98048DD
:4005C000ADF5677D00F0DCFD62B600239B461E4601930DF23F1451AF0DF245190DF5A3780293FF2305AA4FF4967150A800F0E8FD0028F6D1BDF81420062A03D99DF8405145
:40060000012D2CD04FF0040A0025284604210123ADF816008DF841A18DF842518DF843618DF840310023625C0139134489B29BB20029F8D15B429BB25FFA83FE1A0AC11D5C
:40064000172507F800E089B209F80020962308F800500DF1160250A800F09EFDC1E7BDF84231D91D914200F2E680B1F5967F00F2E28050AA1A449279172AC3D1191D89B2B8
:40068000002900F04A82625C0139104489B280B20029F8D1404280B250AAD11891F805E00A7942EA0E22824202D04FF0080AABE79DF841119DF844A1A1F131020A2A00F201
:4006C000AD80DFE802F04788AB5A41AB311F5A1606000020FFF782FE10B9BD4A8023137000F058FD002500F0C9FB04218A4628468DE7BBF1000F40F0BB80042100258A46CD
:40070000284684E7002BF8D1B24A082592E8030008AA82E8030087E8030001939A4628460C214FF0010B72E7BBF1000FE5D0019A03EB020EBEF5967F40F3108100252846DA
:4007400004214FF0030A62E7BBF1000FD5D00023019346E7BBF1000FCFD0002BCDD118460393FFF73BFEB0FA80F0039B40098DF844019A460521584649E734295ED0BBF15F
:40078000000FBAD0022BB8D9AAF1400B019D5FFA8BFB033B9BAA50190DF247111A46039300F08AFF019BBBF13F0F1A46039B1A4495B240F207814FF480734FF49072954288
:4007C00000F0F38000250195284604214FF0010B4FF0030A1BE7BBF1000F8ED0012B8CD1BAF1030F89D87C4B1B681B68C3F30742924500F09E8194BF012200220023FF2162
:4008000004258DF846118DF844318DF845218DF84761284608214FF0000AF8E66F4A1568002D6CD0BBF1000F6ED10025284604214FF0050AEBE64FF0030AE5E6BBF1000FA1
:400840003FF45BAF032B7FF458AFAAF1400B5FFA8BFBBBF13F0F94BF10254FF490752A4600219BA80393019500F04CFF039B90E7032B7FF442AFAAF140033F2BBDF84511CF
:4008800040F2E780FF2979D84FEA0A2E0EEB0100000200F1FF020023013812F801C963448242DBB2F9D1BAF13F0F20D80EF110720A4452011046203210F801EB73448242AB
:4008C000DBB2F9D1BAF1030F11D1FF290FD1002105200393FFF706FE039B00211B1A06205FFA83FAFFF7FEFDC0EB0A00C3B25B428DF8443105214FF0000A012087E6042160
:4009000028464FF0050A82E68DF81810ADF81A3006A80797089609960A9708A9A847BDF824000A9BB0F5937F01D3BB422ED05BB39DF82030021D91B28DF841310122030AAD
:40094000ADF816008DF842018DF840218DF8433100297FF467AE0A468E4670E61A46019B9BA90B441846394600251FFA8EF30193AA4600F0A1FE2846042148E60025284658
:4009800004214FF00A0A42E60028D1D001220E23ADF816608DF842618DF843618DF840218DF84131042100203CE6BDF845219A42019215D30025284604214FF0010B4FF016
:4009C0000A0A24E600F030FA80231022F7E600BFFA460040981B0000CC80FF1F6481FF1FBAF13F0F20D8554B02EB0A221B6892B21968C1F30F2311F0FF0F1CBF01339BB26B
:400A00009A42C0F08C80029B73B919464FF4907208A800F077FE4FF4907308AAFF21032000F0A0F9012302932B46019950469BAA00F098F9002398420CBF9A464FF00A0ABD
:400A400001931D464FF0010B00F04CFA01980421DDE5039100F0E8F903997F294FEA01138CD837483749384A18441944DFF8DCC000781A440978DFF8D8E012789C449E4445
:400A800008449CF80010DFF8CCC010449EF80020DFF8C4E09C449E4408449CF80010DFF8BCC010449EF80020DFF8B4E09C449E4408449CF80010DFF8ACC010449EF80020E5
:400AC000DFF8A4E09C449E4408449CF80010DFF89CC010449EF80020DFF894E09C449E4408449CF80010DFF88CC010449EF80020DFF884E09C4408449E449CF8001003F1A1
:400B00008043104403F500439EF8002001441B780A44134403F0FF03E9E60846BCE5002301931D46184604214FF0010B4FF00A0A6DE5C3F30723002261E600BFCC80FF1F7E
:400B40000F8000400E8000400D8000400C8000400B8000400A80004009800040088000400780004006800040058000400480004003800040028000400180004038B500F0E0
:400B800039F870BB0020FFF729FC184C0028236818BF06251A6808BF00256AB1002312F8011D0B44DBB2002AF9D162681278D31A03F0FF039A4202D0002000F05DF90C4A41
:400BC000137803F0C003402B00D025B1084B00221A70FFF7F3FC80231370BDE8384000F04DB9002000F048F9CCE700BFCC80FF1FFA46004038B500F0AFF900F05FFA10B14A
:400C00000424204638BD00F095FA072804462BD000F076FA002CF4D100F09EF900F04EFA0028EDD1012000F02DFA072805D04FF0FF3400F065FA204638BD154C02E0237812
:400C40009B07F4D40221134800F09CF90228F6D10F4C2378990705D4012000F03BF923789A07F9D50024E4E7094D2B789B0705D4012000F02FF92B789807F9D5044B1A78CB
:400C80009507D6D51B789B08D3D100F039FAC3E7224700407C81FF1FF0B53F2883B00AD8441F3A2C8CBF00240124B1F5807F17D9012003B0F0BD412894BF0024012481293F
:400CC00028BF01241027002AF2D0002CF0D116460D46044600F0F2F928B1042003B0F0BD4FF48077EFE73B4632462946204600F069F9072804D0019000F002FA0198EDE78A
:400D0000164E33789B0705D4012000F0E3F833789807F9D5114E33789F071BD533789B0818D10F4A294653782046127800F086F90728E0D102E0012000F0CCF8337899077A
:400D4000F9D5064B1A78920704D51B789B0801D11846D0E74FF0FF30CDE700BF224700407C81FF1FF0B5412883B015D8441F3A2C8CBF002401243F280FD8B1F5807F11D827
:400D800082B17CB91E4617460D46044600F096F958B1042003B0F0BD0124812928BF0124102BEDD0012003B0F0BD33463A462946204600F007F9072804D0019000F0A0F932
:400DC0000198F0E7164E33789B0705D4012000F081F833789807F9D5114E33789F071BD533789B0818D10F4A294653782046127800F024F90728E0D102E0012000F06AF8BB
:400E000033789907F9D5064B1A78920704D51B789B0801D11846D0E74FF0FF30CDE700BF224700407C81FF1F38B500F0A1F90F4A0F4913780F4C43F0080313700B78C82543
:400E400043F008030B702570137B43F0100313730B7B02F5587243F010030B7313789B06FCD5BDE8384000F087B900BFA0430040B04300400147004001BE7047024A13788B
:400E800043F0010313707047F6460040B0F5004F70B506461AD904460D4DA4F50044686800F05EF9B4F5004FF7D8A6F50043013B23F4FF4323F07F03A6F50046F61AA86885
:400EC00000FB06F0BDE8704000F04AB9004DF6E7D480FF1F024B1B7800FB03F000F040B9D480FF1F08B500F043F900BF00BF00BF00BF00BF00BF00BF00BF00BF00BF00BFD6
:400F000000BF00BF00BF00BF00BF064A13889BB243F0040313801388BFF36F8FBDE8084000F02AB900480040054B00F01F001A6800F1100352F8230042F82310704700BF29
:400F400008ED00E000F01F0000F16040490100F56440C9B20170704708B500F009F90749074A0B7843F008030B70137843F008031370BDE8084000F0FFB800BFA043004028
:400F8000B04300402DE9F0410F4699B14E1EF6B20644451E094CDFF8288002E00120FFF799FF2378DB07F9D598F8003005F8013FB542F6D13846BDE8F08100BF22470040F0
:400FC00020470040F0B41B4C2578AD071DD51A4DB6262E70D52702262F702E702478A40710D428705BB15E1EB6B21644013A12F8014FB2422C70FAD1B3F5807F08D0F0BC92
:40100000072070470920F0BC70470420F0BC70473F28F4D800F5103001EB0021490106480A46203112F8013BDBB291420370F9D1E5E700BF2247004020470040F0B40F4D53
:401040002C78A60716D50E4CB6262670D8270526277026702D78AD0709D40D0AC9B2207025702170227023700720F0BC70470920F0BC70470420F0BC704700BF2247004069
:40108000204700400B4A1378990711D530B40A4BB625E1240E211D701C7019701278920703D4187030BC07207047092030BC704704207047224700402047004038B500F019
:4010C00057F80D4A137823B1042400F055F8204638BD0125094915700C682C40F5D00C6824F001040C6000BF00BF00BF1C46556000F042F8204638BD6881FF1F0400084064
:4011000010B500F035F8094B002259681A70012908D1074C216841F00101216000BF00BF00BF5A60BDE8104000F026B86881FF1F04000840074B1B789B0708D5064BB620E1
:40114000E0210D221870197007201A7070470420704700BF2247004020470040000000000230800803D000BF01380046FCD17047EFF3108072B6704780F31088704700BFBB
:4011800008B500F071F800F04BF9BDE8084000F0A7B900BF00F0C6B8F8B50E460446174600F03EF94EB1751EADB22544013C14F8010F00F057F9AC42F9D13E800020F8BD6E
:4011C0002DE9F84303EB83035D0006468846174618BF002407D117E001340120A4B2FFF755FEAC4210DA00F0F3F80028F4D000F0EFF804461920FFF749FE00F0E9F88442CA
:40120000F5D34FF0000901E04FF0050900243C8000F0DEF8F8B100F0DBF83A8880B283189BB243453B801BD2C0B1204485B200F0A1F8631C30559CB2AC42F8D1731913F81D
:40124000013C172B02D00520FFF720FE2C4600F0BFF80028DFD14846BDE8F8832546EDE73A804846BDE8F883F8B5224D2C780CBB21492046FFF758FE20460721FFF762FE17
:401280001E4B1F492022692008701A701D4901206C70FFF749FE07210120FFF753FE1A4E1A481B4A06274724022101233770047011702B70FFF75CFF0546164C1649237823
:4012C000164A43F0200323700B78012043F010030B701060A378124843F010030221A3700160116000F09CF92846BDE8F840FFF743BF00BF7081FF1F211500008964004014
:4013000089650040B915000028640040386400408B650040996500409964004000E100E080E200E038B5FFF723FF05460D4A0E4C137803F0DF03137000F082F923780B4A1C
:40134000012003F0EF030A49237010600B78022403F0EF030B7028461460BDE83840FFF70BBF00BF996500409964004080E100E09B65004010B4114B114A0121196091786F
:40138000D3781079C9B210B9DBB2994212D04B1CDBB2402B0B4828BF0023405C93701379074CC0B20BB100232371074B01221A6010BC7047054B1878C0B2F6E780E100E0CA
:4013C0007081FF1F8081FF1F00E100E04A650040104A0121104B11609978DA7891420FD09978DA789142DA78987824BF02F14003181A0A4B38BF101A0122C0B21A60704793
:401400001B790122002B054B14BF402000201A60704700BF80E100E07081FF1F00E100E010B5FFF7A5FE0B4B0B4C1A7842F001021A701A7802F0FE021A70FFF79DFE074BD9
:4014400000220121064821609A70DA701A715A71016010BD9A65004080E100E07081FF1F00E100E070B4194DEC79AB792646DBB2591EE21A091BA2F13F02B1FA81F1B2FAF1
:4014800082F249095209A34288BF0A46002AECD1A34212D03F2C0E4A88BF00260D4B90551B789ABF0134E4B201249B07EC7102D5094B02221A6070BC7047064B1B785A07A8
:4014C000E8D4064B187070BC704700BF7081FF1FC081FF1F6B65004000E200E04865004010B5FFF745FE0A4B0A4C1A7842F001021A701A7802F0FE021A70FFF73DFE064AFF
:401500000223002105482360D1719171036010BD9865004080E100E07081FF1F00E100E02DE9F0431C481D491D4F1E4A1E4E1F4CDFF880C01E4D4FF0010E0378DBB213F03A
:401540001E0905D091F8008049EA080881F800809B0601D4BDE8F08397F8008013785FFA88F8DBB206F8038023784FF000080BB18CF800E013780133DBB2137013783F2B55
:4015800088BF82F8008092F800802B789845D4D184F800E0D1E700BF696400407181FF1F4A6500407381FF1F8081FF1F7481FF1F7281FF1F7581FF1F144A154813780178B4
:4015C000994221D0F0B513490B7803F0040303F0FF06C3B91746104D104C02E00B785B0711D413783F2B88BF3E701378DBB2EB5CDBB22370137890F800E00133DBB21370CB
:4016000013789E45EAD1F0BD704700BF7681FF1F7781FF1F6B650040C081FF1F486500400549064A0B7843F001030B70137843F001031370704700BFA2430040B2430040EF
:401640000549064A0B7803F0FE030B70137803F0FE031370704700BFA2430040B2430040014B1868704700BF4481FF1F0E4B70B51E460E4C0025E41AA410A54204D056F8C7
:40168000253098470135F8E700F08CFA084B094C1E46E41AA4100025A54204D056F8253098470135F8E770BDB01B0000B01B0000B01B0000B81B000010B5431E0A4491428E
:4016C00004D011F8014B03F8014FF8E710BD884210B501EB020301D8421E0BE09842FBD28118D21AD34204D013F8014D01F8014DF8E710BD994204D011F8014B02F8014F77
:40170000F8E710BD03460244934202D003F8011BFAE77047001D0000ED00000000000000005100401000205100401000405100403000F051004010000000014000100014B5
:4017400001400006801A0140800100400140000A004C014000020050014020001090000040000000CF083042C3003C0800100000082000000020F3000C30F3003D0FC0F055
:4017800008000084023F20C004F800010C3900C6430010C740318C003F0000FF00002800000000402105040003EC000003FFFFFF62A0F0410C00000000000000040404044F
:4017C0000000000100000000000040020010301000101012000000000000000000000000000000000152004001640040026500400107014054080140370901400414014085
:4018000003150140011701404D180140411901400D1A0140411B0140034001400241014002420140044301400147014002480140084C01400E4D014004500140015101402E
:401840000914893A89698B0FE60203010461060E071809480A400B860E0811801365142C15E61643171119601B8B1E43206121A02206260C28102D802F023020320F330774
:40188000341035F8364038023A083B083E504003474049FF4A074BFF4C404D204EF04F055008580459045A045F01604061A8624063208320850387048A028B088D038E022A
:4018C0008F0C9001950A9704980199039B04A310A710A801AF05B001B10FB320B510B602BB02BE40BF10D41AD604D804D904DB04DF0100A005800605071008800A450E2010
:401900000F0211101502161819401B021D241E211F0120402105220223042404271029012B212D802E023104331035043602371038523A143C143E083F0245084F025601C3
:4019400059025A206140634485208740C0E3C2AAC472CA9BCCE6CEEFD040D605D80DE008B980BF40D904DF012680A680B280EA0801020B011001140419011E022006280662
:401980002D01320633033401380839083E1440454102460E47BC483449FF4AFF4BFF4EF04F44500C580459045A045F0166C06A406B0284038508860C89088D088E0E900232
:4019C00091089208953D960F9702980299239A049B1C9D1E9F01A127A318A501A716A80CA926AA03AB19AC03AE0CAF1FB320B401B508B60EB71FB820BA80BB80BF04D602C6
:401A0000D712D804D904DB04DF01000403020520060408280A800E300F821209150216C0171019801BA01D081E082254241028282A012B8A2E8031143249371038A83E10F9
:401A40003F02464047104E02560657405A0869106A46705C79017A027B41910A941295109664978098809B109D039E06A210A303A450A508A720AF40B701C005C2BEC4533B
:401A8000CA1FCC2FCEAED0A0D210D602840188018C019601A201AE02B203BA08D401D604D804DB04DF0100440380059408120A120E101048114012101580164018041916A1
:401AC0001E101F0820802142281229042A402B8A30483110324138E239083A1040264102481049815C805D215E0867806A4082408C218D4090A09109928294069780988038
:401B000099A09C209D17A008A204A382A450A708C0EDC22FC49FCA0FCC0FCE0FD00FD208D6F0D880E004E88030103580CC309C109D809C109D8084109C109D80E640862085
:401B4000AD80EA105840620199089A20B508D401D802E80212807220750882018E8099089A209E01B040C408DC01DE04E202E80100010C0110011C01000F00004090900073
:401B80009000000010140400140000000000000101000000000000006910162E003C010143000000F8B500BFF8BC08BC9E4670475100000011030000F8B500BFF8BC08BC51
:401BC0009E4670472D000000D81B0000C880FF1F80000000B8000000000000001417000018170000180000000000E02EC05D000000366E010000000000000000000000004A
:401C00000000000000000000000000000000000000000000A01B000000000000000000000000000000000000000000000000000000000000000000000000000000000000E9
:401C40000000000000000000000000000000000000000000E480FF1F00000000000000000000000000000000000000000000000000000000000000000000000000000000E2
:401C80000000000000000000000000000000000000000000000000000000000000000000000000000000000000000000000000000000000000000000000000000000000024
:401CC00000000000000000000000000000000000000000000000000000000000000000000000000000000000000000000000000000000000000000000000000000000000E4
:401D000000800020111D0000E5C10000E5C1000080B500AF0AF09AFA10B5054C237833B9044B13B10448AFF300800123237010BDC081FF1F000000001C5A0100084B10B587
:401D40001BB108490848AFF300800848036803B910BD074B002BFBD0BDE81040184700BF00000000C481FF1F1C5A0100C880FF1F0000000080B586B000AFE14B1B78FB75AC
:401D8000DF4BB3F98030DBB2013BDBB21946DC4804F084FA03461946D94BB3F98030013BD74AD35C994204D0D54B002283F884201FE2FB7DA12B00F21B8201A252F823F0BA
:401DC000C7200000A9200000F1210000CD200000D3200000EF20000091200000F1210000F12100002B21000011210000F1210000AF2000004D210000F1210000F12100006C
:401E0000F1210000F1210000F1210000F1210000F1210000F1210000F1210000F1210000F1210000F1210000F1210000F1210000F1210000F1210000F1210000F121000082
:401E4000F1210000F1210000F1210000F1210000F1210000F1210000F1210000F1210000F1210000F1210000F1210000F1210000F1210000F1210000F1210000F121000042
:401E8000F1210000F1210000F1210000F1210000F1210000F1210000F1210000F1210000F1210000F1210000F1210000F1210000F1210000F1210000F1210000F121000002
:401EC000F1210000F1210000F1210000F1210000F1210000F1210000F1210000F1210000F1210000F1210000F1210000F1210000F1210000F1210000F1210000F1210000C2
:401F0000F1210000F1210000F1210000F1210000F1210000F1210000F1210000F1210000F1210000F1210000F1210000F1210000F1210000F1210000F1210000F121000081
:401F4000F1210000F1210000F1210000F1210000F1210000F1210000F1210000F1210000F1210000F1210000F1210000F1210000F1210000F1210000F1210000F121000041
:401F8000F1210000F1210000F1210000F1210000F1210000F1210000F1210000F1210000F1210000F1210000F1210000F1210000F1210000F1210000F1210000F121000001
:401FC000492000007F2000004F2000008B20000055200000612000005B200000F1210000792000006D200000F12100007320000067200000F1210000F1210000F1210000B4
:4020000085200000F1210000F1210000F1210000F1210000F1210000F1210000F1210000F1210000F1210000F1210000F1210000F1210000F1210000F1210000F1210000ED
:40204000F1210000EB21000004F0C8FCD1E004F063FCCEE004F08CFBCBE004F0FDFCC8E004F05AFDC5E004F087FDC2E004F0C6FBBFE004F009FCBCE004F08CFEB9E004F01F
:40208000D1FCB6E004F09AFDB3E004F0C1FDB0E01C4B1B88FB60FB685BBABB60BB689BB2184600F0AFF8A4E002F0DCF9A1E0154B1B883B613B695BBA7B607B689BB2184673
:4020C00001F054FC95E004F093FD92E004F0CAFD8FE0322004F01AF90346002B03D0012004F0FCF885E0002004F0F8F881E004F08BF90346002B07D0012004F0EFF878E080
:402100007C93FF1F7D93FF1F002004F0E7F870E004F0A8F90346002B03D0012004F0DEF867E0002004F0DAF863E0012004F0D6F84FF47A700CF056FC00200AF04BFF4FF4C5
:402140007A700CF04FFC0DF011F852E02A4B5B781B021AB2284B9B781BB213431AB2274B5A80254BDB781B021AB2234B1B791BB213431AB2214B9A80204BB3F90230B3F1F4
:40218000FF3F0FD11D4BB3F90430B3F1FF3F09D11A4B00221A70194B00225A80174B00229A8026E0154BB3F90230002B03DA134B00225A8007E0114BB3F90230C82B02DD55
:4021C0000E4BC8225A800D4BB3F90430002B02DA0A4B00229A800A4B00221A60074B01221A70012004F07AF803E004F003FE00E000BF1837BD4680BD7C93FF1F0494FF1F92
:402200001896FF1F80B5ADF6A87D00AF0246BB1D1A8007F1080300221A60043340F69C720021184610F0C9FEBB1D1B88002B02D0012B0DD019E007F10803184602F040F906
:402240000BF042FA07F1080318460BF01BFA0CE007F10803184603F0F1FB0BF035FA07F1080318460BF00EFA00BF00BF07F6A877BD4680BDF0B5ADF6745D00AF07F54073AB
:4022800000221A60043340F656220021184610F094FE40F65A23A7F8623D002387F86D3D002387F86C3D002387F86B3D07F5337300221A6004332E220021184610F07DFEFB
:4022C000C74BC7F8643DD7F8643DC7F85C3D07F52773C44A1C46154628686968AA68EB680FC428696969AA6907C4AB8BAA7F23801346A37007F51F73BB4A1C46154628681B
:402300006968AA68EB680FC428696969AA6907C4AB8BAA7F23801346A37007F51B73B34A144620686168A26807C3227B1A7007F5F873AF4A184611467C231A4610F032FE74
:4023400007F5C673AB4A1846114663231A4610F029FE07F5A676A84B34461D460FCD0FC40FCD0FC40FCD0FC495E80F0007C4238002341B0C2370002386F83F3007F5907383
:402380009E4A1C4615460FCD0FC40FCD0FC495E8070003C4228007F58473994A1C4615460FCD0FC495E8030020600434218007F1D406944B34461D460FCD0FC40FCD0FC426
:4023C0000FCD0FC42B68237006F1310300221A8007F17C038C4A1846114657231A4610F0E1FD3B1D20221A60043372220021184610F0E3FD381D64230A22844911F0A6FBB2
:4024000007F540730C221A7007F540731F225A70002387F86D3D01F05DB997F86D3D322202FB03F3023397F86D2D07F52771895C07F54072D15497F86D3D322202FB03F37E
:40244000033397F86D2D07F51F71895C07F54072D15497F86D3D07F52772D35C072B1FD801A252F823F000BF892400008924000089240000912400009124000099240000A6
:402480009924000099240000012387F86B3D07E0022387F86B3D03E0042387F86B3D00BF97F86D3D07F52772D35C072B00F2C18501A252F823F000BFD92400003F250000AD
:4024C000D9240000A525000007270000AB27000085290000272A0000002387F86F3D23E097F86F3D97F86B2D02FB03F31A46D7F8643D1344C7F85C3D97F86D3D322202FB67
:4025000003F31A1D97F86F3D97F86B1D01FB03F31344D7F85C2D117807F54072D15497F86F3D013387F86F3D97F86D3D07F51F72D35C97F86F2D9A42D2D300F07ABD00239A
:4025400087F86F3D23E097F86F3D97F86B2D02FB03F31A46D7F8643D1344C7F85C3D97F86D3D322202FB03F31A1D97F86F3D97F86B1D01FB03F31344D7F85C2D117807F52A
:402580004072D15497F86F3D013387F86F3D97F86D3D07F51F72D35C97F86F2D9A42D2D300F047BD002387F86F3DA0E097F86D3D072B58D197F86F3D154A0E339B001344E6
:4025C0005B6897F86F2D12490A4492F8372013411AB207F2C6231A80002387F86E3D3BE0C594FF1F9C5B0100BC5B0100DC5B0100F85E0100745F0100D85F010018600100C4
:40260000446001005C60010090600100205A0100C494FF1F97F86D3D322202FB03F31A1D97F86F3D97F86B1D01FB03F31A4497F86B3D1A4497F86E3DD31A013B97F86E2DDB
:4026400007F2C6210A44117807F54072D15497F86E3D013387F86E3D97F86E2D97F86B3D9A42D7D33EE097F86F3D97F86B2D02FB03F31A46D7F8643D1344C7F85C3DD7F890
:402680005C3DB3F9002007F2C6231A80002387F86E3D21E097F86D3D322202FB03F31A1D97F86F3D97F86B1D01FB03F31A4497F86B3D1A4497F86E3DD31A013B97F86E2D70
:4026C00007F2C6210A44117807F54072D15497F86E3D013387F86E3D97F86E2D97F86B3D9A42D7D397F86F3D013387F86F3D97F86D3D07F51F72D35C97F86F2D9A42FFF448
:4027000055AF00F096BC002387F86F3D42E097F86F3D97F86B2D02FB03F31A46D7F8643D1344C7F85C3DD7F85C3D1A8807F531731A80002387F86E3D21E097F86D3D3222F0
:4027400002FB03F31A1D97F86F3D97F86B1D01FB03F31A4497F86B3D1A4497F86E3DD31A013B97F86E2D07F531710A44117807F54072D15497F86E3D013387F86E3D97F8FC
:402780006E2D97F86B3D9A42D7D397F86F3D013387F86F3D97F86D3D07F51F72D35C97F86F2D9A42B3D300F044BC002387F86F3DDDE097F86D3D0A2B02D0152B62D092E086
:4027C000C44B9B6DC34A92F8372043FA02F207F530731A60002387F86E3D1AE097F86D3D322202FB03F31A1D97F86B3D1A4497F86E3DD31A013B97F86E2D07F530710A447F
:40280000117807F54072D15497F86E3D013387F86E3D97F86E2D97F86B3D9A42DED3AD4BDB6DAC4A92F8372043FA02F207F530731A60002387F86E3D1DE097F86D3D32227E
:4028400002FB03F31A1D97F86B3D1A4497F86B3D1A4497F86E3DD31A013B97F86E2D07F530710A44117807F54072D15497F86E3D013387F86E3D97F86E2D97F86B3D9A425B
:40288000DBD36FE0934BD3F89830924A92F8372043FA02F207F530731A60002387F86E3D1AE097F86D3D322202FB03F31A1D97F86B3D1A4497F86E3DD31A013B97F86E2D83
:4028C00007F530710A44117807F54072D15497F86E3D013387F86E3D97F86E2D97F86B3D9A42DED33EE097F86F3D97F86B2D02FB03F31A46D7F8643D1344C7F85C3DD7F84A
:402900005C3D1A6807F530731A60002387F86E3D21E097F86D3D322202FB03F31A1D97F86F3D97F86B1D01FB03F31A4497F86B3D1A4497F86E3DD31A013B97F86E2D07F59E
:4029400030710A44117807F54072D15497F86E3D013387F86E3D97F86E2D97F86B3D9A42D7D300BF97F86F3D013387F86F3D97F86D3D07F51F72D35C97F86F2D9A42FFF445
:4029800018AF56E3002387F86F3D42E097F86F3D97F86B2D02FB03F31A46D7F8643D1344C7F85C3DD7F85C3D1A6807F52F731A60002387F86E3D21E097F86D3D322202FBF9
:4029C00003F31A1D97F86F3D97F86B1D01FB03F31A4497F86B3D1A4497F86E3DD31A013B97F86E2D07F52F710A44117807F54072D15497F86E3D013387F86E3D97F86E2DDE
:402A000097F86B3D9A42D7D397F86F3D013387F86F3D97F86D3D07F51F72D35C97F86F2D9A42B3D305E397F86D3D012B03D0022B00F05781ABE2274B93F83630032B00F09A
:402A4000A980244B5B68184610F040F803464FF08F41184610F042F903461A4607F532731A60002387F86F3D1AE097F86D3D322202FB03F31A1D97F86B3D1A4497F86F3DE1
:402A8000D31A013B97F86F2D07F532710A44117807F54072D15497F86F3D013387F86F3D97F86F2D97F86B3D9A42DED3094B9B68184610F00BF803464FF08F41184610F082
:402AC0000DF903461A4607F532731A60002387F86F3D1FE0C494FF1F97F86D3D322202FB03F31A1D97F86B3D1A4497F86B3D1A4497F86F3DD31A013B97F86F2D07F532713A
:402B00000A44117807F54072D15497F86F3D013387F86F3D97F86F2D97F86B3D9A42DBD3D04BDB6818460FF0D1FF03464FF08F41184610F0D3F803461A4607F532731A6095
:402B4000002387F86F3D1EE097F86D3D322202FB03F31A1D97F86B3D5B001A4497F86B3D1A4497F86F3DD31A013B97F86F2D07F532710A44117807F54072D15497F86F3DBA
:402B8000013387F86F3D97F86F2D97F86B3D9A42DAD34DE2B34BDB6918460FF097FF03464FF08F41184610F099F803461A4607F532731A60002387F86F3D1AE097F86D3DDB
:402BC000322202FB03F31A1D97F86B3D1A4497F86F3DD31A013B97F86F2D07F532710A44117807F54072D15497F86F3D013387F86F3D97F86F2D97F86B3D9A42DED3994B7D
:402C00001B6A18460FF062FF03464FF08F41184610F064F803461A4607F532731A60002387F86F3D1DE097F86D3D322202FB03F31A1D97F86B3D1A4497F86B3D1A4497F8C0
:402C40006F3DD31A013B97F86F2D07F532710A44117807F54072D15497F86F3D013387F86F3D97F86F2D97F86B3D9A42DBD37D4B5B6A18460FF02AFF03464FF08F411846BC
:402C800010F02CF803461A4607F532731A60002387F86F3D1EE097F86D3D322202FB03F31A1D97F86B3D5B001A4497F86B3D1A4497F86F3DD31A013B97F86F2D07F5327176
:402CC0000A44117807F54072D15497F86F3D013387F86F3D97F86F2D97F86B3D9A42DAD3A6E1604B93F83630032B00F0A7805D4B1B6918460FF0EAFE03464FF08F41184616
:402D00000FF0ECFF03461A4607F532731A60002387F86F3D1AE097F86D3D322202FB03F31A1D97F86B3D1A4497F86F3DD31A013B97F86F2D07F532710A44117807F540729E
:402D4000D15497F86F3D013387F86F3D97F86F2D97F86B3D9A42DED3424B5B6918460FF0B5FE03464FF08F4118460FF0B7FF03461A4607F532731A60002387F86F3D1DE0CA
:402D800097F86D3D322202FB03F31A1D97F86B3D1A4497F86B3D1A4497F86F3DD31A013B97F86F2D07F532710A44117807F54072D15497F86F3D013387F86F3D97F86F2D95
:402DC00097F86B3D9A42DBD3264B9B6918460FF07DFE03464FF08F4118460FF07FFF03461A4607F532731A60002387F86F3D1EE097F86D3D322202FB03F31A1D97F86B3D94
:402E00005B001A4497F86B3D1A4497F86F3DD31A013B97F86F2D07F532710A44117807F54072D15497F86F3D013387F86F3D97F86F2D97F86B3D9A42DAD3F9E0094B9B6AB5
:402E400018460FF043FE03464FF08F4118460FF045FF03461A4607F532731A60002387F86F3D1CE0C494FF1F97F86D3D322202FB03F31A1D97F86B3D1A4497F86F3DD31AC3
:402E8000013B97F86F2D07F532710A44117807F54072D15497F86F3D013387F86F3D97F86F2D97F86B3D9A42DED3DE4BDB6A18460FF00CFE03464FF08F4118460FF00EFF42
:402EC00003461A4607F532731A60002387F86F3D1DE097F86D3D322202FB03F31A1D97F86B3D1A4497F86B3D1A4497F86F3DD31A013B97F86F2D07F532710A44117807F5E1
:402F00004072D15497F86F3D013387F86F3D97F86F2D97F86B3D9A42DBD3C24B1B6B18460FF0D4FD03464FF08F4118460FF0D6FE03461A4607F532731A60002387F86F3DD8
:402F40001EE097F86D3D322202FB03F31A1D97F86B3D5B001A4497F86B3D1A4497F86F3DD31A013B97F86F2D07F532710A44117807F54072D15497F86F3D013387F86F3DA5
:402F800097F86F2D97F86B3D9A42DAD350E0002387F86F3D42E097F86F3D97F86B2D02FB03F31A46D7F8643D1344C7F85C3DD7F85C3D1A6807F532731A60002387F86E3D60
:402FC00021E097F86D3D322202FB03F31A1D97F86F3D97F86B1D01FB03F31A4497F86B3D1A4497F86E3DD31A013B97F86E2D07F532710A44117807F54072D15497F86E3DD2
:40300000013387F86E3D97F86E2D97F86B3D9A42D7D397F86F3D013387F86F3D97F86D3D07F51F72D35C97F86F2D9A42B3D300BF00BF97F86D2D07F5F87353F8222007F598
:4030400033731146184610F081FD07F53373184610F0AFFD034687F86A3D97F86D3D07F52772D35C002B40F0488297F86C3D07F51B72D35C013B062B00F2358201A252F847
:4030800023F000BFA1300000B93100009F320000E53200003B330000893300003F340000D7F8643D1B78052B00F2188201A252F823F000BFCD300000ED3000000F31000026
:4030C00039310000613100008731000007F53373184610F06EFD03461A4607F533731344514A1068186012791A7164E007F53373184610F05EFD03461A4607F5337313442D
:403100004A491A460B4603CB1060516053E007F53373184610F04DFD03461A4607F533731344434A1D4614460FCC28606960AA60EB6023882B823EE007F53373184610F0FC
:4031400038FD03461A4607F533731344394A1C46134607CB20606160A2601B88A3812AE007F53373184610F024FD03461A4607F53373134430491A460B4603CB1060516078
:403180001B88138117E007F53373184610F011FD03461A4607F533731344284A1D4614460FCC28606960AA60EB602388A2782B821346AB7400BF91E1D7F8643D1B78032B35
:4031C00000F28E8101A252F823F000BFDD31000003320000493200006F32000007F53373184610F0E6FC03461A4607F53373134413491A460B4603CB106051601B881381F9
:403200004CE007F53373184610F0D3FC03461A4607F5337313440B4A1068186012791A713CE000BFC494FF1F945A01009C5A0100A45A0100B85A0100C85A0100D45A0100FB
:40324000E85A0100F45A010007F53373184610F0B0FC03461A4607F533731344A9491A460B4603CB106051601B78137216E007F53373184610F09DFC03461A4607F53373EA
:403280001344A14A1D4614460FCC28606960AA60EB6020682861A388AB8200BF20E1D7F8643D1B78002B0FD007F53373184610F080FC03461A4607F533731344934A1068E5
:4032C000186012791A710EE107F53373184610F070FC03461A4607F5337313448C4A1068186000E1D7F8643D1B78002B02D0012B12D0F8E007F53373184610F05AFC034617
:403300001A4607F533731344824A106818609188927999809A710FE007F53373184610F048FC03461A4607F5337313447A4A1068186092889A8000BFD5E0D7F8643D1B78FC
:40334000002B02D0012B10D0CDE007F53373184610F02FFC03461A4607F5337313446F4A1068186012791A710DE007F53373184610F01FFC03461A4607F533731344684AAF
:403380001068186000BFAEE0D7F8643D1B78032B00F2A88001A252F823F000BFAD330000CD330000F53300001934000007F53373184610F0FEFB03461A4607F533731344D6
:4033C000584A1068186092889A8037E007F53373184610F0EEFB03461A4607F533731344514A1C46134607CB20606160A2601B88A38123E007F53373184610F0DAFB034612
:403400001A4607F533731344484A1C46134607CB20606160A26011E007F53373184610F0C8FB03461A4607F533731344404A106818609188927999809A7100BF52E0D7F8F9
:40344000643D1B78012B13D0022B21D0002B2FD107F53373184610F0ACFB03461A4607F5337313442F4A1068186092889A8034E007F53373184610F09CFB03461A4607F58A
:40348000337313442B4A1068186012791A7124E007F53373184610F08CFB03461A4607F533731344244A1068186092889A8014E007F53373184610F07CFB03461A4607F5C5
:4034C000337313441D491A460B4603CB1060516019889B781181937200BF04E000BF02E000BF00E000BF07F53373184610F061FB0346DBB2013387F86A3D97F86A3D87F89B
:403500006F3D43E0FC5A0100085B0100205B0100285B0100305B0100385B0100405B0100485B0100505B0100585B0100685B0100785B0100805B0100885B0100905B0100FD
:4035400097F86D3D322202FB03F31A1D97F86B3D97F86D1D07F51F70415C01FB03F31A4497F86A3D1A4497F86F3DD31A97F86A1D97F86F2D8A1A07F53371895C07F54072F8
:40358000D15497F86F3D013B87F86F3D97F86F3D002BD5D197F86D3D07F52772D35C002B1FD197F86D3D322202FB03F31A1D97F86B3D97F86D1D07F51F70415C01FB03F3FF
:4035C0001A4497F86A3D134497F86C2D07F51B71895C07F54072D15497F86C3D013387F86C3D97F86D3D1D2B5ED801A252F823F069360000A936000071360000A936000029
:40360000A9360000A93600007936000081360000A936000089360000A9360000A9360000A9360000A936000091360000A9360000A9360000A9360000A9360000A93600002A
:4036400099360000A9360000A9360000A9360000A9360000A9360000A9360000A9360000A9360000A1360000B84BC7F8643D2CE0B74BC7F8643D28E0B64BC7F8643D24E06E
:40368000B54BC7F8643D20E0B44BC7F8643D1CE0B34BC7F8643D18E0B24BC7F8643D14E0B14BC7F8643D10E097F86D3D07F51F72D35C1A4697F86B3D03FB02F31A46D7F8AE
:4036C000643D1344C7F8643D00BF97F86D3D013387F86D3D97F86D3D1E2B7EF69EAE07F5C673184610F065FA034687F86A3D97F86A3D87F86F3D16E097F86A3D03F5C262D1
:4037000097F86F3DD31A97F86A1D97F86F2D8A1A07F5C671895C07F54072D15497F86F3D013B87F86F3D97F86F3D002BE4D107F5A673184610F03DFA034687F86A3D97F82C
:403740006A3D87F86F3D16E097F86A3D03F2A66297F86F3DD31A97F86A1D97F86F2D8A1A07F5A671895C07F54072D15497F86F3D013B87F86F3D97F86F3D002BE4D107F5BD
:403780009073184610F015FA034687F86A3D97F86A3D87F86F3D16E097F86A3D03F23C7297F86F3DD31A97F86A1D97F86F2D8A1A07F59071895C07F54072D15497F86F3DFD
:4037C000013B87F86F3D97F86F3D002BE4D107F58473184610F0EDF9034687F86A3D97F86A3D87F86F3D16E097F86A3D03F2D27297F86F3DD31A97F86A1D97F86F2D8A1ACE
:4038000007F58471895C07F54072D15497F86F3D013B87F86F3D97F86F3D002BE4D107F1D403184610F0C5F9034687F86A3D97F86A3D87F86F3D16E097F86A3D03F66802D8
:4038400097F86F3DD31A97F86A1D97F86F2D8A1A07F1D401895C07F54072D15497F86F3D013B87F86F3D97F86F3D002BE4D107F17C03184610F09DF9034687F86A3D97F890
:403880006A3D87F86F3D16E097F86A3D03F6FE0297F86F3DD31A97F86A1D97F86F2D8A1A07F17C01895C07F54072D15497F86F3D013B87F86F3D97F86F3D002BE4D13B1DC2
:4038C000184610F076F9034687F86A3D97F86A3D87F86F3D15E097F86A3D03F6941297F86F3DD31A97F86A1D97F86F2D8A1A391D895C07F54072D15497F86F3D013B87F850
:403900006F3D97F86F3D002BE5D1B7F8623D5C1EB7F8623DDBB2013BDAB207F540731146184602F0BBFC03461A4607F540731A55B7F8622D07F540731146184602F02AFCC6
:4039400000BF07F67457BD46F0BD00BFC894FF1FF894FF1F0095FF1F0C95FF1F1C95FF1F3495FF1F5C95FF1FD495FF1F80B586B000AF0346FB80FB881F2B00F2678501A243
:4039800052F823F0053A00000D3A0000193A0000E73B0000C93D0000E53D0000F93D0000053E00002D3E0000A53E0000F73E0000033F0000853F0000C73F0000E13F00005F
:4039C0001740000023400000694000007540000095400000A3400000AF400000034100003B4100007341000097410000B7410000C3410000E9410000F5410000114200000D
:403A0000B3420000FEF736FC00F020BDB04BDA78B04B5A7000F01ABDAF4B93F83630032B70D0AE4B1B683B610023BB750EE0BB7DC3F1030307F10C021344BA7D07F1100183
:403A40000A4412781A70BB7D0133BB75BB7D032BEDD9FB684FF08F4118460FF08BF8034618460FF04DFA02469A4B5A609C4B1B683B610023BB750EE0BB7DC3F1030307F1C5
:403A80000C021344BA7D07F110010A4412781A70BB7D0133BB75BB7D032BEDD9FB684FF08F4118460FF066F8034618460FF028FA0246884B9A608B4B1B683B610023BB75E5
:403AC0000EE0BB7DC3F1030307F10C021344BA7D07F110010A4412781A70BB7D0133BB75BB7D032BEDD9FB684FF08F4118460FF041F8034618460FF003FA0246754BDA6032
:403B000000F0A4BC754B1B683B610023BB750EE0BB7DC3F1030307F10C021344BA7D07F110010A4412781A70BB7D0133BB75BB7D032BEDD9FB684FF08F4118460FF01AF87B
:403B4000034618460FF0DCF90246624BDA61644B1B683B610023BB750EE0BB7DC3F1030307F10C021344BA7D07F110010A4412781A70BB7D0133BB75BB7D032BEDD9FB686F
:403B80004FF08F4118460EF0F5FF034618460FF0B7F902464F4B1A62524B1B683B610023BB750EE0BB7DC3F1030307F10C021344BA7D07F110010A4412781A70BB7D013398
:403BC000BB75BB7D032BEDD9FB684FF08F4118460EF0D0FF034618460FF092F902463D4B5A6200F033BC3C4B93F83630032B7BD03A4B1B683B610023BB750EE0BB7DC3F16E
:403C0000030307F10C021344BA7D07F110010A4412781A70BB7D0133BB75BB7D032BEDD9FB684FF08F4118460EF0A4FF034618460FF066F90246274B1A61294B1B683B6179
:403C40000023BB750EE0BB7DC3F1030307F10C021344BA7D07F110010A4412781A70BB7D0133BB75BB7D032BEDD9FB684FF08F4118460EF07FFF034618460FF041F90246D6
:403C8000144B5A61174B1B683B610023BB750EE0BB7DC3F1030307F10C021344BA7D07F110010A4412781A70BB7D0133BB75BB7D032BEDD9FB684FF08F4118460EF05AFF48
:403CC000034618460FF01CF90246024B9A61BDE37C93FF1F1097FF1FC494FF1F7F93FF1F8393FF1F8793FF1F9E4B1B683B610023BB750EE0BB7DC3F1030307F10C0213443D
:403D0000BA7D07F110010A4412781A70BB7D0133BB75BB7D032BEDD9FB684FF08F4118460EF028FF034618460FF0EAF802468E4B9A628E4B1B683B610023BB750EE0BB7D0E
:403D4000C3F1030307F10C021344BA7D07F110010A4412781A70BB7D0133BB75BB7D032BEDD9FB684FF08F4118460EF003FF034618460FF0C5F802467B4BDA627C4B1B68FB
:403D80003B610023BB750EE0BB7DC3F1030307F10C021344BA7D07F110010A4412781A70BB7D0133BB75BB7D032BEDD9FB684FF08F4118460EF0DEFE034618460FF0A0F885
:403DC0000246694B1A6341E36A4BDB78002B04D0654B012283F8342038E3634B002283F8342033E3634BDA785F4B83F83520624B1B68624A136029E35E4BDA785A4B83F8BD
:403E0000362023E30023FB750CE0FB7DFA7D03325849895C544A13440A4683F83720FB7D0133FB75FB7D022BEFD90FE30023FB7531E0FB7DFA7D520003324E498A5C1202C0
:403E400011B2FA7D023252004A48825C12B20A4312B21146444A0E339B0013445960F97DFB7D414A0E339B0013445B68FA7D3E48024492F8372003FA02F23B4801F10E0362
:403E80009B0003445A60FB7D3B4A134400221A75FB7D0133FB75FB7D022BCAD9384B01221A70D3E20023FB7521E0FB7D9B000333304A13441B683B610023BB7511E0FB7D8F
:403EC00012339B00284A1A44BB7DC3F103031344BA7D07F110010A4412781A70BB7D0133BB75BB7D032BEAD9FB7D0133FB75FB7D022BDAD9AAE21F4BDA781B4B83F8542051
:403F0000A4E21C4BDB781A061A4B1B791B041A43184B5B791B021343164A92791343124A9365144BDB791A06124B1B7A1B041A43104B5B7A1B0213430E4A927A13430A4AFB
:403F4000D365094B9B6D084A92F837209340064A9365054BDB6D044A92F837209340024AD36573E27F93FF1F1097FF1F8393FF1F8793FF1F7C93FF1F4894FF1F1896FF1F98
:403F8000C094FF1F9E4BDB781A069D4B1B791B041A439B4B5B791B021343994A92791343984A1366964BDB791A06954B1B7A1B041A43934B5B7A1B021343914A927A1343C6
:403FC000904A536642E28E4BDB781B021AB28C4B1B791BB213431AB28A4BA3F8682035E2874BDB781B021AB2854B1B791BB213431BB29AB2834BA3F86A20814B5B791B022E
:404000001AB27F4B9B791BB213431BB29AB27D4BA3F86C201AE27A4BDA787A4B83F86E2014E2774BDB781A06754B1B791B041A43734B5B791B021343714A927913431A464E
:40404000704B1A676E4BDB791A066D4B1B7A1B041A436B4B5B7A1B021343694A927A13431A46684B5A67F1E1654BDA78654B83F87820EBE1624BDB787B757B7D002B04D0DD
:40408000604B012283F87920E0E15E4B002283F87920DBE15C4B93F900205A4B83F87A20D4E1574BDA78574B83F87B20CEE10023FB7522E0FB7D9B000333514A13441B6852
:4040C0003B610023BB7512E0FB7D1E339B004D4A13441A1DBB7DC3F103031344BA7D07F110010A4412781A70BB7D0133BB75BB7D032BE9D9FB7D0133FB75FB7D052BD9D931
:40410000A4E13F4BDB781A063D4B1B791B041A433B4B5B791B021343394A92791343394AC2F89830374BD3F89830364A92F837209340344AC2F8983088E1314BDB781A060E
:404140002F4B1B791B041A432D4B5B791B0213432B4A927913432B4AC2F89C30294BD3F89C30092B00F36D81264B0A22C3F89C2067E1234BDB781A06214B1B791B041A434C
:404180001F4B5B791B0213431D4A927913431D4AC2F8A0305AE11A4BDB787B757B7D002B04D0184B012283F8A4204FE1154B002283F8A4204AE1124BDA78124B83F8A5208E
:4041C00044E10F4BDB787B757B7D002B04D00D4B012283F8A62003E00A4B002283F8A6200A4B01221A7031E1054BDA78054B83F8A7202BE1024BDA78024B83F8A82025E126
:404200007C93FF1F1097FF1F7F93FF1FC094FF1F904BDB787B757B7D002B01D005F062FD8D4B93F8A830012B40F00D81872007F0B1FC03467B757B7D1B09DBB21A46920040
:4042400013445B00DAB27B7D03F00F03DBB21344DAB2824B83F89520892007F09BFC03467B757B7D1B09DBB21A46920013445B00DAB27B7D03F00F03DBB21344DAB2774B1E
:4042800083F896208D2007F085FC03467B757B7D1B09DBB21A46920013445B00DAB27B7D03F00F03DBB21344DAB26C4B83F89720C9E00023FB750CE0FB7DFA7D0332654946
:4042C000895C664A13440A4683F81021FB7D0133FB75FB7D052BEFD95F4B93F8A830012B40F0B3805D4B93F810315D4AA2FB0323DB08DBB21B01D8B2584B93F81021584BB8
:40430000A3FB0213D9080B469B000B445B00D31ADBB20344DBB21946862007F009FC4F4B93F811314E4AA2FB0323DB08DBB21B01D8B24A4B93F81121494BA3FB0213D908B2
:404340000B469B000B445B00D31ADBB20344DBB21946882007F0ECFB404B93F81231404AA2FB0323DB08DBB21B01D8B23B4B93F812213B4BA3FB0213D9080B469B000B441F
:404380005B00D31ADBB20344DBB219468C2007F0CFFB324B93F81331314AA2FB0323DB08DBB21B01D8B22D4B93F813212C4BA3FB0213D9080B469B000B445B00D31ADBB296
:4043C0000344DBB21946842007F0B2FB234B93F81431234AA2FB0323DB08DBB21B01D8B21E4B93F814211E4BA3FB0213D9080B469B000B445B00D31ADBB20344DBB2194655
:40440000822007F095FB154B93F81531144AA2FB0323DB08DBB21B01D8B2104B93F815210F4BA3FB0213D9080B469B000B445B00D31ADBB20344DBB21946802007F078FB94
:4044400003E000BF02E000BF00E000BF00BF1837BD4680BD7C93FF1FC494FF1F1097FF1FCDCCCCCC80B582B000AF0023FB7112E0FB79FA790E4951F8222011460D4A0E3324
:404480009B0013445960FB790B4A134400221A75FB790133FB71FB79022BE9D9074B01221A70012001F01AFF00BF0837BD4680BD3094FF1F1097FF1F4894FF1FC094FF1F8E
:4044C0002DE9F043A1B004AF7860B94B5B78FA2B01F099827B6800221A7078680FF069FB03461A467B681344B24A1188927819809A7078680FF05DFB03461A467B6813447E
:40450000AD4A1D4614460FCC28606960AA60EB602388A2782B821346AB7478680FF049FB03461A467B681344A44A14469E4604F1200C754626460FCE28606960AA60EB605F
:4045400010340EF1100E6445F3D173462246106818609188927999809A7178680FF029FB03461A467B681344954A1068186092889A8078680FF01DFB03461A467B68134451
:40458000904A1C46134607CB20606160A2601B88A381874B5B781A4607F108038A4918460FF0D4FA07F10803194678680FF0F2FA7F4B93F8A630002B02D0012B15D026E018
:4045C00078680FF0F6FA03461A467B6813447F4A1D4614460FCC28606960AA60EB602388A2782B821346AB7411E078680FF0E1FA03461A467B681344754A1D4614460FCC33
:4046000028606960AA60EB6023882B8200BF78680FF0CFFA03461A467B6813446D4A1D4614460FCC28606960AA60EB6003CC286169612388A2782B831346AB765C4B93F8FC
:404640007B30012B0CD178680FF0B3FA03461A467B681344604A1068186012791A7109E078680FF0A6FA03461A467B6813445B4A106818605A4B1B781A4607F1080359494A
:4046800018460FF063FA07F10803194678680FF081FA78680FF08DFA03461A467B681344444A1188927819809A7078680FF081FA03461A467B6813444B4A1C46134607CB08
:4046C00020606160A2601B78237378680FF071FA03461A467B681344444A1C4615460FCD20606160A260E360414B93F83630022B10D178680FF05DFA03461A467B681344D0
:404700003C4A1C46134607CB20606160A2601B88A38124E0364B93F83630012B0FD178680FF047FA03461A467B68134432491A460B4603CB106051601B7813720FE07868D5
:404740000FF037FA03461A467B6813442B4A1C46134607CB20606160A2601B88A381244B93F83630022B0ED1254B5A6807F10803244918460FF0EAF907F10803194678688A
:404780000FF008FA53E01A4B93F83630012B3BD11B4B9A6807F108031A4918460FF0D6F907F10803194678680FF0F4F93FE000BFC494FF1F806101008461010098610100F9
:4047C000C0610100C8610100D8610100E4610100F86101000C62010028620100306201003896FF1F3462010044620100546201001097FF1F646201007462010080620100DF
:404800004098FF1F90620100B74B1B68B74A92F8372043FA02F207F10803B54918460FF095F907F10803194678680FF0B3F978680FF0BFF903461A467B681344AD4A118814
:40484000927819809A7078680FF0B3F903461A467B681344A74A1188927819809A7007F10803A54A1C4613460FCB84E80F00A34B1B7B03F00103002B0FD007F108031846FE
:404880000FF097F903461A4607F1080313449C4A1068186092889A800EE007F1080318460FF087F903461A4607F108031344954A1068186012791A7107F108031946786864
:4048C0000FF068F978680FF074F903461A467B6813448D4A1D4614460FCC28606960AA60EB6020682861A388AB8278680FF061F903461A467B681344844A1C4615460FCD28
:4049000020606160A260E3600023FB6626E0FB6E5C1C7F4AFB6E52F823307449FA6E0A4437321278134107F10800224679490FF00DF907F10803194678680FF02BF9786889
:404940000FF037F903461A467B681344694A1188927819809A70FB6E0133FB66FB6E022BD5DD6D4B1A6807F108036C4918460FF0EDF807F10803194678680FF00BF978688D
:404980000FF017F903461A467B681344594A1188927819809A70624B1A6807F10803614918460FF0D3F807F10803194678680FF0F1F878680FF0FDF803461A467B68134437
:4049C0004C4A1188927819809A70514BDA6807F10803554918460FF0B9F807F10803194678680FF0D7F878680FF0E3F803461A467B6813443F4A1188927819809A707868F2
:404A00000FF0D7F803461A467B681344474A1D4614460FCC28606960AA60EB6020682861A388AB8278680FF0C4F803461A467B6813443F4A1D4614460FCC28606960AA6093
:404A4000EB6023882B82294B93F83630032B79D0264B5B6818460DF02FFC4FF00002354B0DF0BAFD03460C4607F108001A46234631490FF06BF807F10803194678680FF007
:404A800089F81A4B9B6818460DF016FC4FF00002284B0DF0A1FD03460C4607F108001A46234626490FF052F807F10803194678680FF070F80D4BDB6818460DF0FDFB4FF05F
:404AC00000021C4B0DF088FD03460C4607F108001A4623461A490FF039F807F10803194678680FF057F878E04098FF1FC494FF1F9062010080610100946201000896FF1FF8
:404B0000A4620100AC620100B4620100CC6201004894FF1FDC620100F098FF1FE86201004494FF1F04630100286301003C630100546301000000F0406863010074630100D9
:404B400080630100C44BDB6918460DF0B5FB4FF00002C24B0DF040FD03460C4607F108001A462346BE490EF0F1FF07F10803194678680FF00FF8B84B1B6A18460DF09CFB50
:404B80004FF00002B54B0DF027FD03460C4607F108001A462346B3490EF0D8FF07F10803194678680EF0F6FFAB4B5B6A18460DF083FB4FF00002A94B0DF00EFD03460C46BD
:404BC00007F108001A462346A7490EF0BFFF07F10803194678680EF0DDFF78680EF0E9FF03461A467B681344A04A1D4614460FCC28606960AA60EB6003CC28616961238886
:404C00002B83954B93F83630032B4BD0924B1B6918460DF051FB4FF00002904B0DF0DCFC03460C4607F108001A4623468C490EF08DFF07F10803194678680EF0ABFF864B35
:404C40005B6918460DF038FB4FF00002834B0DF0C3FC03460C4607F108001A46234681490EF074FF07F10803194678680EF092FF794B9B6918460DF01FFB4FF00002774B67
:404C80000DF0AAFC03460C4607F108001A46234675490EF05BFF07F10803194678680EF079FF4AE06C4B9B6A18460DF005FB4FF000026A4B0DF090FC03460C4607F10800C4
:404CC0001A46234666490EF041FF07F10803194678680EF05FFF604BDB6A18460DF0ECFA4FF000025D4B0DF077FC03460C4607F108001A4623465B490EF028FF07F10803A6
:404D0000194678680EF046FF534B1B6B18460DF0D3FA4FF00002514B0DF05EFC03460C4607F108001A4623464F490EF00FFF07F10803194678680EF02DFF78680EF039FFE7
:404D400003461A467B681344494A1188927819809A70414B93F83430012B14D178680EF028FF03461A467B681344424A1D4614460FCC28606960AA60EB6003CC2861696117
:404D800023882B8313E078680EF013FF03461A467B681344384A1D4614460FCC28606960AA60EB6003CC2861696123782B762A4B93F83530052B00F2AE8001A252F823F001
:404DC000D94D0000FD4D0000254E0000894E0000B94E0000E74E000078680EF0EAFE03461A467B681344254A1D4614460FCC28606960AA60EB6023882B828CE078680EF0C5
:404E0000D8FE03461A467B6813441D4A1D4614460FCC28606960AA60EB602068286123792B7578E078680EF0C4FE03461A467B681344144A1D4614460FCC28606960AA609B
:404E4000EB6007CC28616961AA612388A278AB831346AB775FE000BFC494FF1F0000F0406863010074630100806301008C63010080610100A8630100C4630100E0630100D2
:404E8000F46301000C64010078680EF092FE03461A467B681344C24A1D4614460FCC28606960AA60EB6003CC286169612388A2782B831346AB762EE078680EF07AFE0346D2
:404EC0001A467B681344B74A1C4615460FCD20606160A260E36028682061AB88AA79A3821346A37517E078680EF063FE03461A467B681344AC4A1D4614460FCC2860696003
:404F0000AA60EB6003CC286169612388A2782B831346AB7600BFA54B93F83630032B64D801A252F823F000BF394F0000634F0000874F0000AD4F000078680EF03AFE0346D9
:404F40001A467B6813449A4A1D4614460FCC28606960AA60EB6003CC2861696123782B7644E078680EF025FE03461A467B681344904A1D4614460FCC28606960AA60EB60F7
:404F80002068286132E078680EF013FE03461A467B681344884A1D4614460FCC28606960AA60EB6003CC286169611FE078680EF000FE03461A467B681344804A14469E4604
:404FC00004F1200C754626460FCE28606960AA60EB6010340EF1100E6445F3D1734622461068186012791A7100E000BF6F4B93F87930002B1CD078680EF0DBFD03461A46EE
:405000007B6813446E4A14469E4604F1200C754626460FCE28606960AA60EB6010340EF1100E6445F3D17346224612781A7013E078680EF0BEFD03461A467B681344614A58
:405040001C4615460FCD20606160A260E3600FCD20616161A261E361544B93F97A301A4607F10803584918460EF070FD07F10803194678680EF08EFD78680EF09AFD034680
:405080001A467B681344514A1D4614460FCC28606960AA60EB602068286123792B750023FB6621E0FB6E591C404AFB6E134437331B7807F108000A4645490EF047FD07F16E
:4050C0000803194678680EF065FD78680EF071FD03461A467B6813443E4A1188927819809A70FB6E0133FB66FB6E022BDADD78680EF05FFD03461A467B681344364A1D46BE
:4051000014460FCC28606960AA60EB6020682861A388AB820023FB6628E0FB6E5C1C234AFB6E0E339B0013445B682049FA6E0A4437321278134107F10800224627490EF0B6
:4051400005FD07F10803194678680EF023FD78680EF02FFD03461A467B6813441D4A1188927819809A70FB6E0133FB66FB6E022BD3DD78680EF01DFD03461A467B68134414
:40518000174A1D4614460FCC28606960AA60EB6003CC2861696123882B830023FB664AE02C6401004864010060640100C494FF1F7C64010098640100AC640100C464010096
:4051C000EC64010010650100306501004C650100DC62010080610100646501007C65010088650100FB6E5D1CBE4AFB6E123352F8233018460DF072F803460C4607F1080050
:40520000CDE900342A46B8490EF0A0FC07F10803194678680EF0BEFC78680EF0CAFC03461A467B681344B14A1188927819809A70FB6E0133FB66FB6E022BD3DD78680EF095
:40524000B8FC03461A467B681344A94A1D4614460FCC28606960AA60EB6003CC28616961A04BDB6F18460DF039F8804689469D4BD3F8803018460DF031F804460D46994B86
:40528000D3F8843018460DF029F802460B4607F10800CDE90223CDE9004542464B4695490EF054FC07F10803194678680EF072FC8C4BD3F8883018460DF010F8804689463F
:4052C000884BD3F88C3018460DF008F804460D46844BD3F8903018460DF000F802460B4607F10800CDE90223CDE9004542464B4681490EF02BFC07F10803194678680EF0F8
:4053000049FC78680EF055FC03461A467B681344764A1188927819809A70784B93F854301A4607F10803764918460EF00FFC07F10803194678680EF02DFC78680EF039FC39
:4053400003461A467B681344684A1188927819809A706A4B9B6D694A92F8372043FA02F207F10803674918460EF0F0FB07F10803194678680EF00EFC604BDB6D5F4A92F866
:40538000372043FA02F207F108035F4918460EF0DDFB07F10803194678680EF0FBFB574B5A6E564B1B6E07F1080058490EF0CEFB07F10803194678680EF0ECFB78680EF04F
:4053C000F8FB03461A467B681344484A1188927819809A70494BB3F968301A4607F108034B4918460EF0B2FB07F10803194678680EF0D0FB78680EF0DCFB03461A467B68DB
:4054000013443A4A1188927819809A70354B93F83530022B0FD0334B93F83530032B0AD0304B93F83530042B05D02E4B93F83530052B40F0A580314BB3F86A301A462F4B61
:40544000B3F86C3007F1080032490EF07FFB07F10803194678680EF09DFB78680EF0A9FB03461A467B681344204A1188927819809A70224B1A6F214B5B6F07F1080026496A
:405480000EF064FB07F10803194678680EF082FB78680EF08EFB03461A467B681344134A1188927819809A70144B93F86E30002B36D078680EF07DFB03461A467B681344F3
:4054C000164A1D4614460FCC28606960AA60EB6003CC286169612388A2782B831346AB7632E000BFC494FF1FA465010080610100B0650100C8650100E46501001097FF1F79
:40550000006601001C66010040660100506601006C66010080660100A4660100C866010078680EF046FB03461A467B681344BC4A1D4614460FCC28606960AA60EB6003CC1A
:405540002861696123882B83B64B93F878301A4607F10803B44918460EF0F8FA07F10803194678680EF016FB78680EF022FB03461A467B681344AD4A1188927819809A7031
:40558000AB4B93F8A430002B55D0A64BD3F89C2007F10803A74918460EF0D8FA07F10803194678680EF0F6FA78680EF002FB03461A467B6813449D4A1188927819809A7092
:4055C000984BD3F8A02007F108039B4918460EF0BDFA07F10803194678680EF0DBFA78680EF0E7FA03461A467B6813448F4A1188927819809A708B4BD3F898308C4A92F8A4
:40560000372043FA02F207F108038C4918460EF09DFA07F10803194678680EF0BBFA78680EF0C7FA03461A467B6813447F4A1188927819809A70786800F000FA7C4B93F875
:40564000A730002B00F0C2817D4B1B781A4607F108037C4918460EF079FA07F10803194678680EF097FA78680EF0A3FA03461A467B6813446D4A1188927819809A70786897
:405680000EF097FA03461A467B6813446E4A1D4614460FCC28606960AA60EB602068286123792B750023FB667AE1684AFB6E13441B7807F10800FA6E65490EF047FA07F104
:4056C0000803194678680EF065FA07F10803614A1C4615460FCD0FC42B6823805B4AFB6E13441B781946524A0B469B000B44134403F221131B78002B0FD007F10803184607
:405700000EF057FA03461A4607F108031344524A1068186092889A800EE007F1080318460EF047FA03461A4607F1080313444B4A1068186012791A7107F1080318460EF0CC
:4057400038FA03461A4607F108031344444A1C46134607CB20606160A2601B88A3813B4AFB6E13441B781946314A0B469B000B44134403F591731B78002B0FD007F10803EF
:4057800018460EF016FA03461A4607F108031344314A1068186092889A800EE007F1080318460EF006FA03461A4607F1080313442A4A1068186012791A7107F108031846B0
:4057C0000EF0F7F903461A4607F108031344254A1D4614460FCC28606960AA60EB6023782B741A4AFB6E13441B781946104A0B469B000B44134403F223131B78002B33D0E3
:4058000007F1080318460EF0D4F903461A4607F108031344104A1068186092889A8032E0E46601001097FF1F0067010080610100C494FF1F14670100306701005867010005
:405840007893FF1F6C670100806701003C94FF1F98670100AC670100A4620100AC620100C0670100D067010007F1080318460EF0A0F903461A4607F108031344644A1068AA
:40588000186012791A7107F1080318460EF091F903461A4607F1080313445E4A1C46134607CB20606160A2601B88A3815A4AFB6E13441B781946594A0B469B000B441344A4
:4058C00003F592731B78002B0FD007F1080318460EF06FF903461A4607F108031344504A1068186092889A800EE007F1080318460EF05FF903461A4607F108031344444A50
:405900001068186012791A7107F1080318460EF050F903461A4607F108031344414A1C46134607CB20606160A2601A889B78A281A373394AFB6E13441B781946374A0B4666
:405940009B000B44134403F225131B78002B0FD007F1080318460EF02CF903461A4607F1080313442E4A1068186092889A800EE007F1080318460EF01CF903461A4607F1F6
:4059800008031344224A1068186012791A7107F10803194678680EF0FDF8FB6E0133FB66214B1B781A46FB6E9A423FF77EAE78680EF0FFF803461A467B6813441B4A118824
:4059C000927819809A70786800F0E8F9184B1A68184B1B68D21A07F10803174918460EF0B5F807F10803194678680EF0D3F878680EF0DFF803461A467B6813440B4A118895
:405A0000927819809A7000BF7437BD46BDE8F083AC620100E46701003C94FF1FC494FF1FA4620100F46701007893FF1F806101002094FF1F4094FF1F04680100F0B5A3B0DE
:405A400004AF786078680EF0B4F803461A467B681344C34A1D4614460FCC28606960AA60EB602068286123792B7578680EF0A1F803461A467B681344BA4A118892781980FC
:405A80009A70B94B93F895301A46B74B93F896301946B54B93F8973007F10C0000930B46B2490EF053F807F10C03194678680EF071F8AD4B93F810311D46AB4B93F8113161
:405AC0001E46A94B93F812311A46A74B93F813311946A54B93F814311C46A34B93F8153107F10C00039302940191009233462A469F490EF02BF807F10C03194678680EF095
:405B000049F807F10C039B4A1C4615460FCD0FC495E80F0007C4238002341B0C237007F10C03194678680EF035F88F4BDB6D8E4A92F837201341904A82FB03129210DB1742
:405B4000D31A3B6701237B6721E07B6F013B3A6F02FB03F35C1C3B6F7A6F02FB03F37A6F013A8149323251F8222007F10C000192009323467A6F81490DF0E8FF07F10C03C1
:405B8000194678680EF006F87B6F01337B677B6F0A2BDADD78680EF00CF803461A467B681344704A1188927819809A7007F10C03734A1C4615460FCD0FC495E8070003C494
:405BC000228007F10C03194678680DF0E3FF664BB3F96830002B00DA03339B101BB23B6701237B6720E07B6F013B3A6F02FB03F43B6F7A6F02FB03F37A6F013A5A493C3210
:405C000051F8222007F10C000192009323467A6F5C490DF09BFF07F10C03194678680DF0B9FF7B6F01337B677B6F042BDBDD78680DF0BFFF03461A467B681344494A1188AB
:405C4000927819809A70484BD3F8C020464BD3F8C43007F10C004C490DF078FF07F10C03194678680DF096FF78680DF0A2FF03461A467B6813443B4A1188927819809A70D8
:405C8000394BD3F8002107F10C03404918460DF05DFF07F10C03194678680DF07BFF78680DF087FF03461A467B6813442D4A1188927819809A702C4BD3F8042107F10C03FF
:405CC000334918460DF042FF07F10C03194678680DF060FF78680DF06CFF03461A467B681344204A1188927819809A701E4BD3F8082107F10C03274918460DF027FF07F1C2
:405D00000C03194678680DF045FF78680DF051FF03461A467B681344124A1188927819809A70114BD3F80C2107F10C031A4918460DF00CFF07F10C03194678680DF02AFF92
:405D400078680DF036FF03461A467B681344054A1188927819809A7000BF7C37BD46F0BD14680100806101001097FF1F2C680100506801007868010067666666986801008A
:405D8000B0680100CC680100E86801000C6901002C69010054690100746901002DE9B04FD4B006AF3B1D18603B1D18680DF001FF03461A463B1D1B681344C94A1C46134600
:405DC00007CB20606160A2601A889B78A281A3730023C7F8343166E1C24AD7F8343113441B7807F10800D7F83421BF490DF0AEFE07F108023B1D114618680DF0CBFEB94A19
:405E0000D7F8343113441B781946B84A0B469B000B44134403F221131B78002B31D0B449D7F8342113469B001344DB000B440233B3F900301C46AE49D7F8342113469B0051
:405E40001344DB000B440433B3F900301D46A849D7F8342113469B001344DB000B440633B3F9003007F1080000932B462246A1490DF06CFE07F108023B1D114618680DF0A1
:405E800089FE984AD7F8343113441B781946974A0B469B000B44134403F591731B78002B31D09349D7F8342113469B001344DB000B440833B3F900301C468D49D7F83421E6
:405EC00013469B001344DB000B440A33B3F900301D468749D7F8342113469B001344DB000B440C33B3F9003007F1080000932B46224681490DF02AFE07F108023B1D114621
:405F000018680DF047FE774AD7F8343113441B781946764A0B469B000B44134403F223131B78002B31D07249D7F8342113469B001344DB000B440E33B3F900301C466C499D
:405F4000D7F8342113469B001344DB000B441033B3F900301D466649D7F8342113469B001344DB000B441233B3F9003007F1080000932B46224661490DF0E8FD07F10802A3
:405F80003B1D114618680DF005FE564AD7F8343113441B781946554A0B469B000B44134403F592731B78002B4FD05149D7F8342113469B001344DB000B4414331B6818462F
:405FC0000CF08CF982468B464949D7F8342113469B001344DB000B4418331B6818460CF07DF904460D464249D7F8342113469B001344DB000B441C331B6818460CF06EF96A
:40600000804689463A49D7F8342113469B001344DB000B4420331B6818460CF05FF902460B4607F10800CDE90423CDE90289CDE9004552465B4632490DF088FD07F108023D
:406040003B1D114618680DF0A5FD264AD7F8343113441B781946254A0B469B000B44134403F225131B78002B18D02149D7F8342113469B001344DB000B442433B3F900305B
:406080001A4607F108031F4918460DF05FFD07F108023B1D114618680DF07CFDD7F834310133C7F83431184B1B781A46D7F834319A423FF791AE3B1D18680DF07AFD0346BB
:4060C0001A463B1D1B681344104A1188927819809A7000BF07F59C77BD46BDE8B08F00BF986901003C94FF1F98670100C494FF1F7098FF1FA8690100BC690100D0690100FC
:40610000E4690100046A01007893FF1F8061010080B584B000AF78600B467B8013467B703A2007F095FA3A2007F092FA7B78184607F08EFA7B88DBB2184607F089FA0023FF
:40614000FB8109E0FB897A6813441B78184607F07FFAFB890133FB81FA897B889A42F1D30023FB8100BF07F067FA034603F00103002B05D1FB895A1CFA81B3F57A7FF2D96A
:40618000012006F007FF002006F004FF00BF1037BD4680BD80B584B000AF78600B467B803A2007F055FA3A2007F052FA1A4B5B78184607F04DFA7B88DBB2184607F048FAEF
:4061C0000023FB8109E0FB897A6813441B78184607F03EFAFB890133FB81FA897B889A42F1D30023FB8100BF07F026FA034603F00103002B05D1FB895A1CFA81B3F57A7F14
:40620000F2D9012006F0C6FE002006F0C3FE00BF1037BD4680BD00BF1097FF1F80B584B000AF78600B467B803A2007F011FA3A2007F00EFA184B5B78013BDBB2184607F0D2
:4062400007FA7B88DBB2184607F002FA0023FB8109E0FB897A6813441B78184607F0F8F9FB890133FB81FA897B889A42F1D30023FB8100BF07F0E0F9034603F00103002B2B
:4062800005D1FB895A1CFA81B3F57A7FF2D900BF1037BD4680BD00BF1097FF1F80B485B000AF78600B46FB700023BB730023FB7309E0FB7B7A6813441A78BB7B5340BB73AE
:4062C000FB7B0133FB73FA7BFB789A42F1D3BB7B18461437BD4680BC704700BF80B584B000AF0346FB710223FB60FB793B72FB797B72FB689AB207F1080311461846FFF73E
:4063000049FF00BF1037BD4680BD00BF80B586B000AF78600123FB7407F0A6FA002006F003FD08F0F7FA1D4A1D4B104619464FF498731A460CF036FE1323FB6000237B6103
:4063400018E07B691B011A46154BD0187B69DAB27B68DBB21344DBB2194606F01BFD0346FB72FB7A002B02D00023FB7406E07B6901337B617A69FB689A42E2DB084A074B35
:40638000104619464FF498731A460CF00BFE07F05FFAFB7C18461837BD4680BDC494FF1F1097FF1F80B582B000AF0023FB800CE0FB88124A1344124A1168FA880A44127881
:4063C000D2B21A70FB880133FB80FB88B3F5987FEED30A4B1B78002B02D100F015F808E0084A064B104619464FF498731A460CF0D9FD00BF0837BD4680BD00BF1097FF1FF5
:40640000CC80FF1FC494FF1F80B582B000AF0023FB800EE0FB88114A1344114A1168FA8802F548720A441278D2B21A70FB880133FB80FB88B3F5987FECD3084B1B78002B74
:4064400003D100F00FF8034603E00020FFF75EFF034618460837BD4680BD00BF1097FF1FCC80FF1F80B582B000AFBD4B01225A70BB4B40F239425A60B94B00229A60B84B03
:406480004FF4E572DA60B64B4FF480321A61B44B41225A61B24B00229A61B14B41F69912DA61AF4B00221A62AD4B00225A62AC4B44F6CC429A62AA4B0D22DA62A84B002229
:4064C0001A63A74B012283F83420A54B002283F83520A34B002283F83620A14B012283F854209F4B002283F87B209D4B00229A659B4B93F837301A4645F2F0539340984AE8
:40650000D3650023FB7116E0FB79954A1344032283F83720FB79924A12334FF07E5142F82310FB798E4A0E339B00134400225A60FB790133FB71FB79022BE5D9884B00222A
:406540005A66874B00221A66854B40F2DC52A3F86820834B002283F86E20814B4FF480621A677F4B4FF480625A677D4BC822A3F86A207B4BC822A3F86C20794B642283F806
:406580007820774B002283F87920754B162283F87A200023FB710AE0FB79714A1E339B0013444FF000025A60FB790133FB71FB79052BF1D96A4B93F837301A4641F658330D
:4065C0009340674AC2F89830654B0A22C3F89C20634B42F21072C3F8A020614B002283F8A5205F4B002283F8A6205D4B002283F8A7205B4B002283F8A8200023FB7108E0BA
:40660000FB79574A1344002283F8A920FB790133FB71FB79162BF3D903F064FB0023FB7108E0FB794E4A1344002283F81621FB790133FB71FB79092BF3D9494B93F8A83074
:40664000012B41D1872005F0A5FA0346FB71FB791B09DBB21A46920013445B00DAB2FB7903F00F03DBB21344DAB23D4B83F89520892005F08FFA0346FB71FB791B09DBB2F5
:406680001A46920013445B00DAB2FB7903F00F03DBB21344DAB2324B83F896208D2005F079FA0346FB71FB791B09DBB21A46920013445B00DAB2FB7903F00F03DBB2134497
:4066C000DAB2274B83F897200023FB7134E0FA79234913469B0013440B4403F2211301221A70FA791E4913469B0013440B4403F5917301221A70FA79194913469B0013443B
:406700000B4403F2231300221A70FA79144913469B0013440B4403F5927300221A70FA790F4913469B0013440B4403F2251300221A70FB790133FB71FB79022BC7D9084B3A
:4067400001221A700020FFF7E1FD0346002B09D03220FFF7DBFD0346002B03D0012302E01097FF1F0023DBB218460837BD4680BD80B584B000AF84233B710323FB7323E06A
:40678000FB7B1C4A52F82330FA7B1B490A4492F8372013411BB2BB81FB7B5B00023307F10C02127807F110010B4403F80C2CFB7B5B005A1C07F10C030133197807F11003BC
:4067C00013440A4603F80C2CFB7B5A1EFA73002BD6D13B1D07211846FFF760FD0346FB723B1D08211846FFF7D5FC00BF1037BD4680BD00BF3C96FF1F1097FF1F80B584B0E2
:4068000000AF89233B710323FB7324E0FB7B1C4A083352F82330FA7B1A490A4492F8372013411BB2BB81FB7B5B00023307F10C02127807F110010B4403F80C2CFB7B5B00AF
:406840005A1C07F10C030133197807F1100313440A4603F80C2CFB7B5A1EFA73002BD5D13B1D07211846FFF719FD0346FB723B1D08211846FFF78EFC00BF1037BD4680BD80
:406880003C96FF1F1097FF1F80B584B000AF8B233B710323FB7325E0FB7B1D4A0A339B0013445B68FA7B1B490A4492F8372013411BB2BB81FB7B5B00023307F10C0212784E
:4068C00007F110010B4403F80C2CFB7B5B005A1C07F10C030133197807F1100313440A4603F80C2CFB7B5A1EFA73002BD4D13B1D07211846FFF7D2FC0346FB723B1D082111
:406900001846FFF747FC00BF1037BD4680BD00BF3C96FF1F1097FF1F80B483B000AF2A4B5B781B021AB2284B9B781BB21343FB80264B93F83630022B04D1B7F90630244AE3
:40694000536015E0214B93F83630012B04D1B7F906301F4A93600BE0B7F906301C4A13601B4B1B68194A92F837209340184A1360184B93F85430002B1DD0144B93F8363076
:40698000032B04D0114B93F83630002B13D1104B1A68104B9B6D9A4203DA0E4B9B6D0C4A13600B4B1A680B4BDB6D9A4203DD094BDB6D074A1360084B01221A7000BF0C37C2
:4069C000BD4680BC704700BF7C93FF1F1097FF1F1896FF1FC494FF1FE081FF1F80B500AF0C4B5A780C4B1A730C4B93F83630002B04D00A4B93F83630032B03D1084B1B68D9
:406A0000054A1360044B1B7B184606F0D3FA00BF80BD00BF7C93FF1F1896FF1F1097FF1F4894FF1F80B582B000AF81233B71094B1B7B7B713B1D02211846FFF72FFC03469C
:406A4000BB713B1D03211846FFF7A4FB00BF0837BD4680BD0896FF1F80B584B000AF86233B702B4BDB681BB2BB8107F10C031B78BB7007F10C0301331B787B70244B1B69E2
:406A80001BB2BB8107F10C031B783B7107F10C0301331B78FB700323FB7323E0FB7B1C4A52F82330FA7B1B490A4492F8372013411BB2BB81FB7B5B00063307F10C0212783F
:406AC00007F110010B4403F8102CFB7B5B005A1D07F10C030133197807F1100313440A4603F8102CFB7B5A1EFA73002BD6D13B460B211846FFF7D2FB0346FB723B460C21AB
:406B00001846FFF747FB00BF1037BD4680BD00BF3C96FF1F1097FF1F80B584B000AF85233B72144BDB681BB2FB80BB1D1B78BB72BB1D01331B787B720E4B1B691BB2FB8065
:406B4000BB1D1B783B73BB1D01331B78FB7207F1080305211846FFF7A1FB03467B7307F1080306211846FFF715FB00BF1037BD4680BD00BF3C96FF1F80B582B000AF8E2356
:406B80003B710D4B1B691BB27B80BB1C1B78BB71BB1C01331B787B713B1D03211846FFF77DFB0346FB713B1D04211846FFF736FB00BF0837BD4680BD3C96FF1F80B500AF54
:406BC000094B5A78094B83F89420074B5B780D2B04D101210C2006F053FE03E00121022006F04EFE00BF80BD7C93FF1FC494FF1F80B582B000AF00233B7100237B713B1DD1
:406C000002211846FFF7C6FA00BF0837BD4680BD80B584B000AF83233B72104B1B68104A92F8372013411BB2FB80BB1D1B78BB72BB1D01331B787B7207F108030521184614
:406C4000FFF72CFB03467B7307F1080306211846FFF7A0FA00BF1037BD4680BD4098FF1F1097FF1F80B584B000AF0223FB73464B93F83530002B4ED1434BDB6BBB60424BB5
:406C80009B6C7B60414B1B6818460BF01FFF0346796818460CF022F8034618460CF030F902463A4B1A60394B1B6818460BF00EFF0246374B9B6C194610460BF05BFF03462A
:406CC00018460CF01DF90246304B1A602F4B1B681A462F4BDB6B1946BB68CB1A13441A462A4B1A60284B93F85430002B13D0274B1A68254B9B6D9A4203DA234B9B6D234A25
:406D00001360224B1A68204BDB6D9A4203DD1E4BDB6D1E4A13601C4B5A781D4B5B789A4220D0194B5B78FB700020FFF7EFFA0346002B0BD001233B7001237B70FB7B99B227
:406D4000FA783B461846FFF7E3F918E000233B7000237B70FB7B99B2FA783B461846FFF7D7F90CE00020FFF7D1FA0346002B03D00120FFF7B3FA02E00020FFF7AFFA00BF0C
:406D80001037BD4680BD00BFC494FF1F1896FF1F1097FF1F80B584B000AF88233B72144B9B691BB2FB80BB1D1B78BB72BB1D01331B787B720E4BDB691BB2FB80BB1D1B78F7
:406DC0003B73BB1D01331B78FB7207F1080305211846FFF763FA03467B7307F1080306211846FFF7D7F900BF1037BD4680BD00BF3C96FF1F90B5E3B000AF012387F88631A4
:406E0000002387F88531012387F8843107F11C03A1221A70002387F887317EE23B1D3A221A7097F88731DA4AD35C1946D94A0B469B000B44134403F221131B78002B5DD084
:406E400097F88721D44913469B001344DB000B440233B3F90030A7F8823197F88631013307F5C17211783A1DD15497F8862107F5C173013319783B1D995497F88721C64982
:406E800013469B001344DB000B440433B3F90030A7F8823197F88631033307F5C17211783A1DD15497F886319A1C07F5C173013319783B1D995497F88721B74913469B00E7
:406EC0001344DB000B440633B3F90030A7F8823197F88631053307F5C17211783A1DD15497F886311A1D07F5C173013319783B1D995497F88631063387F8863197F8873145
:406F0000A34AD35C1946A34A0B469B000B44134403F591731B78002B5DD097F887219E4913469B001344DB000B440833B3F90030A7F8823197F88631013307F5C172117842
:406F40003A1DD15497F8862107F5C173013319783B1D995497F887218F4913469B001344DB000B440A33B3F90030A7F8823197F88631033307F5C17211783A1DD15497F8F7
:406F800086319A1C07F5C173013319783B1D995497F88721804913469B001344DB000B440C33B3F90030A7F8823197F88631053307F5C17211783A1DD15497F886311A1D19
:406FC00007F5C173013319783B1D995497F88631063387F8863197F887316D4AD35C19466C4A0B469B000B44134403F223131B78002B5DD097F88721674913469B00134486
:40700000DB000B440E33B3F90030A7F8823197F88631013307F5C17211783A1DD15497F8862107F5C173013319783B1D995497F88721594913469B001344DB000B44103308
:40704000B3F90030A7F8823197F88631033307F5C17211783A1DD15497F886319A1C07F5C173013319783B1D995497F887214A4913469B001344DB000B441233B3F900309C
:40708000A7F8823197F88631053307F5C17211783A1DD15497F886311A1D07F5C173013319783B1D995497F88631063387F8863197F88731364AD35C1946364A0B469B009F
:4070C0000B44134403F592731B78002B00F0AB8097F88721304913469B001344DB000B4414331B68C7F87C31002387F8853113E097F886311A1D97F88531D31A013B97F8F4
:40710000852107F5BE710A4411783A1DD15497F88531013387F8853197F88531032BE7D997F887211C4913469B001344DB000B4418331B68C7F87C31002387F8853113E0B4
:4071400097F886311A1D97F88531D31A013B97F8852107F5BE710A4411783A1DD15497F88531013387F8853197F88531032BE7D997F88721084913469B001344DB000B4493
:407180001C331B68C7F87C31002387F8853119E03C94FF1FC494FF1F7098FF1F97F886311A1D97F88531D31A013B97F8852107F5BE710A4411783A1DD15497F8853101339F
:4071C00087F8853197F88531032BE7D997F88721664913469B001344DB000B4420331B68C7F87C31002387F8853113E097F886311A1D97F88531D31A013B97F8852107F523
:40720000BE710A4411783A1DD15497F88531013387F8853197F88531032BE7D997F88631103387F8863197F88731514AD35C1946504A0B469B000B44134403F225131B78D0
