:400000000080002011000000A9020000A9020000044A08B51268044B1A6000F0ADF900F04BF900BFFA460040BC76004010B5054C237833B9044B13B10448AFF300800123AE
:40004000237010BD4881FF1F000000001C170000084B10B51BB108490848AFF300800848036803B910BD074B002BFBD0BDE81040184700BF000000004C81FF1F1C170000A2
:40008000C880FF1F0000000008B500F077FDFEE7F8B572B66D4E0024354604EB4403AA8856F813000134002101F02CFB0A2C05F10605F2D1664E674B96E803008022186073
:4000C0009980654806F1080101F0F6FA06F1840706F1E00E0025E43657F8043F13F0FF0C23F0FF0414D00CF1FF3C5FFA8CFC05EB0C0006EB400006EB45030330013313F828
:40010000012C13F8021B98421155F8D1013565447745E1D1514C41F251262278504F42F0020222703A784F4D42F002023A702A78A4F5863442F040022A70413C2278A7F5E8
:400140007E4742F01002484B2270513F04F66E5403CB3860796003CBC5F8720DC5F8761D93E8070003C4414922800B7805F58C6543F008030B703E4C3E4861232B70A7F604
:40018000C2673D4A332118250223218005704FF040243B7008210320384B217010701A783748384BD2B287F8A123A4F8221206801C784FF4F07004F001041E4600F0D0FF91
:4001C00001E0032C0DD033784FF4F07003F0010343EA440400F0C4FF013D04F00304F0D1FEE7294B294D2A4F2A484FF4807407221C8000211A704826274A022439702E70FE
:4002000019700470137800F5F820033043F00103812601242149137085F8F86704700B78A0F5F420DBB21E49A0F2967005F5C35503F007071B4C1B090770023A0B700E35EF
:4002400044260FCA2E7007C42380F8BD201700005C17000060520040001A01400350014013500140A04300407C1B0000224300408040004082400040004200400801004916
:40028000204200402542004004400040084000400640004001400040A2430040CF0100496F580040B043004008B501F0D9F903680C2B00D0FEE7FEE780B5134FF7B1134E0E
:4002C000002556F80C0C56F8084C56F8102C03463CB1043A52F8041F43F8041B191AA142F8D156F8040C1A4620B142F8045BD11A8842FAD1013F06F11006E2D101F0B6F9E5
:40030000FFF7C2FEFEE700BF01000000D81B00000E4B0F4A0F491A600B680F4A43F400730E480B600023032B94BF50F823100C490133302B42F8041FF5D10A4B0A49187856
:400340000A4A0B4B08701A60FFF7A2BE0CED00E00004FA0514ED00E0FC7FFF1F00000000A9020000BC760040C080FF1F0080FF1F08ED00E0004700BF134A137803F0C003A3
:40038000802B00D0704770B400231048104E114D1370017833782A780F4C120442EA032322780B4353EA026301D170BC7047017833782A782078120442EA03230B4343EA24
:4003C000006070BCFFF7D6BFFA460040C1FF0300C2FF0300C3FF0300C4FF0300F0B50002C0F57F3090F8C5E390F8C67390F8C92390F8CAC390F8CB1390F8CC3390F8D15336
:40040000C1B0012D69D0DBB21D06C9B290F8C53390F8C663FFB245EA01415FFA8EFED2B25FFA8CFC0A434EEA072E43EA062642EA0C220EF10107013602EB072736020022FC
:40044000B74200F2D13415460AD916F8013B591EC9B2FD29134498BF0125B742DAB2F4D190F8C53390F8C6131D4E43EA0121B7424FEA411101F1200114BFFF084FF4004738
:400480008F4209D901F1904107F1904711F8013B1344B942DAB2F9D1534290F8C023DBB2934202D0062041B0F0BD002DFAD068464FF4807224F0FF0101F009F99DF8D1309B
:4004C000012B0AD00123C4F307216A4603208DF8D13000F0E1FB00F005FD002041B0F0BDC0FF0300013810B40B2863D8DFE800F017202632383E444A50565C060902C1F5DE
:400500007F3101F578710A784C788B78C8781B0443EA0423134343EA006010BC70470902C1F57F3101F57071087810BCC0B270470902C1F57F3101F2C131E4E70902C1F52B
:400540007F3101F2C5314A1C0B78107810BC43EA002070470902C1F57F3101F2C931D2E70902C1F57F3101F57471DDE70902C1F57F3101F2D131D7E70902C1F57F3101F2F2
:40058000D231E0E70902C1F57F3101F2D631DAE70902C1F57F3101F57571D4E70902C1F57F3101F57671AEE70902C1F57F3101F57771B9E701220021C6E700BF2DE98048DD
:4005C000ADF5677D00F0DCFD62B600239B461E4601930DF23F1451AF0DF245190DF5A3780293FF2305AA4FF4967150A800F0E8FD0028F6D1BDF81420062A03D99DF8405145
:40060000012D2CD04FF0040A0025284604210123ADF816008DF841A18DF842518DF843618DF840310023625C0139134489B29BB20029F8D15B429BB25FFA83FE1A0AC11D5C
:40064000172507F800E089B209F80020962308F800500DF1160250A800F09EFDC1E7BDF84231D91D914200F2E680B1F5967F00F2E28050AA1A449279172AC3D1191D89B2B8
:40068000002900F04A82625C0139104489B280B20029F8D1404280B250AAD11891F805E00A7942EA0E22824202D04FF0080AABE79DF841119DF844A1A1F131020A2A00F201
:4006C000AD80DFE802F04788AB5A41AB311F5A1606000020FFF782FE10B9BD4A8023137000F058FD002500F0C9FB04218A4628468DE7BBF1000F40F0BB80042100258A46CD
:40070000284684E7002BF8D1B24A082592E8030008AA82E8030087E8030001939A4628460C214FF0010B72E7BBF1000FE5D0019A03EB020EBEF5967F40F3108100252846DA
:4007400004214FF0030A62E7BBF1000FD5D00023019346E7BBF1000FCFD0002BCDD118460393FFF73BFEB0FA80F0039B40098DF844019A460521584649E734295ED0BBF15F
:40078000000FBAD0022BB8D9AAF1400B019D5FFA8BFB033B9BAA50190DF247111A46039300F08AFF019BBBF13F0F1A46039B1A4495B240F207814FF480734FF49072954288
:4007C00000F0F38000250195284604214FF0010B4FF0030A1BE7BBF1000F8ED0012B8CD1BAF1030F89D87C4B1B681B68C3F30742924500F09E8194BF012200220023FF2162
:4008000004258DF846118DF844318DF845218DF84761284608214FF0000AF8E66F4A1568002D6CD0BBF1000F6ED10025284604214FF0050AEBE64FF0030AE5E6BBF1000FA1
:400840003FF45BAF032B7FF458AFAAF1400B5FFA8BFBBBF13F0F94BF10254FF490752A4600219BA80393019500F04CFF039B90E7032B7FF442AFAAF140033F2BBDF84511CF
:4008800040F2E780FF2979D84FEA0A2E0EEB0100000200F1FF020023013812F801C963448242DBB2F9D1BAF13F0F20D80EF110720A4452011046203210F801EB73448242AB
:4008C000DBB2F9D1BAF1030F11D1FF290FD1002105200393FFF706FE039B00211B1A06205FFA83FAFFF7FEFDC0EB0A00C3B25B428DF8443105214FF0000A012087E6042160
:4009000028464FF0050A82E68DF81810ADF81A3006A80797089609960A9708A9A847BDF824000A9BB0F5937F01D3BB422ED05BB39DF82030021D91B28DF841310122030AAD
:40094000ADF816008DF842018DF840218DF8433100297FF467AE0A468E4670E61A46019B9BA90B441846394600251FFA8EF30193AA4600F0A1FE2846042148E60025284658
:4009800004214FF00A0A42E60028D1D001220E23ADF816608DF842618DF843618DF840218DF84131042100203CE6BDF845219A42019215D30025284604214FF0010B4FF016
:4009C0000A0A24E600F030FA80231022F7E600BFFA460040981B0000CC80FF1F6481FF1FBAF13F0F20D8554B02EB0A221B6892B21968C1F30F2311F0FF0F1CBF01339BB26B
:400A00009A42C0F08C80029B73B919464FF4907208A800F077FE4FF4907308AAFF21032000F0A0F9012302932B46019950469BAA00F098F9002398420CBF9A464FF00A0ABD
:400A400001931D464FF0010B00F04CFA01980421DDE5039100F0E8F903997F294FEA01138CD837483749384A18441944DFF8DCC000781A440978DFF8D8E012789C449E4445
:400A800008449CF80010DFF8CCC010449EF80020DFF8C4E09C449E4408449CF80010DFF8BCC010449EF80020DFF8B4E09C449E4408449CF80010DFF8ACC010449EF80020E5
:400AC000DFF8A4E09C449E4408449CF80010DFF89CC010449EF80020DFF894E09C449E4408449CF80010DFF88CC010449EF80020DFF884E09C4408449E449CF8001003F1A1
:400B00008043104403F500439EF8002001441B780A44134403F0FF03E9E60846BCE5002301931D46184604214FF0010B4FF00A0A6DE5C3F30723002261E600BFCC80FF1F7E
:400B40000F8000400E8000400D8000400C8000400B8000400A80004009800040088000400780004006800040058000400480004003800040028000400180004038B500F0E0
:400B800039F870BB0020FFF729FC184C0028236818BF06251A6808BF00256AB1002312F8011D0B44DBB2002AF9D162681278D31A03F0FF039A4202D0002000F05DF90C4A41
:400BC000137803F0C003402B00D025B1084B00221A70FFF7F3FC80231370BDE8384000F04DB9002000F048F9CCE700BFCC80FF1FFA46004038B500F0AFF900F05FFA10B14A
:400C00000424204638BD00F095FA072804462BD000F076FA002CF4D100F09EF900F04EFA0028EDD1012000F02DFA072805D04FF0FF3400F065FA204638BD154C02E0237812
:400C40009B07F4D40221134800F09CF90228F6D10F4C2378990705D4012000F03BF923789A07F9D50024E4E7094D2B789B0705D4012000F02FF92B789807F9D5044B1A78CB
:400C80009507D6D51B789B08D3D100F039FAC3E7224700407C81FF1FF0B53F2883B00AD8441F3A2C8CBF00240124B1F5807F17D9012003B0F0BD412894BF0024012481293F
:400CC00028BF01241027002AF2D0002CF0D116460D46044600F0F2F928B1042003B0F0BD4FF48077EFE73B4632462946204600F069F9072804D0019000F002FA0198EDE78A
:400D0000164E33789B0705D4012000F0E3F833789807F9D5114E33789F071BD533789B0818D10F4A294653782046127800F086F90728E0D102E0012000F0CCF8337899077A
:400D4000F9D5064B1A78920704D51B789B0801D11846D0E74FF0FF30CDE700BF224700407C81FF1FF0B5412883B015D8441F3A2C8CBF002401243F280FD8B1F5807F11D827
:400D800082B17CB91E4617460D46044600F096F958B1042003B0F0BD0124812928BF0124102BEDD0012003B0F0BD33463A462946204600F007F9072804D0019000F0A0F932
:400DC0000198F0E7164E33789B0705D4012000F081F833789807F9D5114E33789F071BD533789B0818D10F4A294653782046127800F024F90728E0D102E0012000F06AF8BB
:400E000033789907F9D5064B1A78920704D51B789B0801D11846D0E74FF0FF30CDE700BF224700407C81FF1F38B500F0A1F90F4A0F4913780F4C43F0080313700B78C82543
:400E400043F008030B702570137B43F0100313730B7B02F5587243F010030B7313789B06FCD5BDE8384000F087B900BFA0430040B04300400147004001BE7047024A13788B
:400E800043F0010313707047F6460040B0F5004F70B506461AD904460D4DA4F50044686800F05EF9B4F5004FF7D8A6F50043013B23F4FF4323F07F03A6F50046F61AA86885
:400EC00000FB06F0BDE8704000F04AB9004DF6E7D480FF1F024B1B7800FB03F000F040B9D480FF1F08B500F043F900BF00BF00BF00BF00BF00BF00BF00BF00BF00BF00BFD6
:400F000000BF00BF00BF00BF00BF064A13889BB243F0040313801388BFF36F8FBDE8084000F02AB900480040054B00F01F001A6800F1100352F8230042F82310704700BF29
:400F400008ED00E000F01F0000F16040490100F56440C9B20170704708B500F009F90749074A0B7843F008030B70137843F008031370BDE8084000F0FFB800BFA043004028
:400F8000B04300402DE9F0410F4699B14E1EF6B20644451E094CDFF8288002E00120FFF799FF2378DB07F9D598F8003005F8013FB542F6D13846BDE8F08100BF22470040F0
:400FC00020470040F0B41B4C2578AD071DD51A4DB6262E70D52702262F702E702478A40710D428705BB15E1EB6B21644013A12F8014FB2422C70FAD1B3F5807F08D0F0BC92
:40100000072070470920F0BC70470420F0BC70473F28F4D800F5103001EB0021490106480A46203112F8013BDBB291420370F9D1E5E700BF2247004020470040F0B40F4D53
:401040002C78A60716D50E4CB6262670D8270526277026702D78AD0709D40D0AC9B2207025702170227023700720F0BC70470920F0BC70470420F0BC704700BF2247004069
:40108000204700400B4A1378990711D530B40A4BB625E1240E211D701C7019701278920703D4187030BC07207047092030BC704704207047224700402047004038B500F019
:4010C00057F80D4A137823B1042400F055F8204638BD0125094915700C682C40F5D00C6824F001040C6000BF00BF00BF1C46556000F042F8204638BD6881FF1F0400084064
:4011000010B500F035F8094B002259681A70012908D1074C216841F00101216000BF00BF00BF5A60BDE8104000F026B86881FF1F04000840074B1B789B0708D5064BB620E1
:40114000E0210D221870197007201A7070470420704700BF2247004020470040000000000230800803D000BF01380046FCD17047EFF3108072B6704780F31088704700BFBB
:4011800008B500F071F800F04BF9BDE8084000F0A7B900BF00F0C6B8F8B50E460446174600F03EF94EB1751EADB22544013C14F8010F00F057F9AC42F9D13E800020F8BD6E
:4011C0002DE9F84303EB83035D0006468846174618BF002407D117E001340120A4B2FFF755FEAC4210DA00F0F3F80028F4D000F0EFF804461920FFF749FE00F0E9F88442CA
:40120000F5D34FF0000901E04FF0050900243C8000F0DEF8F8B100F0DBF83A8880B283189BB243453B801BD2C0B1204485B200F0A1F8631C30559CB2AC42F8D1731913F81D
:40124000013C172B02D00520FFF720FE2C4600F0BFF80028DFD14846BDE8F8832546EDE73A804846BDE8F883F8B5224D2C780CBB21492046FFF758FE20460721FFF762FE17
:401280001E4B1F492022692008701A701D4901206C70FFF749FE07210120FFF753FE1A4E1A481B4A06274724022101233770047011702B70FFF75CFF0546164C1649237823
:4012C000164A43F0200323700B78012043F010030B701060A378124843F010030221A3700160116000F09CF92846BDE8F840FFF743BF00BF7081FF1F211500008964004014
:4013000089650040B915000028640040386400408B650040996500409964004000E100E080E200E038B5FFF723FF05460D4A0E4C137803F0DF03137000F082F923780B4A1C
:40134000012003F0EF030A49237010600B78022403F0EF030B7028461460BDE83840FFF70BBF00BF996500409964004080E100E09B65004010B4114B114A0121196091786F
:40138000D3781079C9B210B9DBB2994212D04B1CDBB2402B0B4828BF0023405C93701379074CC0B20BB100232371074B01221A6010BC7047054B1878C0B2F6E780E100E0CA
:4013C0007081FF1F8081FF1F00E100E04A650040104A0121104B11609978DA7891420FD09978DA789142DA78987824BF02F14003181A0A4B38BF101A0122C0B21A60704793
:401400001B790122002B054B14BF402000201A60704700BF80E100E07081FF1F00E100E010B5FFF7A5FE0B4B0B4C1A7842F001021A701A7802F0FE021A70FFF79DFE074BD9
:4014400000220121064821609A70DA701A715A71016010BD9A65004080E100E07081FF1F00E100E070B4194DEC79AB792646DBB2591EE21A091BA2F13F02B1FA81F1B2FAF1
:4014800082F249095209A34288BF0A46002AECD1A34212D03F2C0E4A88BF00260D4B90551B789ABF0134E4B201249B07EC7102D5094B02221A6070BC7047064B1B785A07A8
:4014C000E8D4064B187070BC704700BF7081FF1FC081FF1F6B65004000E200E04865004010B5FFF745FE0A4B0A4C1A7842F001021A701A7802F0FE021A70FFF73DFE064AFF
:401500000223002105482360D1719171036010BD9865004080E100E07081FF1F00E100E02DE9F0431C481D491D4F1E4A1E4E1F4CDFF880C01E4D4FF0010E0378DBB213F03A
:401540001E0905D091F8008049EA080881F800809B0601D4BDE8F08397F8008013785FFA88F8DBB206F8038023784FF000080BB18CF800E013780133DBB2137013783F2B55
:4015800088BF82F8008092F800802B789845D4D184F800E0D1E700BF696400407181FF1F4A6500407381FF1F8081FF1F7481FF1F7281FF1F7581FF1F144A154813780178B4
:4015C000994221D0F0B513490B7803F0040303F0FF06C3B91746104D104C02E00B785B0711D413783F2B88BF3E701378DBB2EB5CDBB22370137890F800E00133DBB21370CB
:4016000013789E45EAD1F0BD704700BF7681FF1F7781FF1F6B650040C081FF1F486500400549064A0B7843F001030B70137843F001031370704700BFA2430040B2430040EF
:401640000549064A0B7803F0FE030B70137803F0FE031370704700BFA2430040B2430040014B1868704700BF4481FF1F0E4B70B51E460E4C0025E41AA410A54204D056F8C7
:40168000253098470135F8E700F08CFA084B094C1E46E41AA4100025A54204D056F8253098470135F8E770BDB01B0000B01B0000B01B0000B81B000010B5431E0A4491428E
:4016C00004D011F8014B03F8014FF8E710BD884210B501EB020301D8421E0BE09842FBD28118D21AD34204D013F8014D01F8014DF8E710BD994204D011F8014B02F8014F77
:40170000F8E710BD03460244934202D003F8011BFAE77047001D0000ED00000000000000005100401000205100401000405100403000F051004010000000014000100014B5
:4017400001400006801A0140800100400140000A004C014000020050014020001090000040000000CF083042C3003C0800100000082000000020F3000C30F3003D0FC0F055
:4017800008000084023F20C004F800010C3900C6430010C740318C003F0000FF00002800000000402105040003EC000003FFFFFF62A0F0410C00000000000000040404044F
:4017C0000000000100000000000040020010301000101012000000000000000000000000000000000152004001640040026500400107014054080140370901400414014085
:4018000003150140011701404D180140411901400D1A0140411B0140034001400241014002420140044301400147014002480140084C01400E4D014004500140015101402E
:401840000914893A89698B0FE60203010461060E071809480A400B860E0811801365142C15E61643171119601B8B1E43206121A02206260C28102D802F023020320F330774
:40188000341035F8364038023A083B083E504003474049FF4A074BFF4C404D204EF04F055008580459045A045F01604061A8624063208320850387048A028B088D038E022A
:4018C0008F0C9001950A9704980199039B04A310A710A801AF05B001B10FB320B510B602BB02BE40BF10D41AD604D804D904DB04DF0100A005800605071008800A450E2010
:401900000F0211101502161819401B021D241E211F0120402105220223042404271029012B212D802E023104331035043602371038523A143C143E083F0245084F025601C3
:4019400059025A206140634485208740C0E3C2AAC472CA9BCCE6CEEFD040D605D80DE008B980BF40D904DF012680A680B280EA0801020B011001140419011E022006280662
:401980002D01320633033401380839083E1440454102460E47BC483449FF4AFF4BFF4EF04F44500C580459045A045F0166C06A406B0284038508860C89088D088E0E900232
:4019C00091089208953D960F9702980299239A049B1C9D1E9F01A127A318A501A716A80CA926AA03AB19AC03AE0CAF1FB320B401B508B60EB71FB820BA80BB80BF04D602C6
:401A0000D712D804D904DB04DF01000403020520060408280A800E300F821209150216C0171019801BA01D081E082254241028282A012B8A2E8031143249371038A83E10F9
:401A40003F02464047104E02560657405A0869106A46705C79017A027B41910A941295109664978098809B109D039E06A210A303A450A508A720AF40B701C005C2BEC4533B
:401A8000CA1FCC2FCEAED0A0D210D602840188018C019601A201AE02B203BA08D401D604D804DB04DF0100440380059408120A120E101048114012101580164018041916A1
:401AC0001E101F0820802142281229042A402B8A30483110324138E239083A1040264102481049815C805D215E0867806A4082408C218D4090A09109928294069780988038
:401B000099A09C209D17A008A204A382A450A708C0EDC22FC49FCA0FCC0FCE0FD00FD208D6F0D880E004E88030103580CC309C109D809C109D8084109C109D80E640862085
:401B4000AD80EA105840620199089A20B508D401D802E80212807220750882018E8099089A209E01B040C408DC01DE04E202E80100010C0110011C01000F00004090900073
:401B80009000000010140400140000000000000101000000000000006910162E003C010143000000F8B500BFF8BC08BC9E4670475100000011030000F8B500BFF8BC08BC51
:401BC0009E4670472D000000D81B0000C880FF1F80000000B8000000000000001417000018170000180000000000E02EC05D000000366E010000000000000000000000004A
:401C00000000000000000000000000000000000000000000A01B000000000000000000000000000000000000000000000000000000000000000000000000000000000000E9
:401C40000000000000000000000000000000000000000000E480FF1F00000000000000000000000000000000000000000000000000000000000000000000000000000000E2
:401C80000000000000000000000000000000000000000000000000000000000000000000000000000000000000000000000000000000000000000000000000000000000024
:401CC00000000000000000000000000000000000000000000000000000000000000000000000000000000000000000000000000000000000000000000000000000000000E4
:401D000000800020111D0000855E0100855E010080B500AF14F0EAF810B5054C237833B9044B13B10448AFF300800123237010BDB081FF1F00000000C0090200084B10B56F
:401D40001BB108490848AFF300800848036803B910BD074B002BFBD0BDE81040184700BF00000000B481FF1FC0090200C880FF1F0000000080B588B000AFE24B1B78FB7763
:401D8000E04BB3F98030DBB2013BDBB21946DD480AF00EFC03461946DA4BB3F98030013BD84AD35C994204D0D64B002283F8842042E2FB7FA62B00F23E8201A252F823F0D6
:401DC000DB200000BD20000037220000E1200000E72000000D210000A52000003722000037220000412100002721000037220000C3200000632100003722000037220000E9
:401E00003722000037220000372200003722000037220000372200003722000037220000372200003722000037220000372200003722000037220000372200003722000012
:401E400037220000372200003722000037220000372200003722000037220000372200003722000037220000372200003722000037220000372200003722000037220000D2
:401E80003722000037220000372200003722000037220000372200003722000037220000372200003722000037220000372200003722000037220000372200003722000092
:401EC0003722000037220000372200003722000037220000372200003722000037220000372200003722000037220000372200003722000037220000372200003722000052
:401F00003722000037220000372200003722000037220000372200003722000037220000372200003722000037220000372200003722000037220000372200003722000011
:401F400037220000372200003722000037220000372200003722000037220000372200003722000037220000372200003722000037220000372200003722000037220000D1
:401F80003722000037220000372200003722000037220000372200003722000037220000372200003722000037220000372200003722000037220000372200003722000091
:401FC0005D20000093200000632000009F20000069200000752000006F200000372200008D2000008120000037220000872000007B20000037220000372200003722000075
:4020000099200000372200003722000037220000372200003722000037220000372200003722000037220000372200003722000037220000372200003722000037220000B0
:402040003722000001220000072200001F220000252200002B220000312200000BF008F9EAE00AF0E3FFE7E00AF0CEFEE4E00BF09FF9E1E00BF038FADEE00BF0ABFADBE006
:402080000AF01CFFD8E00AF075FFD5E00BF066FCD2E00BF05FF9CFE00BF022FBCCE00BF049FBC9E0184B1B883B613B695BBAFB60FB689BB2184600F0CBF8BDE006F000FE6B
:4020C000BAE0114B1B88BB61BB695BBABB60BB689BB2184603F00EF9AEE00BF01BFBABE00BF05EFBA8E032200AF09AFA0346002B03D001200AF07CFA9EE000200AF078FA47
:402100009AE000BFCC94FF1FCD94FF1F0AF014FB0346002B03D001200AF06AFA8CE000200AF066FA88E00AF035FB0346002B03D001200AF05DFA7FE000200AF059FA7BE042
:4021400001200AF055FA4FF47A7016F01DFD002014F098F84FF47A7016F016FD14F0A2FF6AE0374B5B781B021AB2354B9B781BB213431AB2334B5A80314BDB781B021AB2EF
:402180002F4B1B791BB213431AB22E4B9A802D4BB3F90230B3F1FF3F0FD12A4BB3F90430B3F1FF3F09D1274B00221A70254B00225A80244B00229A803EE0224BB3F90230C8
:4021C000002B03DA1F4B00225A8007E01D4BB3F90230C82B02DD1B4BC8225A80194BB3F90430002B02DA174B00229A80164B00221A60144B01221A7001200AF0F9F91BE04E
:402200000BF0DCFB18E0114B1B887B617B695BBA7B607B689BB2184605F058FE0CE00BF099FE09E00BF0DCFE06E00BF04FFF03E00BF07AFF00E000BF2037BD4680BD00BF95
:40224000CC94FF1F5495FF1FE099FF1FCD94FF1F80B5ADF5BB4D92B000AF024607F14803423B1A8007F59C4303F1280300221A60043340F69C72002118461BF0A4FE07F11C
:402280004803403B00221A60043344F61C62002118461BF098FE07F14803423B1B88032B50D801A252F823F0B9220000DB220000FD2200002323000007F59C4303F12803BD
:4022C000184606F03FFD14F02FFC07F59C4303F12803184614F006FC35E007F59C4303F12803184608F0E2FA14F01EFC07F59C4303F12803184614F0F5FB24E007F59C4337
:4023000003F128034FF47A61184612F06FFB14F00BFC07F59C4303F12803184614F0E2FB11E007F14803403B44F62061184612F083FB14F0F9FB07F14803403B184614F0F2
:40234000D1FB00E000BF00BF07F5BB474837BD4680BD00BFF0B5ADF5AA5D85B000AF07F11004043C206007F110000838016007F110010C390A6007F11002103A136007F199
:4023800070031C3B00221A60043341F2E242002118461BF018FE41F2E64307F5AA5202F108021380002307F5AA5202F10D021370002307F5AA5202F10C021370002307F547
:4023C000AA5202F10B02137007F13003103B00221A6004332E22002118461BF0F4FD002307F5AA5202F107021370012307F5AA5202F10602137007F11003043B1B681B68C6
:4024000007F5AA52136007F5AA531B6807F5A95202F11C02136007F170031C3B0C221A7007F170031C3B4C225A70002307F5AA5202F10D02137002F0A7BE07F5AA5303F1E2
:402440000D031B789A0007F11003043B1B6813441B6807F5AA52136007F5AA5303F10D031B78322202FB03F39A1C07F5AA5303F10D03197807F11003083B1B680B44197841
:4024800007F170031C3B995407F5AA5303F10D031B78322202FB03F3DA1C07F5AA5303F10D03197807F110030C3B1B680B44197807F170031C3B995407F5AA5303F10D03B1
:4024C0001A7807F11003083B1B6813441B78092B2BD801A252F823F00125000001250000012500000F2500000F2500001D2500001D2500001D2500002B2500000125000042
:40250000012307F5AA5202F10B0213700DE0022307F5AA5202F10B02137006E0042307F5AA5202F10B02137000BF07F5AA5303F10D031B7807F5AB5202F1100212681344C9
:402540001B78002B40F0CC8307F5AA5303F10D031A7807F11003083B1B6813441B78092B02F2258101A252F823F000BF952500004D260000952500000527000033280000D9
:402580005F2900008B2A0000B32B0000AF47000095250000002307F5AA5202F10F02137040E007F5AA5303F10F031B7807F5AA5202F10B02127802FB03F31A4607F5AA532E
:4025C0001B68134407F5A95202F11C02136007F5AA5303F10D031B78322202FB03F31A1D07F5AA5303F10F031B7807F5AA5101F10B01097801FB03F31A4407F5A95303F134
:402600001C031B68197807F170031C3B995407F5AA5303F10F031B78013307F5AA5202F10F02137007F5AA5303F10D031A7807F110030C3B1B6813441B7807F5AA5202F13A
:402640000F0212789A42ACD302F0B1B8002307F5AA5202F10F02137040E007F5AA5303F10F031B7807F5AA5202F10B02127802FB03F31A4607F5AA531B68134407F5A95216
:4026800002F11C02136007F5AA5303F10D031B78322202FB03F31A1D07F5AA5303F10F031B7807F5AA5101F10B01097801FB03F31A4407F5A95303F11C031B68197807F119
:4026C00070031C3B995407F5AA5303F10F031B78013307F5AA5202F10F02137007F5AA5303F10D031A7807F110030C3B1B6813441B7807F5AA5202F10F0212789A42ACD3AF
:4027000002F055B8002307F5AA5202F10F0213707AE007F5AA5303F10F031B7807F5AA5202F10B02127802FB03F31A4607F5AA531B68134407F5A95202F11C02136007F5ED
:40274000A95303F11C031B68B3F9002007F13003163B1A80002307F5AA5202F10E0213703BE007F5AA5303F10D031B78322202FB03F31A1D07F5AA5303F10F031B7807F58D
:40278000AA5101F10B01097801FB03F31A4407F5AA5303F10B031B781A4407F5AA5303F10E031B78D31A5A1E07F5AA5303F10E03197807F13003163B0B44197807F1700317
:4027C0001C3B995407F5AA5303F10E031B78013307F5AA5202F10E02137007F5AA5303F10E031A7807F5AA5303F10B031B789A42B7D307F5AA5303F10F031B78013307F50C
:40280000AA5202F10F02137007F5AA5303F10D031A7807F110030C3B1B6813441B7807F5AA5202F10F0212789A42FFF472AF01F0BEBF002307F5AA5202F10F02137079E0E8
:4028400007F5AA5303F10F031B7807F5AA5202F10B02127802FB03F31A4607F5AA531B68134407F5A95202F11C02136007F5A95303F11C031B681A8807F13003183B1A805B
:40288000002307F5AA5202F10E0213703BE007F5AA5303F10D031B78322202FB03F31A1D07F5AA5303F10F031B7807F5AA5101F10B01097801FB03F31A4407F5AA5303F109
:4028C0000B031B781A4407F5AA5303F10E031B78D31A5A1E07F5AA5303F10E03197807F13003183B0B44197807F170031C3B995407F5AA5303F10E031B78013307F5AA528A
:4029000002F10E02137007F5AA5303F10E031A7807F5AA5303F10B031B789A42B7D307F5AA5303F10F031B78013307F5AA5202F10F02137007F5AA5303F10D031A7807F1C1
:4029400010030C3B1B6813441B7807F5AA5202F10F0212789A42FFF473AF01F028BF002307F5AA5202F10F02137079E007F5AA5303F10F031B7807F5AA5202F10B02127832
:4029800002FB03F31A4607F5AA531B68134407F5A95202F11C02136007F5A95303F11C031B681A6807F130031C3B1A60002307F5AA5202F10E0213703BE007F5AA5303F1C1
:4029C0000D031B78322202FB03F31A1D07F5AA5303F10F031B7807F5AA5101F10B01097801FB03F31A4407F5AA5303F10B031B781A4407F5AA5303F10E031B78D31A5A1E7C
:402A000007F5AA5303F10E03197807F130031C3B0B44197807F170031C3B995407F5AA5303F10E031B78013307F5AA5202F10E02137007F5AA5303F10E031A7807F5AA532A
:402A400003F10B031B789A42B7D307F5AA5303F10F031B78013307F5AA5202F10F02137007F5AA5303F10D031A7807F110030C3B1B6813441B7807F5AA5202F10F02127842
:402A80009A42FFF473AF01F092BE002307F5AA5202F10F02137077E007F5AA5303F10F031B7807F5AA5202F10B02127802FB03F31A4607F5AA531B68134407F5A95202F1C7
:402AC0001C02136007F5A95303F11C031B681A6807F110031A60002307F5AA5202F10E0213703AE007F5AA5303F10D031B78322202FB03F31A1D07F5AA5303F10F031B7855
:402B000007F5AA5101F10B01097801FB03F31A4407F5AA5303F10B031B781A4407F5AA5303F10E031B78D31A5A1E07F5AA5303F10E031B7807F110010B44197807F1700308
:402B40001C3B995407F5AA5303F10E031B78013307F5AA5202F10E02137007F5AA5303F10E031A7807F5AA5303F10B031B789A42B8D307F5AA5303F10F031B78013307F587
:402B8000AA5202F10F02137007F5AA5303F10D031A7807F110030C3B1B6813441B7807F5AA5202F10F0212789A42FFF475AF01F0FEBD002307F5AA5202F10F02137079E024
:402BC00007F5AA5303F10F031B7807F5AA5202F10B02127802FB03F31A4607F5AA531B68134407F5A95202F11C02136007F5A95303F11C031B681A6807F13003143B1A601C
:402C0000002307F5AA5202F10E0213703BE007F5AA5303F10D031B78322202FB03F31A1D07F5AA5303F10F031B7807F5AA5101F10B01097801FB03F31A4407F5AA5303F185
:402C40000B031B781A4407F5AA5303F10E031B78D31A5A1E07F5AA5303F10E03197807F13003143B0B44197807F170031C3B995407F5AA5303F10E031B78013307F5AA520A
:402C800002F10E02137007F5AA5303F10E031A7807F5AA5303F10B031B789A42B7D307F5AA5303F10F031B78013307F5AA5202F10F02137007F5AA5303F10D031A7807F13E
:402CC00010030C3B1B6813441B7807F5AA5202F10F0212789A42FFF473AF00BF01F067BD07F5AA5303F10D031B780133023B332B01F25C8501A252F823F000BFCD2D0000D6
:402D000099320000AD470000AD470000AD470000AD47000069370000AD470000AD4700008F380000AD470000AD470000AD470000AD470000AD470000AD470000AD470000FD
:402D4000AD470000AD470000AD470000AD470000533A0000AD470000AD470000AD470000AD470000AD470000AD470000AD470000AD470000AD470000AD470000AD4700007A
:402D8000AD470000AD470000AD470000AD470000AD470000AD470000AD470000AD470000AD470000273B0000EF3F0000AD470000AD470000AD470000AD470000BD4400001E
:402DC000AD470000AD470000E145000007F5AA5303F107031A78AC491346DB009B1A1B010B4403F20F131B78032B00F0298107F5AA5303F107031A78A3491346DB009B1A23
:402E00001B010B44B0331B6818461AF065FE03464FF08F4118461AF067FF03461A4607F13003143B1A60002307F5AA5202F10F0213702EE007F5AA5303F10D031B7832229F
:402E400002FB03F31A1D07F5AA5303F10B031B781A4407F5AA5303F10F031B78D31A5A1E07F5AA5303F10F03197807F13003143B0B44197807F170031C3B995407F5AA53B3
:402E800003F10F031B78013307F5AA5202F10F02137007F5AA5303F10F031A7807F5AA5303F10B031B789A42C4D307F5AA5303F107031A7874491346DB009B1A1B010B449A
:402EC000B4331B6818461AF007FE03464FF08F4118461AF009FF03461A4607F13003143B1A60002307F5AA5202F10F02137034E007F5AA5303F10D031B78322202FB03F309
:402F00001A1D07F5AA5303F10B031B781A4407F5AA5303F10B031B781A4407F5AA5303F10F031B78D31A5A1E07F5AA5303F10F03197807F13003143B0B44197807F1700336
:402F40001C3B995407F5AA5303F10F031B78013307F5AA5202F10F02137007F5AA5303F10F031A7807F5AA5303F10B031B789A42BED307F5AA5303F107031A7842491346CF
:402F8000DB009B1A1B010B44B8331B6818461AF0A3FD03464FF08F4118461AF0A5FE03461A4607F13003143B1A60002307F5AA5202F10F02137035E007F5AA5303F10D03EC
:402FC0001B78322202FB03F31A1D07F5AA5303F10B031B785B001A4407F5AA5303F10B031B781A4407F5AA5303F10F031B78D31A5A1E07F5AA5303F10F03197807F13003DB
:40300000143B0B44197807F170031C3B995407F5AA5303F10F031B78013307F5AA5202F10F02137007F5AA5303F10F031A7807F5AA5303F10B031B789A42BDD301F0B7BB7F
:4030400007F5AA5303F107031A780F491346DB009B1A1B010B44C8331B6818461AF03CFD03464FF08F4118461AF03EFE03461A4607F13003143B1A60002307F5AA5202F155
:403080000F02137031E000BFD096FF1F07F5AA5303F10D031B78322202FB03F31A1D07F5AA5303F10B031B781A4407F5AA5303F10F031B78D31A5A1E07F5AA5303F10F0338
:4030C000197807F13003143B0B44197807F170031C3B995407F5AA5303F10F031B78013307F5AA5202F10F02137007F5AA5303F10F031A7807F5AA5303F10B031B789A42F6
:40310000C4D307F5AA5303F107031A78AB491346DB009B1A1B010B44CC331B6818461AF0DBFC03464FF08F4118461AF0DDFD03461A4607F13003143B1A60002307F5AA5214
:4031400002F10F02137034E007F5AA5303F10D031B78322202FB03F31A1D07F5AA5303F10B031B781A4407F5AA5303F10B031B781A4407F5AA5303F10F031B78D31A5A1ED7
:4031800007F5AA5303F10F03197807F13003143B0B44197807F170031C3B995407F5AA5303F10F031B78013307F5AA5202F10F02137007F5AA5303F10F031A7807F5AA53A7
:4031C00003F10B031B789A42BED307F5AA5303F107031A7879491346DB009B1A1B010B44D0331B6818461AF077FC03464FF08F4118461AF079FD03461A4607F13003143B74
:403200001A60002307F5AA5202F10F02137035E007F5AA5303F10D031B78322202FB03F31A1D07F5AA5303F10B031B785B001A4407F5AA5303F10B031B781A4407F5AA5323
:4032400003F10F031B78D31A5A1E07F5AA5303F10F03197807F13003143B0B44197807F170031C3B995407F5AA5303F10F031B78013307F5AA5202F10F02137007F5AA5379
:4032800003F10F031A7807F5AA5303F10B031B789A42BDD301F08BBA07F5AA5303F107031A7846491346DB009B1A1B010B4403F20F131B78032B00F02B8107F5AA5303F179
:4032C00007031A783D491346DB009B1A1B010B44BC331B6818461AF0FFFB03464FF08F4118461AF001FD03461A4607F13003143B1A60002307F5AA5202F10F0213702EE079
:4033000007F5AA5303F10D031B78322202FB03F31A1D07F5AA5303F10B031B781A4407F5AA5303F10F031B78D31A5A1E07F5AA5303F10F03197807F13003143B0B441978B2
:4033400007F170031C3B995407F5AA5303F10F031B78013307F5AA5202F10F02137007F5AA5303F10F031A7807F5AA5303F10B031B789A42C4D307F5AA5303F107031A783E
:403380000E491346DB009B1A1B010B44C0331B6818461AF0A1FB03464FF08F4118461AF0A3FC03461A4607F13003143B1A60002307F5AA5202F10F02137036E0D096FF1FB0
:4033C00007F5AA5303F10D031B78322202FB03F31A1D07F5AA5303F10B031B781A4407F5AA5303F10B031B781A4407F5AA5303F10F031B78D31A5A1E07F5AA5303F10F03F1
:40340000197807F13003143B0B44197807F170031C3B995407F5AA5303F10F031B78013307F5AA5202F10F02137007F5AA5303F10F031A7807F5AA5303F10B031B789A42B2
:40344000BED307F5AA5303F107031A78C5491346DB009B1A1B010B44C4331B6818461AF03BFB03464FF08F4118461AF03DFC03461A4607F13003143B1A60002307F5AA5207
:4034800002F10F02137035E007F5AA5303F10D031B78322202FB03F31A1D07F5AA5303F10B031B785B001A4407F5AA5303F10B031B781A4407F5AA5303F10F031B78D31AB0
:4034C0005A1E07F5AA5303F10F03197807F13003143B0B44197807F170031C3B995407F5AA5303F10F031B78013307F5AA5202F10F02137007F5AA5303F10F031A7807F5E9
:40350000AA5303F10B031B789A42BDD301F04FB907F5AA5303F107031A7892491346DB009B1A1B010B44D4331B6818461AF0D4FA03464FF08F4118461AF0D6FB03461A46E2
:4035400007F13003143B1A60002307F5AA5202F10F0213702EE007F5AA5303F10D031B78322202FB03F31A1D07F5AA5303F10B031B781A4407F5AA5303F10F031B78D31A2E
:403580005A1E07F5AA5303F10F03197807F13003143B0B44197807F170031C3B995407F5AA5303F10F031B78013307F5AA5202F10F02137007F5AA5303F10F031A7807F528
:4035C000AA5303F10B031B789A42C4D307F5AA5303F107031A7863491346DB009B1A1B010B44D8331B6818461AF076FA03464FF08F4118461AF078FB03461A4607F13003D0
:40360000143B1A60002307F5AA5202F10F02137034E007F5AA5303F10D031B78322202FB03F31A1D07F5AA5303F10B031B781A4407F5AA5303F10B031B781A4407F5AA532C
:4036400003F10F031B78D31A5A1E07F5AA5303F10F03197807F13003143B0B44197807F170031C3B995407F5AA5303F10F031B78013307F5AA5202F10F02137007F5AA5375
:4036800003F10F031A7807F5AA5303F10B031B789A42BED307F5AA5303F107031A7831491346DB009B1A1B010B44DC331B6818461AF012FA03464FF08F4118461AF014FB4B
:4036C00003461A4607F13003143B1A60002307F5AA5202F10F02137035E007F5AA5303F10D031B78322202FB03F31A1D07F5AA5303F10B031B785B001A4407F5AA5303F134
:403700000B031B781A4407F5AA5303F10F031B78D31A5A1E07F5AA5303F10F03197807F13003143B0B44197807F170031C3B995407F5AA5303F10F031B78013307F5AA523C
:4037400002F10F02137007F5AA5303F10F031A7807F5AA5303F10B031B789A42BDD301F026B800BFD096FF1F07F5AA5303F107031A78CC491346DB009B1A1B010B4403F53B
:4037800088731B78184607F5AA5303F10F031A78C54903465B0003449B001344663351F8231007F5AA5303F107031A78BD481346DB009B1A1B01034403F588731B781C46CA
:4037C00007F5AA5303F10F031A78B74823465B0023441B010344134403F295131B7841FA03F31AB207F13003163B1A80002307F5AA5202F10E0213703BE007F5AA5303F168
:403800000D031B78322202FB03F31A1D07F5AA5303F10F031B7807F5AA5101F10B01097801FB03F31A4407F5AA5303F10B031B781A4407F5AA5303F10E031B78D31A5A1E2D
:4038400007F5AA5303F10E03197807F13003163B0B44197807F170031C3B995407F5AA5303F10E031B78013307F5AA5202F10E02137007F5AA5303F10E031A7807F5AA53E2
:4038800003F10B031B789A42B7D300F090BF07F5AA5303F107031A7883491346DB009B1A1B010B44E433196807F5AA5303F107031A787C481346DB009B1A1B01034403F5FC
:4038C00088731B781846784A03465B0003441B01134403F295131B7841FA03F207F130031C3B1A60002307F5AA5202F10E0213702EE007F5AA5303F10D031B78322202FBD0
:4039000003F31A1D07F5AA5303F10B031B781A4407F5AA5303F10E031B78D31A5A1E07F5AA5303F10E03197807F130031C3B0B44197807F170031C3B995407F5AA5303F1EB
:403940000E031B78013307F5AA5202F10E02137007F5AA5303F10E031A7807F5AA5303F10B031B789A42C4D307F5AA5303F107031A784D491346DB009B1A1B010B44E833D2
:40398000196807F5AA5303F107031A7845481346DB009B1A1B01034403F588731B781846414A03465B0003441B01134403F295131B7841FA03F207F130031C3B1A600023D8
:4039C00007F5AA5202F10E02137034E007F5AA5303F10D031B78322202FB03F31A1D07F5AA5303F10B031B781A4407F5AA5303F10B031B781A4407F5AA5303F10E031B78BE
:403A0000D31A5A1E07F5AA5303F10E03197807F130031C3B0B44197807F170031C3B995407F5AA5303F10E031B78013307F5AA5202F10E02137007F5AA5303F10E031A78AE
:403A400007F5AA5303F10B031B789A42BED300F0AEBE154BD3F8A01207F5AA5303F107031A7810481346DB009B1A1B01034403F588731B7818460C4A03465B0003441B01A4
:403A8000134403F295131B7841FA03F207F130031C3B1A60002307F5AA5202F10E02137033E000BF9C9BFF1FD096FF1F07F5AA5303F10D031B78322202FB03F31A1D07F5FD
:403AC000AA5303F10B031B781A4407F5AA5303F10E031B78D31A5A1E07F5AA5303F10E03197807F130031C3B0B44197807F170031C3B995407F5AA5303F10E031B7801337B
:403B000007F5AA5202F10E02137007F5AA5303F10E031A7807F5AA5303F10B031B789A42C4D300F044BE07F5AA5303F106031A78AB491346DB009B1A1B010B4403F20F139D
:403B40001B78032B00F0298107F5AA5303F106031A78A3491346DB009B1A1B010B44B0331B68184619F0B8FF03464FF08F4118461AF0BAF803461A4607F13003143B1A608F
:403B8000002307F5AA5202F10F0213702EE007F5AA5303F10D031B78322202FB03F31A1D07F5AA5303F10B031B781A4407F5AA5303F10F031B78D31A5A1E07F5AA5303F177
:403BC0000F03197807F13003143B0B44197807F170031C3B995407F5AA5303F10F031B78013307F5AA5202F10F02137007F5AA5303F10F031A7807F5AA5303F10B031B78B5
:403C00009A42C4D307F5AA5303F106031A7874491346DB009B1A1B010B44B4331B68184619F05AFF03464FF08F4118461AF05CF803461A4607F13003143B1A60002307F57E
:403C4000AA5202F10F02137034E007F5AA5303F10D031B78322202FB03F31A1D07F5AA5303F10B031B781A4407F5AA5303F10B031B781A4407F5AA5303F10F031B78D31A48
:403C80005A1E07F5AA5303F10F03197807F13003143B0B44197807F170031C3B995407F5AA5303F10F031B78013307F5AA5202F10F02137007F5AA5303F10F031A7807F521
:403CC000AA5303F10B031B789A42BED307F5AA5303F106031A7842491346DB009B1A1B010B44B8331B68184619F0F6FE03464FF08F41184619F0F8FF03461A4607F130030B
:403D0000143B1A60002307F5AA5202F10F02137035E007F5AA5303F10D031B78322202FB03F31A1D07F5AA5303F10B031B785B001A4407F5AA5303F10B031B781A4407F5C6
:403D4000AA5303F10F031B78D31A5A1E07F5AA5303F10F03197807F13003143B0B44197807F170031C3B995407F5AA5303F10F031B78013307F5AA5202F10F02137007F56E
:403D8000AA5303F10F031A7807F5AA5303F10B031B789A42BDD300F00ABD07F5AA5303F106031A780E491346DB009B1A1B010B44C8331B68184619F08FFE03464FF08F41C0
:403DC000184619F091FF03461A4607F13003143B1A60002307F5AA5202F10F02137030E0D096FF1F07F5AA5303F10D031B78322202FB03F31A1D07F5AA5303F10B031B785D
:403E00001A4407F5AA5303F10F031B78D31A5A1E07F5AA5303F10F03197807F13003143B0B44197807F170031C3B995407F5AA5303F10F031B78013307F5AA5202F10F02D2
:403E4000137007F5AA5303F10F031A7807F5AA5303F10B031B789A42C4D307F5AA5303F106031A78AB491346DB009B1A1B010B44CC331B68184619F02FFE03464FF08F41EF
:403E8000184619F031FF03461A4607F13003143B1A60002307F5AA5202F10F02137034E007F5AA5303F10D031B78322202FB03F31A1D07F5AA5303F10B031B781A4407F522
:403EC000AA5303F10B031B781A4407F5AA5303F10F031B78D31A5A1E07F5AA5303F10F03197807F13003143B0B44197807F170031C3B995407F5AA5303F10F031B7801337C
:403F000007F5AA5202F10F02137007F5AA5303F10F031A7807F5AA5303F10B031B789A42BED307F5AA5303F106031A7879491346DB009B1A1B010B44D0331B68184619F0EB
:403F4000CBFD03464FF08F41184619F0CDFE03461A4607F13003143B1A60002307F5AA5202F10F02137035E007F5AA5303F10D031B78322202FB03F31A1D07F5AA5303F1A0
:403F80000B031B785B001A4407F5AA5303F10B031B781A4407F5AA5303F10F031B78D31A5A1E07F5AA5303F10F03197807F13003143B0B44197807F170031C3B995407F52F
:403FC000AA5303F10F031B78013307F5AA5202F10F02137007F5AA5303F10F031A7807F5AA5303F10B031B789A42BDD3DFE307F5AA5303F106031A7846491346DB009B1A2B
:404000001B010B4403F20F131B78032B00F02B8107F5AA5303F106031A783E491346DB009B1A1B010B44BC331B68184619F054FD03464FF08F41184619F056FE03461A4658
:4040400007F13003143B1A60002307F5AA5202F10F0213702EE007F5AA5303F10D031B78322202FB03F31A1D07F5AA5303F10B031B781A4407F5AA5303F10F031B78D31A23
:404080005A1E07F5AA5303F10F03197807F13003143B0B44197807F170031C3B995407F5AA5303F10F031B78013307F5AA5202F10F02137007F5AA5303F10F031A7807F51D
:4040C000AA5303F10B031B789A42C4D307F5AA5303F106031A780F491346DB009B1A1B010B44C0331B68184619F0F6FC03464FF08F41184619F0F8FD03461A4607F1300330
:40410000143B1A60002307F5AA5202F10F02137037E000BFD096FF1F07F5AA5303F10D031B78322202FB03F31A1D07F5AA5303F10B031B781A4407F5AA5303F10B031B7832
:404140001A4407F5AA5303F10F031B78D31A5A1E07F5AA5303F10F03197807F13003143B0B44197807F170031C3B995407F5AA5303F10F031B78013307F5AA5202F10F028F
:40418000137007F5AA5303F10F031A7807F5AA5303F10B031B789A42BED307F5AA5303F106031A78C4491346DB009B1A1B010B44C4331B68184619F08FFC03464FF08F4143
:4041C000184619F091FD03461A4607F13003143B1A60002307F5AA5202F10F02137035E007F5AA5303F10D031B78322202FB03F31A1D07F5AA5303F10B031B785B001A4421
:4042000007F5AA5303F10B031B781A4407F5AA5303F10F031B78D31A5A1E07F5AA5303F10F03197807F13003143B0B44197807F170031C3B995407F5AA5303F10F031B7870
:40424000013307F5AA5202F10F02137007F5AA5303F10F031A7807F5AA5303F10B031B789A42BDD3A3E207F5AA5303F106031A7891491346DB009B1A1B010B44D4331B683B
:40428000184619F029FC03464FF08F41184619F02BFD03461A4607F13003143B1A60002307F5AA5202F10F0213702EE007F5AA5303F10D031B78322202FB03F31A1D07F534
:4042C000AA5303F10B031B781A4407F5AA5303F10F031B78D31A5A1E07F5AA5303F10F03197807F13003143B0B44197807F170031C3B995407F5AA5303F10F031B78013378
:4043000007F5AA5202F10F02137007F5AA5303F10F031A7807F5AA5303F10B031B789A42C4D307F5AA5303F106031A7862491346DB009B1A1B010B44D8331B68184619F0F0
:40434000CBFB03464FF08F41184619F0CDFC03461A4607F13003143B1A60002307F5AA5202F10F02137034E007F5AA5303F10D031B78322202FB03F31A1D07F5AA5303F1A1
:404380000B031B781A4407F5AA5303F10B031B781A4407F5AA5303F10F031B78D31A5A1E07F5AA5303F10F03197807F13003143B0B44197807F170031C3B995407F5AA5389
:4043C00003F10F031B78013307F5AA5202F10F02137007F5AA5303F10F031A7807F5AA5303F10B031B789A42BED307F5AA5303F106031A7830491346DB009B1A1B010B4490
:40440000DC331B68184619F067FB03464FF08F41184619F069FC03461A4607F13003143B1A60002307F5AA5202F10F02137035E007F5AA5303F10D031B78322202FB03F3D2
:404440001A1D07F5AA5303F10B031B785B001A4407F5AA5303F10B031B781A4407F5AA5303F10F031B78D31A5A1E07F5AA5303F10F03197807F13003143B0B44197807F1F9
:4044800070031C3B995407F5AA5303F10F031B78013307F5AA5202F10F02137007F5AA5303F10F031A7807F5AA5303F10B031B789A42BDD37BE100BFD096FF1F07F5AA53DD
:4044C00003F106031A78B7491346DB009B1A1B010B4403F588731B78184607F5AA5303F10F031A78B04903465B0003449B001344663351F8231007F5AA5303F106031A78F1
:40450000A8481346DB009B1A1B01034403F588731B781C4607F5AA5303F10F031A78A24823465B0023441B010344134403F295131B7841FA03F31AB207F13003163B1A80B4
:40454000002307F5AA5202F10E0213703BE007F5AA5303F10D031B78322202FB03F31A1D07F5AA5303F10F031B7807F5AA5101F10B01097801FB03F31A4407F5AA5303F12C
:404580000B031B781A4407F5AA5303F10E031B78D31A5A1E07F5AA5303F10E03197807F13003163B0B44197807F170031C3B995407F5AA5303F10E031B78013307F5AA52AF
:4045C00002F10E02137007F5AA5303F10E031A7807F5AA5303F10B031B789A42B7D3E6E007F5AA5303F106031A786F491346DB009B1A1B010B44E433196807F5AA5303F1D2
:4046000006031A7867481346DB009B1A1B01034403F588731B781846634A03465B0003441B01134403F295131B7841FA03F207F130031C3B1A60002307F5AA5202F10E027B
:4046400013702EE007F5AA5303F10D031B78322202FB03F31A1D07F5AA5303F10B031B781A4407F5AA5303F10E031B78D31A5A1E07F5AA5303F10E03197807F130031C3BA8
:404680000B44197807F170031C3B995407F5AA5303F10E031B78013307F5AA5202F10E02137007F5AA5303F10E031A7807F5AA5303F10B031B789A42C4D307F5AA5303F1AA
:4046C00006031A7838491346DB009B1A1B010B44E833196807F5AA5303F106031A7831481346DB009B1A1B01034403F588731B7818462D4A03465B0003441B01134403F2B3
:4047000095131B7841FA03F207F130031C3B1A60002307F5AA5202F10E02137034E007F5AA5303F10D031B78322202FB03F31A1D07F5AA5303F10B031B781A4407F5AA536A
:4047400003F10B031B781A4407F5AA5303F10E031B78D31A5A1E07F5AA5303F10E03197807F130031C3B0B44197807F170031C3B995407F5AA5303F10E031B78013307F5EF
:40478000AA5202F10E02137007F5AA5303F10E031A7807F5AA5303F10B031B789A42BED305E000BF9C9BFF1FD096FF1F00BF07F5AA5303F10D031B789B0007F5AB5202F199
:4047C0000C02126813441A6807F13003103B114618461AF0C1F907F13003103B18461AF0F8F9034607F5AA5202F10A02137007F5AA5303F10D031A7807F11003083B1B6877
:4048000013441B78002B40F0838307F5AA5303F10C031B7807F5AB5202F10802126813441B78013B092B00F2658301A252F823F059480000D1490000A14A0000F14A000019
:40484000514B0000A94B0000C14C0000454D0000D54D0000494E000007F5AA531B681B78062B00F2428301A252F823F089480000AD480000D3480000014900002D490000B8
:40488000574900008B49000007F13003103B18461AF09FF903461A4607F13003103B1344D34A1068186012791A7190E007F13003103B18461AF08DF903461A4607F13003CD
:4048C000103B1344CB491A460B4603CB106051607DE007F13003103B18461AF07AF903461A4607F13003103B1344C34A1D4614460FCC28606960AA60EB6023882B8266E055
:4049000007F13003103B18461AF063F903461A4607F13003103B1344B84A1C46134607CB20606160A2601B88A38150E007F13003103B18461AF04DF903461A4607F1300306
:40494000103B1344AE491A460B4603CB106051601B8813813BE007F13003103B18461AF038F903461A4607F13003103B1344A54A1D4614460FCC28606960AA60EB6023884F
:40498000A2782B821346AB7421E007F13003103B18461AF01EF903461A4607F13003103B1344994A14469E4604F1200C754626460FCE28606960AA60EB6010340EF1100EFF
:4049C0006445F3D1724623461B88138000BF8CE207F5AA531B681B78032B00F2888201A252F823F0F54900001F4A0000434A00006D4A000007F13003103B18461AF0E9F8E3
:404A000003461A4607F13003103B13447F491A460B4603CB106051601B8813813FE007F13003103B18461AF0D4F803461A4607F13003103B1344764A1068186012791A715C
:404A40002DE007F13003103B18461AF0C2F803461A4607F13003103B13446E491A460B4603CB106051601B78137218E007F13003103B18461AF0ADF803461A4607F130035D
:404A8000103B1344644A1D4614460FCC28606960AA60EB6020682861A388AB8200BF26E207F5AA531B681B78002B11D007F13003103B18461AF08DF803461A4607F13003E6
:404AC000103B1344554A1068186012791A7111E207F13003103B18461AF07BF803461A4607F13003103B13444D4A1068186001E207F5AA531B681B78002B02D0012B14D02F
:404B0000F8E107F13003103B18461AF062F803461A4607F13003103B1344424A106818609188927999809A7111E007F13003103B18461AF04EF803461A4607F13003103BF6
:404B40001344394A1068186092889A8000BFD1E107F5AA531B681B78002B02D0012B12D0C8E107F13003103B18461AF032F803461A4607F13003103B13442C4A106818601F
:404B800012791A710FE007F13003103B18461AF020F803461A4607F13003103B1344244A1068186000BFA5E107F5AA531B681B78032B00F29E8101A252F823F0CD4B00007B
:404BC000394C0000654C0000934C000007F13003103B184619F0FDFF03461A4607F13003103B1344134A1068186092889A8066E0C8090200D0090200D8090200EC09020002
:404C0000FC090200080A02001C0A0200400A02004C0A0200540A0200600A0200780A0200800A0200880A0200900A0200980A0200A00A0200A80A020007F13003103B1846A9
:404C400019F0C7FF03461A4607F13003103B1344B54A1C46134607CB20606160A2601B88A3812CE007F13003103B184619F0B1FF03461A4607F13003103B1344AB4A1D46F2
:404C800014460FCC28606960AA60EB6023882B8215E007F13003103B184619F09AFF03461A4607F13003103B1344A14A1C46134607CB20606160A2601B78237300BF18E144
:404CC00007F5AA531B681B78012B16D0022B26D0002B00D035E007F13003103B184619F078FF03461A4607F13003103B1344914A1068186092889A8023E007F13003103B1E
:404D0000184619F066FF03461A4607F13003103B1344894A1068186012791A7111E007F13003103B184619F054FF03461A4607F13003103B1344814A1068186092889A80D2
:404D400000BFD7E007F5AA531B681B78012B1AD0022B2CD0002B00D0CCE007F13003103B184619F036FF03461A4607F13003103B1344734A1C46134607CB20606160A260B3
:404D80001B88A38125E007F13003103B184619F020FF03461A4607F13003103B1344694A106818609188927999809A7111E007F13003103B184619F00CFF03461A4607F150
:404DC0003003103B1344604A1068186092889A8000BF8FE007F5AA531B681B78002B02D0012B17D086E007F13003103B184619F0F0FE03461A4607F13003103B1344534A7F
:404E00001D4614460FCC28606960AA60EB602068286118E007F13003103B184619F0D9FE03461A4607F13003103B1344484A1D4614460FCC28606960AA60EB602068286120
:404E4000A388AB8200BF55E007F5AA531B681B78012B1AD0022B2FD0002B00D04AE007F13003103B184619F0B4FE03461A4607F13003103B1344374A1C46134607CB2060DD
:404E80006160A2601B88A3812EE007F13003103B184619F09EFE03461A4607F13003103B13442D4A1D4614460FCC28606960AA60EB6023882B8217E007F13003103B184693
:404EC00019F087FE03461A4607F13003103B1344224A1C46134607CB20606160A2601A889B78A281A37305E004E000BF02E000BF00E000BF07F13003103B184619F069FE78
:404F00000346DBB2013307F5AA5202F10A02137007F5AA5303F10A031B7807F5AA5202F10F02137062E000BFB00A0200C00A0200D40A0200A80A0200E40A0200EC0A0200DC
:404F4000F40A0200040B02000C0B0200140B02002C0B0200440B0200540B0200680B020007F5AA5303F10D031B78322202FB03F31A1D07F5AA5303F10B03197807F5AA53F3
:404F800003F10D03187807F110030C3B1B6803441B7803FB01F31A4407F5AA5303F10A031B781A4407F5AA5303F10F031B78D21A07F5AA5303F10A03197807F5AA5303F17D
:404FC0000F031B78C91A07F13003103B595C07F170031C3B995407F5AA5303F10F031B78013B07F5AA5202F10F02137007F5AA5303F10F031B78002BB2D107F5AA5303F1D5
:405000000D031A7807F11003083B1B6813441B78002B3CD107F5AA5303F10D031B78322202FB03F31A1D07F5AA5303F10B03197807F5AA5303F10D03187807F110030C3B62
:405040001B6803441B7803FB01F31A4407F5AA5303F10A031B781A4407F5AA5303F10C031B7807F5AB5101F1080109680B44197807F170031C3B995407F5AA5303F10C031A
:405080001B78013307F5AA5202F10C02137007F5AA5303F10D031A7807F11003083B1B6813441B78002B32D107F5AA5303F10D031B78322202FB03F31A1D07F5AA5303F13A
:4050C0000B03197807F5AA5303F10D03187807F110030C3B1B6803441B7803FB01F31A4407F5AA5303F10A031B7813449A1C07F5AA5303F10D03197807F11003103B1B6884
:405100000B44197807F170031C3B995431E007F5AA5303F10D031B78322202FB03F31A1D07F5AA5303F10B03197807F5AA5303F10D03187807F110030C3B1B6803441B78F9
:4051400003FB01F31A4407F5AA5303F10A031B7813445A1C07F5AA5303F10D03197807F11003103B1B680B44197807F170031C3B995407F5AA5303F10D031B78013307F5CF
:40518000AA5202F10D02137007F5AA5303F10D031B784B2B7DF651A9002307F5AA5202F10E02137071E007F5AA5303F10E031B789B0007F5AB5202F11402126813441B6887
:4051C000184619F006FD034607F5AA5202F10A02137007F5AA5303F10A031B7807F5AA5202F10F0213703EE007F5AA5303F10E031B78962202FB03F303F6DA6207F5AA53EE
:4052000003F10A031B781A4407F5AA5303F10F031B78D21A07F5AA5303F10E031B789B0007F5AB5101F1140109680B441B6807F5AA5101F10A01087807F5AA5101F10F0123
:405240000978411A0B44197807F170031C3B995407F5AA5303F10F031B78013B07F5AA5202F10F02137007F5AA5303F10F031B78002BB9D107F5AA5303F10E031B7801336A
:4052800007F5AA5202F10E02137007F5AA5303F10E031B78092B86D907F5AA5303F108031B885C1E07F5AA5303F108031B88DBB2013BDAB207F170031C3B1146184607F0D9
:4052C00077F903461A4607F170031C3B1A5507F5AA5303F108031A8807F170031C3B1146184607F0D1F800BF07F5AA571437BD46F0BD00BFB0B5ADF59F6D04AF0246BB1D37
:405300001A80002387F8DD34012387F8DC34054BC7F8E034BB1D1B88002B07D0024BC7F8E03403E0D096FF1F9C9BFF1FD7F8E03403F1A00207F566731A6097F8DD24134640
:40534000DB009B1A1B01B033D7F8E0241A4407F566735A6097F8DD241346DB009B1A1B01B833D7F8E02413441A1D07F566739A6097F8DD241346DB009B1A1B01E033D7F8B7
:40538000E0241A4407F56673DA6097F8DD241346DB009B1A1B0103F58473D7F8E02413449A1D07F566731A6197F8DD241346DB009B1A1B0103F58473D7F8E0241344DA1D22
:4053C00007F566735A6197F8DD24D7F8E0141346DB009B1A1B010B4403F588731B781A4613465B0013441B0103F5C873D7F8E02413445A1D07F566739A6197F8DD24D7F866
:40540000E0141346DB009B1A1B010B4403F588731B781A4613465B0013441B0103F5CC73D7F8E0241A4407F56673DA6197F8DD24D7F8E0141346DB009B1A1B010B4403F500
:4054400088731B781A4613465B0013441B0103F5D073D7F8E02413441A1D07F566731A6297F8DD241346DB009B1A1B01E033D7F8E0241344DA1C07F566735A6297F8DD2441
:405480001346DB009B1A1B01E033D7F8E02413441A1D07F566739A6297F8DD241346DB009B1A1B01E833D7F8E02413441A1D07F56673DA6297F8DD241346DB009B1A1B01EB
:4054C00003F58473D7F8E02413441A1D07F566731A63D7F8E03403F5F87207F566735A63D7F8E03403F2FD1207F566739A63D7F8E03403F5FA7207F56673DA63D7F8E0343E
:4055000003F5FE7207F566731A6497F8DD24D7F8E0141346DB009B1A1B010B4403F588731B781A4613465B0013441B0103F5D873D7F8E0241A4407F566735A6497F8DD2465
:40554000D7F8E0141346DB009B1A1B010B4403F588731B781A4613465B0013441B0103F5D873D7F8E02413441A1D07F566739A6497F8DD241346DB009B1A1B01E033D7F819
:40558000E02413445A1C07F56673DA6497F8DD241346DB009B1A1B01F033D7F8E02413441A1D07F566731A65D7F8E03403F1A10207F566735A65D7F8E03403F5287207F51B
:4055C00066739A65D7F8E03403F5297207F56673DA65D7F8E03403F52A7207F566731A66D7F8E03403F52B7207F566735A66D7F8E03403F5FF7207F566739A66D7F8E0346C
:4056000003F1A70207F56673DA66D7F8E03403F5007207F566731A67D7F8E03403F2262207F566735A67D7F8E03403F1A80207F566739A67D7F8E03403F5087207F56673DE
:40564000DA67D7F8E03403F2012207F56673C3F88020D7F8E03403F2022207F56673C3F88420D7F8E03403F1AB0207F56673C3F88820D7F8E03493F8AB3012335B01D7F819
:40568000E0241A4407F56673C3F88C2097F8DD241346DB009B1A1B0103F58873D7F8E0241A4407F56673C3F8902097F8DD241346DB009B1A1B01E033D7F8E02413449A1CCB
:4056C00007F56673C3F8942097F8DD241346DB009B1A1B0103F58873D7F8E02413445A1C07F56673C3F8982097F8DD241346DB009B1A1B0103F58873D7F8E02413449A1C8E
:4057000007F56673C3F89C2097F8DD24D7F8E0141346DB009B1A1B010B4403F588731B781A4613465B0013441B0103F5D873D7F8E02413445A1C07F56673C3F8A02097F8A7
:40574000DD24D7F8E0141346DB009B1A1B010B4403F588731B781A4613465B0013441B0103F5D873D7F8E02413445A1D07F56673C3F8A420D7F8E03403F1A90207F5667375
:40578000C3F8A82097F8DC241346DB009B1A1B01B033D7F8E0241A4407F56673C3F8AC2097F8DC241346DB009B1A1B01B833D7F8E02413441A1D07F56673C3F8B02097F893
:4057C000DC241346DB009B1A1B01E033D7F8E0241A4407F56673C3F8B42097F8DC241346DB009B1A1B0103F58473D7F8E02413449A1D07F56673C3F8B82097F8DC24134648
:40580000DB009B1A1B0103F58473D7F8E0241344DA1D07F56673C3F8BC2097F8DC24D7F8E0141346DB009B1A1B010B4403F588731B781A4613465B0013441B0103F5C8735A
:40584000D7F8E02413445A1D07F56673C3F8C02097F8DC24D7F8E0141346DB009B1A1B010B4403F588731B781A4613465B0013441B0103F5CC73D7F8E0241A4407F5667327
:40588000C3F8C42097F8DC24D7F8E0141346DB009B1A1B010B4403F588731B781A4613465B0013441B0103F5D073D7F8E02413441A1D07F56673C3F8C82097F8DC2413469A
:4058C000DB009B1A1B01E033D7F8E0241344DA1C07F56673C3F8CC2097F8DC241346DB009B1A1B01E033D7F8E02413441A1D07F56673C3F8D02097F8DC241346DB009B1A4D
:405900001B01E833D7F8E02413441A1D07F56673C3F8D42097F8DC241346DB009B1A1B0103F58473D7F8E02413441A1D07F56673C3F8D82097F8DC24D7F8E0141346DB0059
:405940009B1A1B010B4403F588731B781A4613465B0013441B0103F5D873D7F8E0241A4407F56673C3F8DC2097F8DC24D7F8E0141346DB009B1A1B010B4403F588731B78CE
:405980001A4613465B0013441B0103F5D873D7F8E02413441A1D07F56673C3F8E02097F8DC241346DB009B1A1B01E033D7F8E02413445A1C07F56673C3F8E42097F8DC24C2
:4059C0001346DB009B1A1B01F033D7F8E02413441A1D07F56673C3F8E82097F8DC241346DB009B1A1B0103F58873D7F8E0241A4407F56673C3F8EC2097F8DC241346DB006F
:405A00009B1A1B01E033D7F8E02413449A1C07F56673C3F8F02097F8DC241346DB009B1A1B0103F58873D7F8E02413445A1C07F56673C3F8F42097F8DC241346DB009B1ABF
:405A40001B0103F58873D7F8E02413449A1C07F56673C3F8F82097F8DC24D7F8E0141346DB009B1A1B010B4403F588731B781A4613465B0013441B0103F5D873D7F8E024C6
:405A800013445A1C07F56673C3F8FC2097F8DC24D7F8E0141346DB009B1A1B010B4403F588731B781A4613465B0013441B0103F5D873D7F8E02413445A1D07F56673C3F846
:405AC0000021D7F8E03403F5C87207F56673C3F80421D7F8E03403F5E07207F56673C3F80821D7F8E03403F2272207F56673C3F80C21D7F8E03403F50A7207F56673C3F810
:405B00001021D7F8E03403F22E2207F56673C3F81421D7F8E03403F1AC0207F56673C3F81821D7F8E03403F52C7207F56673C3F81C21D7F8E03403F2B12207F56673C3F878
:405B40002021D7F8E03403F5307207F56673C3F82421D7F8E03403F5317207F56673C3F82821D7F8E03403F5327207F56673C3F82C2107F55373F44A184611464C231A465B
:405B800018F016FA07F5407301221A7007F5407303225A7007F5407303229A7007F540730122DA7007F5407301221A7107F5407301225A7107F5407303229A7107F5407351
:405BC0000322DA7107F5407303221A7207F5407301225A7207F5407302229A7207F540730222DA7207F5407301221A7307F5407302225A7307F5407301229A7307F54073AC
:405C00000222DA7307F5407301221A7407F5407301225A7407F5407301229A7407F540730122DA7407F5407306221A7507F5407303225A7507F5407301229A7507F540735A
:405C40000122DA7507F5407301221A7607F5407301225A7607F5407301229A7607F540730122DA7607F5407301221A7707F5407301225A7707F5407301229A7707F5407312
:405C80000622DA7707F54073012283F8202007F54073052283F8212007F54073012283F8222007F54073062283F8232007F54073012283F8242007F54073012283F8252005
:405CC00007F54073012283F8262007F54073012283F8272007F54073032283F8282007F54073032283F8292007F54073012283F82A2007F54073032283F82B2007F540736E
:405D0000032283F82C2007F54073012283F82D2007F54073012283F82E2007F54073012283F82F2007F54073032283F8302007F54073032283F8312007F54073032283F818
:405D4000322007F54073012283F8332007F54073022283F8342007F54073022283F8352007F54073012283F8362007F54073012283F8372007F54073012283F8382007F504
:405D80004073012283F8392007F54073062283F83A2007F54073012283F83B2007F54073012283F83C2007F54073012283F83D2007F54073012283F83E2007F54073032213
:405DC00083F83F2007F54073032283F840205F4B1A7807F5407383F841205C4B5A7807F5407383F8422007F54073012283F8432007F54073062283F8442007F54073062211
:405E000083F8452007F54073012283F8462007F54073012283F8472007F54073012283F8482007F54073012283F8492007F54073012283F84A2007F54073012283F84B2041
:405E400007F52D7300221A7097F8DD340A33DAB207F52D735A7097F8DD340A33DAB207F52D739A7097F8DD340A33DAB207F52D73DA7097F8DD340A33DAB207F52D731A711D
:405E800097F8DD340A33DAB207F52D735A7197F8DD24D7F8E0141346DB009B1A1B010B4403F588731B781433DAB207F52D739A7197F8DD24D7F8E0141346DB009B1A1B0113
:405EC0000B4403F588731B781433DAB207F52D73DA7197F8DD24D7F8E0141346DB009B1A1B010B4403F588731B781433DAB207F52D731A7297F8DD340A33DAB207F52D73E6
:405F00005A7297F8DD340A33DAB207F52D739A7297F8DD340A33DAB207F52D73DA7297F8DD340A33DAB207F52D731A7307F52D731E225A7307F52D731E229A7307F52D7373
:405F40001E22DA7304E000BF480E0200E495FF1F07F52D731E221A7497F8DD24D7F8E0141346DB009B1A1B010B4403F588731B781433DAB207F52D735A7497F8DD24D7F8CF
:405F8000E0141346DB009B1A1B010B4403F588731B781433DAB207F52D739A7497F8DD340A33DAB207F52D73DA7497F8DD340A33DAB207F52D731A7507F52D7300225A7522
:405FC00007F52D7346229A7507F52D734622DA7507F52D7346221A7607F52D7346225A7607F52D731E229A7607F52D730022DA7607F52D7328221A7707F52D7332225A77A1
:4060000007F52D7300229A7707F52D733222DA7707F52D73282283F8202007F52D73282283F8212007F52D73002283F82220D7F8E03493F8AB303C33DAB207F52D7383F837
:40604000232097F8DD340A33DAB207F52D7383F8242097F8DD340A33DAB207F52D7383F8252097F8DD340A33DAB207F52D7383F8262097F8DD340A33DAB207F52D7383F80E
:40608000272097F8DD24D7F8E0141346DB009B1A1B010B4403F588731B781433DAB207F52D7383F8282097F8DD24D7F8E0141346DB009B1A1B010B4403F588731B781433C6
:4060C000DAB207F52D7383F8292007F52D73002283F82A2097F8DC340A33DAB207F52D7383F82B2097F8DC340A33DAB207F52D7383F82C2097F8DC340A33DAB207F52D7398
:4061000083F82D2097F8DC340A33DAB207F52D7383F82E2097F8DC340A33DAB207F52D7383F82F2097F8DC24D7F8E0141346DB009B1A1B010B4403F588731B781433DAB2FD
:4061400007F52D7383F8302097F8DC24D7F8E0141346DB009B1A1B010B4403F588731B781433DAB207F52D7383F8312097F8DC24D7F8E0141346DB009B1A1B010B4403F5B3
:4061800088731B781433DAB207F52D7383F8322097F8DC340A33DAB207F52D7383F8332097F8DC340A33DAB207F52D7383F8342097F8DC340A33DAB207F52D7383F835209C
:4061C00097F8DC340A33DAB207F52D7383F8362097F8DC24D7F8E0141346DB009B1A1B010B4403F588731B781433DAB207F52D7383F8372097F8DC24D7F8E0141346DB00D7
:406200009B1A1B010B4403F588731B781433DAB207F52D7383F8382097F8DC340A33DAB207F52D7383F8392097F8DC340A33DAB207F52D7383F83A2097F8DC340A33DAB25D
:4062400007F52D7383F83B2097F8DC340A33DAB207F52D7383F83C2097F8DC340A33DAB207F52D7383F83D2097F8DC340A33DAB207F52D7383F83E2097F8DC24D7F8E014C6
:406280001346DB009B1A1B010B4403F588731B781433DAB207F52D7383F83F2097F8DC24D7F8E0141346DB009B1A1B010B4403F588731B781433DAB207F52D7383F8402045
:4062C00007F52D73142283F8412007F52D73152283F8422007F52D73322283F8432007F52D73322283F8442007F52D73322283F8452007F52D73002283F8462007F52D7398
:40630000502283F8472007F52D73502283F8482007F52D735A2283F8492007F52D735A2283F84A2007F52D735A2283F84B2007F5C273CB4A184611464FF498731A4617F071
:4063400037FE07F5867300221A60043372220021184617F038FE07F5867064230A22C14918F0FAFB07F1E403BF4A1A6007F1E403BE4A5A6007F1E403BD4A9A6007F1E40362
:40638000BC4ADA6007F1E403BB4A1A6107F1E403BA4A5A6107F1E40307F586729A6107F1E403B74ADA6107F1E403B64A1A6207F1E403B54A5A6207F1C403B44A1C46154648
:4063C00028686968AA68EB680FC428696969AA6907C42B7F237007F1B803AD4A1068516803C3127A1A7007F1A403AA4A1C46154628686968AA68EB680FC42B8A2380232348
:4064000087F8DB34002387F8E634002387F8E73421E097F8E63407F1B802D35C1A4697F8E73401339A420BD197F8E73407F158020121D15497F8E634013387F8E63405E036
:4064400097F8E73407F158020021D15497F8E734013387F8E73497F8E7344B2BD9D9002387F8E634002387F8E73421E097F8E63407F1A402D35C1A4697F8E73401339A4286
:406480000BD197F8E73407F10C020121D15497F8E634013387F8E63405E097F8E73407F10C020021D15497F8E734013387F8E73497F8E7344B2BD9D9BB1D1B88002B17D1E0
:4064C00007F52D7407F5407207F5537107F5667007F1E403039307F15803029307F5C273019307F1C40300932346FBF733FFD9E2BB1D1B88DBB2013B87F8DA3497F8DA3495
:4065000007F55372D35C092B22D801A252F823F039650000396500003965000041650000416500004965000049650000496500005165000039650000012387F8E53407E016
:40654000022387F8E53403E0042387F8E53400BF97F8DA3407F10C02D35C002B40F0368297F8DA3407F55372D35C092B00F2368201A252F823F000BFA1650000576600002B
:40658000A1650000E76600007D67000011680000A568000039690000DD690000ED650000002387F8E73417E097F8DA2407F5667353F8223097F8E72497F8E51401FB02F21F
:4065C000134497F8E724033233498A5C1A7097F8E734013387F8E73497F8DA3407F54072D35C97F8E7249A42DED3F8E1002387F8E73417E097F8DA2407F5667353F82230E4
:4066000097F8E72497F8E51401FB02F2134497F8E724033220498A5C1A7097F8E734013387F8E73497F8DA3407F54072D35C97F8E7249A42DED397F8DA2407F5667353F883
:40664000223097F8E72497F8E51401FB02F2134400221A70C3E1002387F8E73439E000BF68160200780B0200EC0B0200680C0200A80C0200D40C0200EC0C0200140D020051
:40668000700D0200B00D0200F80D020098170200B8170200C4170200CC94FF1F97F8DA2407F5667353F8223097F8E72497F8E51401FB02F2134497F8E7240332C6490A4424
:4066C00092F90020D2B21A7097F8E734013387F8E73497F8DA3407F54072D35C97F8E7249A42DBD37BE1002387F8E7343CE097F8E73497F8E52402FB03F30333B64A1344D4
:40670000B3F90030A7F8D834002387F8E63420E097F8DA2407F5667353F8222097F8E73497F8E51401FB03F3184697F8E51497F8E634CB1A0344013B134497F8E62407F520
:406740009B610A4412781A7097F8E634013387F8E63497F8E62497F8E5349A42D8D397F8E734013387F8E73497F8DA3407F54072D35C97F8E7249A42B9D330E1002387F8D6
:40678000E7343BE097F8E73497F8E52402FB03F30333914A13441B88A7F8D634002387F8E63420E097F8DA2407F5667353F8222097F8E73497F8E51401FB03F3184697F8FE
:4067C000E51497F8E634CB1A0344013B134497F8E62407F2D6410A4412781A7097F8E634013387F8E63497F8E62497F8E5349A42D8D397F8E734013387F8E73497F8DA34DA
:4068000007F54072D35C97F8E7249A42BAD3E6E0002387F8E7343BE097F8E73497F8E52402FB03F303336C4A13441B68C7F8D034002387F8E63420E097F8DA2407F56673FE
:4068400053F8222097F8E73497F8E51401FB03F3184697F8E51497F8E634CB1A0344013B134497F8E62407F59A610A4412781A7097F8E634013387F8E63497F8E62497F889
:40688000E5349A42D8D397F8E734013387F8E73497F8DA3407F54072D35C97F8E7249A42BAD39CE0002387F8E7343BE097F8E73497F8E52402FB03F30333474A13441B6819
:4068C000C7F8CC34002387F8E63420E097F8DA2407F5667353F8222097F8E73497F8E51401FB03F3184697F8E51497F8E634CB1A0344013B134497F8E62407F2CC410A44CF
:4069000012781A7097F8E634013387F8E63497F8E62497F8E5349A42D8D397F8E734013387F8E73497F8DA3407F54072D35C97F8E7249A42BAD352E0002387F8E7343BE006
:4069400097F8E73497F8E52402FB03F30333224A13441B68C7F8C834002387F8E63420E097F8DA2407F5667353F8222097F8E73497F8E51401FB03F3184697F8E51497F867
:40698000E634CB1A0344013B134497F8E62407F599610A4412781A7097F8E634013387F8E63497F8E62497F8E5349A42D8D397F8E734013387F8E73497F8DA3407F540720C
:4069C000D35C97F8E7249A42BAD308E0BB1D1B88184600F06FF802E0CC94FF1F00BF97F8DB349BB2BA1D12889A4211D0D7F8E03493F8AB305B0103F51273D7F8E024D01838
:406A0000D7F8E03403F5F8731022194617F0D0FA97F8DA3407F55372D35C002B42D1002387F8DF34FF2387F8DE3497F8DF3407F55372D35C002B04D197F8DE34013387F895
:406A4000DE3497F8DF34013387F8DF3497F8DF2497F8DA349A42E8D997F8DE3407F1C402D35C052B1BD097F8DE3407F1C402D35C062B14D097F8DE3407F1C402D35C082BC3
:406A80000DD097F8DE3407F1C402D35C092B06D097F8DE3407F1C402D35C0A2B02D1044B01221A7000BF07F59D67BD46B0BD00BFD981FF1FF0B587B000AF0346FB800023F7
:406AC0003B750123FB74FB88023B452B01F2EB8101A252F823F000BFF16B0000236E0000A77E000069700000A77E0000A77E0000B3700000A77E0000A77E0000E971000009
:406B0000A77E0000A77E0000A77E0000A77E0000A77E0000A77E0000A77E0000A77E0000A77E0000A77E0000A77E0000E972000047730000A77E0000A77E0000A77E00003A
:406B400081730000A77E0000A77E0000FD740000A9750000A77E0000A77E0000A77E0000A77E0000A77E0000E3750000A77E0000A77E0000A77E0000A77E0000A77E00007E
:406B80001D76000063780000A77E0000917A0000A77E0000A77E0000F97A0000A77E0000A77E00000D7C0000A77E0000A77E0000A77E0000A77E0000A77E0000A77E0000C9
:406BC000A77E00000B7D0000A77E0000A77E0000A77E0000A77E0000A77E0000A77E0000A77E0000A77E0000A77E0000557D00003A7DAB491346DB009B1A1B010B4403F2D5
:406C00000F131B78032B00F08680A64B1B68FB600023BB750EE0BB7DC3F1030307F108021344BA7D07F10C010A4412781A70BB7D0133BB75BB7D032BEDD93C7DBB684FF09F
:406C40008F41184616F09CFF0346184617F05EF90146954A2346DB001B1B1B011344B0331960924B1B68FB600023BB750EE0BB7DC3F1030307F108021344BA7D07F10C014E
:406C80000A4412781A70BB7D0133BB75BB7D032BEDD93C7DBB684FF08F41184616F070FF0346184617F032F901467F4A2346DB001B1B1B011344B43319607D4B1B68FB6010
:406CC0000023BB750EE0BB7DC3F1030307F108021344BA7D07F10C010A4412781A70BB7D0133BB75BB7D032BEDD93C7DBB684FF08F41184616F044FF0346184617F006F963
:406D00000146694A2346DB001B1B1B011344B833196001F0D3B8634B1B68FB600023BB750EE0BB7DC3F1030307F108021344BA7D07F10C010A4412781A70BB7D0133BB753A
:406D4000BB7D032BEDD93C7DBB684FF08F41184616F016FF0346184617F0D8F80146524A2346DB001B1B1B011344C83319604F4B1B68FB600023BB750EE0BB7DC3F1030316
:406D800007F108021344BA7D07F10C010A4412781A70BB7D0133BB75BB7D032BEDD93C7DBB684FF08F41184616F0EAFE0346184617F0ACF801463C4A2346DB001B1B1B0128
:406DC0001344CC3319603A4B1B68FB600023BB750EE0BB7DC3F1030307F108021344BA7D07F10C010A4412781A70BB7D0133BB75BB7D032BEDD93C7DBB684FF08F41184626
:406E000016F0BEFE0346184617F080F80146264A2346DB001B1B1B011344D033196001F04DB83A7D1E491346DB009B1A1B010B4403F20F131B78032B00F09080194B1B6823
:406E4000FB600023BB750EE0BB7DC3F1030307F108021344BA7D07F10C010A4412781A70BB7D0133BB75BB7D032BEDD93C7DBB684FF08F41184616F083FE0346184617F047
:406E800045F80146084A2346DB001B1B1B011344BC331960054B1B68FB600023BB7518E0D096FF1FCF94FF1F9C9BFF1FD394FF1FD794FF1FBB7DC3F1030307F1080213447B
:406EC000BA7D07F10C010A4412781A70BB7D0133BB75BB7D032BEDD93C7DBB684FF08F41184616F04DFE0346184617F00FF80146B54A2346DB001B1B1B011344C03319603E
:406F0000B24B1B68FB600023BB750EE0BB7DC3F1030307F108021344BA7D07F10C010A4412781A70BB7D0133BB75BB7D032BEDD93C7DBB684FF08F41184616F021FE0346CD
:406F4000184616F0E3FF01469F4A2346DB001B1B1B011344C433196000F0B0BF9C4B1B68FB600023BB750EE0BB7DC3F1030307F108021344BA7D07F10C010A4412781A70F0
:406F8000BB7D0133BB75BB7D032BEDD93C7DBB684FF08F41184616F0F3FD0346184616F0B5FF0146884A2346DB001B1B1B011344D4331960874B1B68FB600023BB750EE0F2
:406FC000BB7DC3F1030307F108021344BA7D07F10C010A4412781A70BB7D0133BB75BB7D032BEDD93C7DBB684FF08F41184616F0C7FD0346184616F089FF0146724A23462C
:40700000DB001B1B1B011344D83319606F4B1B68FB600023BB750EE0BB7DC3F1030307F108021344BA7D07F10C010A4412781A70BB7D0133BB75BB7D032BEDD93C7DBB68E2
:407040004FF08F41184616F09BFD0346184616F05DFF01465C4A2346DB001B1B1B011344DC33196000F02ABF3A7D5B4BD87856491346DB009B1A1B010B4403F587730246E7
:407080001A70397D3A7D50481346DB009B1A1B01034403F588731B781846504A342303FB00F313441A684E480B0103441A6000F005BF0023FB757EE03A7D43491346DB00D7
:4070C0009B1A1B010B4403F588731B781C46FA7DFB7D5B0003334049CB5C1B0219B2FB7D02335B003C48C35C1BB20B431BB21846354923465B0023449B001344663341F812
:4071000023003A7D30491346DB009B1A1B010B4403F588731B781D46F97D3A7D2A481346DB009B1A1B01034403F588731B781C46FA7D254823465B0023449B001344663352
:4071400050F823003A7D204C1346DB009B1A1B01234403F588731B781E46FA7D1A4C33465B0033441B012344134403F295131B7800FA03F214482B465B002B449B000B4489
:40718000663340F823203A7D0F491346DB009B1A1B010B4403F588731B781846FB7D0F49342202FB00F20A441344183300221A70FB7D0133FB75FB7D022B7FF67DAF094B0D
:4071C00001221A7000F07ABE9C9BFF1FD794FF1FCF94FF1FD394FF1FCC94FF1F0C96FF1FE099FF1FCC96FF1F3A7DC14BDB781906BF4B1B791B041943BD4B5B791B020B43EC
:40720000BB4989791943BB481346DB009B1A1B010344E43319603A7DB54BDB791906B44B1B7A1B041943B24B5B7A1B020B43B049897A1943AF481346DB009B1A1B010344FC
