:400000000080002011000000A9020000A9020000044A08B51268044B1A6000F0ADF900F04BF900BFFA460040BC76004010B5054C237833B9044B13B10448AFF300800123AE
:40004000237010BD4881FF1F000000001C170000084B10B51BB108490848AFF300800848036803B910BD074B002BFBD0BDE81040184700BF000000004C81FF1F1C170000A2
:40008000C880FF1F0000000008B500F077FDFEE7F8B572B66D4E0024354604EB4403AA8856F813000134002101F02CFB0A2C05F10605F2D1664E674B96E803008022186073
:4000C0009980654806F1080101F0F6FA06F1840706F1E00E0025E43657F8043F13F0FF0C23F0FF0414D00CF1FF3C5FFA8CFC05EB0C0006EB400006EB45030330013313F828
:40010000012C13F8021B98421155F8D1013565447745E1D1514C41F251262278504F42F0020222703A784F4D42F002023A702A78A4F5863442F040022A70413C2278A7F5E8
:400140007E4742F01002484B2270513F04F66E5403CB3860796003CBC5F8720DC5F8761D93E8070003C4414922800B7805F58C6543F008030B703E4C3E4861232B70A7F604
:40018000C2673D4A332118250223218005704FF040243B7008210320384B217010701A783748384BD2B287F8A123A4F8221206801C784FF4F07004F001041E4600F0D0FF91
:4001C00001E0032C0DD033784FF4F07003F0010343EA440400F0C4FF013D04F00304F0D1FEE7294B294D2A4F2A484FF4807407221C8000211A704826274A022439702E70FE
:4002000019700470137800F5F820033043F00103812601242149137085F8F86704700B78A0F5F420DBB21E49A0F2967005F5C35503F007071B4C1B090770023A0B700E35EF
:4002400044260FCA2E7007C42380F8BD201700005C17000060520040001A01400350014013500140A04300407C1B0000224300408040004082400040004200400801004916
:40028000204200402542004004400040084000400640004001400040A2430040CF0100496F580040B043004008B501F0D9F903680C2B00D0FEE7FEE780B5134FF7B1134E0E
:4002C000002556F80C0C56F8084C56F8102C03463CB1043A52F8041F43F8041B191AA142F8D156F8040C1A4620B142F8045BD11A8842FAD1013F06F11006E2D101F0B6F9E5
:40030000FFF7C2FEFEE700BF01000000D81B00000E4B0F4A0F491A600B680F4A43F400730E480B600023032B94BF50F823100C490133302B42F8041FF5D10A4B0A49187856
:400340000A4A0B4B08701A60FFF7A2BE0CED00E00004FA0514ED00E0FC7FFF1F00000000A9020000BC760040C080FF1F0080FF1F08ED00E0004700BF134A137803F0C003A3
:40038000802B00D0704770B400231048104E114D1370017833782A780F4C120442EA032322780B4353EA026301D170BC7047017833782A782078120442EA03230B4343EA24
:4003C000006070BCFFF7D6BFFA460040C1FF0300C2FF0300C3FF0300C4FF0300F0B50002C0F57F3090F8C5E390F8C67390F8C92390F8CAC390F8CB1390F8CC3390F8D15336
:40040000C1B0012D69D0DBB21D06C9B290F8C53390F8C663FFB245EA01415FFA8EFED2B25FFA8CFC0A434EEA072E43EA062642EA0C220EF10107013602EB072736020022FC
:40044000B74200F2D13415460AD916F8013B591EC9B2FD29134498BF0125B742DAB2F4D190F8C53390F8C6131D4E43EA0121B7424FEA411101F1200114BFFF084FF4004738
:400480008F4209D901F1904107F1904711F8013B1344B942DAB2F9D1534290F8C023DBB2934202D0062041B0F0BD002DFAD068464FF4807224F0FF0101F009F99DF8D1309B
:4004C000012B0AD00123C4F307216A4603208DF8D13000F0E1FB00F005FD002041B0F0BDC0FF0300013810B40B2863D8DFE800F017202632383E444A50565C060902C1F5DE
:400500007F3101F578710A784C788B78C8781B0443EA0423134343EA006010BC70470902C1F57F3101F57071087810BCC0B270470902C1F57F3101F2C131E4E70902C1F52B
:400540007F3101F2C5314A1C0B78107810BC43EA002070470902C1F57F3101F2C931D2E70902C1F57F3101F57471DDE70902C1F57F3101F2D131D7E70902C1F57F3101F2F2
:40058000D231E0E70902C1F57F3101F2D631DAE70902C1F57F3101F57571D4E70902C1F57F3101F57671AEE70902C1F57F3101F57771B9E701220021C6E700BF2DE98048DD
:4005C000ADF5677D00F0DCFD62B600239B461E4601930DF23F1451AF0DF245190DF5A3780293FF2305AA4FF4967150A800F0E8FD0028F6D1BDF81420062A03D99DF8405145
:40060000012D2CD04FF0040A0025284604210123ADF816008DF841A18DF842518DF843618DF840310023625C0139134489B29BB20029F8D15B429BB25FFA83FE1A0AC11D5C
:40064000172507F800E089B209F80020962308F800500DF1160250A800F09EFDC1E7BDF84231D91D914200F2E680B1F5967F00F2E28050AA1A449279172AC3D1191D89B2B8
:40068000002900F04A82625C0139104489B280B20029F8D1404280B250AAD11891F805E00A7942EA0E22824202D04FF0080AABE79DF841119DF844A1A1F131020A2A00F201
:4006C000AD80DFE802F04788AB5A41AB311F5A1606000020FFF782FE10B9BD4A8023137000F058FD002500F0C9FB04218A4628468DE7BBF1000F40F0BB80042100258A46CD
:40070000284684E7002BF8D1B24A082592E8030008AA82E8030087E8030001939A4628460C214FF0010B72E7BBF1000FE5D0019A03EB020EBEF5967F40F3108100252846DA
:4007400004214FF0030A62E7BBF1000FD5D00023019346E7BBF1000FCFD0002BCDD118460393FFF73BFEB0FA80F0039B40098DF844019A460521584649E734295ED0BBF15F
:40078000000FBAD0022BB8D9AAF1400B019D5FFA8BFB033B9BAA50190DF247111A46039300F08AFF019BBBF13F0F1A46039B1A4495B240F207814FF480734FF49072954288
:4007C00000F0F38000250195284604214FF0010B4FF0030A1BE7BBF1000F8ED0012B8CD1BAF1030F89D87C4B1B681B68C3F30742924500F09E8194BF012200220023FF2162
:4008000004258DF846118DF844318DF845218DF84761284608214FF0000AF8E66F4A1568002D6CD0BBF1000F6ED10025284604214FF0050AEBE64FF0030AE5E6BBF1000FA1
:400840003FF45BAF032B7FF458AFAAF1400B5FFA8BFBBBF13F0F94BF10254FF490752A4600219BA80393019500F04CFF039B90E7032B7FF442AFAAF140033F2BBDF84511CF
:4008800040F2E780FF2979D84FEA0A2E0EEB0100000200F1FF020023013812F801C963448242DBB2F9D1BAF13F0F20D80EF110720A4452011046203210F801EB73448242AB
:4008C000DBB2F9D1BAF1030F11D1FF290FD1002105200393FFF706FE039B00211B1A06205FFA83FAFFF7FEFDC0EB0A00C3B25B428DF8443105214FF0000A012087E6042160
:4009000028464FF0050A82E68DF81810ADF81A3006A80797089609960A9708A9A847BDF824000A9BB0F5937F01D3BB422ED05BB39DF82030021D91B28DF841310122030AAD
:40094000ADF816008DF842018DF840218DF8433100297FF467AE0A468E4670E61A46019B9BA90B441846394600251FFA8EF30193AA4600F0A1FE2846042148E60025284658
:4009800004214FF00A0A42E60028D1D001220E23ADF816608DF842618DF843618DF840218DF84131042100203CE6BDF845219A42019215D30025284604214FF0010B4FF016
:4009C0000A0A24E600F030FA80231022F7E600BFFA460040981B0000CC80FF1F6481FF1FBAF13F0F20D8554B02EB0A221B6892B21968C1F30F2311F0FF0F1CBF01339BB26B
:400A00009A42C0F08C80029B73B919464FF4907208A800F077FE4FF4907308AAFF21032000F0A0F9012302932B46019950469BAA00F098F9002398420CBF9A464FF00A0ABD
:400A400001931D464FF0010B00F04CFA01980421DDE5039100F0E8F903997F294FEA01138CD837483749384A18441944DFF8DCC000781A440978DFF8D8E012789C449E4445
:400A800008449CF80010DFF8CCC010449EF80020DFF8C4E09C449E4408449CF80010DFF8BCC010449EF80020DFF8B4E09C449E4408449CF80010DFF8ACC010449EF80020E5
:400AC000DFF8A4E09C449E4408449CF80010DFF89CC010449EF80020DFF894E09C449E4408449CF80010DFF88CC010449EF80020DFF884E09C4408449E449CF8001003F1A1
:400B00008043104403F500439EF8002001441B780A44134403F0FF03E9E60846BCE5002301931D46184604214FF0010B4FF00A0A6DE5C3F30723002261E600BFCC80FF1F7E
:400B40000F8000400E8000400D8000400C8000400B8000400A80004009800040088000400780004006800040058000400480004003800040028000400180004038B500F0E0
:400B800039F870BB0020FFF729FC184C0028236818BF06251A6808BF00256AB1002312F8011D0B44DBB2002AF9D162681278D31A03F0FF039A4202D0002000F05DF90C4A41
:400BC000137803F0C003402B00D025B1084B00221A70FFF7F3FC80231370BDE8384000F04DB9002000F048F9CCE700BFCC80FF1FFA46004038B500F0AFF900F05FFA10B14A
:400C00000424204638BD00F095FA072804462BD000F076FA002CF4D100F09EF900F04EFA0028EDD1012000F02DFA072805D04FF0FF3400F065FA204638BD154C02E0237812
:400C40009B07F4D40221134800F09CF90228F6D10F4C2378990705D4012000F03BF923789A07F9D50024E4E7094D2B789B0705D4012000F02FF92B789807F9D5044B1A78CB
:400C80009507D6D51B789B08D3D100F039FAC3E7224700407C81FF1FF0B53F2883B00AD8441F3A2C8CBF00240124B1F5807F17D9012003B0F0BD412894BF0024012481293F
:400CC00028BF01241027002AF2D0002CF0D116460D46044600F0F2F928B1042003B0F0BD4FF48077EFE73B4632462946204600F069F9072804D0019000F002FA0198EDE78A
:400D0000164E33789B0705D4012000F0E3F833789807F9D5114E33789F071BD533789B0818D10F4A294653782046127800F086F90728E0D102E0012000F0CCF8337899077A
:400D4000F9D5064B1A78920704D51B789B0801D11846D0E74FF0FF30CDE700BF224700407C81FF1FF0B5412883B015D8441F3A2C8CBF002401243F280FD8B1F5807F11D827
:400D800082B17CB91E4617460D46044600F096F958B1042003B0F0BD0124812928BF0124102BEDD0012003B0F0BD33463A462946204600F007F9072804D0019000F0A0F932
:400DC0000198F0E7164E33789B0705D4012000F081F833789807F9D5114E33789F071BD533789B0818D10F4A294653782046127800F024F90728E0D102E0012000F06AF8BB
:400E000033789907F9D5064B1A78920704D51B789B0801D11846D0E74FF0FF30CDE700BF224700407C81FF1F38B500F0A1F90F4A0F4913780F4C43F0080313700B78C82543
:400E400043F008030B702570137B43F0100313730B7B02F5587243F010030B7313789B06FCD5BDE8384000F087B900BFA0430040B04300400147004001BE7047024A13788B
:400E800043F0010313707047F6460040B0F5004F70B506461AD904460D4DA4F50044686800F05EF9B4F5004FF7D8A6F50043013B23F4FF4323F07F03A6F50046F61AA86885
:400EC00000FB06F0BDE8704000F04AB9004DF6E7D480FF1F024B1B7800FB03F000F040B9D480FF1F08B500F043F900BF00BF00BF00BF00BF00BF00BF00BF00BF00BF00BFD6
:400F000000BF00BF00BF00BF00BF064A13889BB243F0040313801388BFF36F8FBDE8084000F02AB900480040054B00F01F001A6800F1100352F8230042F82310704700BF29
:400F400008ED00E000F01F0000F16040490100F56440C9B20170704708B500F009F90749074A0B7843F008030B70137843F008031370BDE8084000F0FFB800BFA043004028
:400F8000B04300402DE9F0410F4699B14E1EF6B20644451E094CDFF8288002E00120FFF799FF2378DB07F9D598F8003005F8013FB542F6D13846BDE8F08100BF22470040F0
:400FC00020470040F0B41B4C2578AD071DD51A4DB6262E70D52702262F702E702478A40710D428705BB15E1EB6B21644013A12F8014FB2422C70FAD1B3F5807F08D0F0BC92
:40100000072070470920F0BC70470420F0BC70473F28F4D800F5103001EB0021490106480A46203112F8013BDBB291420370F9D1E5E700BF2247004020470040F0B40F4D53
:401040002C78A60716D50E4CB6262670D8270526277026702D78AD0709D40D0AC9B2207025702170227023700720F0BC70470920F0BC70470420F0BC704700BF2247004069
:40108000204700400B4A1378990711D530B40A4BB625E1240E211D701C7019701278920703D4187030BC07207047092030BC704704207047224700402047004038B500F019
:4010C00057F80D4A137823B1042400F055F8204638BD0125094915700C682C40F5D00C6824F001040C6000BF00BF00BF1C46556000F042F8204638BD6881FF1F0400084064
:4011000010B500F035F8094B002259681A70012908D1074C216841F00101216000BF00BF00BF5A60BDE8104000F026B86881FF1F04000840074B1B789B0708D5064BB620E1
:40114000E0210D221870197007201A7070470420704700BF2247004020470040000000000230800803D000BF01380046FCD17047EFF3108072B6704780F31088704700BFBB
:4011800008B500F071F800F04BF9BDE8084000F0A7B900BF00F0C6B8F8B50E460446174600F03EF94EB1751EADB22544013C14F8010F00F057F9AC42F9D13E800020F8BD6E
:4011C0002DE9F84303EB83035D0006468846174618BF002407D117E001340120A4B2FFF755FEAC4210DA00F0F3F80028F4D000F0EFF804461920FFF749FE00F0E9F88442CA
:40120000F5D34FF0000901E04FF0050900243C8000F0DEF8F8B100F0DBF83A8880B283189BB243453B801BD2C0B1204485B200F0A1F8631C30559CB2AC42F8D1731913F81D
:40124000013C172B02D00520FFF720FE2C4600F0BFF80028DFD14846BDE8F8832546EDE73A804846BDE8F883F8B5224D2C780CBB21492046FFF758FE20460721FFF762FE17
:401280001E4B1F492022692008701A701D4901206C70FFF749FE07210120FFF753FE1A4E1A481B4A06274724022101233770047011702B70FFF75CFF0546164C1649237823
:4012C000164A43F0200323700B78012043F010030B701060A378124843F010030221A3700160116000F09CF92846BDE8F840FFF743BF00BF7081FF1F211500008964004014
:4013000089650040B915000028640040386400408B650040996500409964004000E100E080E200E038B5FFF723FF05460D4A0E4C137803F0DF03137000F082F923780B4A1C
:40134000012003F0EF030A49237010600B78022403F0EF030B7028461460BDE83840FFF70BBF00BF996500409964004080E100E09B65004010B4114B114A0121196091786F
:40138000D3781079C9B210B9DBB2994212D04B1CDBB2402B0B4828BF0023405C93701379074CC0B20BB100232371074B01221A6010BC7047054B1878C0B2F6E780E100E0CA
:4013C0007081FF1F8081FF1F00E100E04A650040104A0121104B11609978DA7891420FD09978DA789142DA78987824BF02F14003181A0A4B38BF101A0122C0B21A60704793
:401400001B790122002B054B14BF402000201A60704700BF80E100E07081FF1F00E100E010B5FFF7A5FE0B4B0B4C1A7842F001021A701A7802F0FE021A70FFF79DFE074BD9
:4014400000220121064821609A70DA701A715A71016010BD9A65004080E100E07081FF1F00E100E070B4194DEC79AB792646DBB2591EE21A091BA2F13F02B1FA81F1B2FAF1
:4014800082F249095209A34288BF0A46002AECD1A34212D03F2C0E4A88BF00260D4B90551B789ABF0134E4B201249B07EC7102D5094B02221A6070BC7047064B1B785A07A8
:4014C000E8D4064B187070BC704700BF7081FF1FC081FF1F6B65004000E200E04865004010B5FFF745FE0A4B0A4C1A7842F001021A701A7802F0FE021A70FFF73DFE064AFF
:401500000223002105482360D1719171036010BD9865004080E100E07081FF1F00E100E02DE9F0431C481D491D4F1E4A1E4E1F4CDFF880C01E4D4FF0010E0378DBB213F03A
:401540001E0905D091F8008049EA080881F800809B0601D4BDE8F08397F8008013785FFA88F8DBB206F8038023784FF000080BB18CF800E013780133DBB2137013783F2B55
:4015800088BF82F8008092F800802B789845D4D184F800E0D1E700BF696400407181FF1F4A6500407381FF1F8081FF1F7481FF1F7281FF1F7581FF1F144A154813780178B4
:4015C000994221D0F0B513490B7803F0040303F0FF06C3B91746104D104C02E00B785B0711D413783F2B88BF3E701378DBB2EB5CDBB22370137890F800E00133DBB21370CB
:4016000013789E45EAD1F0BD704700BF7681FF1F7781FF1F6B650040C081FF1F486500400549064A0B7843F001030B70137843F001031370704700BFA2430040B2430040EF
:401640000549064A0B7803F0FE030B70137803F0FE031370704700BFA2430040B2430040014B1868704700BF4481FF1F0E4B70B51E460E4C0025E41AA410A54204D056F8C7
:40168000253098470135F8E700F08CFA084B094C1E46E41AA4100025A54204D056F8253098470135F8E770BDB01B0000B01B0000B01B0000B81B000010B5431E0A4491428E
:4016C00004D011F8014B03F8014FF8E710BD884210B501EB020301D8421E0BE09842FBD28118D21AD34204D013F8014D01F8014DF8E710BD994204D011F8014B02F8014F77
:40170000F8E710BD03460244934202D003F8011BFAE77047001D0000ED00000000000000005100401000205100401000405100403000F051004010000000014000100014B5
:4017400001400006801A0140800100400140000A004C014000020050014020001090000040000000CF083042C3003C0800100000082000000020F3000C30F3003D0FC0F055
:4017800008000084023F20C004F800010C3900C6430010C740318C003F0000FF00002800000000402105040003EC000003FFFFFF62A0F0410C00000000000000040404044F
:4017C0000000000100000000000040020010301000101012000000000000000000000000000000000152004001640040026500400107014054080140370901400414014085
:4018000003150140011701404D180140411901400D1A0140411B0140034001400241014002420140044301400147014002480140084C01400E4D014004500140015101402E
:401840000914893A89698B0FE60203010461060E071809480A400B860E0811801365142C15E61643171119601B8B1E43206121A02206260C28102D802F023020320F330774
:40188000341035F8364038023A083B083E504003474049FF4A074BFF4C404D204EF04F055008580459045A045F01604061A8624063208320850387048A028B088D038E022A
:4018C0008F0C9001950A9704980199039B04A310A710A801AF05B001B10FB320B510B602BB02BE40BF10D41AD604D804D904DB04DF0100A005800605071008800A450E2010
:401900000F0211101502161819401B021D241E211F0120402105220223042404271029012B212D802E023104331035043602371038523A143C143E083F0245084F025601C3
:4019400059025A206140634485208740C0E3C2AAC472CA9BCCE6CEEFD040D605D80DE008B980BF40D904DF012680A680B280EA0801020B011001140419011E022006280662
:401980002D01320633033401380839083E1440454102460E47BC483449FF4AFF4BFF4EF04F44500C580459045A045F0166C06A406B0284038508860C89088D088E0E900232
:4019C00091089208953D960F9702980299239A049B1C9D1E9F01A127A318A501A716A80CA926AA03AB19AC03AE0CAF1FB320B401B508B60EB71FB820BA80BB80BF04D602C6
:401A0000D712D804D904DB04DF01000403020520060408280A800E300F821209150216C0171019801BA01D081E082254241028282A012B8A2E8031143249371038A83E10F9
:401A40003F02464047104E02560657405A0869106A46705C79017A027B41910A941295109664978098809B109D039E06A210A303A450A508A720AF40B701C005C2BEC4533B
:401A8000CA1FCC2FCEAED0A0D210D602840188018C019601A201AE02B203BA08D401D604D804DB04DF0100440380059408120A120E101048114012101580164018041916A1
:401AC0001E101F0820802142281229042A402B8A30483110324138E239083A1040264102481049815C805D215E0867806A4082408C218D4090A09109928294069780988038
:401B000099A09C209D17A008A204A382A450A708C0EDC22FC49FCA0FCC0FCE0FD00FD208D6F0D880E004E88030103580CC309C109D809C109D8084109C109D80E640862085
:401B4000AD80EA105840620199089A20B508D401D802E80212807220750882018E8099089A209E01B040C408DC01DE04E202E80100010C0110011C01000F00004090900073
:401B80009000000010140400140000000000000101000000000000006910162E003C010143000000F8B500BFF8BC08BC9E4670475100000011030000F8B500BFF8BC08BC51
:401BC0009E4670472D000000D81B0000C880FF1F80000000B8000000000000001417000018170000180000000000E02EC05D000000366E010000000000000000000000004A
:401C00000000000000000000000000000000000000000000A01B000000000000000000000000000000000000000000000000000000000000000000000000000000000000E9
:401C40000000000000000000000000000000000000000000E480FF1F00000000000000000000000000000000000000000000000000000000000000000000000000000000E2
:401C80000000000000000000000000000000000000000000000000000000000000000000000000000000000000000000000000000000000000000000000000000000000024
:401CC00000000000000000000000000000000000000000000000000000000000000000000000000000000000000000000000000000000000000000000000000000000000E4
:401D000000800020111D0000E9580100E958010080B500AF13F01CFE10B5054C237833B9044B13B10448AFF300800123237010BDB081FF1F00000000C8030200084B10B57A
:401D40001BB108490848AFF300800848036803B910BD074B002BFBD0BDE81040184700BF00000000B481FF1FC8030200C880FF1F0000000080B588B000AFE24B1B78FB7761
:401D8000E04BB3F98030DBB2013BDBB21946DD480AF016FD03461946DA4BB3F98030013BD84AD35C994204D0D64B002283F8842042E2FB7FA62B00F23E8201A252F823F0CD
:401DC000DB200000BD20000037220000E1200000E72000000D210000A52000003722000037220000412100002721000037220000C3200000632100003722000037220000E9
:401E00003722000037220000372200003722000037220000372200003722000037220000372200003722000037220000372200003722000037220000372200003722000012
:401E400037220000372200003722000037220000372200003722000037220000372200003722000037220000372200003722000037220000372200003722000037220000D2
:401E80003722000037220000372200003722000037220000372200003722000037220000372200003722000037220000372200003722000037220000372200003722000092
:401EC0003722000037220000372200003722000037220000372200003722000037220000372200003722000037220000372200003722000037220000372200003722000052
:401F00003722000037220000372200003722000037220000372200003722000037220000372200003722000037220000372200003722000037220000372200003722000011
:401F400037220000372200003722000037220000372200003722000037220000372200003722000037220000372200003722000037220000372200003722000037220000D1
:401F80003722000037220000372200003722000037220000372200003722000037220000372200003722000037220000372200003722000037220000372200003722000091
:401FC0005D20000093200000632000009F20000069200000752000006F200000372200008D2000008120000037220000872000007B20000037220000372200003722000075
:4020000099200000372200003722000037220000372200003722000037220000372200003722000037220000372200003722000037220000372200003722000037220000B0
:402040003722000001220000072200001F220000252200002B220000312200000BF0BAF9EAE00BF095F8E7E00AF082FFE4E00BF03FFAE1E00BF0DAFADEE00BF033FBDBE027
:402080000AF0D0FFD8E00BF027F8D5E00BF096FCD2E00BF0FFF9CFE00BF052FBCCE00BF079FBC9E0184B1B883B613B695BBAFB60FB689BB2184600F0CBF8BDE006F070FD6C
:4020C000BAE0114B1B88BB61BB695BBABB60BB689BB2184603F0DAF8AEE00BF04BFBABE00BF08EFBA8E032200AF0A2FB0346002B03D001200AF084FB9EE000200AF080FB01
:402100009AE000BFC894FF1FC994FF1F0AF01CFC0346002B03D001200AF072FB8CE000200AF06EFB88E00AF03DFC0346002B03D001200AF065FB7FE000200AF061FB7BE014
:4021400001200AF05DFB4FF47A7016F03FFA002013F0BAFD4FF47A7016F038FA14F0C4FC6AE0374B5B781B021AB2354B9B781BB213431AB2334B5A80314BDB781B021AB263
:402180002F4B1B791BB213431AB22E4B9A802D4BB3F90230B3F1FF3F0FD12A4BB3F90430B3F1FF3F09D1274B00221A70254B00225A80244B00229A803EE0224BB3F90230C8
:4021C000002B03DA1F4B00225A8007E01D4BB3F90230C82B02DD1B4BC8225A80194BB3F90430002B02DA174B00229A80164B00221A60144B01221A7001200AF001FB1BE044
:402200000BF00CFC18E0114B1B887B617B695BBA7B607B689BB2184605F0C8FD0CE00BF0C9FE09E00BF00CFF06E00BF07FFF03E00BF0AAFF00E000BF2037BD4680BD00BF34
:40224000C894FF1F5095FF1FB499FF1FC994FF1F80B5ADF5BB4D92B000AF024607F14803423B1A8007F59C4303F1280300221A60043340F69C72002118461BF080FB07F17B
:402280004803403B00221A60043344F61C62002118461BF074FB07F14803423B1B88032B50D801A252F823F0B9220000DB220000FD2200002323000007F59C4303F12803E4
:4022C000184606F0B1FC14F051F907F59C4303F12803184614F028F935E007F59C4303F12803184608F0FAFB14F040F907F59C4303F12803184614F017F924E007F59C4330
:4023000003F128034FF47A61184612F089F814F02DF907F59C4303F12803184614F004F911E007F14803403B44F62061184612F09DF814F01BF907F14803403B184614F065
:40234000F3F800E000BF00BF07F5BB474837BD4680BD00BFF0B5ADF5A25D87B000AF07F118040C3C206007F118001038016007F1180114390A6007F11802183A136007F140
:40238000580300221A60043341F2E832002118461BF0F5FA41F2EC3307F5A25202F110021380002307F5A25202F115021370002307F5A25202F114021370002307F5A252FD
:4023C00002F11302137007F13803143B00221A6004332E22002118461BF0D1FA002307F5A25202F10F021370012307F5A25202F10E02137007F118030C3B1B681B6807F5C8
:40240000A25202F10802136007F5A25303F108031B6807F5A25202F10402136007F158030C221A7007F1580347225A70002307F5A25202F11502137002F076BE07F5A25321
:4024400003F115031B789A0007F118030C3B1B6813441B6807F5A25202F10802136007F5A25303F115031B78322202FB03F39A1C07F5A25303F11503197807F11803103B93
:402480001B680B44197807F15803995407F5A25303F115031B78322202FB03F3DA1C07F5A25303F11503197807F11803143B1B680B44197807F15803995407F5A25303F134
:4024C00015031A7807F11803103B1B6813441B78092B2CD801A252F823F000BF05250000052500000525000013250000132500002125000021250000212500002F2500005C
:4025000005250000012307F5A25202F1130213700DE0022307F5A25202F11302137006E0042307F5A25202F11302137000BF07F5A25303F115031B7807F5A35202F1180270
:40254000126813441B78002B40F0D38307F5A25303F115031A7807F11803103B1B6813441B78092B02F2FF8001A252F823F000BF9925000053260000992500000D2700005D
:402580003D2800006B290000952A0000C32B00006747000099250000002307F5A25202F11702137041E007F5A25303F117031B7807F5A25202F11302127802FB03F31A46DF
:4025C00007F5A25303F108031B68134407F5A25202F10402136007F5A25303F115031B78322202FB03F31A1D07F5A25303F117031B7807F5A25101F11301097801FB03F3AD
:40260000134407F5A25202F104021268117807F15802D15407F5A25303F117031B78013307F5A25202F11702137007F5A25303F115031A7807F11803143B1B6813441B783D
:4026400007F5A25202F1170212789A42ABD302F08AB8002307F5A25202F11702137041E007F5A25303F117031B7807F5A25202F11302127802FB03F31A4607F5A25303F137
:4026800008031B68134407F5A25202F10402136007F5A25303F115031B78322202FB03F31A1D07F5A25303F117031B7807F5A25101F11301097801FB03F3134407F5A2528A
:4026C00002F104021268117807F15802D15407F5A25303F117031B78013307F5A25202F11702137007F5A25303F115031A7807F11803143B1B6813441B7807F5A25202F1E1
:40270000170212789A42ABD302F02DB8002307F5A25202F1170213707BE007F5A25303F117031B7807F5A25202F11302127802FB03F31A4607F5A25303F108031B68134497
:4027400007F5A25202F10402136007F5A25303F104031B68B3F9002007F138031A3B1A80002307F5A25202F1160213703AE007F5A25303F115031B78322202FB03F31A1DD7
:4027800007F5A25303F117031B7807F5A25101F11301097801FB03F31A4407F5A25303F113031B781A4407F5A25303F116031B78D31A5A1E07F5A25303F11603197807F158
:4027C00038031A3B0B44197807F15803995407F5A25303F116031B78013307F5A25202F11602137007F5A25303F116031A7807F5A25303F113031B789A42B8D307F5A25370
:4028000003F117031B78013307F5A25202F11702137007F5A25303F115031A7807F11803143B1B6813441B7807F5A25202F1170212789A42FFF471AF01F095BF002307F50D
:40284000A25202F1170213707AE007F5A25303F117031B7807F5A25202F11302127802FB03F31A4607F5A25303F108031B68134407F5A25202F10402136007F5A25303F109
:4028800004031B681A8807F138031C3B1A80002307F5A25202F1160213703AE007F5A25303F115031B78322202FB03F31A1D07F5A25303F117031B7807F5A25101F1130178
:4028C000097801FB03F31A4407F5A25303F113031B781A4407F5A25303F116031B78D31A5A1E07F5A25303F11603197807F138031C3B0B44197807F15803995407F5A253FB
:4029000003F116031B78013307F5A25202F11602137007F5A25303F116031A7807F5A25303F113031B789A42B8D307F5A25303F117031B78013307F5A25202F1170213707B
:4029400007F5A25303F115031A7807F11803143B1B6813441B7807F5A25202F1170212789A42FFF472AF01F0FEBE002307F5A25202F11702137078E007F5A25303F11703DD
:402980001B7807F5A25202F11302127802FB03F31A4607F5A25303F108031B68134407F5A25202F10402136007F5A25303F104031B681A6807F118031A60002307F5A252F8
:4029C00002F11602137039E007F5A25303F115031B78322202FB03F31A1D07F5A25303F117031B7807F5A25101F11301097801FB03F31A4407F5A25303F113031B781A44DE
:402A000007F5A25303F116031B78D31A013B07F5A25202F11602127807F118010A44117807F15802D15407F5A25303F116031B78013307F5A25202F11602137007F5A253C4
:402A400003F116031A7807F5A25303F113031B789A42B9D307F5A25303F117031B78013307F5A25202F11702137007F5A25303F115031A7807F11803143B1B6813441B781E
:402A800007F5A25202F1170212789A42FFF474AF01F069BE002307F5A25202F1170213707AE007F5A25303F117031B7807F5A25202F11302127802FB03F31A4607F5A25332
:402AC00003F108031B68134407F5A25202F10402136007F5A25303F104031B681A6807F11803043B1A60002307F5A25202F1160213703AE007F5A25303F115031B78322245
:402B000002FB03F31A1D07F5A25303F117031B7807F5A25101F11301097801FB03F31A4407F5A25303F113031B781A4407F5A25303F116031B78D31A5A1E07F5A25303F14C
:402B40001603197807F11803043B0B44197807F15803995407F5A25303F116031B78013307F5A25202F11602137007F5A25303F116031A7807F5A25303F113031B789A42FC
:402B8000B8D307F5A25303F117031B78013307F5A25202F11702137007F5A25303F115031A7807F11803143B1B6813441B7807F5A25202F1170212789A42FFF472AF01F080
:402BC000D2BD002307F5A25202F1170213707AE007F5A25303F117031B7807F5A25202F11302127802FB03F31A4607F5A25303F108031B68134407F5A25202F104021360BD
:402C000007F5A25303F104031B681A6807F13803183B1A60002307F5A25202F1160213703AE007F5A25303F115031B78322202FB03F31A1D07F5A25303F117031B7807F54C
:402C4000A25101F11301097801FB03F31A4407F5A25303F113031B781A4407F5A25303F116031B78D31A5A1E07F5A25303F11603197807F13803183B0B44197807F1580360
:402C8000995407F5A25303F116031B78013307F5A25202F11602137007F5A25303F116031A7807F5A25303F113031B789A42B8D307F5A25303F117031B78013307F5A252A9
:402CC00002F11702137007F5A25303F115031A7807F11803143B1B6813441B7807F5A25202F1170212789A42FFF472AF00BF01F03ABD07F5A25303F115031B780133023BC9
:402D0000332B01F22F8501A252F823F0DD2D00009B320000654700006547000065470000654700005D3700006547000065470000813800006547000065470000654700005E
:402D40006547000065470000654700006547000065470000654700006547000065470000393A000065470000654700006547000065470000654700006547000065470000CC
:402D800065470000654700006547000065470000654700006547000065470000654700006547000065470000654700006547000065470000073B0000C53F00006547000065
:402DC000654700006547000065470000854400006547000065470000A745000007F5A25303F10F031A78AA491346DB009B1A1B010B4403F20F131B78032B00F0268107F587
:402E0000A25303F10F031A78A1491346DB009B1A1B010B44B0331B6818461AF039FB03464FF08F4118461AF03BFC03461A4607F13803183B1A60002307F5A25202F1170206
:402E400013702DE007F5A25303F115031B78322202FB03F31A1D07F5A25303F113031B781A4407F5A25303F117031B78D31A5A1E07F5A25303F11703197807F13803183BBB
:402E80000B44197807F15803995407F5A25303F117031B78013307F5A25202F11702137007F5A25303F117031A7807F5A25303F113031B789A42C5D307F5A25303F10F0323
:402EC0001A7873491346DB009B1A1B010B44B4331B6818461AF0DCFA03464FF08F4118461AF0DEFB03461A4607F13803183B1A60002307F5A25202F11702137033E007F595
:402F0000A25303F115031B78322202FB03F31A1D07F5A25303F113031B781A4407F5A25303F113031B781A4407F5A25303F117031B78D31A5A1E07F5A25303F11703197820
:402F400007F13803183B0B44197807F15803995407F5A25303F117031B78013307F5A25202F11702137007F5A25303F117031A7807F5A25303F113031B789A42BFD307F5DD
:402F8000A25303F10F031A7841491346DB009B1A1B010B44B8331B6818461AF079FA03464FF08F4118461AF07BFB03461A4607F13803183B1A60002307F5A25202F117025F
:402FC000137034E007F5A25303F115031B78322202FB03F31A1D07F5A25303F113031B785B001A4407F5A25303F113031B781A4407F5A25303F117031B78D31A5A1E07F506
:40300000A25303F11703197807F13803183B0B44197807F15803995407F5A25303F117031B78013307F5A25202F11702137007F5A25303F117031A7807F5A25303F1130385
:403040001B789A42BED301F08EBB07F5A25303F10F031A780E491346DB009B1A1B010B44C8331B6818461AF013FA03464FF08F4118461AF015FB03461A4607F13803183BF0
:403080001A60002307F5A25202F1170213702FE0C496FF1F07F5A25303F115031B78322202FB03F31A1D07F5A25303F113031B781A4407F5A25303F117031B78D31A5A1E7C
:4030C00007F5A25303F11703197807F13803183B0B44197807F15803995407F5A25303F117031B78013307F5A25202F11702137007F5A25303F117031A7807F5A25303F1DF
:4031000013031B789A42C5D307F5A25303F10F031A78AA491346DB009B1A1B010B44CC331B6818461AF0B4F903464FF08F4118461AF0B6FA03461A4607F13803183B1A60F2
:40314000002307F5A25202F11702137033E007F5A25303F115031B78322202FB03F31A1D07F5A25303F113031B781A4407F5A25303F113031B781A4407F5A25303F11703B5
:403180001B78D31A5A1E07F5A25303F11703197807F13803183B0B44197807F15803995407F5A25303F117031B78013307F5A25202F11702137007F5A25303F117031A780B
:4031C00007F5A25303F113031B789A42BFD307F5A25303F10F031A7878491346DB009B1A1B010B44D0331B6818461AF051F903464FF08F4118461AF053FA03461A4607F14F
:403200003803183B1A60002307F5A25202F11702137034E007F5A25303F115031B78322202FB03F31A1D07F5A25303F113031B785B001A4407F5A25303F113031B781A448F
:4032400007F5A25303F117031B78D31A5A1E07F5A25303F11703197807F13803183B0B44197807F15803995407F5A25303F117031B78013307F5A25202F11702137007F5E0
:40328000A25303F117031A7807F5A25303F113031B789A42BED301F066BA07F5A25303F10F031A7845491346DB009B1A1B010B4403F20F131B78032B00F0288107F5A253A0
:4032C00003F10F031A783D491346DB009B1A1B010B44BC331B6818461AF0DAF803464FF08F4118461AF0DCF903461A4607F13803183B1A60002307F5A25202F117021370D0
:403300002DE007F5A25303F115031B78322202FB03F31A1D07F5A25303F113031B781A4407F5A25303F117031B78D31A5A1E07F5A25303F11703197807F13803183B0B442A
:40334000197807F15803995407F5A25303F117031B78013307F5A25202F11702137007F5A25303F117031A7807F5A25303F113031B789A42C5D307F5A25303F10F031A781B
:403380000E491346DB009B1A1B010B44C0331B6818461AF07DF803464FF08F4118461AF07FF903461A4607F13803183B1A60002307F5A25202F11702137035E0C496FF1FFF
:4033C00007F5A25303F115031B78322202FB03F31A1D07F5A25303F113031B781A4407F5A25303F113031B781A4407F5A25303F117031B78D31A5A1E07F5A25303F11703F1
:40340000197807F13803183B0B44197807F15803995407F5A25303F117031B78013307F5A25202F11702137007F5A25303F117031A7807F5A25303F113031B789A42BFD383
:4034400007F5A25303F10F031A78C3491346DB009B1A1B010B44C4331B6818461AF018F803464FF08F4118461AF01AF903461A4607F13803183B1A60002307F5A25202F1EF
:403480001702137034E007F5A25303F115031B78322202FB03F31A1D07F5A25303F113031B785B001A4407F5A25303F113031B781A4407F5A25303F117031B78D31A5A1E24
:4034C00007F5A25303F11703197807F13803183B0B44197807F15803995407F5A25303F117031B78013307F5A25202F11702137007F5A25303F117031A7807F5A25303F1DB
:4035000013031B789A42BED301F02DB907F5A25303F10F031A7890491346DB009B1A1B010B44D4331B68184619F0B2FF03464FF08F4118461AF0B4F803461A4607F13803FE
:40354000183B1A60002307F5A25202F1170213702DE007F5A25303F115031B78322202FB03F31A1D07F5A25303F113031B781A4407F5A25303F117031B78D31A5A1E07F5E2
:40358000A25303F11703197807F13803183B0B44197807F15803995407F5A25303F117031B78013307F5A25202F11702137007F5A25303F117031A7807F5A25303F1130300
:4035C0001B789A42C5D307F5A25303F10F031A7861491346DB009B1A1B010B44D8331B68184619F055FF03464FF08F4118461AF057F803461A4607F13803183B1A60002319
:4036000007F5A25202F11702137033E007F5A25303F115031B78322202FB03F31A1D07F5A25303F113031B781A4407F5A25303F113031B781A4407F5A25303F117031B7880
:40364000D31A5A1E07F5A25303F11703197807F13803183B0B44197807F15803995407F5A25303F117031B78013307F5A25202F11702137007F5A25303F117031A7807F5DD
:40368000A25303F113031B789A42BFD307F5A25303F10F031A7830491346DB009B1A1B010B44DC331B68184619F0F2FE03464FF08F41184619F0F4FF03461A4607F138033D
:4036C000183B1A60002307F5A25202F11702137034E007F5A25303F115031B78322202FB03F31A1D07F5A25303F113031B785B001A4407F5A25303F113031B781A4407F50A
:40370000A25303F117031B78D31A5A1E07F5A25303F11703197807F13803183B0B44197807F15803995407F5A25303F117031B78013307F5A25202F11702137007F5A25322
:4037400003F117031A7807F5A25303F113031B789A42BED301F007B8C496FF1F07F5A25303F10F031A78C8491346DB009B1A1B010B4403F588731B78184607F5A25303F1CF
:4037800017031A78C14903465B0003449B001344663351F8231007F5A25303F10F031A78B9481346DB009B1A1B01034403F588731B781C4607F5A25303F117031A78B34817
:4037C00023465B0023441B010344134403F295131B7841FA03F31AB207F138031A3B1A80002307F5A25202F1160213703AE007F5A25303F115031B78322202FB03F31A1DCC
:4038000007F5A25303F117031B7807F5A25101F11301097801FB03F31A4407F5A25303F113031B781A4407F5A25303F116031B78D31A5A1E07F5A25303F11603197807F1C7
:4038400038031A3B0B44197807F15803995407F5A25303F116031B78013307F5A25202F11602137007F5A25303F116031A7807F5A25303F113031B789A42B8D300F073BFAE
:4038800007F5A25303F10F031A7880491346DB009B1A1B010B44E433196807F5A25303F10F031A7878481346DB009B1A1B01034403F588731B781846744A03465B000344A8
:4038C0001B01134403F295131B7841FA03F207F118031A60002307F5A25202F1160213702CE007F5A25303F115031B78322202FB03F31A1D07F5A25303F113031B781A44C1
:4039000007F5A25303F116031B78D31A013B07F5A25202F11602127807F118010A44117807F15802D15407F5A25303F116031B78013307F5A25202F11602137007F5A253B5
:4039400003F116031A7807F5A25303F113031B789A42C6D307F5A25303F10F031A784B491346DB009B1A1B010B44E833196807F5A25303F10F031A7843481346DB009B1A9B
:403980001B01034403F588731B7818463F4A03465B0003441B01134403F295131B7841FA03F207F118031A60002307F5A25202F11602137032E007F5A25303F115031B78A9
:4039C000322202FB03F31A1D07F5A25303F113031B781A4407F5A25303F113031B781A4407F5A25303F116031B78D31A013B07F5A25202F11602127807F118010A4411784A
:403A000007F15802D15407F5A25303F116031B78013307F5A25202F11602137007F5A25303F116031A7807F5A25303F113031B789A42C0D300F097BE144BD3F8A01207F522
:403A4000A25303F10F031A780F481346DB009B1A1B01034403F588731B7818460B4A03465B0003441B01134403F295131B7841FA03F207F118031A60002307F5A25202F18C
:403A80001602137031E000BF649BFF1FC496FF1F07F5A25303F115031B78322202FB03F31A1D07F5A25303F113031B781A4407F5A25303F116031B78D31A013B07F5A25262
:403AC00002F11602127807F118010A44117807F15802D15407F5A25303F116031B78013307F5A25202F11602137007F5A25303F116031A7807F5A25303F113031B789A4295
:403B0000C6D300F030BE07F5A25303F10E031A78AA491346DB009B1A1B010B4403F20F131B78032B00F0268107F5A25303F10E031A78A2491346DB009B1A1B010B44B03326
:403B40001B68184619F0A4FC03464FF08F41184619F0A6FD03461A4607F13803183B1A60002307F5A25202F1170213702DE007F5A25303F115031B78322202FB03F31A1DF3
:403B800007F5A25303F113031B781A4407F5A25303F117031B78D31A5A1E07F5A25303F11703197807F13803183B0B44197807F15803995407F5A25303F117031B78013326
:403BC00007F5A25202F11702137007F5A25303F117031A7807F5A25303F113031B789A42C5D307F5A25303F10E031A7873491346DB009B1A1B010B44B4331B68184619F04A
:403C000047FC03464FF08F41184619F049FD03461A4607F13803183B1A60002307F5A25202F11702137033E007F5A25303F115031B78322202FB03F31A1D07F5A25303F1EB
:403C400013031B781A4407F5A25303F113031B781A4407F5A25303F117031B78D31A5A1E07F5A25303F11703197807F13803183B0B44197807F15803995407F5A25303F13F
:403C800017031B78013307F5A25202F11702137007F5A25303F117031A7807F5A25303F113031B789A42BFD307F5A25303F10E031A7842491346DB009B1A1B010B44B833C5
:403CC0001B68184619F0E4FB03464FF08F41184619F0E6FC03461A4607F13803183B1A60002307F5A25202F11702137034E007F5A25303F115031B78322202FB03F31A1DED
:403D000007F5A25303F113031B785B001A4407F5A25303F113031B781A4407F5A25303F117031B78D31A5A1E07F5A25303F11703197807F13803183B0B44197807F1580310
:403D4000995407F5A25303F117031B78013307F5A25202F11702137007F5A25303F117031A7807F5A25303F113031B789A42BED300F0F9BC07F5A25303F10E031A780F4900
:403D80001346DB009B1A1B010B44C8331B68184619F07EFB03464FF08F41184619F080FC03461A4607F13803183B1A60002307F5A25202F11702137030E000BFC496FF1F84
:403DC00007F5A25303F115031B78322202FB03F31A1D07F5A25303F113031B781A4407F5A25303F117031B78D31A5A1E07F5A25303F11703197807F13803183B0B441978DC
:403E000007F15803995407F5A25303F117031B78013307F5A25202F11702137007F5A25303F117031A7807F5A25303F113031B789A42C5D307F5A25303F10E031A78AA49EF
:403E40001346DB009B1A1B010B44CC331B68184619F01EFB03464FF08F41184619F020FC03461A4607F13803183B1A60002307F5A25202F11702137033E007F5A25303F1CE
:403E800015031B78322202FB03F31A1D07F5A25303F113031B781A4407F5A25303F113031B781A4407F5A25303F117031B78D31A5A1E07F5A25303F11703197807F1380347
:403EC000183B0B44197807F15803995407F5A25303F117031B78013307F5A25202F11702137007F5A25303F117031A7807F5A25303F113031B789A42BFD307F5A25303F198
:403F00000E031A7878491346DB009B1A1B010B44D0331B68184619F0BBFA03464FF08F41184619F0BDFB03461A4607F13803183B1A60002307F5A25202F11702137034E051
:403F400007F5A25303F115031B78322202FB03F31A1D07F5A25303F113031B785B001A4407F5A25303F113031B781A4407F5A25303F117031B78D31A5A1E07F5A25303F124
:403F80001703197807F13803183B0B44197807F15803995407F5A25303F117031B78013307F5A25202F11702137007F5A25303F117031A7807F5A25303F113031B789A4270
:403FC000BED3D0E307F5A25303F10E031A7846491346DB009B1A1B010B4403F20F131B78032B00F0288107F5A25303F10E031A783D491346DB009B1A1B010B44BC331B68CD
:40400000184619F045FA03464FF08F41184619F047FB03461A4607F13803183B1A60002307F5A25202F1170213702DE007F5A25303F115031B78322202FB03F31A1D07F577
:40404000A25303F113031B781A4407F5A25303F117031B78D31A5A1E07F5A25303F11703197807F13803183B0B44197807F15803995407F5A25303F117031B78013307F561
:40408000A25202F11702137007F5A25303F117031A7807F5A25303F113031B789A42C5D307F5A25303F10E031A780F491346DB009B1A1B010B44C0331B68184619F0E8F9F8
:4040C00003464FF08F41184619F0EAFA03461A4607F13803183B1A60002307F5A25202F11702137036E000BFC496FF1F07F5A25303F115031B78322202FB03F31A1D07F57B
:40410000A25303F113031B781A4407F5A25303F113031B781A4407F5A25303F117031B78D31A5A1E07F5A25303F11703197807F13803183B0B44197807F15803995407F57A
:40414000A25303F117031B78013307F5A25202F11702137007F5A25303F117031A7807F5A25303F113031B789A42BFD307F5A25303F10E031A78C2491346DB009B1A1B01D1
:404180000B44C4331B68184619F082F903464FF08F41184619F084FA03461A4607F13803183B1A60002307F5A25202F11702137034E007F5A25303F115031B78322202FBD7
:4041C00003F31A1D07F5A25303F113031B785B001A4407F5A25303F113031B781A4407F5A25303F117031B78D31A5A1E07F5A25303F11703197807F13803183B0B44197872
:4042000007F15803995407F5A25303F117031B78013307F5A25202F11702137007F5A25303F117031A7807F5A25303F113031B789A42BED397E207F5A25303F10E031A786C
:404240008F491346DB009B1A1B010B44D4331B68184619F01DF903464FF08F41184619F01FFA03461A4607F13803183B1A60002307F5A25202F1170213702DE007F5A253EA
:4042800003F115031B78322202FB03F31A1D07F5A25303F113031B781A4407F5A25303F117031B78D31A5A1E07F5A25303F11703197807F13803183B0B44197807F15803B5
:4042C000995407F5A25303F117031B78013307F5A25202F11702137007F5A25303F117031A7807F5A25303F113031B789A42C5D307F5A25303F10E031A7861491346DB0093
:404300009B1A1B010B44D8331B68184619F0C0F803464FF08F41184619F0C2F903461A4607F13803183B1A60002307F5A25202F11702137033E007F5A25303F115031B7848
:40434000322202FB03F31A1D07F5A25303F113031B781A4407F5A25303F113031B781A4407F5A25303F117031B78D31A5A1E07F5A25303F11703197807F13803183B0B448B
:40438000197807F15803995407F5A25303F117031B78013307F5A25202F11702137007F5A25303F117031A7807F5A25303F113031B789A42BFD307F5A25303F10E031A78D2
:4043C0002F491346DB009B1A1B010B44DC331B68184619F05DF803464FF08F41184619F05FF903461A4607F13803183B1A60002307F5A25202F11702137034E007F5A2533C
:4044000003F115031B78322202FB03F31A1D07F5A25303F113031B785B001A4407F5A25303F113031B781A4407F5A25303F117031B78D31A5A1E07F5A25303F117031978A5
:4044400007F13803183B0B44197807F15803995407F5A25303F117031B78013307F5A25202F11702137007F5A25303F117031A7807F5A25303F113031B789A42BED372E172
:40448000C496FF1F07F5A25303F10E031A78B3491346DB009B1A1B010B4403F588731B78184607F5A25303F117031A78AC4903465B0003449B001344663351F8231007F554
:4044C000A25303F10E031A78A4481346DB009B1A1B01034403F588731B781C4607F5A25303F117031A789E4823465B0023441B010344134403F295131B7841FA03F31AB287
:4045000007F138031A3B1A80002307F5A25202F1160213703AE007F5A25303F115031B78322202FB03F31A1D07F5A25303F117031B7807F5A25101F11301097801FB03F396
:404540001A4407F5A25303F113031B781A4407F5A25303F116031B78D31A5A1E07F5A25303F11603197807F138031A3B0B44197807F15803995407F5A25303F116031B7833
:40458000013307F5A25202F11602137007F5A25303F116031A7807F5A25303F113031B789A42B8D3DFE007F5A25303F10E031A786B491346DB009B1A1B010B44E4331968DD
:4045C00007F5A25303F10E031A7864481346DB009B1A1B01034403F588731B781846604A03465B0003441B01134403F295131B7841FA03F207F118031A60002307F5A2524F
:4046000002F1160213702CE007F5A25303F115031B78322202FB03F31A1D07F5A25303F113031B781A4407F5A25303F116031B78D31A013B07F5A25202F11602127807F1AF
:4046400018010A44117807F15802D15407F5A25303F116031B78013307F5A25202F11602137007F5A25303F116031A7807F5A25303F113031B789A42C6D307F5A25303F118
:404680000E031A7836491346DB009B1A1B010B44E833196807F5A25303F10E031A782F481346DB009B1A1B01034403F588731B7818462B4A03465B0003441B01134403F2F1
:4046C00095131B7841FA03F207F118031A60002307F5A25202F11602137032E007F5A25303F115031B78322202FB03F31A1D07F5A25303F113031B781A4407F5A25303F130
:4047000013031B781A4407F5A25303F116031B78D31A013B07F5A25202F11602127807F118010A44117807F15802D15407F5A25303F116031B78013307F5A25202F1160214
:40474000137007F5A25303F116031A7807F5A25303F113031B789A42C0D304E0649BFF1FC496FF1F00BF07F5A25303F115031B789B0007F5A35202F11402126813441A6879
:4047800007F13803143B1146184619F0C1FE07F13803143B184619F0F8FE034607F5A25202F11202137007F5A25303F115031A7807F11803103B1B6813441B78002B40F0A3
:4047C0007D8307F5A25303F114031B7807F5A35202F11002126813441B78013B092B00F25F8301A252F823F0114800008D490000614A0000B54A0000194B0000754B00008F
:40480000914C0000194D0000AD4D0000254E000007F5A25303F108031B681B78062B00F23A8301A252F823F045480000694800008F480000BD480000E9480000134900003B
:404840004749000007F13803143B184619F09DFE03461A4607F13803143B1344D84A1068186012791A7190E007F13803143B184619F08BFE03461A4607F13803143B134416
:40488000D0491A460B4603CB106051607DE007F13803143B184619F078FE03461A4607F13803143B1344C84A1D4614460FCC28606960AA60EB6023882B8266E007F13803E0
:4048C000143B184619F061FE03461A4607F13803143B1344BD4A1C46134607CB20606160A2601B88A38150E007F13803143B184619F04BFE03461A4607F13803143B13449F
:40490000B3491A460B4603CB106051601B8813813BE007F13803143B184619F036FE03461A4607F13803143B1344AA4A1D4614460FCC28606960AA60EB602388A2782B8246
:404940001346AB7421E007F13803143B184619F01CFE03461A4607F13803143B13449E4A14469E4604F1200C754626460FCE28606960AA60EB6010340EF1100E6445F3D17A
:40498000724623461B88138000BF84E207F5A25303F108031B681B78032B00F27E8201A252F823F0B5490000DF490000034A00002D4A000007F13803143B184619F0E5FDA0
:4049C00003461A4607F13803143B134483491A460B4603CB106051601B8813813FE007F13803143B184619F0D0FD03461A4607F13803143B13447A4A1068186012791A7171
:404A00002DE007F13803143B184619F0BEFD03461A4607F13803143B134472491A460B4603CB106051601B78137218E007F13803143B184619F0A9FD03461A4607F138036D
:404A4000143B1344684A1D4614460FCC28606960AA60EB6020682861A388AB8200BF1CE207F5A25303F108031B681B78002B11D007F13803143B184619F087FD03461A4652
:404A800007F13803143B1344584A1068186012791A7105E207F13803143B184619F075FD03461A4607F13803143B1344504A10681860F5E107F5A25303F108031B681B784B
:404AC000002B02D0012B14D0EAE107F13803143B184619F05AFD03461A4607F13803143B1344444A106818609188927999809A7111E007F13803143B184619F046FD0346F0
:404B00001A4607F13803143B13443B4A1068186092889A8000BFC3E107F5A25303F108031B681B78002B02D0012B12D0B8E107F13803143B184619F028FD03461A4607F1D7
:404B40003803143B13442D4A1068186012791A710FE007F13803143B184619F016FD03461A4607F13803143B1344254A1068186000BF95E107F5A25303F108031B681B78D0
:404B8000032B00F28C8101A252F823F09D4B0000094C0000354C0000634C000007F13803143B184619F0F1FC03461A4607F13803143B1344134A1068186092889A8066E03C
:404BC000D0030200D8030200E0030200F403020004040200100402002404020048040200540402005C0402006804020080040200880402009004020098040200A004020075
:404C0000A8040200B004020007F13803143B184619F0BBFC03461A4607F13803143B1344AC4A1C46134607CB20606160A2601B88A3812CE007F13803143B184619F0A5FCCB
:404C400003461A4607F13803143B1344A24A1D4614460FCC28606960AA60EB6023882B8215E007F13803143B184619F08EFC03461A4607F13803143B1344984A1C461346A9
:404C800007CB20606160A2601B78237300BF06E107F5A25303F108031B681B78012B16D0022B26D0002B00D035E007F13803143B184619F06AFC03461A4607F13803143B4B
:404CC0001344874A1068186092889A8023E007F13803143B184619F058FC03461A4607F13803143B13447F4A1068186012791A7111E007F13803143B184619F046FC034672
:404D00001A4607F13803143B1344774A1068186092889A8000BFC3E007F5A25303F108031B681B78012B1AD0022B2CD0002B00D0B6E007F13803143B184619F026FC0346C9
:404D40001A4607F13803143B1344684A1C46134607CB20606160A2601B88A38125E007F13803143B184619F010FC03461A4607F13803143B13445E4A106818609188927979
:404D800099809A7111E007F13803143B184619F0FCFB03461A4607F13803143B1344554A1068186092889A8000BF79E007F5A25303F108031B681B78002B02D0012B17D08B
:404DC0006EE007F13803143B184619F0DEFB03461A4607F13803143B1344474A1D4614460FCC28606960AA60EB602068286118E007F13803143B184619F0C7FB03461A46F5
:404E000007F13803143B13443C4A1D4614460FCC28606960AA60EB6020682861A388AB8200BF3DE007F5A25303F108031B681B78002B02D0012B16D032E007F13803143BE7
:404E4000184619F0A2FB03461A4607F13803143B13442B4A1C46134607CB20606160A2601B88A38116E007F13803143B184619F08CFB03461A4607F13803143B1344214A4D
:404E80001D4614460FCC28606960AA60EB6023882B8200BF04E000BF02E000BF00E000BF07F13803143B184619F06FFB0346DBB2013307F5A25202F11202137007F5A253F2
:404EC00003F112031B7807F5A25202F1170213705FE000BFB8040200C8040200DC040200B0040200EC040200F4040200FC0402000C050200140502001C05020034050200FB
:404F00004C0502005C05020007F5A25303F115031B78322202FB03F31A1D07F5A25303F11303197807F5A25303F11503187807F11803143B1B6803441B7803FB01F31A4485
:404F400007F5A25303F112031B781A4407F5A25303F117031B78D21A07F5A25303F11203197807F5A25303F117031B78C91A07F13803143B595C07F15803995407F5A25360
:404F800003F117031B78013B07F5A25202F11702137007F5A25303F117031B78002BB3D107F5A25303F115031A7807F11803103B1B6813441B78002B3BD107F5A25303F1DE
:404FC00015031B78322202FB03F31A1D07F5A25303F11303197807F5A25303F11503187807F11803143B1B6803441B7803FB01F31A4407F5A25303F112031B78134407F580
:40500000A25202F11402127807F5A35101F1100109680A44117807F15802D15407F5A25303F114031B78013307F5A25202F11402137007F5A25303F115031A7807F1180356
:40504000103B1B6813441B78002B31D107F5A25303F115031B78322202FB03F31A1D07F5A25303F11303197807F5A25303F11503187807F11803143B1B6803441B7803FB67
:4050800001F31A4407F5A25303F112031B7813449A1C07F5A25303F11503197807F11803183B1B680B44197807F15803995430E007F5A25303F115031B78322202FB03F386
:4050C0001A1D07F5A25303F11303197807F5A25303F11503187807F11803143B1B6803441B7803FB01F31A4407F5A25303F112031B7813445A1C07F5A25303F11503197869
:4051000007F11803183B1B680B44197807F15803995407F5A25303F115031B78013307F5A25202F11502137007F5A25303F115031B78462B7DF682A9002307F5A25202F180
:405140001602137070E007F5A25303F116031B789B0007F5A35202F11C02126813441B68184619F012FA034607F5A25202F11202137007F5A25303F112031B7807F5A2520F
:4051800002F1170213703DE007F5A25303F116031B78962202FB03F303F55E6207F5A25303F112031B781A4407F5A25303F117031B78D31A07F5A25202F1160212789200CE
:4051C00007F5A35101F11C0109680A44126807F5A25101F11201087807F5A25101F117010978411A0A44117807F15802D15407F5A25303F117031B78013B07F5A25202F12F
:405200001702137007F5A25303F117031B78002BBAD107F5A25303F116031B78013307F5A25202F11602137007F5A25303F116031B78092B87D907F5A25303F110031B8887
:405240005C1E07F5A25303F110031B88DBB2013BDAB207F158031146184607F0B1FA03461A4607F158031A5507F5A25303F110031A8807F158031146184607F01DFA00BF40
:4052800007F5A2571C37BD46F0BD00BFB0B5ADF5976D04AF0246BB1D1A80002387F89D34012387F89C34054BC7F8A034BB1D1B88002B07D0024BC7F8A03403E0C496FF1F3E
:4052C000649BFF1FD7F8A03403F1A00207F55B731A6097F89D241346DB009B1A1B01B033D7F8A0241A4407F55B735A6097F89D241346DB009B1A1B01B833D7F8A02413443D
:405300001A1D07F55B739A6097F89D241346DB009B1A1B01E033D7F8A0241A4407F55B73DA6097F89D241346DB009B1A1B0103F58473D7F8A02413449A1D07F55B731A61EB
:4053400097F89D241346DB009B1A1B0103F58473D7F8A0241344DA1D07F55B735A6197F89D24D7F8A0141346DB009B1A1B010B4403F588731B781A4613465B0013441B014F
:4053800003F5C873D7F8A02413445A1D07F55B739A6197F89D24D7F8A0141346DB009B1A1B010B4403F588731B781A4613465B0013441B0103F5CC73D7F8A0241A4407F53C
:4053C0005B73DA6197F89D24D7F8A0141346DB009B1A1B010B4403F588731B781A4613465B0013441B0103F5D073D7F8A02413441A1D07F55B731A6297F89D241346DB004A
:405400009B1A1B01E033D7F8A0241344DA1C07F55B735A6297F89D241346DB009B1A1B01E033D7F8A02413441A1D07F55B739A6297F89D241346DB009B1A1B01E833D7F894
:40544000A02413441A1D07F55B73DA6297F89D241346DB009B1A1B0103F58473D7F8A02413441A1D07F55B731A63D7F8A03403F5F87207F55B735A63D7F8A03403F2FD12F5
:4054800007F55B739A63D7F8A03403F5FA7207F55B73DA63D7F8A03403F5FE7207F55B731A6497F89D24D7F8A0141346DB009B1A1B010B4403F588731B781A4613465B0003
:4054C00013441B0103F5D873D7F8A0241A4407F55B735A6497F89D24D7F8A0141346DB009B1A1B010B4403F588731B781A4613465B0013441B0103F5D873D7F8A02413441C
:405500001A1D07F55B739A6497F89D241346DB009B1A1B01E033D7F8A02413445A1C07F55B73DA6497F89D241346DB009B1A1B01F033D7F8A02413441A1D07F55B731A65BA
:40554000D7F8A03403F1A10207F55B735A65D7F8A03403F5287207F55B739A65D7F8A03403F5297207F55B73DA65D7F8A03403F52A7207F55B731A66D7F8A03403F52B7272
:4055800007F55B735A66D7F8A03403F5FF7207F55B739A66D7F8A03403F1A70207F55B73DA66D7F8A03403F5007207F55B731A67D7F8A03403F2262207F55B735A67D7F8AF
:4055C000A03403F1A80207F55B739A67D7F8A03403F5087207F55B73DA67D7F8A03403F2012207F55B73C3F88020D7F8A03403F2022207F55B73C3F88420D7F8A03403F1F2
:40560000AB0207F55B73C3F88820D7F8A03493F8AB3012335B01D7F8A0241A4407F55B73C3F88C2097F89D241346DB009B1A1B0103F58873D7F8A0241A4407F55B73C3F806
:40564000902097F89D241346DB009B1A1B01E033D7F8A02413449A1C07F55B73C3F8942097F89D241346DB009B1A1B0103F58873D7F8A02413445A1C07F55B73C3F8982054
:4056800097F89D241346DB009B1A1B0103F58873D7F8A02413449A1C07F55B73C3F89C2097F89D24D7F8A0141346DB009B1A1B010B4403F588731B781A4613465B001344A9
:4056C0001B0103F5D873D7F8A02413445A1C07F55B73C3F8A02097F89D24D7F8A0141346DB009B1A1B010B4403F588731B781A4613465B0013441B0103F5D873D7F8A0249C
:4057000013445A1D07F55B73C3F8A420D7F8A03403F1A90207F55B73C3F8A82097F89C241346DB009B1A1B01B033D7F8A0241A4407F55B73C3F8AC2097F89C241346DB00C7
:405740009B1A1B01B833D7F8A02413441A1D07F55B73C3F8B02097F89C241346DB009B1A1B01E033D7F8A0241A4407F55B73C3F8B42097F89C241346DB009B1A1B0103F5FA
:405780008473D7F8A02413449A1D07F55B73C3F8B82097F89C241346DB009B1A1B0103F58473D7F8A0241344DA1D07F55B73C3F8BC2097F89C24D7F8A0141346DB009B1AB4
:4057C0001B010B4403F588731B781A4613465B0013441B0103F5C873D7F8A02413445A1D07F55B73C3F8C02097F89C24D7F8A0141346DB009B1A1B010B4403F588731B788C
:405800001A4613465B0013441B0103F5CC73D7F8A0241A4407F55B73C3F8C42097F89C24D7F8A0141346DB009B1A1B010B4403F588731B781A4613465B0013441B0103F525
:40584000D073D7F8A02413441A1D07F55B73C3F8C82097F89C241346DB009B1A1B01E033D7F8A0241344DA1C07F55B73C3F8CC2097F89C241346DB009B1A1B01E033D7F869
:40588000A02413441A1D07F55B73C3F8D02097F89C241346DB009B1A1B01E833D7F8A02413441A1D07F55B73C3F8D42097F89C241346DB009B1A1B0103F58473D7F8A02442
:4058C00013441A1D07F55B73C3F8D82097F89C24D7F8A0141346DB009B1A1B010B4403F588731B781A4613465B0013441B0103F5D873D7F8A0241A4407F55B73C3F8DC20B5
:4059000097F89C24D7F8A0141346DB009B1A1B010B4403F588731B781A4613465B0013441B0103F5D873D7F8A02413441A1D07F55B73C3F8E02097F89C241346DB009B1A13
:405940001B01E033D7F8A02413445A1C07F55B73C3F8E42097F89C241346DB009B1A1B01F033D7F8A02413441A1D07F55B73C3F8E82097F89C241346DB009B1A1B0103F59E
:405980008873D7F8A0241A4407F55B73C3F8EC2097F89C241346DB009B1A1B01E033D7F8A02413449A1C07F55B73C3F8F02097F89C241346DB009B1A1B0103F58873D7F8B8
:4059C000A02413445A1C07F55B73C3F8F42097F89C241346DB009B1A1B0103F58873D7F8A02413449A1C07F55B73C3F8F82097F89C24D7F8A0141346DB009B1A1B010B44D3
:405A000003F588731B781A4613465B0013441B0103F5D873D7F8A02413445A1C07F55B73C3F8FC2097F89C24D7F8A0141346DB009B1A1B010B4403F588731B781A461346B0
:405A40005B0013441B0103F5D873D7F8A02413445A1D07F55B73C3F80021D7F8A03403F5C87207F55B73C3F80421D7F8A03403F5E07207F55B73C3F80821D7F8A03403F25C
:405A8000272207F55B73C3F80C21D7F8A03403F50A7207F55B73C3F81021D7F8A03403F22E2207F55B73C3F81421D7F8A03403F1AC0207F55B73C3F8182107F54973F34A84
:405AC0001846114647231A4617F04EFF07F5377301221A7007F5377303225A7007F5377303229A7007F537730122DA7007F5377301221A7107F5377301225A7107F5377375
:405B000003229A7107F537730322DA7107F5377303221A7207F5377301225A7207F5377302229A7207F537730222DA7207F5377301221A7307F5377302225A7307F53773B4
:405B400001229A7307F537730222DA7307F5377301221A7407F5377301225A7407F5377301229A7407F537730122DA7407F5377306221A7507F5377303225A7507F5377365
:405B800001229A7507F537730122DA7507F5377301221A7607F5377301225A7607F5377301229A7607F537730122DA7607F5377301221A7707F5377301225A7707F537731D
:405BC00001229A7707F537730622DA7707F53773012283F8202007F53773052283F8212007F53773012283F8222007F53773062283F8232007F53773012283F8242007F5AF
:405C00003773012283F8252007F53773012283F8262007F53773012283F8272007F53773032283F8282007F53773032283F8292007F53773012283F82A2007F5377303224C
:405C400083F82B2007F53773032283F82C2007F53773012283F82D2007F53773012283F82E2007F53773012283F82F2007F53773032283F8302007F53773032283F83120E9
:405C800007F53773032283F8322007F53773012283F8332007F53773022283F8342007F53773022283F8352007F53773012283F8362007F53773012283F8372007F53773A7
:405CC000012283F8382007F53773012283F8392007F53773062283F83A2007F53773012283F83B2007F53773012283F83C2007F53773012283F83D2007F53773012283F84A
:405D00003E2007F53773032283F83F2007F53773032283F840205E4B1A7807F5377383F841205B4B5A7807F5377383F8422007F53773012283F8432007F53773062283F812
:405D4000442007F53773062283F8452007F53773012283F8462007F5257300221A7097F89D340A33DAB207F525735A7097F89D340A33DAB207F525739A7097F89D340A333C
:405D8000DAB207F52573DA7097F89D340A33DAB207F525731A7197F89D340A33DAB207F525735A7197F89D24D7F8A0141346DB009B1A1B010B4403F588731B781433DAB229
:405DC00007F525739A7197F89D24D7F8A0141346DB009B1A1B010B4403F588731B781433DAB207F52573DA7197F89D24D7F8A0141346DB009B1A1B010B4403F588731B78F8
:405E00001433DAB207F525731A7297F89D340A33DAB207F525735A7297F89D340A33DAB207F525739A7297F89D340A33DAB207F52573DA7297F89D340A33DAB207F5257357
:405E40001A7307F525731E225A7307F525731E229A7307F525731E22DA7307F525731E221A7497F89D24D7F8A0141346DB009B1A1B010B4403F588731B781433DAB207F514
:405E800025735A7497F89D2404E000BF30080200E095FF1FD7F8A0141346DB009B1A1B010B4403F588731B781433DAB207F525739A7497F89D340A33DAB207F52573DA74DF
:405EC00097F89D340A33DAB207F525731A7507F5257300225A7507F5257346229A7507F525734622DA7507F5257346221A7607F5257346225A7607F525731E229A7607F543
:405F000025730022DA7607F5257328221A7707F5257332225A7707F5257300229A7707F525733222DA7707F52573282283F8202007F52573282283F8212007F52573002246
:405F400083F82220D7F8A03493F8AB303C33DAB207F5257383F8232097F89D340A33DAB207F5257383F8242097F89D340A33DAB207F5257383F8252097F89D340A33DAB2EC
:405F800007F5257383F8262097F89D340A33DAB207F5257383F8272097F89D24D7F8A0141346DB009B1A1B010B4403F588731B781433DAB207F5257383F8282097F89D24E6
:405FC000D7F8A0141346DB009B1A1B010B4403F588731B781433DAB207F5257383F8292007F52573002283F82A2097F89C340A33DAB207F5257383F82B2097F89C340A3380
:40600000DAB207F5257383F82C2097F89C340A33DAB207F5257383F82D2097F89C340A33DAB207F5257383F82E2097F89C340A33DAB207F5257383F82F2097F89C24D7F8CC
:40604000A0141346DB009B1A1B010B4403F588731B781433DAB207F5257383F8302097F89C24D7F8A0141346DB009B1A1B010B4403F588731B781433DAB207F5257383F8D2
:40608000312097F89C24D7F8A0141346DB009B1A1B010B4403F588731B781433DAB207F5257383F8322097F89C340A33DAB207F5257383F8332097F89C340A33DAB207F501
:4060C000257383F8342097F89C340A33DAB207F5257383F8352097F89C340A33DAB207F5257383F8362097F89C24D7F8A0141346DB009B1A1B010B4403F588731B7814332D
:40610000DAB207F5257383F8372097F89C24D7F8A0141346DB009B1A1B010B4403F588731B781433DAB207F5257383F8382097F89C340A33DAB207F5257383F8392097F868
:406140009C340A33DAB207F5257383F83A2097F89C340A33DAB207F5257383F83B2097F89C340A33DAB207F5257383F83C2097F89C340A33DAB207F5257383F83D2097F8D5
:406180009C340A33DAB207F5257383F83E2097F89C24D7F8A0141346DB009B1A1B010B4403F588731B781433DAB207F5257383F83F2097F89C24D7F8A0141346DB009B1A31
:4061C0001B010B4403F588731B781433DAB207F5257383F8402007F52573142283F8412007F52573152283F8422007F52573322283F8432007F52573322283F8442007F595
:406200002573322283F8452007F52573002283F8462007F5BC73CA4A184611464FF48E731A4617F0A1FB07F5807300221A60043372220021184617F0A2FB07F580706423D4
:406240000A22C04918F064F907F1D803BE4A1A6007F1D803BD4A5A6007F1D803BC4A9A6007F1D803BB4ADA6007F1D803BA4A1A6107F1D803B94A5A6107F1D80307F5807212
:406280009A6107F1D803B64ADA6107F1D803B54A1A6207F1D803B44A5A6207F1BC03B34A1C46154628686968AA68EB680FC428696969AA6907C407F1B003AD4A10685168DC
:4062C00003C3127A1A7007F19C03AA4A1C46154628686968AA68EB680FC42B8A2380232387F89B34002387F8A634002387F8A73421E097F8A63407F1B002D35C1A4697F8CA
:40630000A73401339A420BD197F8A73407F154020121D15497F8A634013387F8A63405E097F8A73407F154020021D15497F8A734013387F8A73497F8A734462BD9D9002316
:4063400087F8A634002387F8A73421E097F8A63407F19C02D35C1A4697F8A73401339A420BD197F8A73407F10C020121D15497F8A634013387F8A63405E097F8A73407F16E
:406380000C020021D15497F8A734013387F8A73497F8A734462BD9D9BB1D1B88002B17D107F5257407F5377207F5497107F55B7007F1D803039307F15403029307F5BC7347
:4063C000019307F1BC0300932346FBF7C3FFD9E2BB1D1B88DBB2013B87F89A3497F89A3407F54972D35C092B22D801A252F823F019640000196400001964000021640000E9
:40640000216400002964000029640000296400003164000019640000012387F8A53407E0022387F8A53403E0042387F8A53400BF97F89A3407F10C02D35C002B40F0368278
:4064400097F89A3407F54972D35C092B00F2368201A252F823F000BF816400003765000081640000C76500005D660000F16600008567000019680000BD680000CD640000CD
:40648000002387F8A73417E097F89A2407F55B7353F8223097F8A72497F8A51401FB02F2134497F8A724033233498A5C1A7097F8A734013387F8A73497F89A3407F5377256
:4064C000D35C97F8A7249A42DED3F8E1002387F8A73417E097F89A2407F55B7353F8223097F8A72497F8A51401FB02F2134497F8A724033220498A5C1A7097F8A734013396
:4065000087F8A73497F89A3407F53772D35C97F8A7249A42DED397F89A2407F55B7353F8223097F8A72497F8A51401FB02F2134400221A70C3E1002387F8A73439E000BFA7
:40654000A00F020070050200E405020060060200A0060200CC060200E40602000C07020068070200A8070200F0070200BC100200D8100200E4100200C894FF1F97F89A2493
:4065800007F55B7353F8223097F8A72497F8A51401FB02F2134497F8A7240332C6490A4492F90020D2B21A7097F8A734013387F8A73497F89A3407F53772D35C97F8A72463
:4065C0009A42DBD37BE1002387F8A7343CE097F8A73497F8A52402FB03F30333B64A1344B3F90030A7F89834002387F8A63420E097F89A2407F55B7353F8222097F8A73409
:4066000097F8A51401FB03F3184697F8A51497F8A634CB1A0344013B134497F8A62407F593610A4412781A7097F8A634013387F8A63497F8A62497F8A5349A42D8D397F8DA
:40664000A734013387F8A73497F89A3407F53772D35C97F8A7249A42B9D330E1002387F8A7343BE097F8A73497F8A52402FB03F30333914A13441B88A7F89634002387F84A
:40668000A63420E097F89A2407F55B7353F8222097F8A73497F8A51401FB03F3184697F8A51497F8A634CB1A0344013B134497F8A62407F296410A4412781A7097F8A634F6
:4066C000013387F8A63497F8A62497F8A5349A42D8D397F8A734013387F8A73497F89A3407F53772D35C97F8A7249A42BAD3E6E0002387F8A7343BE097F8A73497F8A524B9
:4067000002FB03F303336C4A13441B68C7F89034002387F8A63420E097F89A2407F55B7353F8222097F8A73497F8A51401FB03F3184697F8A51497F8A634CB1A0344013BE2
:40674000134497F8A62407F592610A4412781A7097F8A634013387F8A63497F8A62497F8A5349A42D8D397F8A734013387F8A73497F89A3407F53772D35C97F8A7249A427B
:40678000BAD39CE0002387F8A7343BE097F8A73497F8A52402FB03F30333474A13441B68C7F88C34002387F8A63420E097F89A2407F55B7353F8222097F8A73497F8A51491
:4067C00001FB03F3184697F8A51497F8A634CB1A0344013B134497F8A62407F28C410A4412781A7097F8A634013387F8A63497F8A62497F8A5349A42D8D397F8A73401337C
:4068000087F8A73497F89A3407F53772D35C97F8A7249A42BAD352E0002387F8A7343BE097F8A73497F8A52402FB03F30333224A13441B68C7F88834002387F8A63420E018
:4068400097F89A2407F55B7353F8222097F8A73497F8A51401FB03F3184697F8A51497F8A634CB1A0344013B134497F8A62407F591610A4412781A7097F8A634013387F83D
:40688000A63497F8A62497F8A5349A42D8D397F8A734013387F8A73497F89A3407F53772D35C97F8A7249A42BAD308E0BB1D1B88184600F06FF802E0C894FF1F00BF97F808
:4068C0009B349BB2BA1D12889A4211D0D7F8A03493F8AB305B0103F51273D7F8A024D018D7F8A03403F5F8731022194617F03CF897F89A3407F54972D35C002B42D100237B
:4069000087F89F34FF2387F89E3497F89F3407F54972D35C002B04D197F89E34013387F89E3497F89F34013387F89F3497F89F2497F89A349A42E8D997F89E3407F1BC0219
:40694000D35C052B1BD097F89E3407F1BC02D35C062B14D097F89E3407F1BC02D35C082B0DD097F89E3407F1BC02D35C092B06D097F89E3407F1BC02D35C0A2B02D1044B2F
:4069800001221A7000BF07F59567BD46B0BD00BFD581FF1FF0B587B000AF0346FB8000233B750123FB74FB88023B452B01F2EB8101A252F823F000BFD16A0000036D000022
:4069C000877D0000496F0000877D0000877D0000956F0000877D0000877D0000CD700000877D0000877D0000877D0000877D0000877D0000877D0000877D0000877D00006A
:406A0000877D0000877D0000877D0000CD7100002B720000877D0000877D0000877D000065720000877D0000877D0000E17300008D740000877D0000877D0000877D000023
:406A4000877D0000877D0000C7740000877D0000877D0000877D0000877D0000877D00000175000047770000877D000089790000877D0000877D0000D3790000877D00002D
:406A8000877D0000E97A0000877D0000877D0000877D0000877D0000877D0000877D0000877D0000E77B0000877D0000877D0000877D0000877D0000877D0000877D0000D9
:406AC000877D0000877D0000877D0000357C00003A7DAB491346DB009B1A1B010B4403F20F131B78032B00F08680A64B1B68FB600023BB750EE0BB7DC3F1030307F1080208
:406B00001344BA7D07F10C010A4412781A70BB7D0133BB75BB7D032BEDD93C7DBB684FF08F41184616F008FD0346184616F0CAFE0146954A2346DB001B1B1B011344B033D9
:406B40001960924B1B68FB600023BB750EE0BB7DC3F1030307F108021344BA7D07F10C010A4412781A70BB7D0133BB75BB7D032BEDD93C7DBB684FF08F41184616F0DCFCC8
:406B80000346184616F09EFE01467F4A2346DB001B1B1B011344B43319607D4B1B68FB600023BB750EE0BB7DC3F1030307F108021344BA7D07F10C010A4412781A70BB7D27
:406BC0000133BB75BB7D032BEDD93C7DBB684FF08F41184616F0B0FC0346184616F072FE0146694A2346DB001B1B1B011344B833196001F0D3B8634B1B68FB600023BB7547
:406C00000EE0BB7DC3F1030307F108021344BA7D07F10C010A4412781A70BB7D0133BB75BB7D032BEDD93C7DBB684FF08F41184616F082FC0346184616F044FE0146524A16
:406C40002346DB001B1B1B011344C83319604F4B1B68FB600023BB750EE0BB7DC3F1030307F108021344BA7D07F10C010A4412781A70BB7D0133BB75BB7D032BEDD93C7D90
:406C8000BB684FF08F41184616F056FC0346184616F018FE01463C4A2346DB001B1B1B011344CC3319603A4B1B68FB600023BB750EE0BB7DC3F1030307F108021344BA7DD1
:406CC00007F10C010A4412781A70BB7D0133BB75BB7D032BEDD93C7DBB684FF08F41184616F02AFC0346184616F0ECFD0146264A2346DB001B1B1B011344D033196001F049
:406D00004DB83A7D1E491346DB009B1A1B010B4403F20F131B78032B00F09080194B1B68FB600023BB750EE0BB7DC3F1030307F108021344BA7D07F10C010A4412781A7098
:406D4000BB7D0133BB75BB7D032BEDD93C7DBB684FF08F41184616F0EFFB0346184616F0B1FD0146084A2346DB001B1B1B011344BC331960054B1B68FB600023BB7518E050
:406D8000C496FF1FCB94FF1F649BFF1FCF94FF1FD394FF1FBB7DC3F1030307F108021344BA7D07F10C010A4412781A70BB7D0133BB75BB7D032BEDD93C7DBB684FF08F411F
:406DC000184616F0B9FB0346184616F07BFD0146B64A2346DB001B1B1B011344C0331960B34B1B68FB600023BB750EE0BB7DC3F1030307F108021344BA7D07F10C010A44C4
:406E000012781A70BB7D0133BB75BB7D032BEDD93C7DBB684FF08F41184616F08DFB0346184616F04FFD0146A04A2346DB001B1B1B011344C433196000F0B0BF9D4B1B684E
:406E4000FB600023BB750EE0BB7DC3F1030307F108021344BA7D07F10C010A4412781A70BB7D0133BB75BB7D032BEDD93C7DBB684FF08F41184616F05FFB0346184616F06F
:406E800021FD0146894A2346DB001B1B1B011344D4331960884B1B68FB600023BB750EE0BB7DC3F1030307F108021344BA7D07F10C010A4412781A70BB7D0133BB75BB7D7E
:406EC000032BEDD93C7DBB684FF08F41184616F033FB0346184616F0F5FC0146734A2346DB001B1B1B011344D8331960704B1B68FB600023BB750EE0BB7DC3F1030307F14A
:406F000008021344BA7D07F10C010A4412781A70BB7D0133BB75BB7D032BEDD93C7DBB684FF08F41184616F007FB0346184616F0C9FC01465D4A2346DB001B1B1B011344EC
:406F4000DC33196000F02ABF3A7D5C4BD87857491346DB009B1A1B010B4403F5877302461A70397D3A7D51481346DB009B1A1B01034403F588731B781846514A03465B00D5
:406F800003441B0113441A684E480B0103441A6000F004BF0023FB757FE03A7D43491346DB009B1A1B010B4403F588731B781C46FA7DFB7D5B0003334049CB5C1B0219B2F6
:406FC000FB7D02335B003D48C35C1BB20B431BB21846364923465B0023449B001344663341F823003A7D31491346DB009B1A1B010B4403F588731B781D46F97D3A7D2B4800
:407000001346DB009B1A1B01034403F588731B781C46FA7D254823465B0023449B001344663350F823003A7D204C1346DB009B1A1B01234403F588731B781E46FA7D1B4CC0
:4070400033465B0033441B012344134403F295131B7800FA03F215482B465B002B449B000B44663340F823203A7D10491346DB009B1A1B010B4403F588731B781846FA7D77
:407080000F4903465B0003441B010B441344143300221A70FB7D0133FB75FB7D022B7FF67CAF094B01221A7000F078BE649BFF1FD394FF1FCB94FF1FCF94FF1FC894FF1F36
:4070C0000896FF1FB499FF1FC096FF1F3A7DC14BDB781906BF4B1B791B041943BD4B5B791B020B43BB4989791943BB481346DB009B1A1B010344E43319603A7DB54BDB7914
:407100001906B44B1B7A1B041943B24B5B7A1B020B43B049897A1943AF481346DB009B1A1B010344E83319603A7D397DAA480B46DB005B1A1B010344E4331868397DA64C13
:407140000B46DB005B1A1B01234403F588731B781C46A14923465B0023441B010B4403F295131B7800FA03F19B481346DB009B1A1B010344E43319603A7D397D96480B460A
:40718000DB005B1A1B010344E8331868397D924C0B46DB005B1A1B01234403F588731B781C468D4923465B0023441B010B4403F295131B7800FA03F187481346DB009B1A9F
:4071C0001B010344E833196000F0E8BD814BDB781A06804B1B791B041A437E4B5B791B0213437C4A927913437B4AC2F8A0327A4BD3F8A0123A7D78481346DB009B1A1B01A3
:40720000034403F588731B781846734A03465B0003441B01134403F295131B7801FA03F36D4AC2F8A03200F0B9BD6A4BDB781A06684B1B791B041A43664B5B791B0213435B
