:400000000080002011000000A9020000A9020000044A08B51268044B1A6000F0ADF900F04BF900BFFA460040BC76004010B5054C237833B9044B13B10448AFF300800123AE
:40004000237010BD4881FF1F000000001C170000084B10B51BB108490848AFF300800848036803B910BD074B002BFBD0BDE81040184700BF000000004C81FF1F1C170000A2
:40008000C880FF1F0000000008B500F077FDFEE7F8B572B66D4E0024354604EB4403AA8856F813000134002101F02CFB0A2C05F10605F2D1664E674B96E803008022186073
:4000C0009980654806F1080101F0F6FA06F1840706F1E00E0025E43657F8043F13F0FF0C23F0FF0414D00CF1FF3C5FFA8CFC05EB0C0006EB400006EB45030330013313F828
:40010000012C13F8021B98421155F8D1013565447745E1D1514C41F251262278504F42F0020222703A784F4D42F002023A702A78A4F5863442F040022A70413C2278A7F5E8
:400140007E4742F01002484B2270513F04F66E5403CB3860796003CBC5F8720DC5F8761D93E8070003C4414922800B7805F58C6543F008030B703E4C3E4861232B70A7F604
:40018000C2673D4A332118250223218005704FF040243B7008210320384B217010701A783748384BD2B287F8A123A4F8221206801C784FF4F07004F001041E4600F0D0FF91
:4001C00001E0032C0DD033784FF4F07003F0010343EA440400F0C4FF013D04F00304F0D1FEE7294B294D2A4F2A484FF4807407221C8000211A704826274A022439702E70FE
:4002000019700470137800F5F820033043F00103812601242149137085F8F86704700B78A0F5F420DBB21E49A0F2967005F5C35503F007071B4C1B090770023A0B700E35EF
:4002400044260FCA2E7007C42380F8BD201700005C17000060520040001A01400350014013500140A04300407C1B0000224300408040004082400040004200400801004916
:40028000204200402542004004400040084000400640004001400040A2430040CF0100496F580040B043004008B501F0D9F903680C2B00D0FEE7FEE780B5134FF7B1134E0E
:4002C000002556F80C0C56F8084C56F8102C03463CB1043A52F8041F43F8041B191AA142F8D156F8040C1A4620B142F8045BD11A8842FAD1013F06F11006E2D101F0B6F9E5
:40030000FFF7C2FEFEE700BF01000000D81B00000E4B0F4A0F491A600B680F4A43F400730E480B600023032B94BF50F823100C490133302B42F8041FF5D10A4B0A49187856
:400340000A4A0B4B08701A60FFF7A2BE0CED00E00004FA0514ED00E0FC7FFF1F00000000A9020000BC760040C080FF1F0080FF1F08ED00E0004700BF134A137803F0C003A3
:40038000802B00D0704770B400231048104E114D1370017833782A780F4C120442EA032322780B4353EA026301D170BC7047017833782A782078120442EA03230B4343EA24
:4003C000006070BCFFF7D6BFFA460040C1FF0300C2FF0300C3FF0300C4FF0300F0B50002C0F57F3090F8C5E390F8C67390F8C92390F8CAC390F8CB1390F8CC3390F8D15336
:40040000C1B0012D69D0DBB21D06C9B290F8C53390F8C663FFB245EA01415FFA8EFED2B25FFA8CFC0A434EEA072E43EA062642EA0C220EF10107013602EB072736020022FC
:40044000B74200F2D13415460AD916F8013B591EC9B2FD29134498BF0125B742DAB2F4D190F8C53390F8C6131D4E43EA0121B7424FEA411101F1200114BFFF084FF4004738
:400480008F4209D901F1904107F1904711F8013B1344B942DAB2F9D1534290F8C023DBB2934202D0062041B0F0BD002DFAD068464FF4807224F0FF0101F009F99DF8D1309B
:4004C000012B0AD00123C4F307216A4603208DF8D13000F0E1FB00F005FD002041B0F0BDC0FF0300013810B40B2863D8DFE800F017202632383E444A50565C060902C1F5DE
:400500007F3101F578710A784C788B78C8781B0443EA0423134343EA006010BC70470902C1F57F3101F57071087810BCC0B270470902C1F57F3101F2C131E4E70902C1F52B
:400540007F3101F2C5314A1C0B78107810BC43EA002070470902C1F57F3101F2C931D2E70902C1F57F3101F57471DDE70902C1F57F3101F2D131D7E70902C1F57F3101F2F2
:40058000D231E0E70902C1F57F3101F2D631DAE70902C1F57F3101F57571D4E70902C1F57F3101F57671AEE70902C1F57F3101F57771B9E701220021C6E700BF2DE98048DD
:4005C000ADF5677D00F0DCFD62B600239B461E4601930DF23F1451AF0DF245190DF5A3780293FF2305AA4FF4967150A800F0E8FD0028F6D1BDF81420062A03D99DF8405145
:40060000012D2CD04FF0040A0025284604210123ADF816008DF841A18DF842518DF843618DF840310023625C0139134489B29BB20029F8D15B429BB25FFA83FE1A0AC11D5C
:40064000172507F800E089B209F80020962308F800500DF1160250A800F09EFDC1E7BDF84231D91D914200F2E680B1F5967F00F2E28050AA1A449279172AC3D1191D89B2B8
:40068000002900F04A82625C0139104489B280B20029F8D1404280B250AAD11891F805E00A7942EA0E22824202D04FF0080AABE79DF841119DF844A1A1F131020A2A00F201
:4006C000AD80DFE802F04788AB5A41AB311F5A1606000020FFF782FE10B9BD4A8023137000F058FD002500F0C9FB04218A4628468DE7BBF1000F40F0BB80042100258A46CD
:40070000284684E7002BF8D1B24A082592E8030008AA82E8030087E8030001939A4628460C214FF0010B72E7BBF1000FE5D0019A03EB020EBEF5967F40F3108100252846DA
:4007400004214FF0030A62E7BBF1000FD5D00023019346E7BBF1000FCFD0002BCDD118460393FFF73BFEB0FA80F0039B40098DF844019A460521584649E734295ED0BBF15F
:40078000000FBAD0022BB8D9AAF1400B019D5FFA8BFB033B9BAA50190DF247111A46039300F08AFF019BBBF13F0F1A46039B1A4495B240F207814FF480734FF49072954288
:4007C00000F0F38000250195284604214FF0010B4FF0030A1BE7BBF1000F8ED0012B8CD1BAF1030F89D87C4B1B681B68C3F30742924500F09E8194BF012200220023FF2162
:4008000004258DF846118DF844318DF845218DF84761284608214FF0000AF8E66F4A1568002D6CD0BBF1000F6ED10025284604214FF0050AEBE64FF0030AE5E6BBF1000FA1
:400840003FF45BAF032B7FF458AFAAF1400B5FFA8BFBBBF13F0F94BF10254FF490752A4600219BA80393019500F04CFF039B90E7032B7FF442AFAAF140033F2BBDF84511CF
:4008800040F2E780FF2979D84FEA0A2E0EEB0100000200F1FF020023013812F801C963448242DBB2F9D1BAF13F0F20D80EF110720A4452011046203210F801EB73448242AB
:4008C000DBB2F9D1BAF1030F11D1FF290FD1002105200393FFF706FE039B00211B1A06205FFA83FAFFF7FEFDC0EB0A00C3B25B428DF8443105214FF0000A012087E6042160
:4009000028464FF0050A82E68DF81810ADF81A3006A80797089609960A9708A9A847BDF824000A9BB0F5937F01D3BB422ED05BB39DF82030021D91B28DF841310122030AAD
:40094000ADF816008DF842018DF840218DF8433100297FF467AE0A468E4670E61A46019B9BA90B441846394600251FFA8EF30193AA4600F0A1FE2846042148E60025284658
:4009800004214FF00A0A42E60028D1D001220E23ADF816608DF842618DF843618DF840218DF84131042100203CE6BDF845219A42019215D30025284604214FF0010B4FF016
:4009C0000A0A24E600F030FA80231022F7E600BFFA460040981B0000CC80FF1F6481FF1FBAF13F0F20D8554B02EB0A221B6892B21968C1F30F2311F0FF0F1CBF01339BB26B
:400A00009A42C0F08C80029B73B919464FF4907208A800F077FE4FF4907308AAFF21032000F0A0F9012302932B46019950469BAA00F098F9002398420CBF9A464FF00A0ABD
:400A400001931D464FF0010B00F04CFA01980421DDE5039100F0E8F903997F294FEA01138CD837483749384A18441944DFF8DCC000781A440978DFF8D8E012789C449E4445
:400A800008449CF80010DFF8CCC010449EF80020DFF8C4E09C449E4408449CF80010DFF8BCC010449EF80020DFF8B4E09C449E4408449CF80010DFF8ACC010449EF80020E5
:400AC000DFF8A4E09C449E4408449CF80010DFF89CC010449EF80020DFF894E09C449E4408449CF80010DFF88CC010449EF80020DFF884E09C4408449E449CF8001003F1A1
:400B00008043104403F500439EF8002001441B780A44134403F0FF03E9E60846BCE5002301931D46184604214FF0010B4FF00A0A6DE5C3F30723002261E600BFCC80FF1F7E
:400B40000F8000400E8000400D8000400C8000400B8000400A80004009800040088000400780004006800040058000400480004003800040028000400180004038B500F0E0
:400B800039F870BB0020FFF729FC184C0028236818BF06251A6808BF00256AB1002312F8011D0B44DBB2002AF9D162681278D31A03F0FF039A4202D0002000F05DF90C4A41
:400BC000137803F0C003402B00D025B1084B00221A70FFF7F3FC80231370BDE8384000F04DB9002000F048F9CCE700BFCC80FF1FFA46004038B500F0AFF900F05FFA10B14A
:400C00000424204638BD00F095FA072804462BD000F076FA002CF4D100F09EF900F04EFA0028EDD1012000F02DFA072805D04FF0FF3400F065FA204638BD154C02E0237812
:400C40009B07F4D40221134800F09CF90228F6D10F4C2378990705D4012000F03BF923789A07F9D50024E4E7094D2B789B0705D4012000F02FF92B789807F9D5044B1A78CB
:400C80009507D6D51B789B08D3D100F039FAC3E7224700407C81FF1FF0B53F2883B00AD8441F3A2C8CBF00240124B1F5807F17D9012003B0F0BD412894BF0024012481293F
:400CC00028BF01241027002AF2D0002CF0D116460D46044600F0F2F928B1042003B0F0BD4FF48077EFE73B4632462946204600F069F9072804D0019000F002FA0198EDE78A
:400D0000164E33789B0705D4012000F0E3F833789807F9D5114E33789F071BD533789B0818D10F4A294653782046127800F086F90728E0D102E0012000F0CCF8337899077A
:400D4000F9D5064B1A78920704D51B789B0801D11846D0E74FF0FF30CDE700BF224700407C81FF1FF0B5412883B015D8441F3A2C8CBF002401243F280FD8B1F5807F11D827
:400D800082B17CB91E4617460D46044600F096F958B1042003B0F0BD0124812928BF0124102BEDD0012003B0F0BD33463A462946204600F007F9072804D0019000F0A0F932
:400DC0000198F0E7164E33789B0705D4012000F081F833789807F9D5114E33789F071BD533789B0818D10F4A294653782046127800F024F90728E0D102E0012000F06AF8BB
:400E000033789907F9D5064B1A78920704D51B789B0801D11846D0E74FF0FF30CDE700BF224700407C81FF1F38B500F0A1F90F4A0F4913780F4C43F0080313700B78C82543
:400E400043F008030B702570137B43F0100313730B7B02F5587243F010030B7313789B06FCD5BDE8384000F087B900BFA0430040B04300400147004001BE7047024A13788B
:400E800043F0010313707047F6460040B0F5004F70B506461AD904460D4DA4F50044686800F05EF9B4F5004FF7D8A6F50043013B23F4FF4323F07F03A6F50046F61AA86885
:400EC00000FB06F0BDE8704000F04AB9004DF6E7D480FF1F024B1B7800FB03F000F040B9D480FF1F08B500F043F900BF00BF00BF00BF00BF00BF00BF00BF00BF00BF00BFD6
:400F000000BF00BF00BF00BF00BF064A13889BB243F0040313801388BFF36F8FBDE8084000F02AB900480040054B00F01F001A6800F1100352F8230042F82310704700BF29
:400F400008ED00E000F01F0000F16040490100F56440C9B20170704708B500F009F90749074A0B7843F008030B70137843F008031370BDE8084000F0FFB800BFA043004028
:400F8000B04300402DE9F0410F4699B14E1EF6B20644451E094CDFF8288002E00120FFF799FF2378DB07F9D598F8003005F8013FB542F6D13846BDE8F08100BF22470040F0
:400FC00020470040F0B41B4C2578AD071DD51A4DB6262E70D52702262F702E702478A40710D428705BB15E1EB6B21644013A12F8014FB2422C70FAD1B3F5807F08D0F0BC92
:40100000072070470920F0BC70470420F0BC70473F28F4D800F5103001EB0021490106480A46203112F8013BDBB291420370F9D1E5E700BF2247004020470040F0B40F4D53
:401040002C78A60716D50E4CB6262670D8270526277026702D78AD0709D40D0AC9B2207025702170227023700720F0BC70470920F0BC70470420F0BC704700BF2247004069
:40108000204700400B4A1378990711D530B40A4BB625E1240E211D701C7019701278920703D4187030BC07207047092030BC704704207047224700402047004038B500F019
:4010C00057F80D4A137823B1042400F055F8204638BD0125094915700C682C40F5D00C6824F001040C6000BF00BF00BF1C46556000F042F8204638BD6881FF1F0400084064
:4011000010B500F035F8094B002259681A70012908D1074C216841F00101216000BF00BF00BF5A60BDE8104000F026B86881FF1F04000840074B1B789B0708D5064BB620E1
:40114000E0210D221870197007201A7070470420704700BF2247004020470040000000000230800803D000BF01380046FCD17047EFF3108072B6704780F31088704700BFBB
:4011800008B500F071F800F04BF9BDE8084000F0A7B900BF00F0C6B8F8B50E460446174600F03EF94EB1751EADB22544013C14F8010F00F057F9AC42F9D13E800020F8BD6E
:4011C0002DE9F84303EB83035D0006468846174618BF002407D117E001340120A4B2FFF755FEAC4210DA00F0F3F80028F4D000F0EFF804461920FFF749FE00F0E9F88442CA
:40120000F5D34FF0000901E04FF0050900243C8000F0DEF8F8B100F0DBF83A8880B283189BB243453B801BD2C0B1204485B200F0A1F8631C30559CB2AC42F8D1731913F81D
:40124000013C172B02D00520FFF720FE2C4600F0BFF80028DFD14846BDE8F8832546EDE73A804846BDE8F883F8B5224D2C780CBB21492046FFF758FE20460721FFF762FE17
:401280001E4B1F492022692008701A701D4901206C70FFF749FE07210120FFF753FE1A4E1A481B4A06274724022101233770047011702B70FFF75CFF0546164C1649237823
:4012C000164A43F0200323700B78012043F010030B701060A378124843F010030221A3700160116000F09CF92846BDE8F840FFF743BF00BF7081FF1F211500008964004014
:4013000089650040B915000028640040386400408B650040996500409964004000E100E080E200E038B5FFF723FF05460D4A0E4C137803F0DF03137000F082F923780B4A1C
:40134000012003F0EF030A49237010600B78022403F0EF030B7028461460BDE83840FFF70BBF00BF996500409964004080E100E09B65004010B4114B114A0121196091786F
:40138000D3781079C9B210B9DBB2994212D04B1CDBB2402B0B4828BF0023405C93701379074CC0B20BB100232371074B01221A6010BC7047054B1878C0B2F6E780E100E0CA
:4013C0007081FF1F8081FF1F00E100E04A650040104A0121104B11609978DA7891420FD09978DA789142DA78987824BF02F14003181A0A4B38BF101A0122C0B21A60704793
:401400001B790122002B054B14BF402000201A60704700BF80E100E07081FF1F00E100E010B5FFF7A5FE0B4B0B4C1A7842F001021A701A7802F0FE021A70FFF79DFE074BD9
:4014400000220121064821609A70DA701A715A71016010BD9A65004080E100E07081FF1F00E100E070B4194DEC79AB792646DBB2591EE21A091BA2F13F02B1FA81F1B2FAF1
:4014800082F249095209A34288BF0A46002AECD1A34212D03F2C0E4A88BF00260D4B90551B789ABF0134E4B201249B07EC7102D5094B02221A6070BC7047064B1B785A07A8
:4014C000E8D4064B187070BC704700BF7081FF1FC081FF1F6B65004000E200E04865004010B5FFF745FE0A4B0A4C1A7842F001021A701A7802F0FE021A70FFF73DFE064AFF
:401500000223002105482360D1719171036010BD9865004080E100E07081FF1F00E100E02DE9F0431C481D491D4F1E4A1E4E1F4CDFF880C01E4D4FF0010E0378DBB213F03A
:401540001E0905D091F8008049EA080881F800809B0601D4BDE8F08397F8008013785FFA88F8DBB206F8038023784FF000080BB18CF800E013780133DBB2137013783F2B55
:4015800088BF82F8008092F800802B789845D4D184F800E0D1E700BF696400407181FF1F4A6500407381FF1F8081FF1F7481FF1F7281FF1F7581FF1F144A154813780178B4
:4015C000994221D0F0B513490B7803F0040303F0FF06C3B91746104D104C02E00B785B0711D413783F2B88BF3E701378DBB2EB5CDBB22370137890F800E00133DBB21370CB
:4016000013789E45EAD1F0BD704700BF7681FF1F7781FF1F6B650040C081FF1F486500400549064A0B7843F001030B70137843F001031370704700BFA2430040B2430040EF
:401640000549064A0B7803F0FE030B70137803F0FE031370704700BFA2430040B2430040014B1868704700BF4481FF1F0E4B70B51E460E4C0025E41AA410A54204D056F8C7
:40168000253098470135F8E700F08CFA084B094C1E46E41AA4100025A54204D056F8253098470135F8E770BDB01B0000B01B0000B01B0000B81B000010B5431E0A4491428E
:4016C00004D011F8014B03F8014FF8E710BD884210B501EB020301D8421E0BE09842FBD28118D21AD34204D013F8014D01F8014DF8E710BD994204D011F8014B02F8014F77
:40170000F8E710BD03460244934202D003F8011BFAE77047001D0000ED00000000000000005100401000205100401000405100403000F051004010000000014000100014B5
:4017400001400006801A0140800100400140000A004C014000020050014020001090000040000000CF083042C3003C0800100000082000000020F3000C30F3003D0FC0F055
:4017800008000084023F20C004F800010C3900C6430010C740318C003F0000FF00002800000000402105040003EC000003FFFFFF62A0F0410C00000000000000040404044F
:4017C0000000000100000000000040020010301000101012000000000000000000000000000000000152004001640040026500400107014054080140370901400414014085
:4018000003150140011701404D180140411901400D1A0140411B0140034001400241014002420140044301400147014002480140084C01400E4D014004500140015101402E
:401840000914893A89698B0FE60203010461060E071809480A400B860E0811801365142C15E61643171119601B8B1E43206121A02206260C28102D802F023020320F330774
:40188000341035F8364038023A083B083E504003474049FF4A074BFF4C404D204EF04F055008580459045A045F01604061A8624063208320850387048A028B088D038E022A
:4018C0008F0C9001950A9704980199039B04A310A710A801AF05B001B10FB320B510B602BB02BE40BF10D41AD604D804D904DB04DF0100A005800605071008800A450E2010
:401900000F0211101502161819401B021D241E211F0120402105220223042404271029012B212D802E023104331035043602371038523A143C143E083F0245084F025601C3
:4019400059025A206140634485208740C0E3C2AAC472CA9BCCE6CEEFD040D605D80DE008B980BF40D904DF012680A680B280EA0801020B011001140419011E022006280662
:401980002D01320633033401380839083E1440454102460E47BC483449FF4AFF4BFF4EF04F44500C580459045A045F0166C06A406B0284038508860C89088D088E0E900232
:4019C00091089208953D960F9702980299239A049B1C9D1E9F01A127A318A501A716A80CA926AA03AB19AC03AE0CAF1FB320B401B508B60EB71FB820BA80BB80BF04D602C6
:401A0000D712D804D904DB04DF01000403020520060408280A800E300F821209150216C0171019801BA01D081E082254241028282A012B8A2E8031143249371038A83E10F9
:401A40003F02464047104E02560657405A0869106A46705C79017A027B41910A941295109664978098809B109D039E06A210A303A450A508A720AF40B701C005C2BEC4533B
:401A8000CA1FCC2FCEAED0A0D210D602840188018C019601A201AE02B203BA08D401D604D804DB04DF0100440380059408120A120E101048114012101580164018041916A1
:401AC0001E101F0820802142281229042A402B8A30483110324138E239083A1040264102481049815C805D215E0867806A4082408C218D4090A09109928294069780988038
:401B000099A09C209D17A008A204A382A450A708C0EDC22FC49FCA0FCC0FCE0FD00FD208D6F0D880E004E88030103580CC309C109D809C109D8084109C109D80E640862085
:401B4000AD80EA105840620199089A20B508D401D802E80212807220750882018E8099089A209E01B040C408DC01DE04E202E80100010C0110011C01000F00004090900073
:401B80009000000010140400140000000000000101000000000000006910162E003C010143000000F8B500BFF8BC08BC9E4670475100000011030000F8B500BFF8BC08BC51
:401BC0009E4670472D000000D81B0000C880FF1F80000000B8000000000000001417000018170000180000000000E02EC05D000000366E010000000000000000000000004A
:401C00000000000000000000000000000000000000000000A01B000000000000000000000000000000000000000000000000000000000000000000000000000000000000E9
:401C40000000000000000000000000000000000000000000E480FF1F00000000000000000000000000000000000000000000000000000000000000000000000000000000E2
:401C80000000000000000000000000000000000000000000000000000000000000000000000000000000000000000000000000000000000000000000000000000000000024
:401CC00000000000000000000000000000000000000000000000000000000000000000000000000000000000000000000000000000000000000000000000000000000000E4
:401D000000800020111D0000017601000176010080B500AF15F0A8FC10B5054C237833B9044B13B10448AFF300800123237010BDB881FF1F0000000038220200084B10B5EB
:401D40001BB108490848AFF300800848036803B910BD074B002BFBD0BDE81040184700BF00000000BC81FF1F38220200C880FF1F0000000080B58AB000AFE34B1B7887F8BA
:401D80002730E14BB3F98030DBB2013BDBB21946DD480BF06BF903461946DB4BB3F98030013BD94AD35C994204D0D74B002283F8842053E297F82730A72B00F24E8201A2EF
:401DC00052F823F0E9200000CB2000005B220000EF200000F520000019210000B32000005B2200005B2200004D210000332100005B220000D12000006F2100005B220000AD
:401E00005B2200005B2200005B2200005B2200005B2200005B2200005B2200005B2200005B2200005B2200005B2200005B2200005B2200005B2200005B2200005B220000D2
:401E40005B2200005B2200005B2200005B2200005B2200005B2200005B2200005B2200005B2200005B2200005B2200005B2200005B2200005B2200005B2200005B22000092
:401E80005B2200005B2200005B2200005B2200005B2200005B2200005B2200005B2200005B2200005B2200005B2200005B2200005B2200005B2200005B2200005B22000052
:401EC0005B2200005B2200005B2200005B2200005B2200005B2200005B2200005B2200005B2200005B2200005B2200005B2200005B2200005B2200005B2200005B22000012
:401F00005B2200005B2200005B2200005B2200005B2200005B2200005B2200005B2200005B2200005B2200005B2200005B2200005B2200005B2200005B2200005B220000D1
:401F40005B2200005B2200005B2200005B2200005B2200005B2200005B2200005B2200005B2200005B2200005B2200005B2200005B2200005B2200005B2200005B22000091
:401F80005B2200005B2200005B2200005B2200005B2200005B2200005B2200005B2200005B2200005B2200005B2200005B2200005B2200005B2200005B2200005B22000051
:401FC0005B22000065200000A12000006B200000AD200000712000007D200000772000005B2200009B200000892000005B2200008F200000832000005B2200005B22000057
:402000005B220000A72000005B220000952000005B2200005B2200005B2200005B2200005B2200005B2200005B2200005B2200005B2200005B2200005B2200005B2200004E
:402040005B2200005B2200000D220000132200002B22000031220000372200003D220000432200000BF05AFEF8E00BF035FDF5E00BF0F2FBF2E00BF0DDFEEFE00BF076FF49
:40208000ECE00BF0E9FFE9E00BF040FCE6E00BF099FCE3E00BF0F2FCE0E00CF067F9DDE00BF09AFEDAE00CF009F8D7E00CF030F8D4E0164B1B887B617B695BBA3B613B69A4
:4020C0009BB2184600F0D6F8C8E007F041F8C5E00E4B1B883B623B6A5BBAFB60FB689BB2184603F063FAB9E00CF002F8B6E00CF05FF8B3E032200AF0F1FF0346002B07D05C
:4021000001200AF0D3FFA9E00C95FF1F0D95FF1F00200AF0CBFFA1E00BF06CF80346002B03D001200AF0C2FF98E000200AF0BEFF94E00BF08DF80346002B03D001200AF01E
:40214000B5FF8BE000200AF0B1FF87E001200AF0ADFF4FF47A7018F0D5F8002015F050FC4FF47A7018F0CEF816F05AFB76E03D4B5B781B021AB23B4B9B781BB213431AB25D
:40218000394B5A80374BDB781B021AB2354B1B791BB213431AB2344B9A80334BB3F90230B3F1FF3F0FD1304BB3F90430B3F1FF3F09D12D4B00221A702B4B00225A802A4B27
:4021C00000229A804AE0284BB3F90230002B03DA254B00225A8007E0234BB3F90230C82B02DD214BC8225A801F4BB3F90430002B02DA1D4B00229A801C4B00221A601A4B22
:4022000001221A7001200AF051FF27E00CF0DEF824E0174B1B88FB61FB695BBABB60BB689BB2184606F09AF818E00CF09BFB15E00CF0DEFB12E00CF051FC0FE00CF07CFC6C
:402240000CE00B4B1B88BB61BB695BBA7B607B689BB218460CF0D0FC00E000BF2837BD4680BD00BF0C95FF1F9495FF1F249AFF1F0D95FF1F80B5ADF5BB4D92B000AF02463C
:4022800007F14803423B1A8007F59C4303F1280300221A60043340F69C72002118461DF0C4FA07F14803403B00221A60043344F61C62002118461DF0B8FA07F14803423B22
:4022C0001B88042B62D801A252F823F0E122000003230000252300004D2300006F23000007F59C4303F12803184606F073FF15F0D9FF07F59C4303F12803184615F0B0FFB6
:4023000045E007F59C4303F12803184609F00AF815F0C8FF07F59C4303F12803184615F09FFF34E007F59C4303F128034FF47A6219461A4813F016FB15F0B4FF07F59C43C9
:4023400003F12803184615F08BFF20E007F14803403B44F62061184613F028FB15F0A2FF07F14803403B184615F07AFF0FE007F14803403B184613F0EDFB15F093FF07F18F
:402380004803403B184615F06BFF00E000BF00BF07F5BB474837BD4680BD00BF5082FF1FF0B5ADF5AF5D83B000AF07F128041C3C206007F10800016007F1080104390A6086
:4023C00007F10802083A136007F16803103B00221A60043341F27852002118461DF025FA41F27C5307F5AF521380002307F5AF5202F105021370002307F5AF5202F10402B5
:402400001370002307F5AF5202F10302137007F12803043B00221A6004332E22002118461DF003FA002307F5AE5202F11F021370012307F5AE5202F11E02137007F12803E1
:402440001C3B1B681B6807F5AE5202F11802136007F5AE5303F118031B6807F5AE5202F11402136007F16803103B0C221A7007F16803103B4C225A70002307F5AF5202F11D
:402480000502137002F0E3BF07F5AF5303F105031B789A0007F128031C3B1B6813441B6807F5AE5202F11802136007F5AF5303F105031B78322202FB03F39A1C07F5AF53FC
:4024C00003F105031B7807F1080109680B44197807F16803103B995407F5AF5303F105031B78322202FB03F3DA1C07F5AF5303F10503197807F10803043B1B680B44197866
:4025000007F16803103B995407F5AF5303F105031B7807F10802126813441B78092B2CD801A252F823F000BF5125000051250000512500005F2500005F2500006D2500001A
:402540006D2500006D2500007B25000051250000012307F5AF5202F1030213700DE0022307F5AF5202F10302137006E0042307F5AF5202F10302137000BF07F5AF5303F1C5
:4025800005031B7807F5B05202F10802126813441B78002B40F0DA8307F5AF5303F105031B7807F10802126813441B78092B02F2348101A252F823F0E12500009D260000D0
:4025C000E1250000592700008B280000BB290000EB2A00001B2C00001B480000E1250000002307F5AF5202F10702137042E007F5AF5303F107031B7807F5AF5202F10302B4
:40260000127802FB03F31A4607F5AE5303F118031B68134407F5AE5202F11402136007F5AF5303F105031B78322202FB03F31A1D07F5AF5303F107031B7807F5AF5101F1D7
:402640000301097801FB03F31A4407F5AE5303F114031B68197807F16803103B995407F5AF5303F107031B78013307F5AF5202F10702137007F5AF5303F105031A7807F10B
:402680000803043B1B6813441B7807F5AF5202F1070212789A42AAD302F0BFB8002307F5AF5202F10702137042E007F5AF5303F107031B7807F5AF5202F10302127802FB52
:4026C00003F31A4607F5AE5303F118031B68134407F5AE5202F11402136007F5AF5303F105031B78322202FB03F31A1D07F5AF5303F107031B7807F5AF5101F10301097819
:4027000001FB03F31A4407F5AE5303F114031B68197807F16803103B995407F5AF5303F107031B78013307F5AF5202F10702137007F5AF5303F105031A7807F10803043B85
:402740001B6813441B7807F5AF5202F1070212789A42AAD302F061B8002307F5AF5202F1070213707CE007F5AF5303F107031B7807F5AF5202F10302127802FB03F31A46A9
:4027800007F5AE5303F118031B68134407F5AE5202F11402136007F5AE5303F114031B68B3F9002007F128030A3B1A80002307F5AF5202F1060213703BE007F5AF5303F1B7
:4027C00005031B78322202FB03F31A1D07F5AF5303F107031B7807F5AF5101F10301097801FB03F31A4407F5AF5303F103031B781A4407F5AF5303F106031B78D31A5A1E92
:4028000007F5AF5303F10603197807F128030A3B0B44197807F16803103B995407F5AF5303F106031B78013307F5AF5202F10602137007F5AF5303F106031A7807F5AF5361
:4028400003F103031B789A42B7D307F5AF5303F107031B78013307F5AF5202F10702137007F5AF5303F105031A7807F10803043B1B6813441B7807F5AF5202F10702127868
:402880009A42FFF470AF01F0C8BF002307F5AF5202F1070213707BE007F5AF5303F107031B7807F5AF5202F10302127802FB03F31A4607F5AE5303F118031B68134407F575
:4028C000AE5202F11402136007F5AE5303F114031B681A8807F128030C3B1A80002307F5AF5202F1060213703BE007F5AF5303F105031B78322202FB03F31A1D07F5AF5369
:4029000003F107031B7807F5AF5101F10301097801FB03F31A4407F5AF5303F103031B781A4407F5AF5303F106031B78D31A5A1E07F5AF5303F10603197807F128030C3B71
:402940000B44197807F16803103B995407F5AF5303F106031B78013307F5AF5202F10602137007F5AF5303F106031A7807F5AF5303F103031B789A42B7D307F5AF5303F12F
:4029800007031B78013307F5AF5202F10702137007F5AF5303F105031A7807F10803043B1B6813441B7807F5AF5202F1070212789A42FFF471AF01F030BF002307F5AF521D
:4029C00002F1070213707BE007F5AF5303F107031B7807F5AF5202F10302127802FB03F31A4607F5AE5303F118031B68134407F5AE5202F11402136007F5AE5303F1140336
:402A00001B681A6807F12803103B1A60002307F5AF5202F1060213703BE007F5AF5303F105031B78322202FB03F31A1D07F5AF5303F107031B7807F5AF5101F103010978E3
:402A400001FB03F31A4407F5AF5303F103031B781A4407F5AF5303F106031B78D31A5A1E07F5AF5303F10603197807F12803103B0B44197807F16803103B995407F5AF53B7
:402A800003F106031B78013307F5AF5202F10602137007F5AF5303F106031A7807F5AF5303F103031B789A42B7D307F5AF5303F107031B78013307F5AF5202F1070213701A
:402AC00007F5AF5303F105031A7807F10803043B1B6813441B7807F5AF5202F1070212789A42FFF471AF01F098BE002307F5AF5202F1070213707BE007F5AF5303F10703EC
:402B00001B7807F5AF5202F10302127802FB03F31A4607F5AE5303F118031B68134407F5AE5202F11402136007F5AE5303F114031B681A6807F12803143B1A60002307F5BA
:402B4000AF5202F1060213703BE007F5AF5303F105031B78322202FB03F31A1D07F5AF5303F107031B7807F5AF5101F10301097801FB03F31A4407F5AF5303F103031B78D3
:402B80001A4407F5AF5303F106031B78D31A5A1E07F5AF5303F10603197807F12803143B0B44197807F16803103B995407F5AF5303F106031B78013307F5AF5202F1060291
:402BC000137007F5AF5303F106031A7807F5AF5303F103031B789A42B7D307F5AF5303F107031B78013307F5AF5202F10702137007F5AF5303F105031A7807F10803043BC7
:402C00001B6813441B7807F5AF5202F1070212789A42FFF471AF01F000BE002307F5AF5202F1070213707BE007F5AF5303F107031B7807F5AF5202F10302127802FB03F30B
:402C40001A4607F5AE5303F118031B68134407F5AE5202F11402136007F5AE5303F114031B681A6807F12803083B1A60002307F5AF5202F1060213703BE007F5AF5303F1FE
:402C800005031B78322202FB03F31A1D07F5AF5303F107031B7807F5AF5101F10301097801FB03F31A4407F5AF5303F103031B781A4407F5AF5303F106031B78D31A5A1ECD
:402CC00007F5AF5303F10603197807F12803083B0B44197807F16803103B995407F5AF5303F106031B78013307F5AF5202F10602137007F5AF5303F106031A7807F5AF539F
:402D000003F103031B789A42B7D307F5AF5303F107031B78013307F5AF5202F10702137007F5AF5303F105031A7807F10803043B1B6813441B7807F5AF5202F107021278A3
:402D40009A42FFF471AF00BF01F067BD07F5AF5303F105031B780133023B332B01F25C8501A252F823F000BF392E000005330000194800001948000019480000194800007E
:402D8000D53700001948000019480000FB3800001948000019480000194800001948000019480000194800001948000019480000194800001948000019480000BF3A0000EE
:402DC00019480000194800001948000019480000194800001948000019480000194800001948000019480000194800001948000019480000194800001948000019480000C3
:402E000019480000194800001948000019480000933B00005B400000194800001948000019480000194800002945000019480000194800004D46000007F5AE5303F11F034B
:402E40001A78AC491346DB009B1A1B010B4403F20F131B78032B00F0298107F5AE5303F11F031A78A3491346DB009B1A1B010B44B0331B6818461CF061FA03464FF08F419D
:402E800018461CF063FB03461A4607F12803083B1A60002307F5AF5202F1070213702EE007F5AF5303F105031B78322202FB03F31A1D07F5AF5303F103031B781A4407F524
:402EC000AF5303F107031B78D31A5A1E07F5AF5303F10703197807F12803083B0B44197807F16803103B995407F5AF5303F107031B78013307F5AF5202F10702137007F531
:402F0000AF5303F107031A7807F5AF5303F103031B789A42C4D307F5AE5303F11F031A7874491346DB009B1A1B010B44B4331B6818461CF003FA03464FF08F4118461CF0B8
:402F400005FB03461A4607F12803083B1A60002307F5AF5202F10702137034E007F5AF5303F105031B78322202FB03F31A1D07F5AF5303F103031B781A4407F5AF5303F12F
:402F800003031B781A4407F5AF5303F107031B78D31A5A1E07F5AF5303F10703197807F12803083B0B44197807F16803103B995407F5AF5303F107031B78013307F5AF52F8
:402FC00002F10702137007F5AF5303F107031A7807F5AF5303F103031B789A42BED307F5AE5303F11F031A7842491346DB009B1A1B010B44B8331B6818461CF09FF903468F
:403000004FF08F4118461CF0A1FA03461A4607F12803083B1A60002307F5AF5202F10702137035E007F5AF5303F105031B78322202FB03F31A1D07F5AF5303F103031B78A9
:403040005B001A4407F5AF5303F103031B781A4407F5AF5303F107031B78D31A5A1E07F5AF5303F10703197807F12803083B0B44197807F16803103B995407F5AF5303F15A
:4030800007031B78013307F5AF5202F10702137007F5AF5303F107031A7807F5AF5303F103031B789A42BDD301F0B7BB07F5AE5303F11F031A780F491346DB009B1A1B01D9
:4030C0000B44C8331B6818461CF038F903464FF08F4118461CF03AFA03461A4607F12803083B1A60002307F5AF5202F10702137031E000BFF096FF1F07F5AF5303F10503DC
:403100001B78322202FB03F31A1D07F5AF5303F103031B781A4407F5AF5303F107031B78D31A5A1E07F5AF5303F10703197807F12803083B0B44197807F16803103B995433
:4031400007F5AF5303F107031B78013307F5AF5202F10702137007F5AF5303F107031A7807F5AF5303F103031B789A42C4D307F5AE5303F11F031A78AB491346DB009B1A02
:403180001B010B44CC331B6818461CF0D7F803464FF08F4118461CF0D9F903461A4607F12803083B1A60002307F5AF5202F10702137034E007F5AF5303F105031B78322238
:4031C00002FB03F31A1D07F5AF5303F103031B781A4407F5AF5303F103031B781A4407F5AF5303F107031B78D31A5A1E07F5AF5303F10703197807F12803083B0B4419780C
:4032000007F16803103B995407F5AF5303F107031B78013307F5AF5202F10702137007F5AF5303F107031A7807F5AF5303F103031B789A42BED307F5AE5303F11F031A7889
:4032400079491346DB009B1A1B010B44D0331B6818461CF073F803464FF08F4118461CF075F903461A4607F12803083B1A60002307F5AF5202F10702137035E007F5AF5372
:4032800003F105031B78322202FB03F31A1D07F5AF5303F103031B785B001A4407F5AF5303F103031B781A4407F5AF5303F107031B78D31A5A1E07F5AF5303F10703197853
:4032C00007F12803083B0B44197807F16803103B995407F5AF5303F107031B78013307F5AF5202F10702137007F5AF5303F107031A7807F5AF5303F103031B789A42BDD329
:4033000001F08BBA07F5AE5303F11F031A7846491346DB009B1A1B010B4403F20F131B78032B00F02B8107F5AE5303F11F031A783D491346DB009B1A1B010B44BC331B686A
:4033400018461BF0FBFF03464FF08F4118461CF0FDF803461A4607F12803083B1A60002307F5AF5202F1070213702EE007F5AF5303F105031B78322202FB03F31A1D07F5F6
:40338000AF5303F103031B781A4407F5AF5303F107031B78D31A5A1E07F5AF5303F10703197807F12803083B0B44197807F16803103B995407F5AF5303F107031B780133FB
:4033C00007F5AF5202F10702137007F5AF5303F107031A7807F5AF5303F103031B789A42C4D307F5AE5303F11F031A780E491346DB009B1A1B010B44C0331B6818461BF096
:403400009DFF03464FF08F4118461CF09FF803461A4607F12803083B1A60002307F5AF5202F10702137036E0F096FF1F07F5AF5303F105031B78322202FB03F31A1D07F5AE
:40344000AF5303F103031B781A4407F5AF5303F103031B781A4407F5AF5303F107031B78D31A5A1E07F5AF5303F10703197807F12803083B0B44197807F16803103B995414
:4034800007F5AF5303F107031B78013307F5AF5202F10702137007F5AF5303F107031A7807F5AF5303F103031B789A42BED307F5AE5303F11F031A78C5491346DB009B1AAB
:4034C0001B010B44C4331B6818461BF037FF03464FF08F4118461CF039F803461A4607F12803083B1A60002307F5AF5202F10702137035E007F5AF5303F105031B78322237
:4035000002FB03F31A1D07F5AF5303F103031B785B001A4407F5AF5303F103031B781A4407F5AF5303F107031B78D31A5A1E07F5AF5303F10703197807F12803083B0B44FE
:40354000197807F16803103B995407F5AF5303F107031B78013307F5AF5202F10702137007F5AF5303F107031A7807F5AF5303F103031B789A42BDD301F04FB907F5AE5365
:4035800003F11F031A7892491346DB009B1A1B010B44D4331B6818461BF0D0FE03464FF08F4118461BF0D2FF03461A4607F12803083B1A60002307F5AF5202F107021370B9
:4035C0002EE007F5AF5303F105031B78322202FB03F31A1D07F5AF5303F103031B781A4407F5AF5303F107031B78D31A5A1E07F5AF5303F10703197807F12803083B0B4493
:40360000197807F16803103B995407F5AF5303F107031B78013307F5AF5202F10702137007F5AF5303F107031A7807F5AF5303F103031B789A42C4D307F5AE5303F11F0380
:403640001A7863491346DB009B1A1B010B44D8331B6818461BF072FE03464FF08F4118461BF074FF03461A4607F12803083B1A60002307F5AF5202F10702137034E007F5E5
:40368000AF5303F105031B78322202FB03F31A1D07F5AF5303F103031B781A4407F5AF5303F103031B781A4407F5AF5303F107031B78D31A5A1E07F5AF5303F107031978A8
:4036C00007F12803083B0B44197807F16803103B995407F5AF5303F107031B78013307F5AF5202F10702137007F5AF5303F107031A7807F5AF5303F103031B789A42BED324
:4037000007F5AE5303F11F031A7831491346DB009B1A1B010B44DC331B6818461BF00EFE03464FF08F4118461BF010FF03461A4607F12803083B1A60002307F5AF5202F1A3
:403740000702137035E007F5AF5303F105031B78322202FB03F31A1D07F5AF5303F103031B785B001A4407F5AF5303F103031B781A4407F5AF5303F107031B78D31A5A1E7C
:4037800007F5AF5303F10703197807F12803083B0B44197807F16803103B995407F5AF5303F107031B78013307F5AF5202F10702137007F5AF5303F107031A7807F5AF53D0
:4037C00003F103031B789A42BDD301F026B800BFF096FF1F07F5AE5303F11F031A78CC491346DB009B1A1B010B4403F588731B78184607F5AF5303F107031A78C5490346C7
:403800005B0003449B001344663351F8231007F5AE5303F11F031A78BD481346DB009B1A1B01034403F588731B781C4607F5AF5303F107031A78B74823465B0023441B012D
:403840000344134403F295131B7841FA03F31AB207F128030A3B1A80002307F5AF5202F1060213703BE007F5AF5303F105031B78322202FB03F31A1D07F5AF5303F10703BB
:403880001B7807F5AF5101F10301097801FB03F31A4407F5AF5303F103031B781A4407F5AF5303F106031B78D31A5A1E07F5AF5303F10603197807F128030A3B0B44197802
:4038C00007F16803103B995407F5AF5303F106031B78013307F5AF5202F10602137007F5AF5303F106031A7807F5AF5303F103031B789A42B7D300F090BF07F5AE5303F142
:403900001F031A7883491346DB009B1A1B010B44E433196807F5AE5303F11F031A787C481346DB009B1A1B01034403F588731B781846784A03465B0003441B01134403F26D
:4039400095131B7841FA03F207F12803103B1A60002307F5AF5202F1060213702EE007F5AF5303F105031B78322202FB03F31A1D07F5AF5303F103031B781A4407F5AF5356
:4039800003F106031B78D31A5A1E07F5AF5303F10603197807F12803103B0B44197807F16803103B995407F5AF5303F106031B78013307F5AF5202F10602137007F5AF5362
:4039C00003F106031A7807F5AF5303F103031B789A42C4D307F5AE5303F11F031A784D491346DB009B1A1B010B44E833196807F5AE5303F11F031A7845481346DB009B1AF4
:403A00001B01034403F588731B781846414A03465B0003441B01134403F295131B7841FA03F207F12803103B1A60002307F5AF5202F10602137034E007F5AF5303F1050362
:403A40001B78322202FB03F31A1D07F5AF5303F103031B781A4407F5AF5303F103031B781A4407F5AF5303F106031B78D31A5A1E07F5AF5303F10603197807F12803103B76
:403A80000B44197807F16803103B995407F5AF5303F106031B78013307F5AF5202F10602137007F5AF5303F106031A7807F5AF5303F103031B789A42BED300F0AEBE154B0D
:403AC000D3F8A01207F5AE5303F11F031A7810481346DB009B1A1B01034403F588731B7818460C4A03465B0003441B01134403F295131B7841FA03F207F12803103B1A6020
:403B0000002307F5AF5202F10602137033E000BFC09BFF1FF096FF1F07F5AF5303F105031B78322202FB03F31A1D07F5AF5303F103031B781A4407F5AF5303F106031B7876
:403B4000D31A5A1E07F5AF5303F10603197807F12803103B0B44197807F16803103B995407F5AF5303F106031B78013307F5AF5202F10602137007F5AF5303F106031A78A1
:403B800007F5AF5303F103031B789A42C4D300F044BE07F5AE5303F11E031A78AB491346DB009B1A1B010B4403F20F131B78032B00F0298107F5AE5303F11E031A78A34927
:403BC0001346DB009B1A1B010B44B0331B6818461BF0B4FB03464FF08F4118461BF0B6FC03461A4607F12803083B1A60002307F5AF5202F1070213702EE007F5AF5303F158
:403C000005031B78322202FB03F31A1D07F5AF5303F103031B781A4407F5AF5303F107031B78D31A5A1E07F5AF5303F10703197807F12803083B0B44197807F16803103B0D
:403C4000995407F5AF5303F107031B78013307F5AF5202F10702137007F5AF5303F107031A7807F5AF5303F103031B789A42C4D307F5AE5303F11E031A7874491346DB00F7
:403C80009B1A1B010B44B4331B6818461BF056FB03464FF08F4118461BF058FC03461A4607F12803083B1A60002307F5AF5202F10702137034E007F5AF5303F105031B78E2
:403CC000322202FB03F31A1D07F5AF5303F103031B781A4407F5AF5303F103031B781A4407F5AF5303F107031B78D31A5A1E07F5AF5303F10703197807F12803083B0B443E
:403D0000197807F16803103B995407F5AF5303F107031B78013307F5AF5202F10702137007F5AF5303F107031A7807F5AF5303F103031B789A42BED307F5AE5303F11E0380
:403D40001A7842491346DB009B1A1B010B44B8331B6818461BF0F2FA03464FF08F4118461BF0F4FB03461A4607F12803083B1A60002307F5AF5202F10702137035E007F526
:403D8000AF5303F105031B78322202FB03F31A1D07F5AF5303F103031B785B001A4407F5AF5303F103031B781A4407F5AF5303F107031B78D31A5A1E07F5AF5303F10703D7
:403DC000197807F12803083B0B44197807F16803103B995407F5AF5303F107031B78013307F5AF5202F10702137007F5AF5303F107031A7807F5AF5303F103031B789A421D
:403E0000BDD300F00ABD07F5AE5303F11E031A780E491346DB009B1A1B010B44C8331B6818461BF08BFA03464FF08F4118461BF08DFB03461A4607F12803083B1A6000238B
:403E400007F5AF5202F10702137030E0F096FF1F07F5AF5303F105031B78322202FB03F31A1D07F5AF5303F103031B781A4407F5AF5303F107031B78D31A5A1E07F5AF532C
:403E800003F10703197807F12803083B0B44197807F16803103B995407F5AF5303F107031B78013307F5AF5202F10702137007F5AF5303F107031A7807F5AF5303F10303CD
:403EC0001B789A42C4D307F5AE5303F11E031A78AB491346DB009B1A1B010B44CC331B6818461BF02BFA03464FF08F4118461BF02DFB03461A4607F12803083B1A6000232B
:403F000007F5AF5202F10702137034E007F5AF5303F105031B78322202FB03F31A1D07F5AF5303F103031B781A4407F5AF5303F103031B781A4407F5AF5303F107031B7885
:403F4000D31A5A1E07F5AF5303F10703197807F12803083B0B44197807F16803103B995407F5AF5303F107031B78013307F5AF5202F10702137007F5AF5303F107031A78A1
:403F800007F5AF5303F103031B789A42BED307F5AE5303F11E031A7879491346DB009B1A1B010B44D0331B6818461BF0C7F903464FF08F4118461BF0C9FA03461A4607F17B
:403FC0002803083B1A60002307F5AF5202F10702137035E007F5AF5303F105031B78322202FB03F31A1D07F5AF5303F103031B785B001A4407F5AF5303F103031B781A44ED
:4040000007F5AF5303F107031B78D31A5A1E07F5AF5303F10703197807F12803083B0B44197807F16803103B995407F5AF5303F107031B78013307F5AF5202F107021370DF
:4040400007F5AF5303F107031A7807F5AF5303F103031B789A42BDD3DFE307F5AE5303F11E031A7846491346DB009B1A1B010B4403F20F131B78032B00F02B8107F5AE5301
:4040800003F11E031A783E491346DB009B1A1B010B44BC331B6818461BF050F903464FF08F4118461BF052FA03461A4607F12803083B1A60002307F5AF5202F10702137025
:4040C0002EE007F5AF5303F105031B78322202FB03F31A1D07F5AF5303F103031B781A4407F5AF5303F107031B78D31A5A1E07F5AF5303F10703197807F12803083B0B4488
:40410000197807F16803103B995407F5AF5303F107031B78013307F5AF5202F10702137007F5AF5303F107031A7807F5AF5303F103031B789A42C4D307F5AE5303F11E0376
:404140001A780F491346DB009B1A1B010B44C0331B6818461BF0F2F803464FF08F4118461BF0F4F903461A4607F12803083B1A60002307F5AF5202F10702137037E000BF8C
:40418000F096FF1F07F5AF5303F105031B78322202FB03F31A1D07F5AF5303F103031B781A4407F5AF5303F103031B781A4407F5AF5303F107031B78D31A5A1E07F5AF538C
:4041C00003F10703197807F12803083B0B44197807F16803103B995407F5AF5303F107031B78013307F5AF5202F10702137007F5AF5303F107031A7807F5AF5303F103038A
:404200001B789A42BED307F5AE5303F11E031A78C4491346DB009B1A1B010B44C4331B6818461BF08BF803464FF08F4118461BF08DF903461A4607F12803083B1A60002320
:4042400007F5AF5202F10702137035E007F5AF5303F105031B78322202FB03F31A1D07F5AF5303F103031B785B001A4407F5AF5303F103031B781A4407F5AF5303F1070379
:404280001B78D31A5A1E07F5AF5303F10703197807F12803083B0B44197807F16803103B995407F5AF5303F107031B78013307F5AF5202F10702137007F5AF5303F107035D
:4042C0001A7807F5AF5303F103031B789A42BDD3A3E207F5AE5303F11E031A7891491346DB009B1A1B010B44D4331B6818461BF025F803464FF08F4118461BF027F90346A4
:404300001A4607F12803083B1A60002307F5AF5202F1070213702EE007F5AF5303F105031B78322202FB03F31A1D07F5AF5303F103031B781A4407F5AF5303F107031B780D
:40434000D31A5A1E07F5AF5303F10703197807F12803083B0B44197807F16803103B995407F5AF5303F107031B78013307F5AF5202F10702137007F5AF5303F107031A789D
:4043800007F5AF5303F103031B789A42C4D307F5AE5303F11E031A7862491346DB009B1A1B010B44D8331B6818461AF0C7FF03464FF08F4118461BF0C9F803461A4607F17D
:4043C0002803083B1A60002307F5AF5202F10702137034E007F5AF5303F105031B78322202FB03F31A1D07F5AF5303F103031B781A4407F5AF5303F103031B781A4407F549
:40440000AF5303F107031B78D31A5A1E07F5AF5303F10703197807F12803083B0B44197807F16803103B995407F5AF5303F107031B78013307F5AF5202F10702137007F5DB
:40444000AF5303F107031A7807F5AF5303F103031B789A42BED307F5AE5303F11E031A7830491346DB009B1A1B010B44DC331B6818461AF063FF03464FF08F4118461BF024
:4044800065F803461A4607F12803083B1A60002307F5AF5202F10702137035E007F5AF5303F105031B78322202FB03F31A1D07F5AF5303F103031B785B001A4407F5AF5315
:4044C00003F103031B781A4407F5AF5303F107031B78D31A5A1E07F5AF5303F10703197807F12803083B0B44197807F16803103B995407F5AF5303F107031B78013307F5B0
:40450000AF5202F10702137007F5AF5303F107031A7807F5AF5303F103031B789A42BDD37BE100BFF096FF1F07F5AE5303F11E031A78B7491346DB009B1A1B010B4403F5C7
:4045400088731B78184607F5AF5303F107031A78B04903465B0003449B001344663351F8231007F5AE5303F11E031A78A8481346DB009B1A1B01034403F588731B781C460E
:4045800007F5AF5303F107031A78A24823465B0023441B010344134403F295131B7841FA03F31AB207F128030A3B1A80002307F5AF5202F1060213703BE007F5AF5303F1C4
:4045C00005031B78322202FB03F31A1D07F5AF5303F107031B7807F5AF5101F10301097801FB03F31A4407F5AF5303F103031B781A4407F5AF5303F106031B78D31A5A1E74
:4046000007F5AF5303F10603197807F128030A3B0B44197807F16803103B995407F5AF5303F106031B78013307F5AF5202F10602137007F5AF5303F106031A7807F5AF5343
:4046400003F103031B789A42B7D3E6E007F5AE5303F11E031A786F491346DB009B1A1B010B44E433196807F5AE5303F11E031A7867481346DB009B1A1B01034403F58873A7
:404680001B781846634A03465B0003441B01134403F295131B7841FA03F207F12803103B1A60002307F5AF5202F1060213702EE007F5AF5303F105031B78322202FB03F336
:4046C0001A1D07F5AF5303F103031B781A4407F5AF5303F106031B78D31A5A1E07F5AF5303F10603197807F12803103B0B44197807F16803103B995407F5AF5303F1060337
:404700001B78013307F5AF5202F10602137007F5AF5303F106031A7807F5AF5303F103031B789A42C4D307F5AE5303F11E031A7838491346DB009B1A1B010B44E833196897
:4047400007F5AE5303F11E031A7831481346DB009B1A1B01034403F588731B7818462D4A03465B0003441B01134403F295131B7841FA03F207F12803103B1A60002307F5B0
:40478000AF5202F10602137034E007F5AF5303F105031B78322202FB03F31A1D07F5AF5303F103031B781A4407F5AF5303F103031B781A4407F5AF5303F106031B78D31A0E
:4047C0005A1E07F5AF5303F10603197807F12803103B0B44197807F16803103B995407F5AF5303F106031B78013307F5AF5202F10602137007F5AF5303F106031A7807F506
:40480000AF5303F103031B789A42BED305E000BFC09BFF1FF096FF1F00BF07F5AF5303F105031B789B0007F5B05202F10402126813441A6807F12803043B114618461BF068
:40484000BDFD07F12803043B18461BF0FCFD034607F5AF5202F10202137007F5AF5303F105031B7807F10802126813441B78002B40F0C48407F5AF5303F104031B7807F5DC
:40488000B052126813441B78013B0B2B00F2A88401A252F823F000BFC9480000734A0000494B00009D4B0000014C00005D4C0000794D0000014E0000954E00000D4F0000AF
:4048C0001F5000005F51000007F5AE5303F118031B681B78072B00F27C8401A252F823F001490000254900004B49000079490000A5490000CF490000034A00002D4A00007B
:4049000007F12803043B18461BF09DFD03461A4607F12803043B1344DA4A1068186012791A71A5E007F12803043B18461BF08BFD03461A4607F12803043B1344D2491A46D1
:404940000B4603CB1060516092E007F12803043B18461BF078FD03461A4607F12803043B1344CA4A1D4614460FCC28606960AA60EB6023882B827BE007F12803043B18461E
:404980001BF061FD03461A4607F12803043B1344BF4A1C46134607CB20606160A2601B88A38165E007F12803043B18461BF04BFD03461A4607F12803043B1344B5491A4674
:4049C0000B4603CB106051601B88138150E007F12803043B18461BF036FD03461A4607F12803043B1344AC4A1D4614460FCC28606960AA60EB602388A2782B821346AB7492
:404A000036E007F12803043B18461BF01CFD03461A4607F12803043B1344A0491A460B4603CB106051601B88138121E007F12803043B18461BF007FD03461A4607F12803BE
:404A4000043B1344964A14469E4604F1200C754626460FCE28606960AA60EB6010340EF1100E6445F3D1724623461B88138000BFAFE307F5AE5303F118031B681B78032BF1
:404A800000F2A98301A252F823F000BF9D4A0000C74A0000EB4A0000154B000007F12803043B18461BF0CFFC03461A4607F12803043B13447B491A460B4603CB1060516030
:404AC0001B8813813FE007F12803043B18461BF0BAFC03461A4607F12803043B1344724A1068186012791A712DE007F12803043B18461BF0A8FC03461A4607F12803043B34
:404B000013446A491A460B4603CB106051601B78137218E007F12803043B18461BF093FC03461A4607F12803043B1344604A1D4614460FCC28606960AA60EB602068286106
:404B4000A388AB8200BF46E307F5AE5303F118031B681B78002B11D007F12803043B18461BF071FC03461A4607F12803043B1344504A1068186012791A7131E307F1280356
:404B8000043B18461BF05FFC03461A4607F12803043B1344484A1068186021E307F5AE5303F118031B681B78002B02D0012B14D016E307F12803043B18461BF044FC03468E
:404BC0001A4607F12803043B13443C4A106818609188927999809A7111E007F12803043B18461BF030FC03461A4607F12803043B1344334A1068186092889A8000BFEFE263
:404C000007F5AE5303F118031B681B78002B02D0012B12D0E4E207F12803043B18461BF012FC03461A4607F12803043B1344254A1068186012791A710FE007F12803043B80
:404C400018461BF000FC03461A4607F12803043B13441D4A1068186000BFC1E207F5AE5303F118031B681B78032B00F2B68201A252F823F0CD4C0000F14C00001D4D00007A
:404C80004B4D000040220200482202005022020064220200742202008022020094220200A0220200C4220200D0220200D8220200E4220200FC220200042302000C2302007E
:404CC000142302001C2302002423020007F12803043B18461BF0B7FB03461A4607F12803043B1344D34A1068186092889A8042E007F12803043B18461BF0A5FB03461A469B
:404D000007F12803043B1344CB4A1C46134607CB20606160A2601B88A3812CE007F12803043B18461BF08FFB03461A4607F12803043B1344C14A1D4614460FCC2860696057
:404D4000AA60EB6023882B8215E007F12803043B18461BF078FB03461A4607F12803043B1344B74A1C46134607CB20606160A2601B78237300BF30E207F5AE5303F118031A
:404D80001B681B78012B16D0022B26D0002B00D035E007F12803043B18461BF054FB03461A4607F12803043B1344A24A1068186092889A8023E007F12803043B18461BF03E
:404DC00042FB03461A4607F12803043B13449D4A1068186012791A7111E007F12803043B18461BF030FB03461A4607F12803043B1344954A1068186092889A8000BFEFE14C
:404E000007F5AE5303F118031B681B78012B1AD0022B2CD0002B00D0E2E107F12803043B18461BF010FB03461A4607F12803043B1344864A1C46134607CB20606160A2607B
:404E40001B88A38125E007F12803043B18461BF0FAFA03461A4607F12803043B13447C4A106818609188927999809A7111E007F12803043B18461BF0E6FA03461A4607F10A
:404E80002803043B1344734A1068186092889A8000BFA5E107F5AE5303F118031B681B78002B02D0012B17D09AE107F12803043B18461BF0C8FA03461A4607F12803043BC6
:404EC0001344654A1D4614460FCC28606960AA60EB602068286118E007F12803043B18461BF0B1FA03461A4607F12803043B13445A4A1D4614460FCC28606960AA60EB60AB
:404F000020682861A388AB8200BF69E107F5AE5303F118031B681B78042B00F2608101A252F823F0394F0000654F0000934F0000BF4F0000E94F000007F12803043B1846B7
:404F40001BF081FA03461A4607F12803043B1344434A1C46134607CB20606160A2601B88A3815BE007F12803043B18461BF06BFA03461A4607F12803043B1344394A1D4672
:404F800014460FCC28606960AA60EB6023882B8244E007F12803043B18461BF054FA03461A4607F12803043B13442F4A1C46134607CB20606160A2601B88A3812EE007F109
:404FC0002803043B18461BF03EFA03461A4607F12803043B1344254A1C4615460FCD20606160A260E36019E007F12803043B18461BF029FA03461A4607F12803043B13446D
:405000001B4A1D4614460FCC28606960AA60EB602388A2782B821346AB7400BFDFE007F5AE5303F118031B681B78002B22D0012B5AD0D5E02C230200342302004423020008
:4050400058230200682302007023020078230200882302009023020098230200B0230200C8230200D8230200EC230200FC23020010240200D04B93F8AC30042B18D107F11C
:405080002803043B18461BF0DEF903461A4607F12803043B1344C94A1D4614460FCC28606960AA60EB6020682861A388AB8255E007F12803043B18461BF0C5F903461A46C3
:4050C00007F12803043B1344BD4A1C4615460FCD20606160A260E36028682061AB88AA79A3821346A37539E0B34B93F8AC30042B18D107F12803043B18461BF0A4F903468D
:405100001A4607F12803043B1344AE4A1D4614460FCC28606960AA60EB6020682861A388AB821AE007F12803043B18461BF08BF903461A4607F12803043B1344A24A1C46BE
:4051400015460FCD20606160A260E36028682061AB88AA79A3821346A37500BF40E007F5AE5303F118031B681B78002B02D0012B17D035E007F12803043B18461BF063F928
:4051800003461A4607F12803043B13448F4A1D4614460FCC28606960AA60EB602068286116E007F12803043B18461BF04CF903461A4607F12803043B1344854A1D46144671
:4051C0000FCC28606960AA60EB602068286100BF06E000BF04E000BF02E000BF00E000BF07F12803043B18461BF02DF90346DBB2013307F5AF5202F10202137007F5AF5366
:4052000003F102031B7807F5AF5202F10702137045E007F5AF5303F105031B78322202FB03F31A1D07F5AF5303F10303197807F5AF5303F10503187807F10803043B1B685E
:4052400003441B7803FB01F31A4407F5AF5303F102031B781A4407F5AF5303F107031B78D21A07F5AF5303F10203197807F5AF5303F107031B78C91A07F12803043B595C90
:4052800007F16803103B995407F5AF5303F107031B78013B07F5AF5202F10702137007F5AF5303F107031B78002BB2D107F5AF5303F105031B7807F10802126813441B78DC
:4052C000002B3AD107F5AF5303F105031B78322202FB03F31A1D07F5AF5303F10303197807F5AF5303F10503187807F10803043B1B6803441B7803FB01F31A4407F5AF536D
:4053000003F102031B781A4407F5AF5303F104031B7807F5B05109680B44197807F16803103B995407F5AF5303F104031B78013307F5AF5202F10402137007F5AF5303F1E3
:4053400005031B7807F10802126813441B78002B40D107F5AF5303F105031B78322202FB03F31A1D07F5AF5303F10303197807F5AF5303F10503187807F10803043B1B680D
:4053800003441B7803FB01F31A4407F5AF5303F102031B7813449A1C07F5AF5303F10503197807F10803083B1B680B44197807F16803103B99543FE0F096FF1F2424020050
:4053C0003C240200542402006C240200842402009C24020007F5AF5303F105031B78322202FB03F31A1D07F5AF5303F10303197807F5AF5303F10503187807F10803043B73
:405400001B6803441B7803FB01F31A4407F5AF5303F102031B7813445A1C07F5AF5303F10503197807F10803083B1B680B44197807F16803103B995407F5AF5303F105039F
:405440001B78013307F5AF5202F10502137007F5AF5303F105031B784B2B7DF615A8002307F5AF5202F10602137071E007F5AF5303F106031B789B0007F5B05202F10C02A1
:40548000126813441B6818461AF0DDFF034607F5AF5202F10202137007F5AF5303F102031B7807F5AF5202F1070213703EE007F5AF5303F106031B78962202FB03F303F63E
:4054C000DA6207F5AF5303F102031B781A4407F5AF5303F107031B78D21A07F5AF5303F106031B789B0007F5B05101F10C0109680B441B6807F5AF5101F10201087807F538
:40550000AF5101F107010978411A0B44197807F16803103B995407F5AF5303F107031B78013B07F5AF5202F10702137007F5AF5303F107031B78002BB9D107F5AF5303F19D
:4055400006031B78013307F5AF5202F10602137007F5AF5303F106031B780A2B86D907F5AF531B885C1E07F5AF531B88DBB2013BDAB207F16803103B1146184607F076FDE0
:4055800003461A4607F16803103B1A5507F5AF531A8807F16803103B1146184607F0D2FC00BF07F5AF570C37BD46F0BDB0B5ADF5B26D04AF0246BB1D1A80002387F87535CA
:4055C000012387F87435054BC7F87835BB1D1B88002B07D0024BC7F8783503E0F096FF1FC09BFF1FD7F8783503F1A00207F583631A6097F875251346DB009B1A1B01B033EE
:40560000D7F878251A4407F583635A6097F875251346DB009B1A1B01B833D7F8782513441A1D07F583639A6097F875251346DB009B1A1B01E033D7F878251A4407F5836328
:40564000DA6097F875251346DB009B1A1B0103F58473D7F8782513449A1D07F583631A6197F875251346DB009B1A1B0103F58473D7F878251344DA1D07F583635A6197F8F9
:405680007525D7F878151346DB009B1A1B010B4403F588731B781A4613465B0013441B0103F5C873D7F8782513445A1D07F583639A6197F87525D7F878151346DB009B1ADB
:4056C0001B010B4403F588731B781A4613465B0013441B0103F5CC73D7F878251A4407F58363DA6197F87525D7F878151346DB009B1A1B010B4403F588731B781A461346FC
:405700005B0013441B0103F5D073D7F8782513441A1D07F583631A6297F875251346DB009B1A1B01E033D7F878251344DA1C07F583635A6297F875251346DB009B1A1B0142
:40574000E033D7F8782513441A1D07F583639A6297F875251346DB009B1A1B01E833D7F8782513441A1D07F58363DA6297F875251346DB009B1A1B0103F58473D7F8782554
:4057800013441A1D07F583631A63D7F8783503F5F87207F583635A63D7F8783503F5FF7207F583639A63D7F8783503F5FA7207F58363DA63D7F8783503F5FE7207F58363F6
:4057C0001A6497F87525D7F878151346DB009B1A1B010B4403F588731B781A4613465B0013441B0103F5D873D7F878251A4407F583635A6497F87525D7F878151346DB00DF
:405800009B1A1B010B4403F588731B781A4613465B0013441B0103F5D873D7F8782513441A1D07F583639A6497F875251346DB009B1A1B01E033D7F8782513445A1C07F5A8
:405840008363DA6497F875251346DB009B1A1B01F033D7F8782513441A1D07F583631A65D7F8783503F1A10207F583635A65D7F8783503F5287207F583639A65D7F8783539
:4058800003F5297207F58363DA65D7F8783503F52A7207F583631A66D7F8783503F52B7207F583635A66D7F8783503F2FF1207F583639A66D7F8783503F1A70207F58363B0
:4058C000DA66D7F8783503F5007207F583631A67D7F8783503F2262207F583635A67D7F8783503F1A80207F583639A67D7F8783503F5087207F58363DA67D7F8783503F244
:40590000012207F58363C3F88020D7F8783503F2022207F58363C3F88420D7F8783503F1AB0207F58363C3F88820D7F8783593F8AB3012335B01D7F878251A4407F58363A0
:40594000C3F88C2097F875251346DB009B1A1B0103F58873D7F878251A4407F58363C3F8902097F875251346DB009B1A1B01E033D7F8782513449A1C07F58363C3F894207D
:4059800097F875251346DB009B1A1B0103F58873D7F8782513445A1C07F58363C3F8982097F875251346DB009B1A1B0103F58873D7F8782513449A1C07F58363C3F89C2045
:4059C00097F87525D7F878151346DB009B1A1B010B4403F588731B781A4613465B0013441B0103F5D873D7F8782513445A1C07F58363C3F8A02097F87525D7F8781513460A
:405A0000DB009B1A1B010B4403F588731B781A4613465B0013441B0103F5D873D7F8782513445A1D07F58363C3F8A420D7F8783503F1A90207F58363C3F8A82097F87425D8
:405A40001346DB009B1A1B01B033D7F878251A4407F58363C3F8AC2097F874251346DB009B1A1B01B833D7F8782513441A1D07F58363C3F8B02097F874251346DB009B1A7B
:405A80001B01E033D7F878251A4407F58363C3F8B42097F874251346DB009B1A1B0103F58473D7F8782513449A1D07F58363C3F8B82097F874251346DB009B1A1B0103F54C
:405AC0008473D7F878251344DA1D07F58363C3F8BC2097F87425D7F878151346DB009B1A1B010B4403F588731B781A4613465B0013441B0103F5C873D7F8782513445A1D2A
:405B000007F58363C3F8C02097F87425D7F878151346DB009B1A1B010B4403F588731B781A4613465B0013441B0103F5CC73D7F878251A4407F58363C3F8C42097F8742559
:405B4000D7F878151346DB009B1A1B010B4403F588731B781A4613465B0013441B0103F5D073D7F8782513441A1D07F58363C3F8C82097F874251346DB009B1A1B01E0336E
:405B8000D7F878251344DA1C07F58363C3F8CC2097F874251346DB009B1A1B01E033D7F8782513441A1D07F58363C3F8D02097F874251346DB009B1A1B01E833D7F8782528
:405BC00013441A1D07F58363C3F8D42097F874251346DB009B1A1B0103F58473D7F8782513441A1D07F58363C3F8D82097F87425D7F878151346DB009B1A1B010B4403F50B
:405C000088731B781A4613465B0013441B0103F5D873D7F878251A4407F58363C3F8DC2097F87425D7F878151346DB009B1A1B010B4403F588731B781A4613465B001344E0
:405C40001B0103F5D873D7F8782513441A1D07F58363C3F8E02097F874251346DB009B1A1B01E033D7F8782513445A1C07F58363C3F8E42097F874251346DB009B1A1B01E7
:405C8000F033D7F8782513441A1D07F58363C3F8E82097F874251346DB009B1A1B0103F58873D7F878251A4407F58363C3F8EC2097F874251346DB009B1A1B01E033D7F880
:405CC000782513449A1C07F58363C3F8F02097F874251346DB009B1A1B0103F58873D7F8782513445A1C07F58363C3F8F42097F874251346DB009B1A1B0103F58873D7F854
:405D0000782513449A1C07F58363C3F8F82097F87425D7F878151346DB009B1A1B010B4403F588731B781A4613465B0013441B0103F5D873D7F8782513445A1C07F58363C1
:405D4000C3F8FC2097F87425D7F878151346DB009B1A1B010B4403F588731B781A4613465B0013441B0103F5D873D7F8782513445A1D07F58363C3F80021D7F8783503F5B8
:405D8000C87207F58363C3F80421D7F8783503F5E07207F58363C3F80821D7F8783503F2272207F58363C3F80C21D7F8783503F50A7207F58363C3F81021D7F8783503F2A8
:405DC0002E2207F58363C3F81421D7F8783503F52C7207F58363C3F81821D7F8783503F2B22207F58363C3F81C21D7F8783503F52D7207F58363C3F82021D7F8783503F119
:405E0000AC0207F58363C3F82421D7F8783503F5387207F58363C3F82821D7F8783503F2E22207F58363C3F82C21D7F8783503F2E62207F58363C3F83021D7F8783503F594
:405E4000307207F58363C3F83421D7F8783503F2C12207F58363C3F83821D7F8783503F5347207F58363C3F83C21D7F8783503F5357207F58363C3F84021D7F8783503F5A3
:405E8000367207F58363C3F8442107F57173F54A1846114652231A4619F0BCFC07F55C7301221A7007F55C7303225A7007F55C7303229A7007F55C730122DA7007F55C739F
:405EC00001221A7107F55C7301225A7107F55C7303229A7107F55C730322DA7107F55C7303221A7207F55C7301225A7207F55C7302229A7207F55C730222DA7207F55C73CE
:405F000001221A7307F55C7302225A7307F55C7301229A7307F55C730222DA7307F55C7302221A7407F55C7301225A7407F55C7301229A7407F55C730122DA7407F55C7382
:405F400006221A7507F55C7303225A7507F55C7301229A7507F55C730122DA7507F55C7301221A7607F55C7301225A7607F55C7301229A7607F55C730122DA7607F55C732E
:405F800001221A7707F55C7301225A7707F55C7301229A7707F55C730622DA7707F55C73012283F8202007F55C73052283F8212007F55C73012283F8222007F55C73062236
:405FC00083F8232007F55C73012283F8242007F55C73012283F8252007F55C73012283F8262007F55C73012283F8272007F55C73032283F8282007F55C73032283F82920C2
:4060000007F55C73012283F82A2007F55C73032283F82B2007F55C73032283F82C2007F55C73012283F82D2007F55C73012283F82E2007F55C73012283F82F2007F55C7350
:40604000032283F8302007F55C73032283F8312007F55C73032283F8322007F55C73012283F8332007F55C73022283F8342007F55C73022283F8352007F55C73012283F815
:40608000362007F55C73012283F8372007F55C73012283F8382007F55C73012283F8392007F55C73062283F83A2007F55C73012283F83B2007F55C73012283F83C2007F5FA
:4060C0005C73012283F83D2007F55C73012283F83E2007F55C73032283F83F2007F55C73032283F84020604B1A7807F55C7383F841205D4B5A7807F55C7383F8422007F578
:406100005C73012283F8432007F55C73062283F8442007F55C73062283F8452007F55C73012283F8462007F55C73012283F8472007F55C73022283F8482007F55C7301228B
:4061400083F8492007F55C73012283F84A2007F55C73022283F84B2007F55C73012283F84C2007F55C73012283F84D2007F55C73012283F84E2007F55C73012283F84F2039
:4061800007F55C73012283F8502007F55C73012283F8512007F5477300221A7097F875350A33DAB207F547735A7097F875350A33DAB207F547739A7097F875350A33DAB284
:4061C00007F54773DA7097F875350A33DAB207F547731A7197F875350A33DAB207F547735A7197F87525D7F878151346DB009B1A1B010B4403F588731B781433DAB207F5AB
:4062000047739A7197F87525D7F878151346DB009B1A1B010B4403F588731B781433DAB207F54773DA7197F87525D7F878151346DB009B1A1B010B4403F588731B781433C0
:40624000DAB207F547731A7297F875350A33DAB207F547735A7297F875350A33DAB207F5477303E0642802000496FF1F9A7297F875350A33DAB207F54773DA7297F87535A2
:406280000A33DAB207F547731A7307F547731E225A7307F547731E229A7307F547731E22DA7307F547731E221A7497F87525D7F878151346DB009B1A1B010B4403F5887379
:4062C0001B781433DAB207F547735A7497F87525D7F878151346DB009B1A1B010B4403F588731B781433DAB207F547739A7497F875350A33DAB207F54773DA7497F875357F
:406300000A33DAB207F547731A7507F5477300225A7507F5477346229A7507F547734622DA7507F5477346221A7607F5477346225A7607F547731E229A7607F54773002294
:40634000DA7607F5477328221A7707F5477332225A7707F5477300229A7707F547733222DA7707F54773282283F8202007F54773282283F8212007F54773002283F8222011
:40638000D7F8783593F8AB303C33DAB207F5477383F8232097F875350A33DAB207F5477383F8242097F875350A33DAB207F5477383F8252097F875350A33DAB207F54773E5
:4063C00083F8262097F875350A33DAB207F5477383F8272097F87525D7F878151346DB009B1A1B010B4403F588731B781433DAB207F5477383F8282097F87525D7F8781532
:406400001346DB009B1A1B010B4403F588731B781433DAB207F5477383F8292007F54773002283F82A2097F874350A33DAB207F5477383F82B2097F874350A33DAB207F51E
:40644000477383F82C2097F874350A33DAB207F5477383F82D2097F874350A33DAB207F5477383F82E2097F874350A33DAB207F5477383F82F2097F87425D7F8781513463E
:40648000DB009B1A1B010B4403F588731B781433DAB207F5477383F8302097F87425D7F878151346DB009B1A1B010B4403F588731B781433DAB207F5477383F8312097F8C5
:4064C0007425D7F878151346DB009B1A1B010B4403F588731B781433DAB207F5477383F8322097F874350A33DAB207F5477383F8332097F874350A33DAB207F5477383F8C0
:40650000342097F874350A33DAB207F5477383F8352097F874350A33DAB207F5477383F8362097F87425D7F878151346DB009B1A1B010B4403F588731B781433DAB207F5CB
:40654000477383F8372097F87425D7F878151346DB009B1A1B010B4403F588731B781433DAB207F5477383F8382097F874350A33DAB207F5477383F8392097F874350A33D5
:40658000DAB207F5477383F83A2097F874350A33DAB207F5477383F83B2097F874350A33DAB207F5477383F83C2097F874350A33DAB207F5477383F83D2097F874350A33A5
:4065C000DAB207F5477383F83E2097F87425D7F878151346DB009B1A1B010B4403F588731B781433DAB207F5477383F83F2097F87425D7F878151346DB009B1A1B010B44E7
:4066000003F588731B781433DAB207F5477383F8402007F54773142283F8412007F54773152283F8422007F54773322283F8432007F54773322283F8442007F54773322203
:4066400083F8452007F547736E2283F8462007F547736E2283F8472007F547736E2283F8482007F54773002283F8492007F54773642283F84A2007F54773642283F84B20C3
:4066800007F54773642283F84C2007F54773502283F84D2007F54773502283F84E2007F547735A2283F84F2007F547735A2283F8502007F547735A2283F8512007F5EA73E6
:4066C000D04A184611464FF4A4731A4619F0A2F807F5AE7300221A60043372220021184619F0A3F807F5AE7064230A22C64919F065FE07F5927300221A6004333422002134
:40670000184619F092F8D7F8783593F8AC30042B10D107F59273BD4A1C4615460FCD0FC40FCD0FC40FCD0FC495E8030020600434217012E007F59273B54A1C4615460FCD4F
:406740000FC40FCD0FC40FCD0FC495E8030020600434218002340B0C237007F1F403AD4A1A6007F1F403AC4A5A6007F1F403AB4A9A6007F1F403AA4ADA6007F1F403A94A53
:406780001A6107F1F403A84A5A6107F1F40307F5AE729A6107F1F403A44ADA6107F1F403A34A1A6207F1F403A24A5A6207F1F40307F592729A6207F1F4039F4ADA6207F1BE
:4067C000D4039E4A1C46154628686968AA68EB680FC428696969AA6907C4AB8BAA7F23801346A37007F1C803954A1068516803C3127A1A7007F1B403924A1C46154628684E
:406800006968AA68EB680FC42B8A2380232387F87335002387F87E35002387F87F3521E097F87E3507F1C802D35C1A4697F87F3501339A420BD197F87F3507F1600201215D
:40684000D15497F87E35013387F87E3505E097F87F3507F160020021D15497F87F35013387F87F3597F87F35512BD9D9002387F87E35002387F87F3521E097F87E3507F182
:40688000B402D35C1A4697F87F3501339A420BD197F87F3507F10C020121D15497F87E35013387F87E3505E097F87F3507F10C020021D15497F87F35013387F87F3597F87F
:4068C0007F35512BD9D9BB1D1B88002B17D107F5477407F55C7207F5717107F5836007F1F403039307F16003029307F5EA73019307F1D40300932346FBF752FDE0E2BB1DE2
:406900001B88DBB2013B87F8723597F8723507F57172D35C092B23D801A252F823F000BF4969000049690000496900005169000051690000596900005969000059690000C3
:406940006169000049690000012387F87D3507E0022387F87D3503E0042387F87D3500BF97F8723507F10C02D35C002B40F03B8297F8723507F57172D35C092B00F23C8264
:4069800001A252F823F000BFB1690000AF6A0000B1690000016B0000976B00002B6C0000BF6C0000536D0000F96D0000FD690000002387F87F3517E097F8722507F58363BA
:4069C00053F8223097F87F2597F87D1501FB02F2134497F87F2503321B498A5C1A7097F87F35013387F87F3597F8723507F55C72D35C97F87F259A42DED3FEE1002387F809
:406A00007F353BE030310200B4240200282502006025020098250200242602006426020090260200A8260200D02602002C2702006C270200B4270200302802007832020090
:406A400098320200A43202000C95FF1F97F8722507F5836353F8223097F87F2597F87D1501FB02F2134497F87F250332E1498A5C1A7097F87F35013387F87F3597F8723591
:406A800007F55C72D35C97F87F259A42DED397F8722507F5836353F8223097F87F2597F87D1501FB02F2134400221A70A5E1002387F87F351AE097F8722507F5836353F808
:406AC000223097F87F2597F87D1501FB02F2134497F87F250332C7490A4492F90020D2B21A7097F87F35013387F87F3597F8723507F55C72D35C97F87F259A42DBD37CE137
:406B0000002387F87F353CE097F87F3597F87D2502FB03F30333B74A1344B3F90030A7F87035002387F87E3520E097F8722507F5836353F8222097F87F3597F87D1501FB84
:406B400003F3184697F87D1597F87E35CB1A0344013B134497F87E2507F5AE610A4412781A7097F87E35013387F87E3597F87E2597F87D359A42D8D397F87F35013387F868
:406B80007F3597F8723507F55C72D35C97F87F259A42B9D331E1002387F87F353BE097F87F3597F87D2502FB03F30333914A13441B88A7F86E35002387F87E3520E097F83C
:406BC000722507F5836353F8222097F87F3597F87D1501FB03F3184697F87D1597F87E35CB1A0344013B134497F87E2507F26E510A4412781A7097F87E35013387F87E35C5
:406C000097F87E2597F87D359A42D8D397F87F35013387F87F3597F8723507F55C72D35C97F87F259A42BAD3E7E0002387F87F353BE097F87F3597F87D2502FB03F3033310
:406C40006C4A13441B68C7F86835002387F87E3520E097F8722507F5836353F8222097F87F3597F87D1501FB03F3184697F87D1597F87E35CB1A0344013B134497F87E2536
:406C800007F5AD610A4412781A7097F87E35013387F87E3597F87E2597F87D359A42D8D397F87F35013387F87F3597F8723507F55C72D35C97F87F259A42BAD39DE00023B1
:406CC00087F87F353BE097F87F3597F87D2502FB03F30333474A13441B68C7F86435002387F87E3520E097F8722507F5836353F8222097F87F3597F87D1501FB03F3184648
:406D000097F87D1597F87E35CB1A0344013B134497F87E2507F264510A4412781A7097F87E35013387F87E3597F87E2597F87D359A42D8D397F87F35013387F87F3597F814
:406D4000723507F55C72D35C97F87F259A42BAD353E0002387F87F353BE097F87F3597F87D2502FB03F30333224A13441B68C7F86035002387F87E3520E097F8722507F585
:406D8000836353F8222097F87F3597F87D1501FB03F3184697F87D1597F87E35CB1A0344013B134497F87E2507F5AC610A4412781A7097F87E35013387F87E3597F87E2513
:406DC00097F87D359A42D8D397F87F35013387F87F3597F8723507F55C72D35C97F87F259A42BAD309E0BB1D1B88184600F070F803E000BF0C95FF1F00BF97F873359BB298
:406E0000BA1D12889A4211D0D7F8783593F8AB305B0103F51273D7F87825D018D7F8783503F5F8731022194618F0F4FC97F8723507F57172D35C002B42D1002387F87735DD
:406E4000FF2387F8763597F8773507F57172D35C002B04D197F87635013387F8763597F87735013387F8773597F8772597F872359A42E8D997F8763507F1D402D35C052BE6
:406E80001BD097F8763507F1D402D35C062B14D097F8763507F1D402D35C082B0DD097F8763507F1D402D35C092B06D097F8763507F1D402D35C0A2B02D1044B01221A70D8
:406EC00000BF07F5B067BD46B0BD00BFE981FF1FF0B587B000AF0346FB8000233B750123FB74FB88023B482B01F2248201A252F823F000BF197000004B72000035830000CB
:406F0000917400003583000035830000DB7400003583000035830000117600003583000035830000358300003583000035830000358300003583000035830000358300001E
:406F40003583000035830000117700006F770000358300003583000035830000A9770000358300003583000025790000D179000035830000358300003583000035830000B3
:406F8000358300000B7A00003583000035830000358300003583000035830000457A00008B7C000035830000B97E00003583000035830000217F00003583000035830000C7
:406FC0003580000035830000358300003583000035830000358300003583000035830000338100003583000035830000358300003583000035830000358300003583000018
:4070000035830000358300003583000035830000358300007D8100003A7DAB491346DB009B1A1B010B4403F20F131B78032B00F08680A64B1B68FB600023BB750EE0BB7DA5
:40704000C3F1030307F108021344BA7D07F10C010A4412781A70BB7D0133BB75BB7D032BEDD93C7DBB684FF08F41184618F0BAF90346184618F07CFB0146954A2346DB0003
:407080001B1B1B011344B0331960924B1B68FB600023BB750EE0BB7DC3F1030307F108021344BA7D07F10C010A4412781A70BB7D0133BB75BB7D032BEDD93C7DBB684FF003
:4070C0008F41184618F08EF90346184618F050FB01467F4A2346DB001B1B1B011344B43319607D4B1B68FB600023BB750EE0BB7DC3F1030307F108021344BA7D07F10C010E
:407100000A4412781A70BB7D0133BB75BB7D032BEDD93C7DBB684FF08F41184618F062F90346184618F024FB0146694A2346DB001B1B1B011344B833196001F006B9634B02
:407140001B68FB600023BB750EE0BB7DC3F1030307F108021344BA7D07F10C010A4412781A70BB7D0133BB75BB7D032BEDD93C7DBB684FF08F41184618F034F9034618461A
:4071800018F0F6FA0146524A2346DB001B1B1B011344C83319604F4B1B68FB600023BB750EE0BB7DC3F1030307F108021344BA7D07F10C010A4412781A70BB7D0133BB7555
:4071C000BB7D032BEDD93C7DBB684FF08F41184618F008F90346184618F0CAFA01463C4A2346DB001B1B1B011344CC3319603A4B1B68FB600023BB750EE0BB7DC3F10303D6
:4072000007F108021344BA7D07F10C010A4412781A70BB7D0133BB75BB7D032BEDD93C7DBB684FF08F41184618F0DCF80346184618F09EFA0146264A2346DB001B1B1B01D6
