:400000000080002011000000A9020000A9020000044A08B51268044B1A6000F0ADF900F04BF900BFFA460040BC76004010B5054C237833B9044B13B10448AFF300800123AE
:40004000237010BD4881FF1F000000001C170000084B10B51BB108490848AFF300800848036803B910BD074B002BFBD0BDE81040184700BF000000004C81FF1F1C170000A2
:40008000C880FF1F0000000008B500F077FDFEE7F8B572B66D4E0024354604EB4403AA8856F813000134002101F02CFB0A2C05F10605F2D1664E674B96E803008022186073
:4000C0009980654806F1080101F0F6FA06F1840706F1E00E0025E43657F8043F13F0FF0C23F0FF0414D00CF1FF3C5FFA8CFC05EB0C0006EB400006EB45030330013313F828
:40010000012C13F8021B98421155F8D1013565447745E1D1514C41F251262278504F42F0020222703A784F4D42F002023A702A78A4F5863442F040022A70413C2278A7F5E8
:400140007E4742F01002484B2270513F04F66E5403CB3860796003CBC5F8720DC5F8761D93E8070003C4414922800B7805F58C6543F008030B703E4C3E4861232B70A7F604
:40018000C2673D4A332118250223218005704FF040243B7008210320384B217010701A783748384BD2B287F8A123A4F8221206801C784FF4F07004F001041E4600F0D0FF91
:4001C00001E0032C0DD033784FF4F07003F0010343EA440400F0C4FF013D04F00304F0D1FEE7294B294D2A4F2A484FF4807407221C8000211A704826274A022439702E70FE
:4002000019700470137800F5F820033043F00103812601242149137085F8F86704700B78A0F5F420DBB21E49A0F2967005F5C35503F007071B4C1B090770023A0B700E35EF
:4002400044260FCA2E7007C42380F8BD201700005C17000060520040001A01400350014013500140A04300407C1B0000224300408040004082400040004200400801004916
:40028000204200402542004004400040084000400640004001400040A2430040CF0100496F580040B043004008B501F0D9F903680C2B00D0FEE7FEE780B5134FF7B1134E0E
:4002C000002556F80C0C56F8084C56F8102C03463CB1043A52F8041F43F8041B191AA142F8D156F8040C1A4620B142F8045BD11A8842FAD1013F06F11006E2D101F0B6F9E5
:40030000FFF7C2FEFEE700BF01000000D81B00000E4B0F4A0F491A600B680F4A43F400730E480B600023032B94BF50F823100C490133302B42F8041FF5D10A4B0A49187856
:400340000A4A0B4B08701A60FFF7A2BE0CED00E00004FA0514ED00E0FC7FFF1F00000000A9020000BC760040C080FF1F0080FF1F08ED00E0004700BF134A137803F0C003A3
:40038000802B00D0704770B400231048104E114D1370017833782A780F4C120442EA032322780B4353EA026301D170BC7047017833782A782078120442EA03230B4343EA24
:4003C000006070BCFFF7D6BFFA460040C1FF0300C2FF0300C3FF0300C4FF0300F0B50002C0F57F3090F8C5E390F8C67390F8C92390F8CAC390F8CB1390F8CC3390F8D15336
:40040000C1B0012D69D0DBB21D06C9B290F8C53390F8C663FFB245EA01415FFA8EFED2B25FFA8CFC0A434EEA072E43EA062642EA0C220EF10107013602EB072736020022FC
:40044000B74200F2D13415460AD916F8013B591EC9B2FD29134498BF0125B742DAB2F4D190F8C53390F8C6131D4E43EA0121B7424FEA411101F1200114BFFF084FF4004738
:400480008F4209D901F1904107F1904711F8013B1344B942DAB2F9D1534290F8C023DBB2934202D0062041B0F0BD002DFAD068464FF4807224F0FF0101F009F99DF8D1309B
:4004C000012B0AD00123C4F307216A4603208DF8D13000F0E1FB00F005FD002041B0F0BDC0FF0300013810B40B2863D8DFE800F017202632383E444A50565C060902C1F5DE
:400500007F3101F578710A784C788B78C8781B0443EA0423134343EA006010BC70470902C1F57F3101F57071087810BCC0B270470902C1F57F3101F2C131E4E70902C1F52B
:400540007F3101F2C5314A1C0B78107810BC43EA002070470902C1F57F3101F2C931D2E70902C1F57F3101F57471DDE70902C1F57F3101F2D131D7E70902C1F57F3101F2F2
:40058000D231E0E70902C1F57F3101F2D631DAE70902C1F57F3101F57571D4E70902C1F57F3101F57671AEE70902C1F57F3101F57771B9E701220021C6E700BF2DE98048DD
:4005C000ADF5677D00F0DCFD62B600239B461E4601930DF23F1451AF0DF245190DF5A3780293FF2305AA4FF4967150A800F0E8FD0028F6D1BDF81420062A03D99DF8405145
:40060000012D2CD04FF0040A0025284604210123ADF816008DF841A18DF842518DF843618DF840310023625C0139134489B29BB20029F8D15B429BB25FFA83FE1A0AC11D5C
:40064000172507F800E089B209F80020962308F800500DF1160250A800F09EFDC1E7BDF84231D91D914200F2E680B1F5967F00F2E28050AA1A449279172AC3D1191D89B2B8
:40068000002900F04A82625C0139104489B280B20029F8D1404280B250AAD11891F805E00A7942EA0E22824202D04FF0080AABE79DF841119DF844A1A1F131020A2A00F201
:4006C000AD80DFE802F04788AB5A41AB311F5A1606000020FFF782FE10B9BD4A8023137000F058FD002500F0C9FB04218A4628468DE7BBF1000F40F0BB80042100258A46CD
:40070000284684E7002BF8D1B24A082592E8030008AA82E8030087E8030001939A4628460C214FF0010B72E7BBF1000FE5D0019A03EB020EBEF5967F40F3108100252846DA
:4007400004214FF0030A62E7BBF1000FD5D00023019346E7BBF1000FCFD0002BCDD118460393FFF73BFEB0FA80F0039B40098DF844019A460521584649E734295ED0BBF15F
:40078000000FBAD0022BB8D9AAF1400B019D5FFA8BFB033B9BAA50190DF247111A46039300F08AFF019BBBF13F0F1A46039B1A4495B240F207814FF480734FF49072954288
:4007C00000F0F38000250195284604214FF0010B4FF0030A1BE7BBF1000F8ED0012B8CD1BAF1030F89D87C4B1B681B68C3F30742924500F09E8194BF012200220023FF2162
:4008000004258DF846118DF844318DF845218DF84761284608214FF0000AF8E66F4A1568002D6CD0BBF1000F6ED10025284604214FF0050AEBE64FF0030AE5E6BBF1000FA1
:400840003FF45BAF032B7FF458AFAAF1400B5FFA8BFBBBF13F0F94BF10254FF490752A4600219BA80393019500F04CFF039B90E7032B7FF442AFAAF140033F2BBDF84511CF
:4008800040F2E780FF2979D84FEA0A2E0EEB0100000200F1FF020023013812F801C963448242DBB2F9D1BAF13F0F20D80EF110720A4452011046203210F801EB73448242AB
:4008C000DBB2F9D1BAF1030F11D1FF290FD1002105200393FFF706FE039B00211B1A06205FFA83FAFFF7FEFDC0EB0A00C3B25B428DF8443105214FF0000A012087E6042160
:4009000028464FF0050A82E68DF81810ADF81A3006A80797089609960A9708A9A847BDF824000A9BB0F5937F01D3BB422ED05BB39DF82030021D91B28DF841310122030AAD
:40094000ADF816008DF842018DF840218DF8433100297FF467AE0A468E4670E61A46019B9BA90B441846394600251FFA8EF30193AA4600F0A1FE2846042148E60025284658
:4009800004214FF00A0A42E60028D1D001220E23ADF816608DF842618DF843618DF840218DF84131042100203CE6BDF845219A42019215D30025284604214FF0010B4FF016
:4009C0000A0A24E600F030FA80231022F7E600BFFA460040981B0000CC80FF1F6481FF1FBAF13F0F20D8554B02EB0A221B6892B21968C1F30F2311F0FF0F1CBF01339BB26B
:400A00009A42C0F08C80029B73B919464FF4907208A800F077FE4FF4907308AAFF21032000F0A0F9012302932B46019950469BAA00F098F9002398420CBF9A464FF00A0ABD
:400A400001931D464FF0010B00F04CFA01980421DDE5039100F0E8F903997F294FEA01138CD837483749384A18441944DFF8DCC000781A440978DFF8D8E012789C449E4445
:400A800008449CF80010DFF8CCC010449EF80020DFF8C4E09C449E4408449CF80010DFF8BCC010449EF80020DFF8B4E09C449E4408449CF80010DFF8ACC010449EF80020E5
:400AC000DFF8A4E09C449E4408449CF80010DFF89CC010449EF80020DFF894E09C449E4408449CF80010DFF88CC010449EF80020DFF884E09C4408449E449CF8001003F1A1
:400B00008043104403F500439EF8002001441B780A44134403F0FF03E9E60846BCE5002301931D46184604214FF0010B4FF00A0A6DE5C3F30723002261E600BFCC80FF1F7E
:400B40000F8000400E8000400D8000400C8000400B8000400A80004009800040088000400780004006800040058000400480004003800040028000400180004038B500F0E0
:400B800039F870BB0020FFF729FC184C0028236818BF06251A6808BF00256AB1002312F8011D0B44DBB2002AF9D162681278D31A03F0FF039A4202D0002000F05DF90C4A41
:400BC000137803F0C003402B00D025B1084B00221A70FFF7F3FC80231370BDE8384000F04DB9002000F048F9CCE700BFCC80FF1FFA46004038B500F0AFF900F05FFA10B14A
:400C00000424204638BD00F095FA072804462BD000F076FA002CF4D100F09EF900F04EFA0028EDD1012000F02DFA072805D04FF0FF3400F065FA204638BD154C02E0237812
:400C40009B07F4D40221134800F09CF90228F6D10F4C2378990705D4012000F03BF923789A07F9D50024E4E7094D2B789B0705D4012000F02FF92B789807F9D5044B1A78CB
:400C80009507D6D51B789B08D3D100F039FAC3E7224700407C81FF1FF0B53F2883B00AD8441F3A2C8CBF00240124B1F5807F17D9012003B0F0BD412894BF0024012481293F
:400CC00028BF01241027002AF2D0002CF0D116460D46044600F0F2F928B1042003B0F0BD4FF48077EFE73B4632462946204600F069F9072804D0019000F002FA0198EDE78A
:400D0000164E33789B0705D4012000F0E3F833789807F9D5114E33789F071BD533789B0818D10F4A294653782046127800F086F90728E0D102E0012000F0CCF8337899077A
:400D4000F9D5064B1A78920704D51B789B0801D11846D0E74FF0FF30CDE700BF224700407C81FF1FF0B5412883B015D8441F3A2C8CBF002401243F280FD8B1F5807F11D827
:400D800082B17CB91E4617460D46044600F096F958B1042003B0F0BD0124812928BF0124102BEDD0012003B0F0BD33463A462946204600F007F9072804D0019000F0A0F932
:400DC0000198F0E7164E33789B0705D4012000F081F833789807F9D5114E33789F071BD533789B0818D10F4A294653782046127800F024F90728E0D102E0012000F06AF8BB
:400E000033789907F9D5064B1A78920704D51B789B0801D11846D0E74FF0FF30CDE700BF224700407C81FF1F38B500F0A1F90F4A0F4913780F4C43F0080313700B78C82543
:400E400043F008030B702570137B43F0100313730B7B02F5587243F010030B7313789B06FCD5BDE8384000F087B900BFA0430040B04300400147004001BE7047024A13788B
:400E800043F0010313707047F6460040B0F5004F70B506461AD904460D4DA4F50044686800F05EF9B4F5004FF7D8A6F50043013B23F4FF4323F07F03A6F50046F61AA86885
:400EC00000FB06F0BDE8704000F04AB9004DF6E7D480FF1F024B1B7800FB03F000F040B9D480FF1F08B500F043F900BF00BF00BF00BF00BF00BF00BF00BF00BF00BF00BFD6
:400F000000BF00BF00BF00BF00BF064A13889BB243F0040313801388BFF36F8FBDE8084000F02AB900480040054B00F01F001A6800F1100352F8230042F82310704700BF29
:400F400008ED00E000F01F0000F16040490100F56440C9B20170704708B500F009F90749074A0B7843F008030B70137843F008031370BDE8084000F0FFB800BFA043004028
:400F8000B04300402DE9F0410F4699B14E1EF6B20644451E094CDFF8288002E00120FFF799FF2378DB07F9D598F8003005F8013FB542F6D13846BDE8F08100BF22470040F0
:400FC00020470040F0B41B4C2578AD071DD51A4DB6262E70D52702262F702E702478A40710D428705BB15E1EB6B21644013A12F8014FB2422C70FAD1B3F5807F08D0F0BC92
:40100000072070470920F0BC70470420F0BC70473F28F4D800F5103001EB0021490106480A46203112F8013BDBB291420370F9D1E5E700BF2247004020470040F0B40F4D53
:401040002C78A60716D50E4CB6262670D8270526277026702D78AD0709D40D0AC9B2207025702170227023700720F0BC70470920F0BC70470420F0BC704700BF2247004069
:40108000204700400B4A1378990711D530B40A4BB625E1240E211D701C7019701278920703D4187030BC07207047092030BC704704207047224700402047004038B500F019
:4010C00057F80D4A137823B1042400F055F8204638BD0125094915700C682C40F5D00C6824F001040C6000BF00BF00BF1C46556000F042F8204638BD6881FF1F0400084064
:4011000010B500F035F8094B002259681A70012908D1074C216841F00101216000BF00BF00BF5A60BDE8104000F026B86881FF1F04000840074B1B789B0708D5064BB620E1
:40114000E0210D221870197007201A7070470420704700BF2247004020470040000000000230800803D000BF01380046FCD17047EFF3108072B6704780F31088704700BFBB
:4011800008B500F071F800F04BF9BDE8084000F0A7B900BF00F0C6B8F8B50E460446174600F03EF94EB1751EADB22544013C14F8010F00F057F9AC42F9D13E800020F8BD6E
:4011C0002DE9F84303EB83035D0006468846174618BF002407D117E001340120A4B2FFF755FEAC4210DA00F0F3F80028F4D000F0EFF804461920FFF749FE00F0E9F88442CA
:40120000F5D34FF0000901E04FF0050900243C8000F0DEF8F8B100F0DBF83A8880B283189BB243453B801BD2C0B1204485B200F0A1F8631C30559CB2AC42F8D1731913F81D
:40124000013C172B02D00520FFF720FE2C4600F0BFF80028DFD14846BDE8F8832546EDE73A804846BDE8F883F8B5224D2C780CBB21492046FFF758FE20460721FFF762FE17
:401280001E4B1F492022692008701A701D4901206C70FFF749FE07210120FFF753FE1A4E1A481B4A06274724022101233770047011702B70FFF75CFF0546164C1649237823
:4012C000164A43F0200323700B78012043F010030B701060A378124843F010030221A3700160116000F09CF92846BDE8F840FFF743BF00BF7081FF1F211500008964004014
:4013000089650040B915000028640040386400408B650040996500409964004000E100E080E200E038B5FFF723FF05460D4A0E4C137803F0DF03137000F082F923780B4A1C
:40134000012003F0EF030A49237010600B78022403F0EF030B7028461460BDE83840FFF70BBF00BF996500409964004080E100E09B65004010B4114B114A0121196091786F
:40138000D3781079C9B210B9DBB2994212D04B1CDBB2402B0B4828BF0023405C93701379074CC0B20BB100232371074B01221A6010BC7047054B1878C0B2F6E780E100E0CA
:4013C0007081FF1F8081FF1F00E100E04A650040104A0121104B11609978DA7891420FD09978DA789142DA78987824BF02F14003181A0A4B38BF101A0122C0B21A60704793
:401400001B790122002B054B14BF402000201A60704700BF80E100E07081FF1F00E100E010B5FFF7A5FE0B4B0B4C1A7842F001021A701A7802F0FE021A70FFF79DFE074BD9
:4014400000220121064821609A70DA701A715A71016010BD9A65004080E100E07081FF1F00E100E070B4194DEC79AB792646DBB2591EE21A091BA2F13F02B1FA81F1B2FAF1
:4014800082F249095209A34288BF0A46002AECD1A34212D03F2C0E4A88BF00260D4B90551B789ABF0134E4B201249B07EC7102D5094B02221A6070BC7047064B1B785A07A8
:4014C000E8D4064B187070BC704700BF7081FF1FC081FF1F6B65004000E200E04865004010B5FFF745FE0A4B0A4C1A7842F001021A701A7802F0FE021A70FFF73DFE064AFF
:401500000223002105482360D1719171036010BD9865004080E100E07081FF1F00E100E02DE9F0431C481D491D4F1E4A1E4E1F4CDFF880C01E4D4FF0010E0378DBB213F03A
:401540001E0905D091F8008049EA080881F800809B0601D4BDE8F08397F8008013785FFA88F8DBB206F8038023784FF000080BB18CF800E013780133DBB2137013783F2B55
:4015800088BF82F8008092F800802B789845D4D184F800E0D1E700BF696400407181FF1F4A6500407381FF1F8081FF1F7481FF1F7281FF1F7581FF1F144A154813780178B4
:4015C000994221D0F0B513490B7803F0040303F0FF06C3B91746104D104C02E00B785B0711D413783F2B88BF3E701378DBB2EB5CDBB22370137890F800E00133DBB21370CB
:4016000013789E45EAD1F0BD704700BF7681FF1F7781FF1F6B650040C081FF1F486500400549064A0B7843F001030B70137843F001031370704700BFA2430040B2430040EF
:401640000549064A0B7803F0FE030B70137803F0FE031370704700BFA2430040B2430040014B1868704700BF4481FF1F0E4B70B51E460E4C0025E41AA410A54204D056F8C7
:40168000253098470135F8E700F08CFA084B094C1E46E41AA4100025A54204D056F8253098470135F8E770BDB01B0000B01B0000B01B0000B81B000010B5431E0A4491428E
:4016C00004D011F8014B03F8014FF8E710BD884210B501EB020301D8421E0BE09842FBD28118D21AD34204D013F8014D01F8014DF8E710BD994204D011F8014B02F8014F77
:40170000F8E710BD03460244934202D003F8011BFAE77047001D0000ED00000000000000005100401000205100401000405100403000F051004010000000014000100014B5
:4017400001400006801A0140800100400140000A004C014000020050014020001090000040000000CF083042C3003C0800100000082000000020F3000C30F3003D0FC0F055
:4017800008000084023F20C004F800010C3900C6430010C740318C003F0000FF00002800000000402105040003EC000003FFFFFF62A0F0410C00000000000000040404044F
:4017C0000000000100000000000040020010301000101012000000000000000000000000000000000152004001640040026500400107014054080140370901400414014085
:4018000003150140011701404D180140411901400D1A0140411B0140034001400241014002420140044301400147014002480140084C01400E4D014004500140015101402E
:401840000914893A89698B0FE60203010461060E071809480A400B860E0811801365142C15E61643171119601B8B1E43206121A02206260C28102D802F023020320F330774
:40188000341035F8364038023A083B083E504003474049FF4A074BFF4C404D204EF04F055008580459045A045F01604061A8624063208320850387048A028B088D038E022A
:4018C0008F0C9001950A9704980199039B04A310A710A801AF05B001B10FB320B510B602BB02BE40BF10D41AD604D804D904DB04DF0100A005800605071008800A450E2010
:401900000F0211101502161819401B021D241E211F0120402105220223042404271029012B212D802E023104331035043602371038523A143C143E083F0245084F025601C3
:4019400059025A206140634485208740C0E3C2AAC472CA9BCCE6CEEFD040D605D80DE008B980BF40D904DF012680A680B280EA0801020B011001140419011E022006280662
:401980002D01320633033401380839083E1440454102460E47BC483449FF4AFF4BFF4EF04F44500C580459045A045F0166C06A406B0284038508860C89088D088E0E900232
:4019C00091089208953D960F9702980299239A049B1C9D1E9F01A127A318A501A716A80CA926AA03AB19AC03AE0CAF1FB320B401B508B60EB71FB820BA80BB80BF04D602C6
:401A0000D712D804D904DB04DF01000403020520060408280A800E300F821209150216C0171019801BA01D081E082254241028282A012B8A2E8031143249371038A83E10F9
:401A40003F02464047104E02560657405A0869106A46705C79017A027B41910A941295109664978098809B109D039E06A210A303A450A508A720AF40B701C005C2BEC4533B
:401A8000CA1FCC2FCEAED0A0D210D602840188018C019601A201AE02B203BA08D401D604D804DB04DF0100440380059408120A120E101048114012101580164018041916A1
:401AC0001E101F0820802142281229042A402B8A30483110324138E239083A1040264102481049815C805D215E0867806A4082408C218D4090A09109928294069780988038
:401B000099A09C209D17A008A204A382A450A708C0EDC22FC49FCA0FCC0FCE0FD00FD208D6F0D880E004E88030103580CC309C109D809C109D8084109C109D80E640862085
:401B4000AD80EA105840620199089A20B508D401D802E80212807220750882018E8099089A209E01B040C408DC01DE04E202E80100010C0110011C01000F00004090900073
:401B80009000000010140400140000000000000101000000000000006910162E003C010143000000F8B500BFF8BC08BC9E4670475100000011030000F8B500BFF8BC08BC51
:401BC0009E4670472D000000D81B0000C880FF1F80000000B8000000000000001417000018170000180000000000E02EC05D000000366E010000000000000000000000004A
:401C00000000000000000000000000000000000000000000A01B000000000000000000000000000000000000000000000000000000000000000000000000000000000000E9
:401C40000000000000000000000000000000000000000000E480FF1F00000000000000000000000000000000000000000000000000000000000000000000000000000000E2
:401C80000000000000000000000000000000000000000000000000000000000000000000000000000000000000000000000000000000000000000000000000000000000024
:401CC00000000000000000000000000000000000000000000000000000000000000000000000000000000000000000000000000000000000000000000000000000000000E4
:401D000000800020111D0000017B0100017B010080B500AF15F028FF10B5054C237833B9044B13B10448AFF300800123237010BD2082FF1F0000000038270200084B10B5F0
:401D40001BB108490848AFF300800848036803B910BD074B002BFBD0BDE81040184700BF000000002482FF1F38270200C880FF1F0000000080B58AB000AFE34B1B7887F84C
:401D80002730E14BB3F98030DBB2013BDBB21946DD480BF02DFA03461946DB4BB3F98030013BD94AD35C994204D0D74B002283F8842053E297F82730A72B00F24E8201A22C
:401DC00052F823F0E9200000CB2000005B220000EF200000F520000019210000B32000005B2200005B2200004D210000332100005B220000D12000006F2100005B220000AD
:401E00005B2200005B2200005B2200005B2200005B2200005B2200005B2200005B2200005B2200005B2200005B2200005B2200005B2200005B2200005B2200005B220000D2
:401E40005B2200005B2200005B2200005B2200005B2200005B2200005B2200005B2200005B2200005B2200005B2200005B2200005B2200005B2200005B2200005B22000092
:401E80005B2200005B2200005B2200005B2200005B2200005B2200005B2200005B2200005B2200005B2200005B2200005B2200005B2200005B2200005B2200005B22000052
:401EC0005B2200005B2200005B2200005B2200005B2200005B2200005B2200005B2200005B2200005B2200005B2200005B2200005B2200005B2200005B2200005B22000012
:401F00005B2200005B2200005B2200005B2200005B2200005B2200005B2200005B2200005B2200005B2200005B2200005B2200005B2200005B2200005B2200005B220000D1
:401F40005B2200005B2200005B2200005B2200005B2200005B2200005B2200005B2200005B2200005B2200005B2200005B2200005B2200005B2200005B2200005B22000091
:401F80005B2200005B2200005B2200005B2200005B2200005B2200005B2200005B2200005B2200005B2200005B2200005B2200005B2200005B2200005B2200005B22000051
:401FC0005B22000065200000A12000006B200000AD200000712000007D200000772000005B2200009B200000892000005B2200008F200000832000005B2200005B22000057
:402000005B220000A72000005B220000952000005B2200005B2200005B2200005B2200005B2200005B2200005B2200005B2200005B2200005B2200005B2200005B2200004E
:402040005B2200005B2200000D220000132200002B22000031220000372200003D220000432200000BF05AFFF8E00BF035FEF5E00BF0B8FCF2E00BF0DDFFEFE00CF076F885
:40208000ECE00CF0E9F8E9E00BF040FDE6E00BF099FDE3E00BF0F2FDE0E00CF067FADDE00BF09AFFDAE00CF009F9D7E00CF030F9D4E0164B1B887B617B695BBA3B613B69A3
:4020C0009BB2184600F0D6F8C8E007F065F8C5E00E4B1B883B623B6A5BBAFB60FB689BB2184603F077FAB9E00CF002F9B6E00CF05FF9B3E032200BF0B3F80346002B07D066
:4021000001200BF095F8A9E07895FF1F7995FF1F00200BF08DF8A1E00BF02EF90346002B03D001200BF084F898E000200BF080F894E00BF04FF90346002B03D001200BF0CF
:4021400077F88BE000200BF073F887E001200BF06FF84FF47A7018F055FB002015F0D0FE4FF47A7018F04EFB16F0DAFD76E03D4B5B781B021AB23B4B9B781BB213431AB220
:40218000394B5A80374BDB781B021AB2354B1B791BB213431AB2344B9A80334BB3F90230B3F1FF3F0FD1304BB3F90430B3F1FF3F09D12D4B00221A702B4B00225A802A4B27
:4021C00000229A804AE0284BB3F90230002B03DA254B00225A8007E0234BB3F90230C82B02DD214BC8225A801F4BB3F90430002B02DA1D4B00229A801C4B00221A601A4B22
:4022000001221A7001200BF013F827E00CF0DEF924E0174B1B88FB61FB695BBABB60BB689BB2184606F0BEF818E00CF09BFC15E00CF0DEFC12E00CF051FD0FE00CF07CFD87
:402240000CE00B4B1B88BB61BB695BBA7B607B689BB218460CF0D0FD00E000BF2837BD4680BD00BF7895FF1F0096FF1F08A4FF1F7995FF1F80B5ADF5BB4D92B000AF024608
:4022800007F14803423B1A8007F59C4303F1280300221A60043340F69C72002118461DF044FD07F14803403B00221A60043344F61C62002118461DF038FD07F14803423B1C
:4022C0001B88052B66D801A252F823F0E5220000072300002923000051230000732300009123000007F59C4303F12803184606F09BFF16F057FA07F59C4303F128031846FB
:4023000016F02EFA47E007F59C4303F12803184609F03AF816F046FA07F59C4303F12803184616F01DFA36E007F59C4303F128034FF47A6219461B4813F014FD16F032FAD3
:4023400007F59C4303F12803184616F009FA22E007F14803403B44F62061184613F026FD16F020FA07F14803403B184616F0F8F911E007F14803403B184613F023FE16F093
:4023800011FA07F14803403B184616F0E9F902E013F042FD00BF00BF07F5BB474837BD4680BD00BFBC82FF1FF0B5ADF5B05D87B000AF07F118040C3C206007F11800103826
:4023C000016007F1180114390A6007F11802183A136007F15803043B00221A60043341F2AA52002118461DF0A0FC41F2AE5307F5B05202F110021380002307F5B05202F143
:4024000015021370002307F5B05202F114021370002307F5B05202F11302137007F13803183B00221A6004332E22002118461DF07CFC002307F5B05202F10F021370012330
:4024400007F5B05202F10E02137007F118030C3B1B681B6807F5B05202F10802136007F5B05303F108031B6807F5B05202F10402136007F15803043B0C221A7007F1580382
:40248000043B4D225A70002307F5B05202F11502137002F0EABF07F5B05303F115031B789A0007F118030C3B1B6813441B6807F5B05202F10802136007F5B05303F11503F3
:4024C0001B78322202FB03F39A1C07F5B05303F11503197807F11803103B1B680B44197807F15803043B995407F5B05303F115031B78322202FB03F3DA1C07F5B05303F1A2
:402500001503197807F11803143B1B680B44197807F15803043B995407F5B05303F115031A7807F11803103B1B6813441B78092B2BD801A252F823F0612500006125000003
:40254000612500006F2500006F2500007D2500007D2500007D2500008B25000061250000012307F5B05202F1130213700DE0022307F5B05202F11302137006E0042307F540
:40258000B05202F11302137000BF07F5B05303F115031B7807F5B15202F11802126813441B78002B40F0DA8307F5B05303F115031A7807F11803103B1B6813441B78092B6D
:4025C00002F2338101A252F823F000BFF5250000B1260000F52500006D2700009F280000CB290000FB2A00002B2C00002B480000F5250000002307F5B05202F11702137061
:4026000042E007F5B05303F117031B7807F5B05202F11302127802FB03F31A4607F5B05303F108031B68134407F5B05202F10402136007F5B05303F115031B78322202FBC4
:4026400003F31A1D07F5B05303F117031B7807F5B05101F11301097801FB03F31A4407F5B05303F104031B68197807F15803043B995407F5B05303F117031B78013307F55C
:40268000B05202F11702137007F5B05303F115031A7807F11803143B1B6813441B7807F5B05202F1170212789A42AAD302F0BDB8002307F5B05202F11702137042E007F5FB
:4026C000B05303F117031B7807F5B05202F11302127802FB03F31A4607F5B05303F108031B68134407F5B05202F10402136007F5B05303F115031B78322202FB03F31A1DF5
:4027000007F5B05303F117031B7807F5B05101F11301097801FB03F31A4407F5B05303F104031B68197807F15803043B995407F5B05303F117031B78013307F5B05202F1D3
:402740001702137007F5B05303F115031A7807F11803143B1B6813441B7807F5B05202F1170212789A42AAD302F05FB8002307F5B05202F1170213707CE007F5B05303F15C
:4027800017031B7807F5B05202F11302127802FB03F31A4607F5B05303F108031B68134407F5B05202F10402136007F5B05303F104031B68B3F9002007F138031E3B1A80D8
:4027C000002307F5B05202F1160213703BE007F5B05303F115031B78322202FB03F31A1D07F5B05303F117031B7807F5B05101F11301097801FB03F31A4407F5B05303F18C
:4028000013031B781A4407F5B05303F116031B78D31A5A1E07F5B05303F11603197807F138031E3B0B44197807F15803043B995407F5B05303F116031B78013307F5B05234
:4028400002F11602137007F5B05303F116031A7807F5B05303F113031B789A42B7D307F5B05303F117031B78013307F5B05202F11702137007F5B05303F115031A7807F134
:402880001803143B1B6813441B7807F5B05202F1170212789A42FFF470AF01F0C6BF002307F5B05202F11702137079E007F5B05303F117031B7807F5B05202F11302127810
:4028C00002FB03F31A4607F5B05303F108031B68134407F5B05202F10402136007F5B05303F104031B681A8807F118031A80002307F5B05202F1160213703AE007F5B053AF
:4029000003F115031B78322202FB03F31A1D07F5B05303F117031B7807F5B05101F11301097801FB03F31A4407F5B05303F113031B781A4407F5B05303F116031B78D31A80
:402940005A1E07F5B05303F116031B7807F118010B44197807F15803043B995407F5B05303F116031B78013307F5B05202F11602137007F5B05303F116031A7807F5B053D4
:4029800003F113031B789A42B8D307F5B05303F117031B78013307F5B05202F11702137007F5B05303F115031A7807F11803143B1B6813441B7807F5B05202F117021278B2
:4029C0009A42FFF473AF01F030BF002307F5B05202F1170213707BE007F5B05303F117031B7807F5B05202F11302127802FB03F31A4607F5B05303F108031B68134407F5A4
:402A0000B05202F10402136007F5B05303F104031B681A6807F11803043B1A60002307F5B05202F1160213703BE007F5B05303F115031B78322202FB03F31A1D07F5B05378
:402A400003F117031B7807F5B05101F11301097801FB03F31A4407F5B05303F113031B781A4407F5B05303F116031B78D31A5A1E07F5B05303F11603197807F11803043BF4
:402A80000B44197807F15803043B995407F5B05303F116031B78013307F5B05202F11602137007F5B05303F116031A7807F5B05303F113031B789A42B7D307F5B05303F1C5
:402AC00017031B78013307F5B05202F11702137007F5B05303F115031A7807F11803143B1B6813441B7807F5B05202F1170212789A42FFF471AF01F098BE002307F5B05211
:402B000002F1170213707BE007F5B05303F117031B7807F5B05202F11302127802FB03F31A4607F5B05303F108031B68134407F5B05202F10402136007F5B05303F10403EC
:402B40001B681A6807F11803083B1A60002307F5B05202F1160213703BE007F5B05303F115031B78322202FB03F31A1D07F5B05303F117031B7807F5B05101F11301097876
:402B800001FB03F31A4407F5B05303F113031B781A4407F5B05303F116031B78D31A5A1E07F5B05303F11603197807F11803083B0B44197807F15803043B995407F5B05376
:402BC00003F116031B78013307F5B05202F11602137007F5B05303F116031A7807F5B05303F113031B789A42B7D307F5B05303F117031B78013307F5B05202F11702137074
:402C000007F5B05303F115031A7807F11803143B1B6813441B7807F5B05202F1170212789A42FFF471AF01F000BE002307F5B05202F1170213707BE007F5B05303F11703DE
:402C40001B7807F5B05202F11302127802FB03F31A4607F5B05303F108031B68134407F5B05202F10402136007F5B05303F104031B681A6807F138031C3B1A60002307F57A
:402C8000B05202F1160213703BE007F5B05303F115031B78322202FB03F31A1D07F5B05303F117031B7807F5B05101F11301097801FB03F31A4407F5B05303F113031B783D
:402CC0001A4407F5B05303F116031B78D31A5A1E07F5B05303F11603197807F138031C3B0B44197807F15803043B995407F5B05303F116031B78013307F5B05202F1160210
:402D0000137007F5B05303F116031A7807F5B05303F113031B789A42B7D307F5B05303F117031B78013307F5B05202F11702137007F5B05303F115031A7807F11803143B10
:402D40001B6813441B7807F5B05202F1170212789A42FFF471AF00BF01F067BD07F5B05303F115031B780133023B332B01F25C8501A252F823F000BF492E000015330000D0
:402D800029480000294800002948000029480000E537000029480000294800000B390000294800002948000029480000294800002948000029480000294800002948000085
:402DC000294800002948000029480000CF3A00002948000029480000294800002948000029480000294800002948000029480000294800002948000029480000294800002B
:402E00002948000029480000294800002948000029480000294800002948000029480000A33B00006B400000294800002948000029480000294800003945000029480000CE
:402E4000294800005D46000007F5B05303F10F031A78AC491346DB009B1A1B010B4403F20F131B78032B00F0298107F5B05303F10F031A78A3491346DB009B1A1B010B4415
:402E8000B0331B6818461CF0D9FC03464FF08F4118461CF0DBFD03461A4607F138031C3B1A60002307F5B05202F1170213702EE007F5B05303F115031B78322202FB03F383
:402EC0001A1D07F5B05303F113031B781A4407F5B05303F117031B78D31A5A1E07F5B05303F11703197807F138031C3B0B44197807F15803043B995407F5B05303F1170308
:402F00001B78013307F5B05202F11702137007F5B05303F117031A7807F5B05303F113031B789A42C4D307F5B05303F10F031A7874491346DB009B1A1B010B44B4331B687D
:402F400018461CF07BFC03464FF08F4118461CF07DFD03461A4607F138031C3B1A60002307F5B05202F11702137034E007F5B05303F115031B78322202FB03F31A1D07F5AB
:402F8000B05303F113031B781A4407F5B05303F113031B781A4407F5B05303F117031B78D31A5A1E07F5B05303F11703197807F138031C3B0B44197807F15803043B99548D
:402FC00007F5B05303F117031B78013307F5B05202F11702137007F5B05303F117031A7807F5B05303F113031B789A42BED307F5B05303F10F031A7842491346DB009B1ABD
:403000001B010B44B8331B6818461CF017FC03464FF08F4118461CF019FD03461A4607F138031C3B1A60002307F5B05202F11702137035E007F5B05303F115031B783222FE
:4030400002FB03F31A1D07F5B05303F113031B785B001A4407F5B05303F113031B781A4407F5B05303F117031B78D31A5A1E07F5B05303F11703197807F138031C3B0B445B
:40308000197807F15803043B995407F5B05303F117031B78013307F5B05202F11702137007F5B05303F117031A7807F5B05303F113031B789A42BDD301F0B7BB07F5B05396
:4030C00003F10F031A780F491346DB009B1A1B010B44C8331B6818461CF0B0FB03464FF08F4118461CF0B2FC03461A4607F138031C3B1A60002307F5B05202F1170213702C
:4031000031E000BFD4A0FF1F07F5B05303F115031B78322202FB03F31A1D07F5B05303F113031B781A4407F5B05303F117031B78D31A5A1E07F5B05303F11703197807F17C
:4031400038031C3B0B44197807F15803043B995407F5B05303F117031B78013307F5B05202F11702137007F5B05303F117031A7807F5B05303F113031B789A42C4D307F553
:40318000B05303F10F031A78AB491346DB009B1A1B010B44CC331B6818461CF04FFB03464FF08F4118461CF051FC03461A4607F138031C3B1A60002307F5B05202F117020D
:4031C000137034E007F5B05303F115031B78322202FB03F31A1D07F5B05303F113031B781A4407F5B05303F113031B781A4407F5B05303F117031B78D31A5A1E07F5B05324
:4032000003F11703197807F138031C3B0B44197807F15803043B995407F5B05303F117031B78013307F5B05202F11702137007F5B05303F117031A7807F5B05303F11303FD
:403240001B789A42BED307F5B05303F10F031A7879491346DB009B1A1B010B44D0331B6818461CF0EBFA03464FF08F4118461CF0EDFB03461A4607F138031C3B1A60002352
:4032800007F5B05202F11702137035E007F5B05303F115031B78322202FB03F31A1D07F5B05303F113031B785B001A4407F5B05303F113031B781A4407F5B05303F11703F4
:4032C0001B78D31A5A1E07F5B05303F11703197807F138031C3B0B44197807F15803043B995407F5B05303F117031B78013307F5B05202F11702137007F5B05303F11703E1
:403300001A7807F5B05303F113031B789A42BDD301F08BBA07F5B05303F10F031A7846491346DB009B1A1B010B4403F20F131B78032B00F02B8107F5B05303F10F031A7838
:403340003D491346DB009B1A1B010B44BC331B6818461CF073FA03464FF08F4118461CF075FB03461A4607F138031C3B1A60002307F5B05202F1170213702EE007F5B0538E
:4033800003F115031B78322202FB03F31A1D07F5B05303F113031B781A4407F5B05303F117031B78D31A5A1E07F5B05303F11703197807F138031C3B0B44197807F1580396
:4033C000043B995407F5B05303F117031B78013307F5B05202F11702137007F5B05303F117031A7807F5B05303F113031B789A42C4D307F5B05303F10F031A780E4913464B
:40340000DB009B1A1B010B44C0331B6818461CF015FA03464FF08F4118461CF017FB03461A4607F138031C3B1A60002307F5B05202F11702137036E0D4A0FF1F07F5B053CA
:4034400003F115031B78322202FB03F31A1D07F5B05303F113031B781A4407F5B05303F113031B781A4407F5B05303F117031B78D31A5A1E07F5B05303F11703197807F1A0
:4034800038031C3B0B44197807F15803043B995407F5B05303F117031B78013307F5B05202F11702137007F5B05303F117031A7807F5B05303F113031B789A42BED307F516
:4034C000B05303F10F031A78C5491346DB009B1A1B010B44C4331B6818461CF0AFF903464FF08F4118461CF0B1FA03461A4607F138031C3B1A60002307F5B05202F11702FC
:40350000137035E007F5B05303F115031B78322202FB03F31A1D07F5B05303F113031B785B001A4407F5B05303F113031B781A4407F5B05303F117031B78D31A5A1E07F587
:40354000B05303F11703197807F138031C3B0B44197807F15803043B995407F5B05303F117031B78013307F5B05202F11702137007F5B05303F117031A7807F5B05303F1CD
:4035800013031B789A42BDD301F04FB907F5B05303F10F031A7892491346DB009B1A1B010B44D4331B6818461CF048F903464FF08F4118461CF04AFA03461A4607F1380320
:4035C0001C3B1A60002307F5B05202F1170213702EE007F5B05303F115031B78322202FB03F31A1D07F5B05303F113031B781A4407F5B05303F117031B78D31A5A1E07F525
:40360000B05303F11703197807F138031C3B0B44197807F15803043B995407F5B05303F117031B78013307F5B05202F11702137007F5B05303F117031A7807F5B05303F10C
:4036400013031B789A42C4D307F5B05303F10F031A7863491346DB009B1A1B010B44D8331B6818461CF0EAF803464FF08F4118461CF0ECF903461A4607F138031C3B1A6069
:40368000002307F5B05202F11702137034E007F5B05303F115031B78322202FB03F31A1D07F5B05303F113031B781A4407F5B05303F113031B781A4407F5B05303F1170329
:4036C0001B78D31A5A1E07F5B05303F11703197807F138031C3B0B44197807F15803043B995407F5B05303F117031B78013307F5B05202F11702137007F5B05303F11703DD
:403700001A7807F5B05303F113031B789A42BED307F5B05303F10F031A7831491346DB009B1A1B010B44DC331B6818461CF086F803464FF08F4118461CF088F903461A4623
:4037400007F138031C3B1A60002307F5B05202F11702137035E007F5B05303F115031B78322202FB03F31A1D07F5B05303F113031B785B001A4407F5B05303F113031B7873
:403780001A4407F5B05303F117031B78D31A5A1E07F5B05303F11703197807F138031C3B0B44197807F15803043B995407F5B05303F117031B78013307F5B05202F1170241
:4037C000137007F5B05303F117031A7807F5B05303F113031B789A42BDD301F026B800BFD4A0FF1F07F5B05303F10F031A78CC491346DB009B1A1B010B4403F588731B78F9
:40380000184607F5B05303F117031A78C54903465B0003449B001344663351F8231007F5B05303F10F031A78BD481346DB009B1A1B01034403F588731B781C4607F5B053BC
:4038400003F117031A78B74823465B0023441B010344134403F295131B7841FA03F31AB207F138031E3B1A80002307F5B05202F1160213703BE007F5B05303F115031B7809
:40388000322202FB03F31A1D07F5B05303F117031B7807F5B05101F11301097801FB03F31A4407F5B05303F113031B781A4407F5B05303F116031B78D31A5A1E07F5B05319
:4038C00003F11603197807F138031E3B0B44197807F15803043B995407F5B05303F116031B78013307F5B05202F11602137007F5B05303F116031A7807F5B05303F1130339
:403900001B789A42B7D300F090BF07F5B05303F10F031A7883491346DB009B1A1B010B44E433196807F5B05303F10F031A787C481346DB009B1A1B01034403F588731B78D3
:403940001846784A03465B0003441B01134403F295131B7841FA03F207F11803043B1A60002307F5B05202F1160213702EE007F5B05303F115031B78322202FB03F31A1DC4
:4039800007F5B05303F113031B781A4407F5B05303F116031B78D31A5A1E07F5B05303F11603197807F11803043B0B44197807F15803043B995407F5B05303F116031B781C
:4039C000013307F5B05202F11602137007F5B05303F116031A7807F5B05303F113031B789A42C4D307F5B05303F10F031A784D491346DB009B1A1B010B44E833196807F541
:403A0000B05303F10F031A7845481346DB009B1A1B01034403F588731B781846414A03465B0003441B01134403F295131B7841FA03F207F11803043B1A60002307F5B052F8
:403A400002F11602137034E007F5B05303F115031B78322202FB03F31A1D07F5B05303F113031B781A4407F5B05303F113031B781A4407F5B05303F116031B78D31A5A1E90
:403A800007F5B05303F11603197807F11803043B0B44197807F15803043B995407F5B05303F116031B78013307F5B05202F11602137007F5B05303F116031A7807F5B053BC
:403AC00003F113031B789A42BED300F0AEBE154BD3F8A01207F5B05303F10F031A7810481346DB009B1A1B01034403F588731B7818460C4A03465B0003441B01134403F2BB
:403B000095131B7841FA03F207F11803043B1A60002307F5B05202F11602137033E000BFA4A5FF1FD4A0FF1F07F5B05303F115031B78322202FB03F31A1D07F5B05303F1C5
:403B400013031B781A4407F5B05303F116031B78D31A5A1E07F5B05303F11603197807F11803043B0B44197807F15803043B995407F5B05303F116031B78013307F5B0521B
:403B800002F11602137007F5B05303F116031A7807F5B05303F113031B789A42C4D300F044BE07F5B05303F10E031A78AB491346DB009B1A1B010B4403F20F131B78032B22
:403BC00000F0298107F5B05303F10E031A78A3491346DB009B1A1B010B44B0331B6818461BF02CFE03464FF08F4118461BF02EFF03461A4607F138031C3B1A60002307F5A2
:403C0000B05202F1170213702EE007F5B05303F115031B78322202FB03F31A1D07F5B05303F113031B781A4407F5B05303F117031B78D31A5A1E07F5B05303F1170319782C
:403C400007F138031C3B0B44197807F15803043B995407F5B05303F117031B78013307F5B05202F11702137007F5B05303F117031A7807F5B05303F113031B789A42C4D34C
:403C800007F5B05303F10E031A7874491346DB009B1A1B010B44B4331B6818461BF0CEFD03464FF08F4118461BF0D0FE03461A4607F138031C3B1A60002307F5B05202F16F
:403CC0001702137034E007F5B05303F115031B78322202FB03F31A1D07F5B05303F113031B781A4407F5B05303F113031B781A4407F5B05303F117031B78D31A5A1E07F503
:403D0000B05303F11703197807F138031C3B0B44197807F15803043B995407F5B05303F117031B78013307F5B05202F11702137007F5B05303F117031A7807F5B05303F105
:403D400013031B789A42BED307F5B05303F10E031A7842491346DB009B1A1B010B44B8331B6818461BF06AFD03464FF08F4118461BF06CFE03461A4607F138031C3B1A60A2
:403D8000002307F5B05202F11702137035E007F5B05303F115031B78322202FB03F31A1D07F5B05303F113031B785B001A4407F5B05303F113031B781A4407F5B05303F1E0
:403DC00017031B78D31A5A1E07F5B05303F11703197807F138031C3B0B44197807F15803043B995407F5B05303F117031B78013307F5B05202F11702137007F5B05303F1D6
:403E000017031A7807F5B05303F113031B789A42BDD300F00ABD07F5B05303F10E031A780E491346DB009B1A1B010B44C8331B6818461BF003FD03464FF08F4118461BF02E
:403E400005FE03461A4607F138031C3B1A60002307F5B05202F11702137030E0D4A0FF1F07F5B05303F115031B78322202FB03F31A1D07F5B05303F113031B781A4407F52E
:403E8000B05303F117031B78D31A5A1E07F5B05303F11703197807F138031C3B0B44197807F15803043B995407F5B05303F117031B78013307F5B05202F11702137007F515
:403EC000B05303F117031A7807F5B05303F113031B789A42C4D307F5B05303F10E031A78AB491346DB009B1A1B010B44CC331B6818461BF0A3FC03464FF08F4118461BF0E7
:403F0000A5FD03461A4607F138031C3B1A60002307F5B05202F11702137034E007F5B05303F115031B78322202FB03F31A1D07F5B05303F113031B781A4407F5B05303F165
:403F400013031B781A4407F5B05303F117031B78D31A5A1E07F5B05303F11703197807F138031C3B0B44197807F15803043B995407F5B05303F117031B78013307F5B052DC
:403F800002F11702137007F5B05303F117031A7807F5B05303F113031B789A42BED307F5B05303F10E031A7879491346DB009B1A1B010B44D0331B6818461BF03FFC0346AB
:403FC0004FF08F4118461BF041FD03461A4607F138031C3B1A60002307F5B05202F11702137035E007F5B05303F115031B78322202FB03F31A1D07F5B05303F113031B78E1
:404000005B001A4407F5B05303F113031B781A4407F5B05303F117031B78D31A5A1E07F5B05303F11703197807F138031C3B0B44197807F15803043B995407F5B05303F14E
:4040400017031B78013307F5B05202F11702137007F5B05303F117031A7807F5B05303F113031B789A42BDD3DFE307F5B05303F10E031A7846491346DB009B1A1B010B44F0
:4040800003F20F131B78032B00F02B8107F5B05303F10E031A783E491346DB009B1A1B010B44BC331B6818461BF0C8FB03464FF08F4118461BF0CAFC03461A4607F138031A
:4040C0001C3B1A60002307F5B05202F1170213702EE007F5B05303F115031B78322202FB03F31A1D07F5B05303F113031B781A4407F5B05303F117031B78D31A5A1E07F51A
:40410000B05303F11703197807F138031C3B0B44197807F15803043B995407F5B05303F117031B78013307F5B05202F11702137007F5B05303F117031A7807F5B05303F101
:4041400013031B789A42C4D307F5B05303F10E031A780F491346DB009B1A1B010B44C0331B6818461BF06AFB03464FF08F4118461BF06CFC03461A4607F138031C3B1A60C7
:40418000002307F5B05202F11702137037E000BFD4A0FF1F07F5B05303F115031B78322202FB03F31A1D07F5B05303F113031B781A4407F5B05303F113031B781A4407F5DB
:4041C000B05303F117031B78D31A5A1E07F5B05303F11703197807F138031C3B0B44197807F15803043B995407F5B05303F117031B78013307F5B05202F11702137007F5D2
:40420000B05303F117031A7807F5B05303F113031B789A42BED307F5B05303F10E031A78C4491346DB009B1A1B010B44C4331B6818461BF003FB03464FF08F4118461BF039
:4042400005FC03461A4607F138031C3B1A60002307F5B05202F11702137035E007F5B05303F115031B78322202FB03F31A1D07F5B05303F113031B785B001A4407F5B0535B
:4042800003F113031B781A4407F5B05303F117031B78D31A5A1E07F5B05303F11703197807F138031C3B0B44197807F15803043B995407F5B05303F117031B78013307F5A7
:4042C000B05202F11702137007F5B05303F117031A7807F5B05303F113031B789A42BDD3A3E207F5B05303F10E031A7891491346DB009B1A1B010B44D4331B6818461BF04A
:404300009DFA03464FF08F4118461BF09FFB03461A4607F138031C3B1A60002307F5B05202F1170213702EE007F5B05303F115031B78322202FB03F31A1D07F5B05303F111
:4043400013031B781A4407F5B05303F117031B78D31A5A1E07F5B05303F11703197807F138031C3B0B44197807F15803043B995407F5B05303F117031B78013307F5B052D8
:4043800002F11702137007F5B05303F117031A7807F5B05303F113031B789A42C4D307F5B05303F10E031A7862491346DB009B1A1B010B44D8331B6818461BF03FFA0346B2
:4043C0004FF08F4118461BF041FB03461A4607F138031C3B1A60002307F5B05202F11702137034E007F5B05303F115031B78322202FB03F31A1D07F5B05303F113031B78E0
:404400001A4407F5B05303F113031B781A4407F5B05303F117031B78D31A5A1E07F5B05303F11703197807F138031C3B0B44197807F15803043B995407F5B05303F117038B
:404440001B78013307F5B05202F11702137007F5B05303F117031A7807F5B05303F113031B789A42BED307F5B05303F10E031A7830491346DB009B1A1B010B44DC331B684B
:4044800018461BF0DBF903464FF08F4118461BF0DDFA03461A4607F138031C3B1A60002307F5B05202F11702137035E007F5B05303F115031B78322202FB03F31A1D07F59D
:4044C000B05303F113031B785B001A4407F5B05303F113031B781A4407F5B05303F117031B78D31A5A1E07F5B05303F11703197807F138031C3B0B44197807F15803043BCA
:40450000995407F5B05303F117031B78013307F5B05202F11702137007F5B05303F117031A7807F5B05303F113031B789A42BDD37BE100BFD4A0FF1F07F5B05303F10E03D5
:404540001A78B7491346DB009B1A1B010B4403F588731B78184607F5B05303F117031A78B04903465B0003449B001344663351F8231007F5B05303F10E031A78A848134608
:40458000DB009B1A1B01034403F588731B781C4607F5B05303F117031A78A24823465B0023441B010344134403F295131B7841FA03F31AB207F138031E3B1A80002307F540
:4045C000B05202F1160213703BE007F5B05303F115031B78322202FB03F31A1D07F5B05303F117031B7807F5B05101F11301097801FB03F31A4407F5B05303F113031B78E4
:404600001A4407F5B05303F116031B78D31A5A1E07F5B05303F11603197807F138031E3B0B44197807F15803043B995407F5B05303F116031B78013307F5B05202F11602B4
:40464000137007F5B05303F116031A7807F5B05303F113031B789A42B7D3E6E007F5B05303F10E031A786F491346DB009B1A1B010B44E433196807F5B05303F10E031A7881
:4046800067481346DB009B1A1B01034403F588731B781846634A03465B0003441B01134403F295131B7841FA03F207F11803043B1A60002307F5B05202F1160213702EE027
:4046C00007F5B05303F115031B78322202FB03F31A1D07F5B05303F113031B781A4407F5B05303F116031B78D31A5A1E07F5B05303F11603197807F11803043B0B441978D1
:4047000007F15803043B995407F5B05303F116031B78013307F5B05202F11602137007F5B05303F116031A7807F5B05303F113031B789A42C4D307F5B05303F10E031A7858
:4047400038491346DB009B1A1B010B44E833196807F5B05303F10E031A7831481346DB009B1A1B01034403F588731B7818462D4A03465B0003441B01134403F295131B7884
:4047800041FA03F207F11803043B1A60002307F5B05202F11602137034E007F5B05303F115031B78322202FB03F31A1D07F5B05303F113031B781A4407F5B05303F113031B
:4047C0001B781A4407F5B05303F116031B78D31A5A1E07F5B05303F11603197807F11803043B0B44197807F15803043B995407F5B05303F116031B78013307F5B05202F1B2
:404800001602137007F5B05303F116031A7807F5B05303F113031B789A42BED305E000BFA4A5FF1FD4A0FF1F00BF07F5B05303F115031B789B0007F5B15202F1140212681F
:4048400013441A6807F13803183B114618461CF035F807F13803183B18461CF074F8034607F5B05202F11202137007F5B05303F115031A7807F11803103B1B6813441B7856
:40488000002B40F0C58407F5B05303F114031B7807F5B15202F11002126813441B78013B0B2B00F2A78401A252F823F0DD480000874A00005D4B0000B14B0000154C0000C5
:4048C000714C00008D4D0000154E0000A94E0000214F0000335000007351000007F5B05303F108031B681B78072B00F27C8401A252F823F015490000394900005F49000050
:404900008D490000B9490000E3490000174A0000414A000007F13803183B18461CF013F803461A4607F13803183B1344DA4A1068186012791A71A5E007F13803183B184673
:404940001CF001F803461A4607F13803183B1344D2491A460B4603CB1060516092E007F13803183B18461BF0EEFF03461A4607F13803183B1344CA4A1D4614460FCC2860E9
:404980006960AA60EB6023882B827BE007F13803183B18461BF0D7FF03461A4607F13803183B1344BF4A1C46134607CB20606160A2601B88A38165E007F13803183B184612
:4049C0001BF0C1FF03461A4607F13803183B1344B5491A460B4603CB106051601B88138150E007F13803183B18461BF0ACFF03461A4607F13803183B1344AC4A1D4614468E
:404A00000FCC28606960AA60EB602388A2782B821346AB7436E007F13803183B18461BF092FF03461A4607F13803183B1344A0491A460B4603CB106051601B88138121E02E
:404A400007F13803183B18461BF07DFF03461A4607F13803183B1344964A14469E4604F1200C754626460FCE28606960AA60EB6010340EF1100E6445F3D1724623461B88CA
:404A8000138000BFAFE307F5B05303F108031B681B78032B00F2A98301A252F823F000BFB14A0000DB4A0000FF4A0000294B000007F13803183B18461BF045FF03461A463A
:404AC00007F13803183B13447B491A460B4603CB106051601B8813813FE007F13803183B18461BF030FF03461A4607F13803183B1344724A1068186012791A712DE007F1B4
:404B00003803183B18461BF01EFF03461A4607F13803183B13446A491A460B4603CB106051601B78137218E007F13803183B18461BF009FF03461A4607F13803183B1344FB
:404B4000604A1D4614460FCC28606960AA60EB6020682861A388AB8200BF46E307F5B05303F108031B681B78002B11D007F13803183B18461BF0E7FE03461A4607F138032C
:404B8000183B1344504A1068186012791A7131E307F13803183B18461BF0D5FE03461A4607F13803183B1344484A1068186021E307F5B05303F108031B681B78002B02D0B8
:404BC000012B14D016E307F13803183B18461BF0BAFE03461A4607F13803183B13443C4A106818609188927999809A7111E007F13803183B18461BF0A6FE03461A4607F19C
:404C00003803183B1344334A1068186092889A8000BFEFE207F5B05303F108031B681B78002B02D0012B12D0E4E207F13803183B18461BF088FE03461A4607F13803183BD5
:404C40001344254A1068186012791A710FE007F13803183B18461BF076FE03461A4607F13803183B13441D4A1068186000BFC1E207F5B05303F108031B681B78032B00F2A3
:404C8000B68201A252F823F0E14C0000054D0000314D00005F4D000040270200482702005027020064270200742702008027020094270200A0270200C4270200D027020081
:404CC000D8270200E4270200FC270200042802000C280200142802001C2802002428020007F13803183B18461BF02DFE03461A4607F13803183B1344D34A10681860928884
:404D00009A8042E007F13803183B18461BF01BFE03461A4607F13803183B1344CB4A1C46134607CB20606160A2601B88A3812CE007F13803183B18461BF005FE03461A4656
:404D400007F13803183B1344C14A1D4614460FCC28606960AA60EB6023882B8215E007F13803183B18461BF0EEFD03461A4607F13803183B1344B74A1C46134607CB206052
:404D80006160A2601B78237300BF30E207F5B05303F108031B681B78012B16D0022B26D0002B00D035E007F13803183B18461BF0CAFD03461A4607F13803183B1344A24AB5
:404DC0001068186092889A8023E007F13803183B18461BF0B8FD03461A4607F13803183B13449D4A1068186012791A7111E007F13803183B18461BF0A6FD03461A4607F151
:404E00003803183B1344954A1068186092889A8000BFEFE107F5B05303F108031B681B78012B1AD0022B2CD0002B00D0E2E107F13803183B18461BF086FD03461A4607F1D7
:404E40003803183B1344864A1C46134607CB20606160A2601B88A38125E007F13803183B18461BF070FD03461A4607F13803183B13447C4A106818609188927999809A7101
:404E800011E007F13803183B18461BF05CFD03461A4607F13803183B1344734A1068186092889A8000BFA5E107F5B05303F108031B681B78002B02D0012B17D09AE107F176
:404EC0003803183B18461BF03EFD03461A4607F13803183B1344654A1D4614460FCC28606960AA60EB602068286118E007F13803183B18461BF027FD03461A4607F1380315
:404F0000183B13445A4A1D4614460FCC28606960AA60EB6020682861A388AB8200BF69E107F5B05303F108031B681B78042B00F2608101A252F823F04D4F0000794F0000F9
:404F4000A74F0000D34F0000FD4F000007F13803183B18461BF0F7FC03461A4607F13803183B1344434A1C46134607CB20606160A2601B88A3815BE007F13803183B184622
:404F80001BF0E1FC03461A4607F13803183B1344394A1D4614460FCC28606960AA60EB6023882B8244E007F13803183B18461BF0CAFC03461A4607F13803183B13442F4A92
:404FC0001C46134607CB20606160A2601B88A3812EE007F13803183B18461BF0B4FC03461A4607F13803183B1344254A1C4615460FCD20606160A260E36019E007F138032D
:40500000183B18461BF09FFC03461A4607F13803183B13441B4A1D4614460FCC28606960AA60EB602388A2782B821346AB7400BFDFE007F5B05303F108031B681B78002B49
:4050400022D0012B5AD0D5E02C280200342802004428020058280200682802007028020078280200882802009028020098280200B0280200C8280200D8280200EC280200AF
:40508000FC28020010290200D24B93F8AC30042B18D107F13803183B18461BF054FC03461A4607F13803183B1344CB4A1D4614460FCC28606960AA60EB6020682861A3889F
:4050C000AB8255E007F13803183B18461BF03BFC03461A4607F13803183B1344BF4A1C4615460FCD20606160A260E36028682061AB88AA79A3821346A37539E0B54B93F8D9
:40510000AC30042B18D107F13803183B18461BF01AFC03461A4607F13803183B1344B04A1D4614460FCC28606960AA60EB6020682861A388AB821AE007F13803183B184671
:405140001BF001FC03461A4607F13803183B1344A44A1C4615460FCD20606160A260E36028682061AB88AA79A3821346A37500BF40E007F5B05303F108031B681B78002B79
:4051800002D0012B17D035E007F13803183B18461BF0D9FB03461A4607F13803183B1344914A1D4614460FCC28606960AA60EB602068286116E007F13803183B18461BF09D
:4051C000C2FB03461A4607F13803183B1344874A1D4614460FCC28606960AA60EB602068286100BF06E000BF04E000BF02E000BF00E000BF07F13803183B18461BF0A3FB78
:405200000346DBB2013307F5B05202F11202137007F5B05303F112031B7807F5B05202F11702137045E007F5B05303F115031B78322202FB03F31A1D07F5B05303F113036A
:40524000197807F5B05303F11503187807F11803143B1B6803441B7803FB01F31A4407F5B05303F112031B781A4407F5B05303F117031B78D21A07F5B05303F112031978D5
:4052800007F5B05303F117031B78C91A07F13803183B595C07F15803043B995407F5B05303F117031B78013B07F5B05202F11702137007F5B05303F117031B78002BB2D1FA
:4052C00007F5B05303F115031A7807F11803103B1B6813441B78002B3CD107F5B05303F115031B78322202FB03F31A1D07F5B05303F11303197807F5B05303F115031878BD
:4053000007F11803143B1B6803441B7803FB01F31A4407F5B05303F112031B781A4407F5B05303F114031B7807F5B15101F1100109680B44197807F15803043B995407F5FB
:40534000B05303F114031B78013307F5B05202F11402137007F5B05303F115031A7807F11803103B1B6813441B78002B40D107F5B05303F115031B78322202FB03F31A1D0E
:4053800007F5B05303F11303197807F5B05303F11503187807F11803143B1B6803441B7803FB01F31A4407F5B05303F112031B7813449A1C07F5B05303F11503197807F16D
:4053C0001803183B1B680B44197807F15803043B99543FE0D4A0FF1F242902003C290200542902006C290200842902009C29020007F5B05303F115031B78322202FB03F385
:405400001A1D07F5B05303F11303197807F5B05303F11503187807F11803143B1B6803441B7803FB01F31A4407F5B05303F112031B7813445A1C07F5B05303F115031978ED
:4054400007F11803183B1B680B44197807F15803043B995407F5B05303F115031B78013307F5B05202F11502137007F5B05303F115031B784C2B7DF60EA8002307F5B05228
:4054800002F11602137071E007F5B05303F116031B789B0007F5B15202F11C02126813441B6818461BF04FFA034607F5B05202F11202137007F5B05303F112031B7807F555
:4054C000B05202F1170213703EE007F5B05303F116031B78962202FB03F303F60C7207F5B05303F112031B781A4407F5B05303F117031B78D21A07F5B05303F116031B7818
:405500009B0007F5B15101F11C0109680B441B6807F5B05101F11201087807F5B05101F117010978411A0B44197807F15803043B995407F5B05303F117031B78013B07F5E4
:40554000B05202F11702137007F5B05303F117031B78002BB9D107F5B05303F116031B78013307F5B05202F11602137007F5B05303F116031B780A2B86D907F5B05303F1C0
:4055800010031B885C1E07F5B05303F110031B88DBB2013BDAB207F15803043B1146184607F026FE03461A4607F15803043B1A5507F5B05303F110031A8807F15803043B77
:4055C0001146184607F080FD00BF07F5B0571C37BD46F0BDB0B5ADF5B36D04AF0246BB1D1A80002387F87D35012387F87C35054BC7F88035BB1D1B88002B07D0024BC7F834
:40560000803503E0D4A0FF1FA4A5FF1FD7F8803503F1A00207F21C431A6097F87D251346DB009B1A1B01B033D7F880251A4407F21C435A6097F87D251346DB009B1A1B01BA
:40564000B833D7F8802513441A1D07F21C439A6097F87D251346DB009B1A1B01E033D7F880251A4407F21C43DA6097F87D251346DB009B1A1B0103F58473D7F8802513444E
:405680009A1D07F21C431A6197F87D251346DB009B1A1B0103F58473D7F880251344DA1D07F21C435A6197F87D25D7F880151346DB009B1A1B010B4403F588731B781A4697
:4056C00013465B0013441B0103F5C873D7F8802513445A1D07F21C439A6197F87D25D7F880151346DB009B1A1B010B4403F588731B781A4613465B0013441B0103F5CC738E
:40570000D7F880251A4407F21C43DA6197F87D25D7F880151346DB009B1A1B010B4403F588731B781A4613465B0013441B0103F5D073D7F8802513441A1D07F21C431A62FD
:4057400097F87D251346DB009B1A1B01E033D7F880251344DA1C07F21C435A6297F87D251346DB009B1A1B01E033D7F8802513441A1D07F21C439A6297F87D251346DB0007
:405780009B1A1B01E833D7F8802513441A1D07F21C43DA6297F87D251346DB009B1A1B0103F58473D7F8802513441A1D07F21C431A63D7F8803503F5F87207F21C435A6370
:4057C000D7F8803503F5FF7207F21C439A63D7F8803503F5FA7207F21C43DA63D7F8803503F5FE7207F21C431A6497F87D25D7F880151346DB009B1A1B010B4403F588734C
:405800001B781A4613465B0013441B0103F5D873D7F880251A4407F21C435A6497F87D25D7F880151346DB009B1A1B010B4403F588731B781A4613465B0013441B0103F535
:40584000D873D7F8802513441A1D07F21C439A6497F87D251346DB009B1A1B01E033D7F8802513445A1C07F21C43DA6497F87D251346DB009B1A1B01F033D7F88025134441
:405880001A1D07F21C431A65D7F8803503F1A10207F21C435A65D7F8803503F5287207F21C439A65D7F8803503F5297207F21C43DA65D7F8803503F52A7207F21C431A669D
:4058C000D7F8803503F52B7207F21C435A66D7F8803503F2FF1207F21C439A66D7F8803503F1A70207F21C43DA66D7F8803503F5007207F21C431A67D7F8803503F2262254
:4059000007F21C435A67D7F8803503F1A80207F21C439A67D7F8803503F5087207F21C43DA67D7F8803503F2012207F21C43C3F88020D7F8803503F2022207F21C43C3F845
:405940008420D7F8803503F1AB0207F21C43C3F88820D7F8803593F8AB3012335B01D7F880251A4407F21C43C3F88C2097F87D251346DB009B1A1B0103F58873D7F88025EA
:405980001A4407F21C43C3F8902097F87D251346DB009B1A1B01E033D7F8802513449A1C07F21C43C3F8942097F87D251346DB009B1A1B0103F58873D7F8802513445A1CCB
:4059C00007F21C43C3F8982097F87D251346DB009B1A1B0103F58873D7F8802513449A1C07F21C43C3F89C2097F87D25D7F880151346DB009B1A1B010B4403F588731B78F4
:405A00001A4613465B0013441B0103F5D873D7F8802513445A1C07F21C43C3F8A02097F87D25D7F880151346DB009B1A1B010B4403F588731B781A4613465B0013441B0192
:405A400003F5D873D7F8802513445A1D07F21C43C3F8A420D7F8803503F1A90207F21C43C3F8A82097F87C251346DB009B1A1B01B033D7F880251A4407F21C43C3F8AC2003
:405A800097F87C251346DB009B1A1B01B833D7F8802513441A1D07F21C43C3F8B02097F87C251346DB009B1A1B01E033D7F880251A4407F21C43C3F8B42097F87C25134657
:405AC000DB009B1A1B0103F58473D7F8802513449A1D07F21C43C3F8B82097F87C251346DB009B1A1B0103F58473D7F880251344DA1D07F21C43C3F8BC2097F87C25D7F8CA
:405B000080151346DB009B1A1B010B4403F588731B781A4613465B0013441B0103F5C873D7F8802513445A1D07F21C43C3F8C02097F87C25D7F880151346DB009B1A1B016E
:405B40000B4403F588731B781A4613465B0013441B0103F5CC73D7F880251A4407F21C43C3F8C42097F87C25D7F880151346DB009B1A1B010B4403F588731B781A461346A2
:405B80005B0013441B0103F5D073D7F8802513441A1D07F21C43C3F8C82097F87C251346DB009B1A1B01E033D7F880251344DA1C07F21C43C3F8CC2097F87C251346DB0073
:405BC0009B1A1B01E033D7F8802513441A1D07F21C43C3F8D02097F87C251346DB009B1A1B01E833D7F8802513441A1D07F21C43C3F8D42097F87C251346DB009B1A1B012E
:405C000003F58473D7F8802513441A1D07F21C43C3F8D82097F87C25D7F880151346DB009B1A1B010B4403F588731B781A4613465B0013441B0103F5D873D7F880251A445E
:405C400007F21C43C3F8DC2097F87C25D7F880151346DB009B1A1B010B4403F588731B781A4613465B0013441B0103F5D873D7F8802513441A1D07F21C43C3F8E02097F839
:405C80007C251346DB009B1A1B01E033D7F8802513445A1C07F21C43C3F8E42097F87C251346DB009B1A1B01F033D7F8802513441A1D07F21C43C3F8E82097F87C251346D5
:405CC000DB009B1A1B0103F58873D7F880251A4407F21C43C3F8EC2097F87C251346DB009B1A1B01E033D7F8802513449A1C07F21C43C3F8F02097F87C251346DB009B1A0F
:405D00001B0103F58873D7F8802513445A1C07F21C43C3F8F42097F87C251346DB009B1A1B0103F58873D7F8802513449A1C07F21C43C3F8F82097F87C25D7F8801513462B
:405D4000DB009B1A1B010B4403F588731B781A4613465B0013441B0103F5D873D7F8802513445A1C07F21C43C3F8FC2097F87C25D7F880151346DB009B1A1B010B4403F588
:405D800088731B781A4613465B0013441B0103F5D873D7F8802513445A1D07F21C43C3F80021D7F8803503F5C87207F21C43C3F80421D7F8803503F5E07207F21C43C3F846
:405DC0000821D7F8803503F2272207F21C43C3F80C21D7F8803503F50A7207F21C43C3F81021D7F8803503F22E2207F21C43C3F81421D7F8803503F50D7207F21C43C3F81D
:405E00001821D7F8803503F52C7207F21C43C3F81C21D7F8803503F2B22207F21C43C3F82021D7F8803503F52D7207F21C43C3F82421D7F8803503F1AC0207F21C43C3F872
:405E40002821D7F8803503F5387207F21C43C3F82C21D7F8803503F2E22207F21C43C3F83021D7F8803503F2E62207F21C43C3F83421D7F8803503F5307207F21C43C3F858
:405E80003821D7F8803503F2C12207F21C43C3F83C21D7F8803503F5347207F21C43C3F84021D7F8803503F5357207F21C43C3F84421D7F8803503F5367207F21C43C3F855
:405EC000482107F57273F64A1846114653231A4619F020FF07F55D7301221A7007F55D7303225A7007F55D7303229A7007F55D730122DA7007F55D7301221A7107F55D73B7
:405F000001225A7107F55D7303229A7107F55D730322DA7107F55D7303221A7207F55D7301225A7207F55D7302229A7207F55D730222DA7207F55D7301221A7307F55D7383
:405F400002225A7307F55D7301229A7307F55D730222DA7307F55D7302221A7407F55D7301225A7407F55D7301229A7407F55D730122DA7407F55D7306221A7507F55D7333
:405F800003225A7507F55D7301229A7507F55D730122DA7507F55D7301221A7607F55D7301225A7607F55D7301229A7607F55D730122DA7607F55D7301221A7707F55D73E9
:405FC00001225A7707F55D7301229A7707F55D730622DA7707F55D73012283F8202007F55D73052283F8212007F55D73012283F8222007F55D73062283F8232007F55D73E5
:40600000012283F8242007F55D73012283F8252007F55D73012283F8262007F55D73012283F8272007F55D73032283F8282007F55D73032283F8292007F55D73012283F89B
:406040002A2007F55D73032283F82B2007F55D73032283F82C2007F55D73012283F82D2007F55D73012283F82E2007F55D73012283F82F2007F55D73032283F8302007F587
:406080005D73032283F8312007F55D73032283F8322007F55D73012283F8332007F55D73022283F8342007F55D73022283F8352007F55D73012283F8362007F55D73012276
:4060C00083F8372007F55D73012283F8382007F55D73012283F8392007F55D73062283F83A2007F55D73012283F83B2007F55D73012283F83C2007F55D73012283F83D202E
:4061000007F55D73012283F83E2007F55D73032283F83F2007F55D73032283F84020614B1A7807F55D7383F841205E4B5A7807F55D7383F8422007F55D73012283F8432029
:4061400007F55D73062283F8442007F55D73062283F8452007F55D73012283F8462007F55D73012283F8472007F55D73012283F8482007F55D73022283F8492007F55D7365
:40618000012283F84A2007F55D73012283F84B2007F55D73022283F84C2007F55D73012283F84D2007F55D73012283F84E2007F55D73012283F84F2007F55D73012283F839
:4061C000502007F55D73012283F8512007F55D73012283F8522007F5487300221A7097F87D350A33DAB207F548735A7097F87D350A33DAB207F548739A7097F87D350A3341
:40620000DAB207F54873DA7097F87D350A33DAB207F548731A7197F87D350A33DAB207F548735A7197F87D25D7F880151346DB009B1A1B010B4403F588731B781433DAB2B7
:4062400007F548739A7197F87D25D7F880151346DB009B1A1B010B4403F588731B781433DAB207F54873DA7197F87D25D7F880151346DB009B1A1B010B4403F588731B78A9
:406280001433DAB207F548731A7297F87D350A33DAB207F548735A7297F87D3504E000BF642D0200D49FFF1F0A33DAB207F548739A7297F87D350A33DAB207F54873DA729A
:4062C00097F87D350A33DAB207F548731A7307F548731E225A7307F548731E229A7307F548731E22DA7307F548731E221A7497F87D25D7F880151346DB009B1A1B010B44D6
:4063000003F588731B781433DAB207F548735A7497F87D25D7F880151346DB009B1A1B010B4403F588731B781433DAB207F548739A7497F87D350A33DAB207F54873DA7469
:4063400097F87D350A33DAB207F548731A7507F5487300225A7507F5487346229A7507F548734622DA7507F5487346221A7607F5487346225A7607F548731E229A7607F5E8
:4063800048730022DA7607F5487328221A7707F5487332225A7707F5487300229A7707F548733222DA7707F54873282283F8202007F54873282283F8212007F548730022AA
:4063C00083F82220D7F8803593F8AB303C33DAB207F5487383F8232097F87D350A33DAB207F5487383F8242097F87D350A33DAB207F5487383F8252097F87D350A33DAB27B
:4064000007F5487383F8262097F87D350A33DAB207F5487383F8272097F87D25D7F880151346DB009B1A1B010B4403F588731B781433DAB207F5487383F8282097F87D2574
:40644000D7F880151346DB009B1A1B010B4403F588731B781433DAB207F5487383F8292007F54873002283F82A2097F87C350A33DAB207F5487383F82B2097F87C350A33EF
:40648000DAB207F5487383F82C2097F87C350A33DAB207F5487383F82D2097F87C350A33DAB207F5487383F82E2097F87C350A33DAB207F5487383F82F2097F87C25D7F838
:4064C00080151346DB009B1A1B010B4403F588731B781433DAB207F5487383F8302097F87C25D7F880151346DB009B1A1B010B4403F588731B781433DAB207F5487383F865
:40650000312097F87C25D7F880151346DB009B1A1B010B4403F588731B781433DAB207F5487383F8322097F87C350A33DAB207F5487383F8332097F87C350A33DAB207F5B2
:40654000487383F8342097F87C350A33DAB207F5487383F8352097F87C350A33DAB207F5487383F8362097F87C25D7F880151346DB009B1A1B010B4403F588731B781433BB
:40658000DAB207F5487383F8372097F87C25D7F880151346DB009B1A1B010B4403F588731B781433DAB207F5487383F8382097F87C350A33DAB207F5487383F8392097F8D8
:4065C0007C350A33DAB207F5487383F83A2097F87C350A33DAB207F5487383F83B2097F87C350A33DAB207F5487383F83C2097F87C350A33DAB207F5487383F83D2097F841
:406600007C350A33DAB207F5487383F83E2097F87C25D7F880151346DB009B1A1B010B4403F588731B781433DAB207F5487383F83F2097F87C25D7F880151346DB009B1A01
:406640001B010B4403F588731B781433DAB207F5487383F8402007F54873142283F8412007F54873152283F8422007F54873322283F8432007F54873322283F8442007F561
:406680004873322283F8452007F54873322283F8462007F548736E2283F8472007F548736E2283F8482007F548736E2283F8492007F54873002283F84A2007F54873642286
:4066C00083F84B2007F54873642283F84C2007F54873642283F84D2007F54873502283F84E2007F54873502283F84F2007F548735A2283F8502007F548735A2283F8512009
:4067000007F548735A2283F8522007F5EA73CE4A184611464FF4A6731A4619F0FBFA07F5AE7300221A60043372220021184619F0FCFA07F5AE7064230A22C4491AF0BEF8BD
:4067400007F5927300221A60043334220021184619F0EBFAD7F8803593F8AC30042B10D107F59273BA4A1C4615460FCD0FC40FCD0FC40FCD0FC495E80300206004342170EF
:4067800012E007F59273B34A1C4615460FCD0FC40FCD0FC40FCD0FC495E8030020600434218002340B0C237007F1F403AA4A1A6007F1F403A94A5A6007F1F403A84A9A6092
:4067C00007F1F403A74ADA6007F1F403A64A1A6107F1F403A54A5A6107F1F40307F5AE729A6107F1F403A24ADA6107F1F403A14A1A6207F1F403A04A5A6207F1F40307F59A
:4068000092729A6207F1F4039C4ADA6207F1D4039B4A1C46154628686968AA68EB680FC428696969AA69EB690FC407F1C803954A1068516803C3127A1A7007F1B403924A66
:406840001C46154628686968AA68EB680FC42B8A2380232387F87B35002387F88635002387F8873521E097F8863507F1C802D35C1A4697F8873501339A420BD197F887351C
:4068800007F160020121D15497F88635013387F8863505E097F8873507F160020021D15497F88735013387F8873597F88735522BD9D9002387F88635002387F8873521E0BF
:4068C00097F8863507F1B402D35C1A4697F8873501339A420BD197F8873507F10C020121D15497F88635013387F8863505E097F8873507F10C020021D15497F8873501338F
:4069000087F8873597F88735522BD9D9BB1D1B88002B17D107F5487407F55D7207F5727107F21C4007F1F403039307F16003029307F5EA73019307F1D40300932346FBF73E
:4069400033FDDFE2BB1D1B88DBB2013B87F87A3597F87A3507F57272D35C092B22D801A252F823F08D6900008D6900008D69000095690000956900009D6900009D6900004F
:406980009D690000A56900008D690000012387F8853507E0022387F8853503E0042387F8853500BF97F87A3507F10C02D35C002B40F03B8297F87A3507F57272D35C092B1D
:4069C00000F23C8201A252F823F000BFF5690000F36A0000F5690000456B0000DB6B00006F6C0000036D0000976D00003D6E0000416A0000002387F8873517E097F87A25F1
:406A000007F21C4353F8223097F8872597F8851501FB02F2134497F8872503321B498A5C1A7097F88735013387F8873597F87A3507F55D72D35C97F887259A42DED3FEE1D9
:406A4000002387F887353BE04C360200B4290200282A0200602A0200982A0200242B0200642B0200902B0200A82B0200D02B02002C2C02006C2C0200B42C0200302D0200F0
:406A800098370200B8370200C43702007895FF1F97F87A2507F21C4353F8223097F8872597F8851501FB02F2134497F887250332E1498A5C1A7097F88735013387F887355A
:406AC00097F87A3507F55D72D35C97F887259A42DED397F87A2507F21C4353F8223097F8872597F8851501FB02F2134400221A70A5E1002387F887351AE097F87A2507F217
:406B00001C4353F8223097F8872597F8851501FB02F2134497F887250332C7490A4492F90020D2B21A7097F88735013387F8873597F87A3507F55D72D35C97F887259A421E
:406B4000DBD37CE1002387F887353CE097F8873597F8852502FB03F30333B74A1344B3F90030A7F87835002387F8863520E097F87A2507F21C4353F8222097F8873597F819
:406B8000851501FB03F3184697F8851597F88635CB1A0344013B134497F8862507F5AF610A4412781A7097F88635013387F8863597F8862597F885359A42D8D397F8873504
:406BC000013387F8873597F87A3507F55D72D35C97F887259A42B9D331E1002387F887353BE097F8873597F8852502FB03F30333914A13441B88A7F87635002387F8863597
:406C000020E097F87A2507F21C4353F8222097F8873597F8851501FB03F3184697F8851597F88635CB1A0344013B134497F8862507F276510A4412781A7097F88635013371
:406C400087F8863597F8862597F885359A42D8D397F88735013387F8873597F87A3507F55D72D35C97F887259A42BAD3E7E0002387F887353BE097F8873597F8852502FB79
:406C800003F303336C4A13441B68C7F87035002387F8863520E097F87A2507F21C4353F8222097F8873597F8851501FB03F3184697F8851597F88635CB1A0344013B13444E
:406CC00097F8862507F5AE610A4412781A7097F88635013387F8863597F8862597F885359A42D8D397F88735013387F8873597F87A3507F55D72D35C97F887259A42BAD395
:406D00009DE0002387F887353BE097F8873597F8852502FB03F30333474A13441B68C7F86C35002387F8863520E097F87A2507F21C4353F8222097F8873597F8851501FB05
:406D400003F3184697F8851597F88635CB1A0344013B134497F8862507F26C510A4412781A7097F88635013387F8863597F8862597F885359A42D8D397F88735013387F87B
:406D8000873597F87A3507F55D72D35C97F887259A42BAD353E0002387F887353BE097F8873597F8852502FB03F30333224A13441B68C7F86835002387F8863520E097F854
:406DC0007A2507F21C4353F8222097F8873597F8851501FB03F3184697F8851597F88635CB1A0344013B134497F8862507F5AD610A4412781A7097F88635013387F88635BB
:406E000097F8862597F885359A42D8D397F88735013387F8873597F87A3507F55D72D35C97F887259A42BAD309E0BB1D1B88184600F070F803E000BF7895FF1F00BF97F87D
:406E40007B359BB2BA1D12889A4211D0D7F8803593F8AB305B0103F51273D7F88025D018D7F8803503F5F8731022194618F052FF97F87A3507F57272D35C002B42D1002349
:406E800087F87F35FF2387F87E3597F87F3507F57272D35C002B04D197F87E35013387F87E3597F87F35013387F87F3597F87F2597F87A359A42E8D997F87E3507F1D40289
:406EC000D35C052B1BD097F87E3507F1D402D35C062B14D097F87E3507F1D402D35C082B0DD097F87E3507F1D402D35C092B06D097F87E3507F1D402D35C0A2B02D1044BC6
:406F000001221A7000BF07F5B167BD46B0BD00BF5582FF1FF0B587B000AF0346FB8000233B750123FB74FB88023B492B01F2268201A252F823F000BF617000009372000094
:406F40007D830000D97400007D8300007D830000237500007D8300007D830000597600007D8300007D8300007D8300007D8300007D8300007D8300007D8300007D8300005D
:406F80007D8300007D8300007D83000059770000B77700007D8300007D8300007D830000F17700007D8300007D8300006D790000197A00007D8300007D8300007D830000F2
:406FC0007D8300007D830000537A00007D8300007D8300007D8300007D8300007D8300008D7A0000D37C00007D830000017F00007D8300007D830000697F00007D83000006
:407000007D8300007D8000007D8300007D8300007D8300007D8300007D8300007D8300007D8300007B8100007D8300007D8300007D8300007D8300007D8300007D83000057
:407040007D8300007D8300007D8300007D8300007D8300007D8300007D830000C58100003A7DAB491346DB009B1A1B010B4403F20F131B78032B00F08680A64B1B68FB602E
:407080000023BB750EE0BB7DC3F1030307F108021344BA7D07F10C010A4412781A70BB7D0133BB75BB7D032BEDD93C7DBB684FF08F41184618F016FC0346184618F0D8FDF7
:4070C0000146954A2346DB001B1B1B011344B0331960924B1B68FB600023BB750EE0BB7DC3F1030307F108021344BA7D07F10C010A4412781A70BB7D0133BB75BB7D032B3A
:40710000EDD93C7DBB684FF08F41184618F0EAFB0346184618F0ACFD01467F4A2346DB001B1B1B011344B43319607D4B1B68FB600023BB750EE0BB7DC3F1030307F10802C3
:407140001344BA7D07F10C010A4412781A70BB7D0133BB75BB7D032BEDD93C7DBB684FF08F41184618F0BEFB0346184618F080FD0146694A2346DB001B1B1B011344B8334A
:40718000196001F006B9634B1B68FB600023BB750EE0BB7DC3F1030307F108021344BA7D07F10C010A4412781A70BB7D0133BB75BB7D032BEDD93C7DBB684FF08F411846DF
:4071C00018F090FB0346184618F052FD0146524A2346DB001B1B1B011344C83319604F4B1B68FB600023BB750EE0BB7DC3F1030307F108021344BA7D07F10C010A441278A2
:407200001A70BB7D0133BB75BB7D032BEDD93C7DBB684FF08F41184618F064FB0346184618F026FD01463C4A2346DB001B1B1B011344CC3319603A4B1B68FB600023BB7592
